{
	".deps/github/OpenZeppelin/openzeppelin-contracts/contracts/token/ERC721/ERC721.sol": {
		"ERC721": {
			"abi": [
				{
					"inputs": [
						{
							"internalType": "string",
							"name": "name_",
							"type": "string"
						},
						{
							"internalType": "string",
							"name": "symbol_",
							"type": "string"
						}
					],
					"stateMutability": "nonpayable",
					"type": "constructor"
				},
				{
					"anonymous": false,
					"inputs": [
						{
							"indexed": true,
							"internalType": "address",
							"name": "owner",
							"type": "address"
						},
						{
							"indexed": true,
							"internalType": "address",
							"name": "approved",
							"type": "address"
						},
						{
							"indexed": true,
							"internalType": "uint256",
							"name": "tokenId",
							"type": "uint256"
						}
					],
					"name": "Approval",
					"type": "event"
				},
				{
					"anonymous": false,
					"inputs": [
						{
							"indexed": true,
							"internalType": "address",
							"name": "owner",
							"type": "address"
						},
						{
							"indexed": true,
							"internalType": "address",
							"name": "operator",
							"type": "address"
						},
						{
							"indexed": false,
							"internalType": "bool",
							"name": "approved",
							"type": "bool"
						}
					],
					"name": "ApprovalForAll",
					"type": "event"
				},
				{
					"anonymous": false,
					"inputs": [
						{
							"indexed": true,
							"internalType": "address",
							"name": "from",
							"type": "address"
						},
						{
							"indexed": true,
							"internalType": "address",
							"name": "to",
							"type": "address"
						},
						{
							"indexed": true,
							"internalType": "uint256",
							"name": "tokenId",
							"type": "uint256"
						}
					],
					"name": "Transfer",
					"type": "event"
				},
				{
					"inputs": [
						{
							"internalType": "address",
							"name": "to",
							"type": "address"
						},
						{
							"internalType": "uint256",
							"name": "tokenId",
							"type": "uint256"
						}
					],
					"name": "approve",
					"outputs": [],
					"stateMutability": "nonpayable",
					"type": "function"
				},
				{
					"inputs": [
						{
							"internalType": "address",
							"name": "owner",
							"type": "address"
						}
					],
					"name": "balanceOf",
					"outputs": [
						{
							"internalType": "uint256",
							"name": "",
							"type": "uint256"
						}
					],
					"stateMutability": "view",
					"type": "function"
				},
				{
					"inputs": [],
					"name": "baseURI",
					"outputs": [
						{
							"internalType": "string",
							"name": "",
							"type": "string"
						}
					],
					"stateMutability": "view",
					"type": "function"
				},
				{
					"inputs": [
						{
							"internalType": "uint256",
							"name": "tokenId",
							"type": "uint256"
						}
					],
					"name": "getApproved",
					"outputs": [
						{
							"internalType": "address",
							"name": "",
							"type": "address"
						}
					],
					"stateMutability": "view",
					"type": "function"
				},
				{
					"inputs": [
						{
							"internalType": "address",
							"name": "owner",
							"type": "address"
						},
						{
							"internalType": "address",
							"name": "operator",
							"type": "address"
						}
					],
					"name": "isApprovedForAll",
					"outputs": [
						{
							"internalType": "bool",
							"name": "",
							"type": "bool"
						}
					],
					"stateMutability": "view",
					"type": "function"
				},
				{
					"inputs": [],
					"name": "lock",
					"outputs": [
						{
							"internalType": "bool",
							"name": "",
							"type": "bool"
						}
					],
					"stateMutability": "nonpayable",
					"type": "function"
				},
				{
					"inputs": [],
					"name": "name",
					"outputs": [
						{
							"internalType": "string",
							"name": "",
							"type": "string"
						}
					],
					"stateMutability": "view",
					"type": "function"
				},
				{
					"inputs": [
						{
							"internalType": "uint256",
							"name": "tokenId",
							"type": "uint256"
						}
					],
					"name": "ownerOf",
					"outputs": [
						{
							"internalType": "address",
							"name": "",
							"type": "address"
						}
					],
					"stateMutability": "view",
					"type": "function"
				},
				{
					"inputs": [
						{
							"internalType": "address",
							"name": "from",
							"type": "address"
						},
						{
							"internalType": "address",
							"name": "to",
							"type": "address"
						},
						{
							"internalType": "uint256",
							"name": "tokenId",
							"type": "uint256"
						}
					],
					"name": "safeTransferFrom",
					"outputs": [],
					"stateMutability": "nonpayable",
					"type": "function"
				},
				{
					"inputs": [
						{
							"internalType": "address",
							"name": "from",
							"type": "address"
						},
						{
							"internalType": "address",
							"name": "to",
							"type": "address"
						},
						{
							"internalType": "uint256",
							"name": "tokenId",
							"type": "uint256"
						},
						{
							"internalType": "bytes",
							"name": "_data",
							"type": "bytes"
						}
					],
					"name": "safeTransferFrom",
					"outputs": [],
					"stateMutability": "nonpayable",
					"type": "function"
				},
				{
					"inputs": [
						{
							"internalType": "address",
							"name": "operator",
							"type": "address"
						},
						{
							"internalType": "bool",
							"name": "approved",
							"type": "bool"
						}
					],
					"name": "setApprovalForAll",
					"outputs": [],
					"stateMutability": "nonpayable",
					"type": "function"
				},
				{
					"inputs": [
						{
							"internalType": "bytes4",
							"name": "interfaceId",
							"type": "bytes4"
						}
					],
					"name": "supportsInterface",
					"outputs": [
						{
							"internalType": "bool",
							"name": "",
							"type": "bool"
						}
					],
					"stateMutability": "view",
					"type": "function"
				},
				{
					"inputs": [],
					"name": "symbol",
					"outputs": [
						{
							"internalType": "string",
							"name": "",
							"type": "string"
						}
					],
					"stateMutability": "view",
					"type": "function"
				},
				{
					"inputs": [
						{
							"internalType": "uint256",
							"name": "index",
							"type": "uint256"
						}
					],
					"name": "tokenByIndex",
					"outputs": [
						{
							"internalType": "uint256",
							"name": "",
							"type": "uint256"
						}
					],
					"stateMutability": "view",
					"type": "function"
				},
				{
					"inputs": [
						{
							"internalType": "address",
							"name": "owner",
							"type": "address"
						},
						{
							"internalType": "uint256",
							"name": "index",
							"type": "uint256"
						}
					],
					"name": "tokenOfOwnerByIndex",
					"outputs": [
						{
							"internalType": "uint256",
							"name": "",
							"type": "uint256"
						}
					],
					"stateMutability": "view",
					"type": "function"
				},
				{
					"inputs": [
						{
							"internalType": "uint256",
							"name": "tokenId",
							"type": "uint256"
						}
					],
					"name": "tokenURI",
					"outputs": [
						{
							"internalType": "string",
							"name": "",
							"type": "string"
						}
					],
					"stateMutability": "view",
					"type": "function"
				},
				{
					"inputs": [],
					"name": "totalSupply",
					"outputs": [
						{
							"internalType": "uint256",
							"name": "",
							"type": "uint256"
						}
					],
					"stateMutability": "view",
					"type": "function"
				},
				{
					"inputs": [
						{
							"internalType": "address",
							"name": "from",
							"type": "address"
						},
						{
							"internalType": "address",
							"name": "to",
							"type": "address"
						},
						{
							"internalType": "uint256",
							"name": "tokenId",
							"type": "uint256"
						}
					],
					"name": "transferFrom",
					"outputs": [],
					"stateMutability": "nonpayable",
					"type": "function"
				},
				{
					"inputs": [],
					"name": "unlock",
					"outputs": [
						{
							"internalType": "bool",
							"name": "",
							"type": "bool"
						}
					],
					"stateMutability": "nonpayable",
					"type": "function"
				}
			],
			"devdoc": {
				"details": "see https://eips.ethereum.org/EIPS/eip-721",
				"kind": "dev",
				"methods": {
					"approve(address,uint256)": {
						"details": "See {IERC721-approve}."
					},
					"balanceOf(address)": {
						"details": "See {IERC721-balanceOf}."
					},
					"baseURI()": {
						"details": "Returns the base URI set via {_setBaseURI}. This will be automatically added as a prefix in {tokenURI} to each token's URI, or to the token ID if no specific URI is set for that token ID."
					},
					"constructor": {
						"details": "Initializes the contract by setting a `name` and a `symbol` to the token collection."
					},
					"getApproved(uint256)": {
						"details": "See {IERC721-getApproved}."
					},
					"isApprovedForAll(address,address)": {
						"details": "See {IERC721-isApprovedForAll}."
					},
					"name()": {
						"details": "See {IERC721Metadata-name}."
					},
					"ownerOf(uint256)": {
						"details": "See {IERC721-ownerOf}."
					},
					"safeTransferFrom(address,address,uint256)": {
						"details": "See {IERC721-safeTransferFrom}."
					},
					"safeTransferFrom(address,address,uint256,bytes)": {
						"details": "See {IERC721-safeTransferFrom}."
					},
					"setApprovalForAll(address,bool)": {
						"details": "See {IERC721-setApprovalForAll}."
					},
					"supportsInterface(bytes4)": {
						"details": "See {IERC165-supportsInterface}. Time complexity O(1), guaranteed to always use less than 30 000 gas."
					},
					"symbol()": {
						"details": "See {IERC721Metadata-symbol}."
					},
					"tokenByIndex(uint256)": {
						"details": "See {IERC721Enumerable-tokenByIndex}."
					},
					"tokenOfOwnerByIndex(address,uint256)": {
						"details": "See {IERC721Enumerable-tokenOfOwnerByIndex}."
					},
					"tokenURI(uint256)": {
						"details": "See {IERC721Metadata-tokenURI}."
					},
					"totalSupply()": {
						"details": "See {IERC721Enumerable-totalSupply}."
					},
					"transferFrom(address,address,uint256)": {
						"details": "See {IERC721-transferFrom}."
					}
				},
				"title": "ERC721 Non-Fungible Token Standard basic implementation",
				"version": 1
			},
			"evm": {
				"assembly": "    /* \".deps/github/OpenZeppelin/openzeppelin-contracts/contracts/token/ERC721/ERC721.sol\":571:17441  contract ERC721 is Context, ERC165, IERC721, IERC721Metadata, IERC721Enumerable {... */\n  mstore(0x40, 0x80)\n    /* \".deps/github/OpenZeppelin/openzeppelin-contracts/contracts/token/ERC721/ERC721.sol\":1864:1868  true */\n  0x01\n    /* \".deps/github/OpenZeppelin/openzeppelin-contracts/contracts/token/ERC721/ERC721.sol\":1841:1868  bool private _locked = true */\n  0x0a\n  exp(0x0100, 0x00)\n  dup2\n  sload\n  dup2\n  0xff\n  mul\n  not\n  and\n  swap1\n  dup4\n  iszero\n  iszero\n  mul\n  or\n  swap1\n  sstore\n  pop\n    /* \".deps/github/OpenZeppelin/openzeppelin-contracts/contracts/token/ERC721/ERC721.sol\":3626:3995  constructor (string memory name_, string memory symbol_) public {... */\n  callvalue\n  dup1\n  iszero\n  tag_1\n  jumpi\n  0x00\n  dup1\n  revert\ntag_1:\n  pop\n  mload(0x40)\n  sub(codesize, bytecodeSize)\n  dup1\n  bytecodeSize\n  dup4\n  codecopy\n  dup2\n  dup2\n  add\n  0x40\n  mstore\n  0x40\n  dup2\n  lt\n  iszero\n  tag_2\n  jumpi\n  0x00\n  dup1\n  revert\ntag_2:\n  dup2\n  add\n  swap1\n  dup1\n  dup1\n  mload\n  mload(0x40)\n  swap4\n  swap3\n  swap2\n  swap1\n  dup5\n  0x0100000000\n  dup3\n  gt\n  iszero\n  tag_3\n  jumpi\n  0x00\n  dup1\n  revert\ntag_3:\n  dup4\n  dup3\n  add\n  swap2\n  pop\n  0x20\n  dup3\n  add\n  dup6\n  dup2\n  gt\n  iszero\n  tag_4\n  jumpi\n  0x00\n  dup1\n  revert\ntag_4:\n  dup3\n  mload\n  dup7\n  0x01\n  dup3\n  mul\n  dup4\n  add\n  gt\n  0x0100000000\n  dup3\n  gt\n  or\n  iszero\n  tag_5\n  jumpi\n  0x00\n  dup1\n  revert\ntag_5:\n  dup1\n  dup4\n  mstore\n  0x20\n  dup4\n  add\n  swap3\n  pop\n  pop\n  pop\n  swap1\n  dup1\n  mload\n  swap1\n  0x20\n  add\n  swap1\n  dup1\n  dup4\n  dup4\n  0x00\ntag_6:\n  dup4\n  dup2\n  lt\n  iszero\n  tag_8\n  jumpi\n  dup1\n  dup3\n  add\n  mload\n  dup2\n  dup5\n  add\n  mstore\n  0x20\n  dup2\n  add\n  swap1\n  pop\n  jump(tag_6)\ntag_8:\n  pop\n  pop\n  pop\n  pop\n  swap1\n  pop\n  swap1\n  dup2\n  add\n  swap1\n  0x1f\n  and\n  dup1\n  iszero\n  tag_9\n  jumpi\n  dup1\n  dup3\n  sub\n  dup1\n  mload\n  0x01\n  dup4\n  0x20\n  sub\n  0x0100\n  exp\n  sub\n  not\n  and\n  dup2\n  mstore\n  0x20\n  add\n  swap2\n  pop\ntag_9:\n  pop\n  0x40\n  mstore\n  0x20\n  add\n  dup1\n  mload\n  mload(0x40)\n  swap4\n  swap3\n  swap2\n  swap1\n  dup5\n  0x0100000000\n  dup3\n  gt\n  iszero\n  tag_10\n  jumpi\n  0x00\n  dup1\n  revert\ntag_10:\n  dup4\n  dup3\n  add\n  swap2\n  pop\n  0x20\n  dup3\n  add\n  dup6\n  dup2\n  gt\n  iszero\n  tag_11\n  jumpi\n  0x00\n  dup1\n  revert\ntag_11:\n  dup3\n  mload\n  dup7\n  0x01\n  dup3\n  mul\n  dup4\n  add\n  gt\n  0x0100000000\n  dup3\n  gt\n  or\n  iszero\n  tag_12\n  jumpi\n  0x00\n  dup1\n  revert\ntag_12:\n  dup1\n  dup4\n  mstore\n  0x20\n  dup4\n  add\n  swap3\n  pop\n  pop\n  pop\n  swap1\n  dup1\n  mload\n  swap1\n  0x20\n  add\n  swap1\n  dup1\n  dup4\n  dup4\n  0x00\ntag_13:\n  dup4\n  dup2\n  lt\n  iszero\n  tag_15\n  jumpi\n  dup1\n  dup3\n  add\n  mload\n  dup2\n  dup5\n  add\n  mstore\n  0x20\n  dup2\n  add\n  swap1\n  pop\n  jump(tag_13)\ntag_15:\n  pop\n  pop\n  pop\n  pop\n  swap1\n  pop\n  swap1\n  dup2\n  add\n  swap1\n  0x1f\n  and\n  dup1\n  iszero\n  tag_16\n  jumpi\n  dup1\n  dup3\n  sub\n  dup1\n  mload\n  0x01\n  dup4\n  0x20\n  sub\n  0x0100\n  exp\n  sub\n  not\n  and\n  dup2\n  mstore\n  0x20\n  add\n  swap2\n  pop\ntag_16:\n  pop\n  0x40\n  mstore\n  pop\n  pop\n  pop\n    /* \".deps/github/OpenZeppelin/openzeppelin-contracts/contracts/introspection/ERC165.sol\":768:808  _registerInterface(_INTERFACE_ID_ERC165) */\n  tag_20\n    /* \".deps/github/OpenZeppelin/openzeppelin-contracts/contracts/introspection/ERC165.sol\":435:445  0x01ffc9a7 */\n  0x01ffc9a7\n    /* \".deps/github/OpenZeppelin/openzeppelin-contracts/contracts/introspection/ERC165.sol\":787:807  _INTERFACE_ID_ERC165 */\n  0xe0\n  shl\n    /* \".deps/github/OpenZeppelin/openzeppelin-contracts/contracts/introspection/ERC165.sol\":768:786  _registerInterface */\n  shl(0x20, tag_21)\n    /* \".deps/github/OpenZeppelin/openzeppelin-contracts/contracts/introspection/ERC165.sol\":768:808  _registerInterface(_INTERFACE_ID_ERC165) */\n  0x20\n  shr\n  jump\t// in\ntag_20:\n    /* \".deps/github/OpenZeppelin/openzeppelin-contracts/contracts/token/ERC721/ERC721.sol\":3708:3713  name_ */\n  dup2\n    /* \".deps/github/OpenZeppelin/openzeppelin-contracts/contracts/token/ERC721/ERC721.sol\":3700:3705  _name */\n  0x06\n    /* \".deps/github/OpenZeppelin/openzeppelin-contracts/contracts/token/ERC721/ERC721.sol\":3700:3713  _name = name_ */\n  swap1\n  dup1\n  mload\n  swap1\n  0x20\n  add\n  swap1\n  tag_23\n  swap3\n  swap2\n  swap1\n  tag_24\n  jump\t// in\ntag_23:\n  pop\n    /* \".deps/github/OpenZeppelin/openzeppelin-contracts/contracts/token/ERC721/ERC721.sol\":3733:3740  symbol_ */\n  dup1\n    /* \".deps/github/OpenZeppelin/openzeppelin-contracts/contracts/token/ERC721/ERC721.sol\":3723:3730  _symbol */\n  0x07\n    /* \".deps/github/OpenZeppelin/openzeppelin-contracts/contracts/token/ERC721/ERC721.sol\":3723:3740  _symbol = symbol_ */\n  swap1\n  dup1\n  mload\n  swap1\n  0x20\n  add\n  swap1\n  tag_25\n  swap3\n  swap2\n  swap1\n  tag_24\n  jump\t// in\ntag_25:\n  pop\n    /* \".deps/github/OpenZeppelin/openzeppelin-contracts/contracts/token/ERC721/ERC721.sol\":3828:3868  _registerInterface(_INTERFACE_ID_ERC721) */\n  tag_26\n    /* \".deps/github/OpenZeppelin/openzeppelin-contracts/contracts/token/ERC721/ERC721.sol\":2791:2801  0x80ac58cd */\n  0x80ac58cd\n    /* \".deps/github/OpenZeppelin/openzeppelin-contracts/contracts/token/ERC721/ERC721.sol\":3847:3867  _INTERFACE_ID_ERC721 */\n  0xe0\n  shl\n    /* \".deps/github/OpenZeppelin/openzeppelin-contracts/contracts/token/ERC721/ERC721.sol\":3828:3846  _registerInterface */\n  shl(0x20, tag_21)\n    /* \".deps/github/OpenZeppelin/openzeppelin-contracts/contracts/token/ERC721/ERC721.sol\":3828:3868  _registerInterface(_INTERFACE_ID_ERC721) */\n  0x20\n  shr\n  jump\t// in\ntag_26:\n    /* \".deps/github/OpenZeppelin/openzeppelin-contracts/contracts/token/ERC721/ERC721.sol\":3878:3927  _registerInterface(_INTERFACE_ID_ERC721_METADATA) */\n  tag_27\n    /* \".deps/github/OpenZeppelin/openzeppelin-contracts/contracts/token/ERC721/ERC721.sol\":3123:3133  0x5b5e139f */\n  0x5b5e139f\n    /* \".deps/github/OpenZeppelin/openzeppelin-contracts/contracts/token/ERC721/ERC721.sol\":3897:3926  _INTERFACE_ID_ERC721_METADATA */\n  0xe0\n  shl\n    /* \".deps/github/OpenZeppelin/openzeppelin-contracts/contracts/token/ERC721/ERC721.sol\":3878:3896  _registerInterface */\n  shl(0x20, tag_21)\n    /* \".deps/github/OpenZeppelin/openzeppelin-contracts/contracts/token/ERC721/ERC721.sol\":3878:3927  _registerInterface(_INTERFACE_ID_ERC721_METADATA) */\n  0x20\n  shr\n  jump\t// in\ntag_27:\n    /* \".deps/github/OpenZeppelin/openzeppelin-contracts/contracts/token/ERC721/ERC721.sol\":3937:3988  _registerInterface(_INTERFACE_ID_ERC721_ENUMERABLE) */\n  tag_28\n    /* \".deps/github/OpenZeppelin/openzeppelin-contracts/contracts/token/ERC721/ERC721.sol\":3496:3506  0x780e9d63 */\n  0x780e9d63\n    /* \".deps/github/OpenZeppelin/openzeppelin-contracts/contracts/token/ERC721/ERC721.sol\":3956:3987  _INTERFACE_ID_ERC721_ENUMERABLE */\n  0xe0\n  shl\n    /* \".deps/github/OpenZeppelin/openzeppelin-contracts/contracts/token/ERC721/ERC721.sol\":3937:3955  _registerInterface */\n  shl(0x20, tag_21)\n    /* \".deps/github/OpenZeppelin/openzeppelin-contracts/contracts/token/ERC721/ERC721.sol\":3937:3988  _registerInterface(_INTERFACE_ID_ERC721_ENUMERABLE) */\n  0x20\n  shr\n  jump\t// in\ntag_28:\n    /* \".deps/github/OpenZeppelin/openzeppelin-contracts/contracts/token/ERC721/ERC721.sol\":3626:3995  constructor (string memory name_, string memory symbol_) public {... */\n  pop\n  pop\n    /* \".deps/github/OpenZeppelin/openzeppelin-contracts/contracts/token/ERC721/ERC721.sol\":571:17441  contract ERC721 is Context, ERC165, IERC721, IERC721Metadata, IERC721Enumerable {... */\n  jump(tag_29)\n    /* \".deps/github/OpenZeppelin/openzeppelin-contracts/contracts/introspection/ERC165.sol\":1507:1705  function _registerInterface(bytes4 interfaceId) internal virtual {... */\ntag_21:\n    /* \".deps/github/OpenZeppelin/openzeppelin-contracts/contracts/introspection/ERC165.sol\":1605:1615  0xffffffff */\n  0xffffffff\n    /* \".deps/github/OpenZeppelin/openzeppelin-contracts/contracts/introspection/ERC165.sol\":1590:1615  interfaceId != 0xffffffff */\n  0xe0\n  shl\n    /* \".deps/github/OpenZeppelin/openzeppelin-contracts/contracts/introspection/ERC165.sol\":1590:1601  interfaceId */\n  dup2\n    /* \".deps/github/OpenZeppelin/openzeppelin-contracts/contracts/introspection/ERC165.sol\":1590:1615  interfaceId != 0xffffffff */\n  not(0xffffffffffffffffffffffffffffffffffffffffffffffffffffffff)\n  and\n  eq\n  iszero\n    /* \".deps/github/OpenZeppelin/openzeppelin-contracts/contracts/introspection/ERC165.sol\":1582:1648  require(interfaceId != 0xffffffff, \"ERC165: invalid interface id\") */\n  tag_31\n  jumpi\n  mload(0x40)\n  0x08c379a000000000000000000000000000000000000000000000000000000000\n  dup2\n  mstore\n  0x04\n  add\n  dup1\n  dup1\n  0x20\n  add\n  dup3\n  dup2\n  sub\n  dup3\n  mstore\n  0x1c\n  dup2\n  mstore\n  0x20\n  add\n  dup1\n  0x4552433136353a20696e76616c696420696e7465726661636520696400000000\n  dup2\n  mstore\n  pop\n  0x20\n  add\n  swap2\n  pop\n  pop\n  mload(0x40)\n  dup1\n  swap2\n  sub\n  swap1\n  revert\ntag_31:\n    /* \".deps/github/OpenZeppelin/openzeppelin-contracts/contracts/introspection/ERC165.sol\":1694:1698  true */\n  0x01\n    /* \".deps/github/OpenZeppelin/openzeppelin-contracts/contracts/introspection/ERC165.sol\":1658:1678  _supportedInterfaces */\n  0x00\n    /* \".deps/github/OpenZeppelin/openzeppelin-contracts/contracts/introspection/ERC165.sol\":1658:1691  _supportedInterfaces[interfaceId] */\n  dup1\n    /* \".deps/github/OpenZeppelin/openzeppelin-contracts/contracts/introspection/ERC165.sol\":1679:1690  interfaceId */\n  dup4\n    /* \".deps/github/OpenZeppelin/openzeppelin-contracts/contracts/introspection/ERC165.sol\":1658:1691  _supportedInterfaces[interfaceId] */\n  not(0xffffffffffffffffffffffffffffffffffffffffffffffffffffffff)\n  and\n  not(0xffffffffffffffffffffffffffffffffffffffffffffffffffffffff)\n  and\n  dup2\n  mstore\n  0x20\n  add\n  swap1\n  dup2\n  mstore\n  0x20\n  add\n  0x00\n  keccak256\n  0x00\n    /* \".deps/github/OpenZeppelin/openzeppelin-contracts/contracts/introspection/ERC165.sol\":1658:1698  _supportedInterfaces[interfaceId] = true */\n  0x0100\n  exp\n  dup2\n  sload\n  dup2\n  0xff\n  mul\n  not\n  and\n  swap1\n  dup4\n  iszero\n  iszero\n  mul\n  or\n  swap1\n  sstore\n  pop\n    /* \".deps/github/OpenZeppelin/openzeppelin-contracts/contracts/introspection/ERC165.sol\":1507:1705  function _registerInterface(bytes4 interfaceId) internal virtual {... */\n  pop\n  jump\t// out\n    /* \".deps/github/OpenZeppelin/openzeppelin-contracts/contracts/token/ERC721/ERC721.sol\":571:17441  contract ERC721 is Context, ERC165, IERC721, IERC721Metadata, IERC721Enumerable {... */\ntag_24:\n  dup3\n  dup1\n  sload\n  0x01\n  dup2\n  0x01\n  and\n  iszero\n  0x0100\n  mul\n  sub\n  and\n  0x02\n  swap1\n  div\n  swap1\n  0x00\n  mstore\n  keccak256(0x00, 0x20)\n  swap1\n  0x1f\n  add\n  0x20\n  swap1\n  div\n  dup2\n  add\n  swap3\n  dup3\n  0x1f\n  lt\n  tag_33\n  jumpi\n  dup1\n  mload\n  not(0xff)\n  and\n  dup4\n  dup1\n  add\n  or\n  dup6\n  sstore\n  jump(tag_32)\ntag_33:\n  dup3\n  dup1\n  add\n  0x01\n  add\n  dup6\n  sstore\n  dup3\n  iszero\n  tag_32\n  jumpi\n  swap2\n  dup3\n  add\ntag_34:\n  dup3\n  dup2\n  gt\n  iszero\n  tag_35\n  jumpi\n  dup3\n  mload\n  dup3\n  sstore\n  swap2\n  0x20\n  add\n  swap2\n  swap1\n  0x01\n  add\n  swap1\n  jump(tag_34)\ntag_35:\ntag_32:\n  pop\n  swap1\n  pop\n  tag_36\n  swap2\n  swap1\n  tag_37\n  jump\t// in\ntag_36:\n  pop\n  swap1\n  jump\t// out\ntag_37:\ntag_38:\n  dup1\n  dup3\n  gt\n  iszero\n  tag_39\n  jumpi\n  0x00\n  dup2\n  0x00\n  swap1\n  sstore\n  pop\n  0x01\n  add\n  jump(tag_38)\ntag_39:\n  pop\n  swap1\n  jump\t// out\ntag_29:\n  dataSize(sub_0)\n  dup1\n  dataOffset(sub_0)\n  0x00\n  codecopy\n  0x00\n  return\nstop\n\nsub_0: assembly {\n        /* \".deps/github/OpenZeppelin/openzeppelin-contracts/contracts/token/ERC721/ERC721.sol\":571:17441  contract ERC721 is Context, ERC165, IERC721, IERC721Metadata, IERC721Enumerable {... */\n      mstore(0x40, 0x80)\n      callvalue\n      dup1\n      iszero\n      tag_1\n      jumpi\n      0x00\n      dup1\n      revert\n    tag_1:\n      pop\n      jumpi(tag_2, lt(calldatasize, 0x04))\n      shr(0xe0, calldataload(0x00))\n      dup1\n      0x6352211e\n      gt\n      tag_22\n      jumpi\n      dup1\n      0xa69df4b5\n      gt\n      tag_23\n      jumpi\n      dup1\n      0xa69df4b5\n      eq\n      tag_17\n      jumpi\n      dup1\n      0xb88d4fde\n      eq\n      tag_18\n      jumpi\n      dup1\n      0xc87b56dd\n      eq\n      tag_19\n      jumpi\n      dup1\n      0xe985e9c5\n      eq\n      tag_20\n      jumpi\n      dup1\n      0xf83d08ba\n      eq\n      tag_21\n      jumpi\n      jump(tag_2)\n    tag_23:\n      dup1\n      0x6352211e\n      eq\n      tag_12\n      jumpi\n      dup1\n      0x6c0360eb\n      eq\n      tag_13\n      jumpi\n      dup1\n      0x70a08231\n      eq\n      tag_14\n      jumpi\n      dup1\n      0x95d89b41\n      eq\n      tag_15\n      jumpi\n      dup1\n      0xa22cb465\n      eq\n      tag_16\n      jumpi\n      jump(tag_2)\n    tag_22:\n      dup1\n      0x18160ddd\n      gt\n      tag_24\n      jumpi\n      dup1\n      0x18160ddd\n      eq\n      tag_7\n      jumpi\n      dup1\n      0x23b872dd\n      eq\n      tag_8\n      jumpi\n      dup1\n      0x2f745c59\n      eq\n      tag_9\n      jumpi\n      dup1\n      0x42842e0e\n      eq\n      tag_10\n      jumpi\n      dup1\n      0x4f6ccce7\n      eq\n      tag_11\n      jumpi\n      jump(tag_2)\n    tag_24:\n      dup1\n      0x01ffc9a7\n      eq\n      tag_3\n      jumpi\n      dup1\n      0x06fdde03\n      eq\n      tag_4\n      jumpi\n      dup1\n      0x081812fc\n      eq\n      tag_5\n      jumpi\n      dup1\n      0x095ea7b3\n      eq\n      tag_6\n      jumpi\n    tag_2:\n      0x00\n      dup1\n      revert\n        /* \".deps/github/OpenZeppelin/openzeppelin-contracts/contracts/introspection/ERC165.sol\":965:1113  function supportsInterface(bytes4 interfaceId) public view virtual override returns (bool) {... */\n    tag_3:\n      tag_25\n      0x04\n      dup1\n      calldatasize\n      sub\n      0x20\n      dup2\n      lt\n      iszero\n      tag_26\n      jumpi\n      0x00\n      dup1\n      revert\n    tag_26:\n      dup2\n      add\n      swap1\n      dup1\n      dup1\n      calldataload\n      not(0xffffffffffffffffffffffffffffffffffffffffffffffffffffffff)\n      and\n      swap1\n      0x20\n      add\n      swap1\n      swap3\n      swap2\n      swap1\n      pop\n      pop\n      pop\n      tag_27\n      jump\t// in\n    tag_25:\n      mload(0x40)\n      dup1\n      dup3\n      iszero\n      iszero\n      dup2\n      mstore\n      0x20\n      add\n      swap2\n      pop\n      pop\n      mload(0x40)\n      dup1\n      swap2\n      sub\n      swap1\n      return\n        /* \".deps/github/OpenZeppelin/openzeppelin-contracts/contracts/token/ERC721/ERC721.sol\":4914:5012  function name() public view virtual override returns (string memory) {... */\n    tag_4:\n      tag_28\n      tag_29\n      jump\t// in\n    tag_28:\n      mload(0x40)\n      dup1\n      dup1\n      0x20\n      add\n      dup3\n      dup2\n      sub\n      dup3\n      mstore\n      dup4\n      dup2\n      dup2\n      mload\n      dup2\n      mstore\n      0x20\n      add\n      swap2\n      pop\n      dup1\n      mload\n      swap1\n      0x20\n      add\n      swap1\n      dup1\n      dup4\n      dup4\n      0x00\n    tag_30:\n      dup4\n      dup2\n      lt\n      iszero\n      tag_32\n      jumpi\n      dup1\n      dup3\n      add\n      mload\n      dup2\n      dup5\n      add\n      mstore\n      0x20\n      dup2\n      add\n      swap1\n      pop\n      jump(tag_30)\n    tag_32:\n      pop\n      pop\n      pop\n      pop\n      swap1\n      pop\n      swap1\n      dup2\n      add\n      swap1\n      0x1f\n      and\n      dup1\n      iszero\n      tag_33\n      jumpi\n      dup1\n      dup3\n      sub\n      dup1\n      mload\n      0x01\n      dup4\n      0x20\n      sub\n      0x0100\n      exp\n      sub\n      not\n      and\n      dup2\n      mstore\n      0x20\n      add\n      swap2\n      pop\n    tag_33:\n      pop\n      swap3\n      pop\n      pop\n      pop\n      mload(0x40)\n      dup1\n      swap2\n      sub\n      swap1\n      return\n        /* \".deps/github/OpenZeppelin/openzeppelin-contracts/contracts/token/ERC721/ERC721.sol\":7619:7836  function getApproved(uint256 tokenId) public view virtual override returns (address) {... */\n    tag_5:\n      tag_34\n      0x04\n      dup1\n      calldatasize\n      sub\n      0x20\n      dup2\n      lt\n      iszero\n      tag_35\n      jumpi\n      0x00\n      dup1\n      revert\n    tag_35:\n      dup2\n      add\n      swap1\n      dup1\n      dup1\n      calldataload\n      swap1\n      0x20\n      add\n      swap1\n      swap3\n      swap2\n      swap1\n      pop\n      pop\n      pop\n      tag_36\n      jump\t// in\n    tag_34:\n      mload(0x40)\n      dup1\n      dup3\n      0xffffffffffffffffffffffffffffffffffffffff\n      and\n      dup2\n      mstore\n      0x20\n      add\n      swap2\n      pop\n      pop\n      mload(0x40)\n      dup1\n      swap2\n      sub\n      swap1\n      return\n        /* \".deps/github/OpenZeppelin/openzeppelin-contracts/contracts/token/ERC721/ERC721.sol\":7163:7558  function approve(address to, uint256 tokenId) public virtual override {... */\n    tag_6:\n      tag_37\n      0x04\n      dup1\n      calldatasize\n      sub\n      0x40\n      dup2\n      lt\n      iszero\n      tag_38\n      jumpi\n      0x00\n      dup1\n      revert\n    tag_38:\n      dup2\n      add\n      swap1\n      dup1\n      dup1\n      calldataload\n      0xffffffffffffffffffffffffffffffffffffffff\n      and\n      swap1\n      0x20\n      add\n      swap1\n      swap3\n      swap2\n      swap1\n      dup1\n      calldataload\n      swap1\n      0x20\n      add\n      swap1\n      swap3\n      swap2\n      swap1\n      pop\n      pop\n      pop\n      tag_39\n      jump\t// in\n    tag_37:\n      stop\n        /* \".deps/github/OpenZeppelin/openzeppelin-contracts/contracts/token/ERC721/ERC721.sol\":6657:6865  function totalSupply() public view virtual override returns (uint256) {... */\n    tag_7:\n      tag_40\n      tag_41\n      jump\t// in\n    tag_40:\n      mload(0x40)\n      dup1\n      dup3\n      dup2\n      mstore\n      0x20\n      add\n      swap2\n      pop\n      pop\n      mload(0x40)\n      dup1\n      swap2\n      sub\n      swap1\n      return\n        /* \".deps/github/OpenZeppelin/openzeppelin-contracts/contracts/token/ERC721/ERC721.sol\":8483:8837  function transferFrom(address from, address to, uint256 tokenId) public virtual override {... */\n    tag_8:\n      tag_42\n      0x04\n      dup1\n      calldatasize\n      sub\n      0x60\n      dup2\n      lt\n      iszero\n      tag_43\n      jumpi\n      0x00\n      dup1\n      revert\n    tag_43:\n      dup2\n      add\n      swap1\n      dup1\n      dup1\n      calldataload\n      0xffffffffffffffffffffffffffffffffffffffff\n      and\n      swap1\n      0x20\n      add\n      swap1\n      swap3\n      swap2\n      swap1\n      dup1\n      calldataload\n      0xffffffffffffffffffffffffffffffffffffffff\n      and\n      swap1\n      0x20\n      add\n      swap1\n      swap3\n      swap2\n      swap1\n      dup1\n      calldataload\n      swap1\n      0x20\n      add\n      swap1\n      swap3\n      swap2\n      swap1\n      pop\n      pop\n      pop\n      tag_44\n      jump\t// in\n    tag_42:\n      stop\n        /* \".deps/github/OpenZeppelin/openzeppelin-contracts/contracts/token/ERC721/ERC721.sol\":6426:6586  function tokenOfOwnerByIndex(address owner, uint256 index) public view virtual override returns (uint256) {... */\n    tag_9:\n      tag_45\n      0x04\n      dup1\n      calldatasize\n      sub\n      0x40\n      dup2\n      lt\n      iszero\n      tag_46\n      jumpi\n      0x00\n      dup1\n      revert\n    tag_46:\n      dup2\n      add\n      swap1\n      dup1\n      dup1\n      calldataload\n      0xffffffffffffffffffffffffffffffffffffffff\n      and\n      swap1\n      0x20\n      add\n      swap1\n      swap3\n      swap2\n      swap1\n      dup1\n      calldataload\n      swap1\n      0x20\n      add\n      swap1\n      swap3\n      swap2\n      swap1\n      pop\n      pop\n      pop\n      tag_47\n      jump\t// in\n    tag_45:\n      mload(0x40)\n      dup1\n      dup3\n      dup2\n      mstore\n      0x20\n      add\n      swap2\n      pop\n      pop\n      mload(0x40)\n      dup1\n      swap2\n      sub\n      swap1\n      return\n        /* \".deps/github/OpenZeppelin/openzeppelin-contracts/contracts/token/ERC721/ERC721.sol\":8903:9052  function safeTransferFrom(address from, address to, uint256 tokenId) public virtual override {... */\n    tag_10:\n      tag_48\n      0x04\n      dup1\n      calldatasize\n      sub\n      0x60\n      dup2\n      lt\n      iszero\n      tag_49\n      jumpi\n      0x00\n      dup1\n      revert\n    tag_49:\n      dup2\n      add\n      swap1\n      dup1\n      dup1\n      calldataload\n      0xffffffffffffffffffffffffffffffffffffffff\n      and\n      swap1\n      0x20\n      add\n      swap1\n      swap3\n      swap2\n      swap1\n      dup1\n      calldataload\n      0xffffffffffffffffffffffffffffffffffffffff\n      and\n      swap1\n      0x20\n      add\n      swap1\n      swap3\n      swap2\n      swap1\n      dup1\n      calldataload\n      swap1\n      0x20\n      add\n      swap1\n      swap3\n      swap2\n      swap1\n      pop\n      pop\n      pop\n      tag_50\n      jump\t// in\n    tag_48:\n      stop\n        /* \".deps/github/OpenZeppelin/openzeppelin-contracts/contracts/token/ERC721/ERC721.sol\":6937:7106  function tokenByIndex(uint256 index) public view virtual override returns (uint256) {... */\n    tag_11:\n      tag_51\n      0x04\n      dup1\n      calldatasize\n      sub\n      0x20\n      dup2\n      lt\n      iszero\n      tag_52\n      jumpi\n      0x00\n      dup1\n      revert\n    tag_52:\n      dup2\n      add\n      swap1\n      dup1\n      dup1\n      calldataload\n      swap1\n      0x20\n      add\n      swap1\n      swap3\n      swap2\n      swap1\n      pop\n      pop\n      pop\n      tag_53\n      jump\t// in\n    tag_51:\n      mload(0x40)\n      dup1\n      dup3\n      dup2\n      mstore\n      0x20\n      add\n      swap2\n      pop\n      pop\n      mload(0x40)\n      dup1\n      swap2\n      sub\n      swap1\n      return\n        /* \".deps/github/OpenZeppelin/openzeppelin-contracts/contracts/token/ERC721/ERC721.sol\":4677:4852  function ownerOf(uint256 tokenId) public view virtual override returns (address) {... */\n    tag_12:\n      tag_54\n      0x04\n      dup1\n      calldatasize\n      sub\n      0x20\n      dup2\n      lt\n      iszero\n      tag_55\n      jumpi\n      0x00\n      dup1\n      revert\n    tag_55:\n      dup2\n      add\n      swap1\n      dup1\n      dup1\n      calldataload\n      swap1\n      0x20\n      add\n      swap1\n      swap3\n      swap2\n      swap1\n      pop\n      pop\n      pop\n      tag_56\n      jump\t// in\n    tag_54:\n      mload(0x40)\n      dup1\n      dup3\n      0xffffffffffffffffffffffffffffffffffffffff\n      and\n      dup2\n      mstore\n      0x20\n      add\n      swap2\n      pop\n      pop\n      mload(0x40)\n      dup1\n      swap2\n      sub\n      swap1\n      return\n        /* \".deps/github/OpenZeppelin/openzeppelin-contracts/contracts/token/ERC721/ERC721.sol\":6252:6347  function baseURI() public view virtual returns (string memory) {... */\n    tag_13:\n      tag_57\n      tag_58\n      jump\t// in\n    tag_57:\n      mload(0x40)\n      dup1\n      dup1\n      0x20\n      add\n      dup3\n      dup2\n      sub\n      dup3\n      mstore\n      dup4\n      dup2\n      dup2\n      mload\n      dup2\n      mstore\n      0x20\n      add\n      swap2\n      pop\n      dup1\n      mload\n      swap1\n      0x20\n      add\n      swap1\n      dup1\n      dup4\n      dup4\n      0x00\n    tag_59:\n      dup4\n      dup2\n      lt\n      iszero\n      tag_61\n      jumpi\n      dup1\n      dup3\n      add\n      mload\n      dup2\n      dup5\n      add\n      mstore\n      0x20\n      dup2\n      add\n      swap1\n      pop\n      jump(tag_59)\n    tag_61:\n      pop\n      pop\n      pop\n      pop\n      swap1\n      pop\n      swap1\n      dup2\n      add\n      swap1\n      0x1f\n      and\n      dup1\n      iszero\n      tag_62\n      jumpi\n      dup1\n      dup3\n      sub\n      dup1\n      mload\n      0x01\n      dup4\n      0x20\n      sub\n      0x0100\n      exp\n      sub\n      not\n      and\n      dup2\n      mstore\n      0x20\n      add\n      swap2\n      pop\n    tag_62:\n      pop\n      swap3\n      pop\n      pop\n      pop\n      mload(0x40)\n      dup1\n      swap2\n      sub\n      swap1\n      return\n        /* \".deps/github/OpenZeppelin/openzeppelin-contracts/contracts/token/ERC721/ERC721.sol\":4402:4620  function balanceOf(address owner) public view virtual override returns (uint256) {... */\n    tag_14:\n      tag_63\n      0x04\n      dup1\n      calldatasize\n      sub\n      0x20\n      dup2\n      lt\n      iszero\n      tag_64\n      jumpi\n      0x00\n      dup1\n      revert\n    tag_64:\n      dup2\n      add\n      swap1\n      dup1\n      dup1\n      calldataload\n      0xffffffffffffffffffffffffffffffffffffffff\n      and\n      swap1\n      0x20\n      add\n      swap1\n      swap3\n      swap2\n      swap1\n      pop\n      pop\n      pop\n      tag_65\n      jump\t// in\n    tag_63:\n      mload(0x40)\n      dup1\n      dup3\n      dup2\n      mstore\n      0x20\n      add\n      swap2\n      pop\n      pop\n      mload(0x40)\n      dup1\n      swap2\n      sub\n      swap1\n      return\n        /* \".deps/github/OpenZeppelin/openzeppelin-contracts/contracts/token/ERC721/ERC721.sol\":5076:5178  function symbol() public view virtual override returns (string memory) {... */\n    tag_15:\n      tag_66\n      tag_67\n      jump\t// in\n    tag_66:\n      mload(0x40)\n      dup1\n      dup1\n      0x20\n      add\n      dup3\n      dup2\n      sub\n      dup3\n      mstore\n      dup4\n      dup2\n      dup2\n      mload\n      dup2\n      mstore\n      0x20\n      add\n      swap2\n      pop\n      dup1\n      mload\n      swap1\n      0x20\n      add\n      swap1\n      dup1\n      dup4\n      dup4\n      0x00\n    tag_68:\n      dup4\n      dup2\n      lt\n      iszero\n      tag_70\n      jumpi\n      dup1\n      dup3\n      add\n      mload\n      dup2\n      dup5\n      add\n      mstore\n      0x20\n      dup2\n      add\n      swap1\n      pop\n      jump(tag_68)\n    tag_70:\n      pop\n      pop\n      pop\n      pop\n      swap1\n      pop\n      swap1\n      dup2\n      add\n      swap1\n      0x1f\n      and\n      dup1\n      iszero\n      tag_71\n      jumpi\n      dup1\n      dup3\n      sub\n      dup1\n      mload\n      0x01\n      dup4\n      0x20\n      sub\n      0x0100\n      exp\n      sub\n      not\n      and\n      dup2\n      mstore\n      0x20\n      add\n      swap2\n      pop\n    tag_71:\n      pop\n      swap3\n      pop\n      pop\n      pop\n      mload(0x40)\n      dup1\n      swap2\n      sub\n      swap1\n      return\n        /* \".deps/github/OpenZeppelin/openzeppelin-contracts/contracts/token/ERC721/ERC721.sol\":7903:8193  function setApprovalForAll(address operator, bool approved) public virtual override {... */\n    tag_16:\n      tag_72\n      0x04\n      dup1\n      calldatasize\n      sub\n      0x40\n      dup2\n      lt\n      iszero\n      tag_73\n      jumpi\n      0x00\n      dup1\n      revert\n    tag_73:\n      dup2\n      add\n      swap1\n      dup1\n      dup1\n      calldataload\n      0xffffffffffffffffffffffffffffffffffffffff\n      and\n      swap1\n      0x20\n      add\n      swap1\n      swap3\n      swap2\n      swap1\n      dup1\n      calldataload\n      iszero\n      iszero\n      swap1\n      0x20\n      add\n      swap1\n      swap3\n      swap2\n      swap1\n      pop\n      pop\n      pop\n      tag_74\n      jump\t// in\n    tag_72:\n      stop\n        /* \".deps/github/OpenZeppelin/openzeppelin-contracts/contracts/token/ERC721/ERC721.sol\":4184:4344  function unlock()public virtual returns(bool){... */\n    tag_17:\n      tag_75\n      tag_76\n      jump\t// in\n    tag_75:\n      mload(0x40)\n      dup1\n      dup3\n      iszero\n      iszero\n      dup2\n      mstore\n      0x20\n      add\n      swap2\n      pop\n      pop\n      mload(0x40)\n      dup1\n      swap2\n      sub\n      swap1\n      return\n        /* \".deps/github/OpenZeppelin/openzeppelin-contracts/contracts/token/ERC721/ERC721.sol\":9118:9400  function safeTransferFrom(address from, address to, uint256 tokenId, bytes memory _data) public virtual override {... */\n    tag_18:\n      tag_77\n      0x04\n      dup1\n      calldatasize\n      sub\n      0x80\n      dup2\n      lt\n      iszero\n      tag_78\n      jumpi\n      0x00\n      dup1\n      revert\n    tag_78:\n      dup2\n      add\n      swap1\n      dup1\n      dup1\n      calldataload\n      0xffffffffffffffffffffffffffffffffffffffff\n      and\n      swap1\n      0x20\n      add\n      swap1\n      swap3\n      swap2\n      swap1\n      dup1\n      calldataload\n      0xffffffffffffffffffffffffffffffffffffffff\n      and\n      swap1\n      0x20\n      add\n      swap1\n      swap3\n      swap2\n      swap1\n      dup1\n      calldataload\n      swap1\n      0x20\n      add\n      swap1\n      swap3\n      swap2\n      swap1\n      dup1\n      calldataload\n      swap1\n      0x20\n      add\n      swap1\n      0x0100000000\n      dup2\n      gt\n      iszero\n      tag_79\n      jumpi\n      0x00\n      dup1\n      revert\n    tag_79:\n      dup3\n      add\n      dup4\n      0x20\n      dup3\n      add\n      gt\n      iszero\n      tag_80\n      jumpi\n      0x00\n      dup1\n      revert\n    tag_80:\n      dup1\n      calldataload\n      swap1\n      0x20\n      add\n      swap2\n      dup5\n      0x01\n      dup4\n      mul\n      dup5\n      add\n      gt\n      0x0100000000\n      dup4\n      gt\n      or\n      iszero\n      tag_81\n      jumpi\n      0x00\n      dup1\n      revert\n    tag_81:\n      swap2\n      swap1\n      dup1\n      dup1\n      0x1f\n      add\n      0x20\n      dup1\n      swap2\n      div\n      mul\n      0x20\n      add\n      mload(0x40)\n      swap1\n      dup2\n      add\n      0x40\n      mstore\n      dup1\n      swap4\n      swap3\n      swap2\n      swap1\n      dup2\n      dup2\n      mstore\n      0x20\n      add\n      dup4\n      dup4\n      dup1\n      dup3\n      dup5\n      calldatacopy\n      0x00\n      dup2\n      dup5\n      add\n      mstore\n      not(0x1f)\n      0x1f\n      dup3\n      add\n      and\n      swap1\n      pop\n      dup1\n      dup4\n      add\n      swap3\n      pop\n      pop\n      pop\n      pop\n      pop\n      pop\n      pop\n      swap2\n      swap3\n      swap2\n      swap3\n      swap1\n      pop\n      pop\n      pop\n      tag_82\n      jump\t// in\n    tag_77:\n      stop\n        /* \".deps/github/OpenZeppelin/openzeppelin-contracts/contracts/token/ERC721/ERC721.sol\":5244:6020  function tokenURI(uint256 tokenId) public view virtual override returns (string memory) {... */\n    tag_19:\n      tag_83\n      0x04\n      dup1\n      calldatasize\n      sub\n      0x20\n      dup2\n      lt\n      iszero\n      tag_84\n      jumpi\n      0x00\n      dup1\n      revert\n    tag_84:\n      dup2\n      add\n      swap1\n      dup1\n      dup1\n      calldataload\n      swap1\n      0x20\n      add\n      swap1\n      swap3\n      swap2\n      swap1\n      pop\n      pop\n      pop\n      tag_85\n      jump\t// in\n    tag_83:\n      mload(0x40)\n      dup1\n      dup1\n      0x20\n      add\n      dup3\n      dup2\n      sub\n      dup3\n      mstore\n      dup4\n      dup2\n      dup2\n      mload\n      dup2\n      mstore\n      0x20\n      add\n      swap2\n      pop\n      dup1\n      mload\n      swap1\n      0x20\n      add\n      swap1\n      dup1\n      dup4\n      dup4\n      0x00\n    tag_86:\n      dup4\n      dup2\n      lt\n      iszero\n      tag_88\n      jumpi\n      dup1\n      dup3\n      add\n      mload\n      dup2\n      dup5\n      add\n      mstore\n      0x20\n      dup2\n      add\n      swap1\n      pop\n      jump(tag_86)\n    tag_88:\n      pop\n      pop\n      pop\n      pop\n      swap1\n      pop\n      swap1\n      dup2\n      add\n      swap1\n      0x1f\n      and\n      dup1\n      iszero\n      tag_89\n      jumpi\n      dup1\n      dup3\n      sub\n      dup1\n      mload\n      0x01\n      dup4\n      0x20\n      sub\n      0x0100\n      exp\n      sub\n      not\n      and\n      dup2\n      mstore\n      0x20\n      add\n      swap2\n      pop\n    tag_89:\n      pop\n      swap3\n      pop\n      pop\n      pop\n      mload(0x40)\n      dup1\n      swap2\n      sub\n      swap1\n      return\n        /* \".deps/github/OpenZeppelin/openzeppelin-contracts/contracts/token/ERC721/ERC721.sol\":8259:8421  function isApprovedForAll(address owner, address operator) public view virtual override returns (bool) {... */\n    tag_20:\n      tag_90\n      0x04\n      dup1\n      calldatasize\n      sub\n      0x40\n      dup2\n      lt\n      iszero\n      tag_91\n      jumpi\n      0x00\n      dup1\n      revert\n    tag_91:\n      dup2\n      add\n      swap1\n      dup1\n      dup1\n      calldataload\n      0xffffffffffffffffffffffffffffffffffffffff\n      and\n      swap1\n      0x20\n      add\n      swap1\n      swap3\n      swap2\n      swap1\n      dup1\n      calldataload\n      0xffffffffffffffffffffffffffffffffffffffff\n      and\n      swap1\n      0x20\n      add\n      swap1\n      swap3\n      swap2\n      swap1\n      pop\n      pop\n      pop\n      tag_92\n      jump\t// in\n    tag_90:\n      mload(0x40)\n      dup1\n      dup3\n      iszero\n      iszero\n      dup2\n      mstore\n      0x20\n      add\n      swap2\n      pop\n      pop\n      mload(0x40)\n      dup1\n      swap2\n      sub\n      swap1\n      return\n        /* \".deps/github/OpenZeppelin/openzeppelin-contracts/contracts/token/ERC721/ERC721.sol\":4019:4178  function lock()public virtual returns(bool){... */\n    tag_21:\n      tag_93\n      tag_94\n      jump\t// in\n    tag_93:\n      mload(0x40)\n      dup1\n      dup3\n      iszero\n      iszero\n      dup2\n      mstore\n      0x20\n      add\n      swap2\n      pop\n      pop\n      mload(0x40)\n      dup1\n      swap2\n      sub\n      swap1\n      return\n        /* \".deps/github/OpenZeppelin/openzeppelin-contracts/contracts/introspection/ERC165.sol\":965:1113  function supportsInterface(bytes4 interfaceId) public view virtual override returns (bool) {... */\n    tag_27:\n        /* \".deps/github/OpenZeppelin/openzeppelin-contracts/contracts/introspection/ERC165.sol\":1050:1054  bool */\n      0x00\n        /* \".deps/github/OpenZeppelin/openzeppelin-contracts/contracts/introspection/ERC165.sol\":1073:1093  _supportedInterfaces */\n      dup1\n        /* \".deps/github/OpenZeppelin/openzeppelin-contracts/contracts/introspection/ERC165.sol\":1073:1106  _supportedInterfaces[interfaceId] */\n      0x00\n        /* \".deps/github/OpenZeppelin/openzeppelin-contracts/contracts/introspection/ERC165.sol\":1094:1105  interfaceId */\n      dup4\n        /* \".deps/github/OpenZeppelin/openzeppelin-contracts/contracts/introspection/ERC165.sol\":1073:1106  _supportedInterfaces[interfaceId] */\n      not(0xffffffffffffffffffffffffffffffffffffffffffffffffffffffff)\n      and\n      not(0xffffffffffffffffffffffffffffffffffffffffffffffffffffffff)\n      and\n      dup2\n      mstore\n      0x20\n      add\n      swap1\n      dup2\n      mstore\n      0x20\n      add\n      0x00\n      keccak256\n      0x00\n      swap1\n      sload\n      swap1\n      0x0100\n      exp\n      swap1\n      div\n      0xff\n      and\n        /* \".deps/github/OpenZeppelin/openzeppelin-contracts/contracts/introspection/ERC165.sol\":1066:1106  return _supportedInterfaces[interfaceId] */\n      swap1\n      pop\n        /* \".deps/github/OpenZeppelin/openzeppelin-contracts/contracts/introspection/ERC165.sol\":965:1113  function supportsInterface(bytes4 interfaceId) public view virtual override returns (bool) {... */\n      swap2\n      swap1\n      pop\n      jump\t// out\n        /* \".deps/github/OpenZeppelin/openzeppelin-contracts/contracts/token/ERC721/ERC721.sol\":4914:5012  function name() public view virtual override returns (string memory) {... */\n    tag_29:\n        /* \".deps/github/OpenZeppelin/openzeppelin-contracts/contracts/token/ERC721/ERC721.sol\":4968:4981  string memory */\n      0x60\n        /* \".deps/github/OpenZeppelin/openzeppelin-contracts/contracts/token/ERC721/ERC721.sol\":5000:5005  _name */\n      0x06\n        /* \".deps/github/OpenZeppelin/openzeppelin-contracts/contracts/token/ERC721/ERC721.sol\":4993:5005  return _name */\n      dup1\n      sload\n      0x01\n      dup2\n      0x01\n      and\n      iszero\n      0x0100\n      mul\n      sub\n      and\n      0x02\n      swap1\n      div\n      dup1\n      0x1f\n      add\n      0x20\n      dup1\n      swap2\n      div\n      mul\n      0x20\n      add\n      mload(0x40)\n      swap1\n      dup2\n      add\n      0x40\n      mstore\n      dup1\n      swap3\n      swap2\n      swap1\n      dup2\n      dup2\n      mstore\n      0x20\n      add\n      dup3\n      dup1\n      sload\n      0x01\n      dup2\n      0x01\n      and\n      iszero\n      0x0100\n      mul\n      sub\n      and\n      0x02\n      swap1\n      div\n      dup1\n      iszero\n      tag_97\n      jumpi\n      dup1\n      0x1f\n      lt\n      tag_98\n      jumpi\n      0x0100\n      dup1\n      dup4\n      sload\n      div\n      mul\n      dup4\n      mstore\n      swap2\n      0x20\n      add\n      swap2\n      jump(tag_97)\n    tag_98:\n      dup3\n      add\n      swap2\n      swap1\n      0x00\n      mstore\n      keccak256(0x00, 0x20)\n      swap1\n    tag_99:\n      dup2\n      sload\n      dup2\n      mstore\n      swap1\n      0x01\n      add\n      swap1\n      0x20\n      add\n      dup1\n      dup4\n      gt\n      tag_99\n      jumpi\n      dup3\n      swap1\n      sub\n      0x1f\n      and\n      dup3\n      add\n      swap2\n    tag_97:\n      pop\n      pop\n      pop\n      pop\n      pop\n      swap1\n      pop\n        /* \".deps/github/OpenZeppelin/openzeppelin-contracts/contracts/token/ERC721/ERC721.sol\":4914:5012  function name() public view virtual override returns (string memory) {... */\n      swap1\n      jump\t// out\n        /* \".deps/github/OpenZeppelin/openzeppelin-contracts/contracts/token/ERC721/ERC721.sol\":7619:7836  function getApproved(uint256 tokenId) public view virtual override returns (address) {... */\n    tag_36:\n        /* \".deps/github/OpenZeppelin/openzeppelin-contracts/contracts/token/ERC721/ERC721.sol\":7695:7702  address */\n      0x00\n        /* \".deps/github/OpenZeppelin/openzeppelin-contracts/contracts/token/ERC721/ERC721.sol\":7722:7738  _exists(tokenId) */\n      tag_101\n        /* \".deps/github/OpenZeppelin/openzeppelin-contracts/contracts/token/ERC721/ERC721.sol\":7730:7737  tokenId */\n      dup3\n        /* \".deps/github/OpenZeppelin/openzeppelin-contracts/contracts/token/ERC721/ERC721.sol\":7722:7729  _exists */\n      tag_102\n        /* \".deps/github/OpenZeppelin/openzeppelin-contracts/contracts/token/ERC721/ERC721.sol\":7722:7738  _exists(tokenId) */\n      jump\t// in\n    tag_101:\n        /* \".deps/github/OpenZeppelin/openzeppelin-contracts/contracts/token/ERC721/ERC721.sol\":7714:7787  require(_exists(tokenId), \"ERC721: approved query for nonexistent token\") */\n      tag_103\n      jumpi\n      mload(0x40)\n      0x08c379a000000000000000000000000000000000000000000000000000000000\n      dup2\n      mstore\n      0x04\n      add\n      dup1\n      dup1\n      0x20\n      add\n      dup3\n      dup2\n      sub\n      dup3\n      mstore\n      0x2c\n      dup2\n      mstore\n      0x20\n      add\n      dup1\n      data_9291e0f44949204f2e9b40e6be090924979d6047b2365868f4e9f027722eb89d\n      0x2c\n      swap2\n      codecopy\n      0x40\n      add\n      swap2\n      pop\n      pop\n      mload(0x40)\n      dup1\n      swap2\n      sub\n      swap1\n      revert\n    tag_103:\n        /* \".deps/github/OpenZeppelin/openzeppelin-contracts/contracts/token/ERC721/ERC721.sol\":7805:7820  _tokenApprovals */\n      0x04\n        /* \".deps/github/OpenZeppelin/openzeppelin-contracts/contracts/token/ERC721/ERC721.sol\":7805:7829  _tokenApprovals[tokenId] */\n      0x00\n        /* \".deps/github/OpenZeppelin/openzeppelin-contracts/contracts/token/ERC721/ERC721.sol\":7821:7828  tokenId */\n      dup4\n        /* \".deps/github/OpenZeppelin/openzeppelin-contracts/contracts/token/ERC721/ERC721.sol\":7805:7829  _tokenApprovals[tokenId] */\n      dup2\n      mstore\n      0x20\n      add\n      swap1\n      dup2\n      mstore\n      0x20\n      add\n      0x00\n      keccak256\n      0x00\n      swap1\n      sload\n      swap1\n      0x0100\n      exp\n      swap1\n      div\n      0xffffffffffffffffffffffffffffffffffffffff\n      and\n        /* \".deps/github/OpenZeppelin/openzeppelin-contracts/contracts/token/ERC721/ERC721.sol\":7798:7829  return _tokenApprovals[tokenId] */\n      swap1\n      pop\n        /* \".deps/github/OpenZeppelin/openzeppelin-contracts/contracts/token/ERC721/ERC721.sol\":7619:7836  function getApproved(uint256 tokenId) public view virtual override returns (address) {... */\n      swap2\n      swap1\n      pop\n      jump\t// out\n        /* \".deps/github/OpenZeppelin/openzeppelin-contracts/contracts/token/ERC721/ERC721.sol\":7163:7558  function approve(address to, uint256 tokenId) public virtual override {... */\n    tag_39:\n        /* \".deps/github/OpenZeppelin/openzeppelin-contracts/contracts/token/ERC721/ERC721.sol\":7243:7256  address owner */\n      0x00\n        /* \".deps/github/OpenZeppelin/openzeppelin-contracts/contracts/token/ERC721/ERC721.sol\":7259:7282  ERC721.ownerOf(tokenId) */\n      tag_105\n        /* \".deps/github/OpenZeppelin/openzeppelin-contracts/contracts/token/ERC721/ERC721.sol\":7274:7281  tokenId */\n      dup3\n        /* \".deps/github/OpenZeppelin/openzeppelin-contracts/contracts/token/ERC721/ERC721.sol\":7259:7273  ERC721.ownerOf */\n      tag_56\n        /* \".deps/github/OpenZeppelin/openzeppelin-contracts/contracts/token/ERC721/ERC721.sol\":7259:7282  ERC721.ownerOf(tokenId) */\n      jump\t// in\n    tag_105:\n        /* \".deps/github/OpenZeppelin/openzeppelin-contracts/contracts/token/ERC721/ERC721.sol\":7243:7282  address owner = ERC721.ownerOf(tokenId) */\n      swap1\n      pop\n        /* \".deps/github/OpenZeppelin/openzeppelin-contracts/contracts/token/ERC721/ERC721.sol\":7306:7311  owner */\n      dup1\n        /* \".deps/github/OpenZeppelin/openzeppelin-contracts/contracts/token/ERC721/ERC721.sol\":7300:7311  to != owner */\n      0xffffffffffffffffffffffffffffffffffffffff\n      and\n        /* \".deps/github/OpenZeppelin/openzeppelin-contracts/contracts/token/ERC721/ERC721.sol\":7300:7302  to */\n      dup4\n        /* \".deps/github/OpenZeppelin/openzeppelin-contracts/contracts/token/ERC721/ERC721.sol\":7300:7311  to != owner */\n      0xffffffffffffffffffffffffffffffffffffffff\n      and\n      eq\n      iszero\n        /* \".deps/github/OpenZeppelin/openzeppelin-contracts/contracts/token/ERC721/ERC721.sol\":7292:7349  require(to != owner, \"ERC721: approval to current owner\") */\n      tag_106\n      jumpi\n      mload(0x40)\n      0x08c379a000000000000000000000000000000000000000000000000000000000\n      dup2\n      mstore\n      0x04\n      add\n      dup1\n      dup1\n      0x20\n      add\n      dup3\n      dup2\n      sub\n      dup3\n      mstore\n      0x21\n      dup2\n      mstore\n      0x20\n      add\n      dup1\n      data_b51b4875eede07862961e8f9365c6749f5fe55c6ee5d7a9e42b6912ad0b15942\n      0x21\n      swap2\n      codecopy\n      0x40\n      add\n      swap2\n      pop\n      pop\n      mload(0x40)\n      dup1\n      swap2\n      sub\n      swap1\n      revert\n    tag_106:\n        /* \".deps/github/OpenZeppelin/openzeppelin-contracts/contracts/token/ERC721/ERC721.sol\":7384:7389  owner */\n      dup1\n        /* \".deps/github/OpenZeppelin/openzeppelin-contracts/contracts/token/ERC721/ERC721.sol\":7368:7389  _msgSender() == owner */\n      0xffffffffffffffffffffffffffffffffffffffff\n      and\n        /* \".deps/github/OpenZeppelin/openzeppelin-contracts/contracts/token/ERC721/ERC721.sol\":7368:7380  _msgSender() */\n      tag_107\n        /* \".deps/github/OpenZeppelin/openzeppelin-contracts/contracts/token/ERC721/ERC721.sol\":7368:7378  _msgSender */\n      tag_108\n        /* \".deps/github/OpenZeppelin/openzeppelin-contracts/contracts/token/ERC721/ERC721.sol\":7368:7380  _msgSender() */\n      jump\t// in\n    tag_107:\n        /* \".deps/github/OpenZeppelin/openzeppelin-contracts/contracts/token/ERC721/ERC721.sol\":7368:7389  _msgSender() == owner */\n      0xffffffffffffffffffffffffffffffffffffffff\n      and\n      eq\n        /* \".deps/github/OpenZeppelin/openzeppelin-contracts/contracts/token/ERC721/ERC721.sol\":7368:7437  _msgSender() == owner || ERC721.isApprovedForAll(owner, _msgSender()) */\n      dup1\n      tag_109\n      jumpi\n      pop\n        /* \".deps/github/OpenZeppelin/openzeppelin-contracts/contracts/token/ERC721/ERC721.sol\":7393:7437  ERC721.isApprovedForAll(owner, _msgSender()) */\n      tag_110\n        /* \".deps/github/OpenZeppelin/openzeppelin-contracts/contracts/token/ERC721/ERC721.sol\":7417:7422  owner */\n      dup2\n        /* \".deps/github/OpenZeppelin/openzeppelin-contracts/contracts/token/ERC721/ERC721.sol\":7424:7436  _msgSender() */\n      tag_111\n        /* \".deps/github/OpenZeppelin/openzeppelin-contracts/contracts/token/ERC721/ERC721.sol\":7424:7434  _msgSender */\n      tag_108\n        /* \".deps/github/OpenZeppelin/openzeppelin-contracts/contracts/token/ERC721/ERC721.sol\":7424:7436  _msgSender() */\n      jump\t// in\n    tag_111:\n        /* \".deps/github/OpenZeppelin/openzeppelin-contracts/contracts/token/ERC721/ERC721.sol\":7393:7416  ERC721.isApprovedForAll */\n      tag_92\n        /* \".deps/github/OpenZeppelin/openzeppelin-contracts/contracts/token/ERC721/ERC721.sol\":7393:7437  ERC721.isApprovedForAll(owner, _msgSender()) */\n      jump\t// in\n    tag_110:\n        /* \".deps/github/OpenZeppelin/openzeppelin-contracts/contracts/token/ERC721/ERC721.sol\":7368:7437  _msgSender() == owner || ERC721.isApprovedForAll(owner, _msgSender()) */\n    tag_109:\n        /* \".deps/github/OpenZeppelin/openzeppelin-contracts/contracts/token/ERC721/ERC721.sol\":7360:7519  require(_msgSender() == owner || ERC721.isApprovedForAll(owner, _msgSender()),... */\n      tag_112\n      jumpi\n      mload(0x40)\n      0x08c379a000000000000000000000000000000000000000000000000000000000\n      dup2\n      mstore\n      0x04\n      add\n      dup1\n      dup1\n      0x20\n      add\n      dup3\n      dup2\n      sub\n      dup3\n      mstore\n      0x38\n      dup2\n      mstore\n      0x20\n      add\n      dup1\n      data_6d83cef3e0cb19b8320a9c5feb26b56bbb08f152a8e61b12eca3302d8d68b23d\n      0x38\n      swap2\n      codecopy\n      0x40\n      add\n      swap2\n      pop\n      pop\n      mload(0x40)\n      dup1\n      swap2\n      sub\n      swap1\n      revert\n    tag_112:\n        /* \".deps/github/OpenZeppelin/openzeppelin-contracts/contracts/token/ERC721/ERC721.sol\":7530:7551  _approve(to, tokenId) */\n      tag_113\n        /* \".deps/github/OpenZeppelin/openzeppelin-contracts/contracts/token/ERC721/ERC721.sol\":7539:7541  to */\n      dup4\n        /* \".deps/github/OpenZeppelin/openzeppelin-contracts/contracts/token/ERC721/ERC721.sol\":7543:7550  tokenId */\n      dup4\n        /* \".deps/github/OpenZeppelin/openzeppelin-contracts/contracts/token/ERC721/ERC721.sol\":7530:7538  _approve */\n      tag_114\n        /* \".deps/github/OpenZeppelin/openzeppelin-contracts/contracts/token/ERC721/ERC721.sol\":7530:7551  _approve(to, tokenId) */\n      jump\t// in\n    tag_113:\n        /* \".deps/github/OpenZeppelin/openzeppelin-contracts/contracts/token/ERC721/ERC721.sol\":7163:7558  function approve(address to, uint256 tokenId) public virtual override {... */\n      pop\n      pop\n      pop\n      jump\t// out\n        /* \".deps/github/OpenZeppelin/openzeppelin-contracts/contracts/token/ERC721/ERC721.sol\":6657:6865  function totalSupply() public view virtual override returns (uint256) {... */\n    tag_41:\n        /* \".deps/github/OpenZeppelin/openzeppelin-contracts/contracts/token/ERC721/ERC721.sol\":6718:6725  uint256 */\n      0x00\n        /* \".deps/github/OpenZeppelin/openzeppelin-contracts/contracts/token/ERC721/ERC721.sol\":6837:6858  _tokenOwners.length() */\n      tag_116\n        /* \".deps/github/OpenZeppelin/openzeppelin-contracts/contracts/token/ERC721/ERC721.sol\":6837:6849  _tokenOwners */\n      0x02\n        /* \".deps/github/OpenZeppelin/openzeppelin-contracts/contracts/token/ERC721/ERC721.sol\":6837:6856  _tokenOwners.length */\n      tag_117\n        /* \".deps/github/OpenZeppelin/openzeppelin-contracts/contracts/token/ERC721/ERC721.sol\":6837:6858  _tokenOwners.length() */\n      jump\t// in\n    tag_116:\n        /* \".deps/github/OpenZeppelin/openzeppelin-contracts/contracts/token/ERC721/ERC721.sol\":6830:6858  return _tokenOwners.length() */\n      swap1\n      pop\n        /* \".deps/github/OpenZeppelin/openzeppelin-contracts/contracts/token/ERC721/ERC721.sol\":6657:6865  function totalSupply() public view virtual override returns (uint256) {... */\n      swap1\n      jump\t// out\n        /* \".deps/github/OpenZeppelin/openzeppelin-contracts/contracts/token/ERC721/ERC721.sol\":8483:8837  function transferFrom(address from, address to, uint256 tokenId) public virtual override {... */\n    tag_44:\n        /* \".deps/github/OpenZeppelin/openzeppelin-contracts/contracts/token/ERC721/ERC721.sol\":8642:8683  _isApprovedOrOwner(_msgSender(), tokenId) */\n      tag_119\n        /* \".deps/github/OpenZeppelin/openzeppelin-contracts/contracts/token/ERC721/ERC721.sol\":8661:8673  _msgSender() */\n      tag_120\n        /* \".deps/github/OpenZeppelin/openzeppelin-contracts/contracts/token/ERC721/ERC721.sol\":8661:8671  _msgSender */\n      tag_108\n        /* \".deps/github/OpenZeppelin/openzeppelin-contracts/contracts/token/ERC721/ERC721.sol\":8661:8673  _msgSender() */\n      jump\t// in\n    tag_120:\n        /* \".deps/github/OpenZeppelin/openzeppelin-contracts/contracts/token/ERC721/ERC721.sol\":8675:8682  tokenId */\n      dup3\n        /* \".deps/github/OpenZeppelin/openzeppelin-contracts/contracts/token/ERC721/ERC721.sol\":8642:8660  _isApprovedOrOwner */\n      tag_121\n        /* \".deps/github/OpenZeppelin/openzeppelin-contracts/contracts/token/ERC721/ERC721.sol\":8642:8683  _isApprovedOrOwner(_msgSender(), tokenId) */\n      jump\t// in\n    tag_119:\n        /* \".deps/github/OpenZeppelin/openzeppelin-contracts/contracts/token/ERC721/ERC721.sol\":8634:8737  require(_isApprovedOrOwner(_msgSender(), tokenId), \"ERC721: transfer caller is not owner nor approved\") */\n      tag_122\n      jumpi\n      mload(0x40)\n      0x08c379a000000000000000000000000000000000000000000000000000000000\n      dup2\n      mstore\n      0x04\n      add\n      dup1\n      dup1\n      0x20\n      add\n      dup3\n      dup2\n      sub\n      dup3\n      mstore\n      0x31\n      dup2\n      mstore\n      0x20\n      add\n      dup1\n      data_c8682f3ad98807db59a6ec6bb812b72fed0a66e3150fa8239699ee83885247f2\n      0x31\n      swap2\n      codecopy\n      0x40\n      add\n      swap2\n      pop\n      pop\n      mload(0x40)\n      dup1\n      swap2\n      sub\n      swap1\n      revert\n    tag_122:\n        /* \".deps/github/OpenZeppelin/openzeppelin-contracts/contracts/token/ERC721/ERC721.sol\":8766:8771  false */\n      0x00\n        /* \".deps/github/OpenZeppelin/openzeppelin-contracts/contracts/token/ERC721/ERC721.sol\":8755:8771  _locked == false */\n      iszero\n      iszero\n        /* \".deps/github/OpenZeppelin/openzeppelin-contracts/contracts/token/ERC721/ERC721.sol\":8755:8762  _locked */\n      0x0a\n      0x00\n      swap1\n      sload\n      swap1\n      0x0100\n      exp\n      swap1\n      div\n      0xff\n      and\n        /* \".deps/github/OpenZeppelin/openzeppelin-contracts/contracts/token/ERC721/ERC721.sol\":8755:8771  _locked == false */\n      iszero\n      iszero\n      eq\n        /* \".deps/github/OpenZeppelin/openzeppelin-contracts/contracts/token/ERC721/ERC721.sol\":8747:8792  require(_locked == false, \"Token is locked!\") */\n      tag_123\n      jumpi\n      mload(0x40)\n      0x08c379a000000000000000000000000000000000000000000000000000000000\n      dup2\n      mstore\n      0x04\n      add\n      dup1\n      dup1\n      0x20\n      add\n      dup3\n      dup2\n      sub\n      dup3\n      mstore\n      0x10\n      dup2\n      mstore\n      0x20\n      add\n      dup1\n      0x546f6b656e206973206c6f636b65642100000000000000000000000000000000\n      dup2\n      mstore\n      pop\n      0x20\n      add\n      swap2\n      pop\n      pop\n      mload(0x40)\n      dup1\n      swap2\n      sub\n      swap1\n      revert\n    tag_123:\n        /* \".deps/github/OpenZeppelin/openzeppelin-contracts/contracts/token/ERC721/ERC721.sol\":8802:8830  _transfer(from, to, tokenId) */\n      tag_124\n        /* \".deps/github/OpenZeppelin/openzeppelin-contracts/contracts/token/ERC721/ERC721.sol\":8812:8816  from */\n      dup4\n        /* \".deps/github/OpenZeppelin/openzeppelin-contracts/contracts/token/ERC721/ERC721.sol\":8818:8820  to */\n      dup4\n        /* \".deps/github/OpenZeppelin/openzeppelin-contracts/contracts/token/ERC721/ERC721.sol\":8822:8829  tokenId */\n      dup4\n        /* \".deps/github/OpenZeppelin/openzeppelin-contracts/contracts/token/ERC721/ERC721.sol\":8802:8811  _transfer */\n      tag_125\n        /* \".deps/github/OpenZeppelin/openzeppelin-contracts/contracts/token/ERC721/ERC721.sol\":8802:8830  _transfer(from, to, tokenId) */\n      jump\t// in\n    tag_124:\n        /* \".deps/github/OpenZeppelin/openzeppelin-contracts/contracts/token/ERC721/ERC721.sol\":8483:8837  function transferFrom(address from, address to, uint256 tokenId) public virtual override {... */\n      pop\n      pop\n      pop\n      jump\t// out\n        /* \".deps/github/OpenZeppelin/openzeppelin-contracts/contracts/token/ERC721/ERC721.sol\":6426:6586  function tokenOfOwnerByIndex(address owner, uint256 index) public view virtual override returns (uint256) {... */\n    tag_47:\n        /* \".deps/github/OpenZeppelin/openzeppelin-contracts/contracts/token/ERC721/ERC721.sol\":6523:6530  uint256 */\n      0x00\n        /* \".deps/github/OpenZeppelin/openzeppelin-contracts/contracts/token/ERC721/ERC721.sol\":6549:6579  _holderTokens[owner].at(index) */\n      tag_127\n        /* \".deps/github/OpenZeppelin/openzeppelin-contracts/contracts/token/ERC721/ERC721.sol\":6573:6578  index */\n      dup3\n        /* \".deps/github/OpenZeppelin/openzeppelin-contracts/contracts/token/ERC721/ERC721.sol\":6549:6562  _holderTokens */\n      0x01\n        /* \".deps/github/OpenZeppelin/openzeppelin-contracts/contracts/token/ERC721/ERC721.sol\":6549:6569  _holderTokens[owner] */\n      0x00\n        /* \".deps/github/OpenZeppelin/openzeppelin-contracts/contracts/token/ERC721/ERC721.sol\":6563:6568  owner */\n      dup7\n        /* \".deps/github/OpenZeppelin/openzeppelin-contracts/contracts/token/ERC721/ERC721.sol\":6549:6569  _holderTokens[owner] */\n      0xffffffffffffffffffffffffffffffffffffffff\n      and\n      0xffffffffffffffffffffffffffffffffffffffff\n      and\n      dup2\n      mstore\n      0x20\n      add\n      swap1\n      dup2\n      mstore\n      0x20\n      add\n      0x00\n      keccak256\n        /* \".deps/github/OpenZeppelin/openzeppelin-contracts/contracts/token/ERC721/ERC721.sol\":6549:6572  _holderTokens[owner].at */\n      tag_128\n      swap1\n        /* \".deps/github/OpenZeppelin/openzeppelin-contracts/contracts/token/ERC721/ERC721.sol\":6549:6579  _holderTokens[owner].at(index) */\n      swap2\n      swap1\n      0xffffffff\n      and\n      jump\t// in\n    tag_127:\n        /* \".deps/github/OpenZeppelin/openzeppelin-contracts/contracts/token/ERC721/ERC721.sol\":6542:6579  return _holderTokens[owner].at(index) */\n      swap1\n      pop\n        /* \".deps/github/OpenZeppelin/openzeppelin-contracts/contracts/token/ERC721/ERC721.sol\":6426:6586  function tokenOfOwnerByIndex(address owner, uint256 index) public view virtual override returns (uint256) {... */\n      swap3\n      swap2\n      pop\n      pop\n      jump\t// out\n        /* \".deps/github/OpenZeppelin/openzeppelin-contracts/contracts/token/ERC721/ERC721.sol\":8903:9052  function safeTransferFrom(address from, address to, uint256 tokenId) public virtual override {... */\n    tag_50:\n        /* \".deps/github/OpenZeppelin/openzeppelin-contracts/contracts/token/ERC721/ERC721.sol\":9006:9045  safeTransferFrom(from, to, tokenId, \"\") */\n      tag_130\n        /* \".deps/github/OpenZeppelin/openzeppelin-contracts/contracts/token/ERC721/ERC721.sol\":9023:9027  from */\n      dup4\n        /* \".deps/github/OpenZeppelin/openzeppelin-contracts/contracts/token/ERC721/ERC721.sol\":9029:9031  to */\n      dup4\n        /* \".deps/github/OpenZeppelin/openzeppelin-contracts/contracts/token/ERC721/ERC721.sol\":9033:9040  tokenId */\n      dup4\n        /* \".deps/github/OpenZeppelin/openzeppelin-contracts/contracts/token/ERC721/ERC721.sol\":9006:9045  safeTransferFrom(from, to, tokenId, \"\") */\n      mload(0x40)\n      dup1\n      0x20\n      add\n      0x40\n      mstore\n      dup1\n      0x00\n      dup2\n      mstore\n      pop\n        /* \".deps/github/OpenZeppelin/openzeppelin-contracts/contracts/token/ERC721/ERC721.sol\":9006:9022  safeTransferFrom */\n      tag_82\n        /* \".deps/github/OpenZeppelin/openzeppelin-contracts/contracts/token/ERC721/ERC721.sol\":9006:9045  safeTransferFrom(from, to, tokenId, \"\") */\n      jump\t// in\n    tag_130:\n        /* \".deps/github/OpenZeppelin/openzeppelin-contracts/contracts/token/ERC721/ERC721.sol\":8903:9052  function safeTransferFrom(address from, address to, uint256 tokenId) public virtual override {... */\n      pop\n      pop\n      pop\n      jump\t// out\n        /* \".deps/github/OpenZeppelin/openzeppelin-contracts/contracts/token/ERC721/ERC721.sol\":6937:7106  function tokenByIndex(uint256 index) public view virtual override returns (uint256) {... */\n    tag_53:\n        /* \".deps/github/OpenZeppelin/openzeppelin-contracts/contracts/token/ERC721/ERC721.sol\":7012:7019  uint256 */\n      0x00\n        /* \".deps/github/OpenZeppelin/openzeppelin-contracts/contracts/token/ERC721/ERC721.sol\":7032:7047  uint256 tokenId */\n      dup1\n        /* \".deps/github/OpenZeppelin/openzeppelin-contracts/contracts/token/ERC721/ERC721.sol\":7053:7075  _tokenOwners.at(index) */\n      tag_132\n        /* \".deps/github/OpenZeppelin/openzeppelin-contracts/contracts/token/ERC721/ERC721.sol\":7069:7074  index */\n      dup4\n        /* \".deps/github/OpenZeppelin/openzeppelin-contracts/contracts/token/ERC721/ERC721.sol\":7053:7065  _tokenOwners */\n      0x02\n        /* \".deps/github/OpenZeppelin/openzeppelin-contracts/contracts/token/ERC721/ERC721.sol\":7053:7068  _tokenOwners.at */\n      tag_133\n      swap1\n        /* \".deps/github/OpenZeppelin/openzeppelin-contracts/contracts/token/ERC721/ERC721.sol\":7053:7075  _tokenOwners.at(index) */\n      swap2\n      swap1\n      0xffffffff\n      and\n      jump\t// in\n    tag_132:\n        /* \".deps/github/OpenZeppelin/openzeppelin-contracts/contracts/token/ERC721/ERC721.sol\":7031:7075  (uint256 tokenId, ) = _tokenOwners.at(index) */\n      pop\n      swap1\n      pop\n        /* \".deps/github/OpenZeppelin/openzeppelin-contracts/contracts/token/ERC721/ERC721.sol\":7092:7099  tokenId */\n      dup1\n        /* \".deps/github/OpenZeppelin/openzeppelin-contracts/contracts/token/ERC721/ERC721.sol\":7085:7099  return tokenId */\n      swap2\n      pop\n      pop\n        /* \".deps/github/OpenZeppelin/openzeppelin-contracts/contracts/token/ERC721/ERC721.sol\":6937:7106  function tokenByIndex(uint256 index) public view virtual override returns (uint256) {... */\n      swap2\n      swap1\n      pop\n      jump\t// out\n        /* \".deps/github/OpenZeppelin/openzeppelin-contracts/contracts/token/ERC721/ERC721.sol\":4677:4852  function ownerOf(uint256 tokenId) public view virtual override returns (address) {... */\n    tag_56:\n        /* \".deps/github/OpenZeppelin/openzeppelin-contracts/contracts/token/ERC721/ERC721.sol\":4749:4756  address */\n      0x00\n        /* \".deps/github/OpenZeppelin/openzeppelin-contracts/contracts/token/ERC721/ERC721.sol\":4775:4845  _tokenOwners.get(tokenId, \"ERC721: owner query for nonexistent token\") */\n      tag_135\n        /* \".deps/github/OpenZeppelin/openzeppelin-contracts/contracts/token/ERC721/ERC721.sol\":4792:4799  tokenId */\n      dup3\n        /* \".deps/github/OpenZeppelin/openzeppelin-contracts/contracts/token/ERC721/ERC721.sol\":4775:4845  _tokenOwners.get(tokenId, \"ERC721: owner query for nonexistent token\") */\n      mload(0x40)\n      dup1\n      0x60\n      add\n      0x40\n      mstore\n      dup1\n      0x29\n      dup2\n      mstore\n      0x20\n      add\n      data_7481f3df2a424c0755a1ad2356614e9a5a358d461ea2eae1f89cb21cbad00397\n      0x29\n      swap2\n      codecopy\n        /* \".deps/github/OpenZeppelin/openzeppelin-contracts/contracts/token/ERC721/ERC721.sol\":4775:4787  _tokenOwners */\n      0x02\n        /* \".deps/github/OpenZeppelin/openzeppelin-contracts/contracts/token/ERC721/ERC721.sol\":4775:4791  _tokenOwners.get */\n      tag_136\n      swap1\n        /* \".deps/github/OpenZeppelin/openzeppelin-contracts/contracts/token/ERC721/ERC721.sol\":4775:4845  _tokenOwners.get(tokenId, \"ERC721: owner query for nonexistent token\") */\n      swap3\n      swap2\n      swap1\n      0xffffffff\n      and\n      jump\t// in\n    tag_135:\n        /* \".deps/github/OpenZeppelin/openzeppelin-contracts/contracts/token/ERC721/ERC721.sol\":4768:4845  return _tokenOwners.get(tokenId, \"ERC721: owner query for nonexistent token\") */\n      swap1\n      pop\n        /* \".deps/github/OpenZeppelin/openzeppelin-contracts/contracts/token/ERC721/ERC721.sol\":4677:4852  function ownerOf(uint256 tokenId) public view virtual override returns (address) {... */\n      swap2\n      swap1\n      pop\n      jump\t// out\n        /* \".deps/github/OpenZeppelin/openzeppelin-contracts/contracts/token/ERC721/ERC721.sol\":6252:6347  function baseURI() public view virtual returns (string memory) {... */\n    tag_58:\n        /* \".deps/github/OpenZeppelin/openzeppelin-contracts/contracts/token/ERC721/ERC721.sol\":6300:6313  string memory */\n      0x60\n        /* \".deps/github/OpenZeppelin/openzeppelin-contracts/contracts/token/ERC721/ERC721.sol\":6332:6340  _baseURI */\n      0x09\n        /* \".deps/github/OpenZeppelin/openzeppelin-contracts/contracts/token/ERC721/ERC721.sol\":6325:6340  return _baseURI */\n      dup1\n      sload\n      0x01\n      dup2\n      0x01\n      and\n      iszero\n      0x0100\n      mul\n      sub\n      and\n      0x02\n      swap1\n      div\n      dup1\n      0x1f\n      add\n      0x20\n      dup1\n      swap2\n      div\n      mul\n      0x20\n      add\n      mload(0x40)\n      swap1\n      dup2\n      add\n      0x40\n      mstore\n      dup1\n      swap3\n      swap2\n      swap1\n      dup2\n      dup2\n      mstore\n      0x20\n      add\n      dup3\n      dup1\n      sload\n      0x01\n      dup2\n      0x01\n      and\n      iszero\n      0x0100\n      mul\n      sub\n      and\n      0x02\n      swap1\n      div\n      dup1\n      iszero\n      tag_138\n      jumpi\n      dup1\n      0x1f\n      lt\n      tag_139\n      jumpi\n      0x0100\n      dup1\n      dup4\n      sload\n      div\n      mul\n      dup4\n      mstore\n      swap2\n      0x20\n      add\n      swap2\n      jump(tag_138)\n    tag_139:\n      dup3\n      add\n      swap2\n      swap1\n      0x00\n      mstore\n      keccak256(0x00, 0x20)\n      swap1\n    tag_140:\n      dup2\n      sload\n      dup2\n      mstore\n      swap1\n      0x01\n      add\n      swap1\n      0x20\n      add\n      dup1\n      dup4\n      gt\n      tag_140\n      jumpi\n      dup3\n      swap1\n      sub\n      0x1f\n      and\n      dup3\n      add\n      swap2\n    tag_138:\n      pop\n      pop\n      pop\n      pop\n      pop\n      swap1\n      pop\n        /* \".deps/github/OpenZeppelin/openzeppelin-contracts/contracts/token/ERC721/ERC721.sol\":6252:6347  function baseURI() public view virtual returns (string memory) {... */\n      swap1\n      jump\t// out\n        /* \".deps/github/OpenZeppelin/openzeppelin-contracts/contracts/token/ERC721/ERC721.sol\":4402:4620  function balanceOf(address owner) public view virtual override returns (uint256) {... */\n    tag_65:\n        /* \".deps/github/OpenZeppelin/openzeppelin-contracts/contracts/token/ERC721/ERC721.sol\":4474:4481  uint256 */\n      0x00\n        /* \".deps/github/OpenZeppelin/openzeppelin-contracts/contracts/token/ERC721/ERC721.sol\":4518:4519  0 */\n      dup1\n        /* \".deps/github/OpenZeppelin/openzeppelin-contracts/contracts/token/ERC721/ERC721.sol\":4501:4520  owner != address(0) */\n      0xffffffffffffffffffffffffffffffffffffffff\n      and\n        /* \".deps/github/OpenZeppelin/openzeppelin-contracts/contracts/token/ERC721/ERC721.sol\":4501:4506  owner */\n      dup3\n        /* \".deps/github/OpenZeppelin/openzeppelin-contracts/contracts/token/ERC721/ERC721.sol\":4501:4520  owner != address(0) */\n      0xffffffffffffffffffffffffffffffffffffffff\n      and\n      eq\n      iszero\n        /* \".deps/github/OpenZeppelin/openzeppelin-contracts/contracts/token/ERC721/ERC721.sol\":4493:4567  require(owner != address(0), \"ERC721: balance query for the zero address\") */\n      tag_142\n      jumpi\n      mload(0x40)\n      0x08c379a000000000000000000000000000000000000000000000000000000000\n      dup2\n      mstore\n      0x04\n      add\n      dup1\n      dup1\n      0x20\n      add\n      dup3\n      dup2\n      sub\n      dup3\n      mstore\n      0x2a\n      dup2\n      mstore\n      0x20\n      add\n      dup1\n      data_7395d4d3901c50cdfcab223d072f9aa36241df5d883e62cbf147ee1b05a9e6ba\n      0x2a\n      swap2\n      codecopy\n      0x40\n      add\n      swap2\n      pop\n      pop\n      mload(0x40)\n      dup1\n      swap2\n      sub\n      swap1\n      revert\n    tag_142:\n        /* \".deps/github/OpenZeppelin/openzeppelin-contracts/contracts/token/ERC721/ERC721.sol\":4584:4613  _holderTokens[owner].length() */\n      tag_143\n        /* \".deps/github/OpenZeppelin/openzeppelin-contracts/contracts/token/ERC721/ERC721.sol\":4584:4597  _holderTokens */\n      0x01\n        /* \".deps/github/OpenZeppelin/openzeppelin-contracts/contracts/token/ERC721/ERC721.sol\":4584:4604  _holderTokens[owner] */\n      0x00\n        /* \".deps/github/OpenZeppelin/openzeppelin-contracts/contracts/token/ERC721/ERC721.sol\":4598:4603  owner */\n      dup5\n        /* \".deps/github/OpenZeppelin/openzeppelin-contracts/contracts/token/ERC721/ERC721.sol\":4584:4604  _holderTokens[owner] */\n      0xffffffffffffffffffffffffffffffffffffffff\n      and\n      0xffffffffffffffffffffffffffffffffffffffff\n      and\n      dup2\n      mstore\n      0x20\n      add\n      swap1\n      dup2\n      mstore\n      0x20\n      add\n      0x00\n      keccak256\n        /* \".deps/github/OpenZeppelin/openzeppelin-contracts/contracts/token/ERC721/ERC721.sol\":4584:4611  _holderTokens[owner].length */\n      tag_144\n        /* \".deps/github/OpenZeppelin/openzeppelin-contracts/contracts/token/ERC721/ERC721.sol\":4584:4613  _holderTokens[owner].length() */\n      jump\t// in\n    tag_143:\n        /* \".deps/github/OpenZeppelin/openzeppelin-contracts/contracts/token/ERC721/ERC721.sol\":4577:4613  return _holderTokens[owner].length() */\n      swap1\n      pop\n        /* \".deps/github/OpenZeppelin/openzeppelin-contracts/contracts/token/ERC721/ERC721.sol\":4402:4620  function balanceOf(address owner) public view virtual override returns (uint256) {... */\n      swap2\n      swap1\n      pop\n      jump\t// out\n        /* \".deps/github/OpenZeppelin/openzeppelin-contracts/contracts/token/ERC721/ERC721.sol\":5076:5178  function symbol() public view virtual override returns (string memory) {... */\n    tag_67:\n        /* \".deps/github/OpenZeppelin/openzeppelin-contracts/contracts/token/ERC721/ERC721.sol\":5132:5145  string memory */\n      0x60\n        /* \".deps/github/OpenZeppelin/openzeppelin-contracts/contracts/token/ERC721/ERC721.sol\":5164:5171  _symbol */\n      0x07\n        /* \".deps/github/OpenZeppelin/openzeppelin-contracts/contracts/token/ERC721/ERC721.sol\":5157:5171  return _symbol */\n      dup1\n      sload\n      0x01\n      dup2\n      0x01\n      and\n      iszero\n      0x0100\n      mul\n      sub\n      and\n      0x02\n      swap1\n      div\n      dup1\n      0x1f\n      add\n      0x20\n      dup1\n      swap2\n      div\n      mul\n      0x20\n      add\n      mload(0x40)\n      swap1\n      dup2\n      add\n      0x40\n      mstore\n      dup1\n      swap3\n      swap2\n      swap1\n      dup2\n      dup2\n      mstore\n      0x20\n      add\n      dup3\n      dup1\n      sload\n      0x01\n      dup2\n      0x01\n      and\n      iszero\n      0x0100\n      mul\n      sub\n      and\n      0x02\n      swap1\n      div\n      dup1\n      iszero\n      tag_146\n      jumpi\n      dup1\n      0x1f\n      lt\n      tag_147\n      jumpi\n      0x0100\n      dup1\n      dup4\n      sload\n      div\n      mul\n      dup4\n      mstore\n      swap2\n      0x20\n      add\n      swap2\n      jump(tag_146)\n    tag_147:\n      dup3\n      add\n      swap2\n      swap1\n      0x00\n      mstore\n      keccak256(0x00, 0x20)\n      swap1\n    tag_148:\n      dup2\n      sload\n      dup2\n      mstore\n      swap1\n      0x01\n      add\n      swap1\n      0x20\n      add\n      dup1\n      dup4\n      gt\n      tag_148\n      jumpi\n      dup3\n      swap1\n      sub\n      0x1f\n      and\n      dup3\n      add\n      swap2\n    tag_146:\n      pop\n      pop\n      pop\n      pop\n      pop\n      swap1\n      pop\n        /* \".deps/github/OpenZeppelin/openzeppelin-contracts/contracts/token/ERC721/ERC721.sol\":5076:5178  function symbol() public view virtual override returns (string memory) {... */\n      swap1\n      jump\t// out\n        /* \".deps/github/OpenZeppelin/openzeppelin-contracts/contracts/token/ERC721/ERC721.sol\":7903:8193  function setApprovalForAll(address operator, bool approved) public virtual override {... */\n    tag_74:\n        /* \".deps/github/OpenZeppelin/openzeppelin-contracts/contracts/token/ERC721/ERC721.sol\":8017:8029  _msgSender() */\n      tag_150\n        /* \".deps/github/OpenZeppelin/openzeppelin-contracts/contracts/token/ERC721/ERC721.sol\":8017:8027  _msgSender */\n      tag_108\n        /* \".deps/github/OpenZeppelin/openzeppelin-contracts/contracts/token/ERC721/ERC721.sol\":8017:8029  _msgSender() */\n      jump\t// in\n    tag_150:\n        /* \".deps/github/OpenZeppelin/openzeppelin-contracts/contracts/token/ERC721/ERC721.sol\":8005:8029  operator != _msgSender() */\n      0xffffffffffffffffffffffffffffffffffffffff\n      and\n        /* \".deps/github/OpenZeppelin/openzeppelin-contracts/contracts/token/ERC721/ERC721.sol\":8005:8013  operator */\n      dup3\n        /* \".deps/github/OpenZeppelin/openzeppelin-contracts/contracts/token/ERC721/ERC721.sol\":8005:8029  operator != _msgSender() */\n      0xffffffffffffffffffffffffffffffffffffffff\n      and\n      eq\n      iszero\n        /* \".deps/github/OpenZeppelin/openzeppelin-contracts/contracts/token/ERC721/ERC721.sol\":7997:8059  require(operator != _msgSender(), \"ERC721: approve to caller\") */\n      tag_151\n      jumpi\n      mload(0x40)\n      0x08c379a000000000000000000000000000000000000000000000000000000000\n      dup2\n      mstore\n      0x04\n      add\n      dup1\n      dup1\n      0x20\n      add\n      dup3\n      dup2\n      sub\n      dup3\n      mstore\n      0x19\n      dup2\n      mstore\n      0x20\n      add\n      dup1\n      0x4552433732313a20617070726f766520746f2063616c6c657200000000000000\n      dup2\n      mstore\n      pop\n      0x20\n      add\n      swap2\n      pop\n      pop\n      mload(0x40)\n      dup1\n      swap2\n      sub\n      swap1\n      revert\n    tag_151:\n        /* \".deps/github/OpenZeppelin/openzeppelin-contracts/contracts/token/ERC721/ERC721.sol\":8115:8123  approved */\n      dup1\n        /* \".deps/github/OpenZeppelin/openzeppelin-contracts/contracts/token/ERC721/ERC721.sol\":8070:8088  _operatorApprovals */\n      0x05\n        /* \".deps/github/OpenZeppelin/openzeppelin-contracts/contracts/token/ERC721/ERC721.sol\":8070:8102  _operatorApprovals[_msgSender()] */\n      0x00\n        /* \".deps/github/OpenZeppelin/openzeppelin-contracts/contracts/token/ERC721/ERC721.sol\":8089:8101  _msgSender() */\n      tag_152\n        /* \".deps/github/OpenZeppelin/openzeppelin-contracts/contracts/token/ERC721/ERC721.sol\":8089:8099  _msgSender */\n      tag_108\n        /* \".deps/github/OpenZeppelin/openzeppelin-contracts/contracts/token/ERC721/ERC721.sol\":8089:8101  _msgSender() */\n      jump\t// in\n    tag_152:\n        /* \".deps/github/OpenZeppelin/openzeppelin-contracts/contracts/token/ERC721/ERC721.sol\":8070:8102  _operatorApprovals[_msgSender()] */\n      0xffffffffffffffffffffffffffffffffffffffff\n      and\n      0xffffffffffffffffffffffffffffffffffffffff\n      and\n      dup2\n      mstore\n      0x20\n      add\n      swap1\n      dup2\n      mstore\n      0x20\n      add\n      0x00\n      keccak256\n        /* \".deps/github/OpenZeppelin/openzeppelin-contracts/contracts/token/ERC721/ERC721.sol\":8070:8112  _operatorApprovals[_msgSender()][operator] */\n      0x00\n        /* \".deps/github/OpenZeppelin/openzeppelin-contracts/contracts/token/ERC721/ERC721.sol\":8103:8111  operator */\n      dup5\n        /* \".deps/github/OpenZeppelin/openzeppelin-contracts/contracts/token/ERC721/ERC721.sol\":8070:8112  _operatorApprovals[_msgSender()][operator] */\n      0xffffffffffffffffffffffffffffffffffffffff\n      and\n      0xffffffffffffffffffffffffffffffffffffffff\n      and\n      dup2\n      mstore\n      0x20\n      add\n      swap1\n      dup2\n      mstore\n      0x20\n      add\n      0x00\n      keccak256\n      0x00\n        /* \".deps/github/OpenZeppelin/openzeppelin-contracts/contracts/token/ERC721/ERC721.sol\":8070:8123  _operatorApprovals[_msgSender()][operator] = approved */\n      0x0100\n      exp\n      dup2\n      sload\n      dup2\n      0xff\n      mul\n      not\n      and\n      swap1\n      dup4\n      iszero\n      iszero\n      mul\n      or\n      swap1\n      sstore\n      pop\n        /* \".deps/github/OpenZeppelin/openzeppelin-contracts/contracts/token/ERC721/ERC721.sol\":8167:8175  operator */\n      dup2\n        /* \".deps/github/OpenZeppelin/openzeppelin-contracts/contracts/token/ERC721/ERC721.sol\":8138:8186  ApprovalForAll(_msgSender(), operator, approved) */\n      0xffffffffffffffffffffffffffffffffffffffff\n      and\n        /* \".deps/github/OpenZeppelin/openzeppelin-contracts/contracts/token/ERC721/ERC721.sol\":8153:8165  _msgSender() */\n      tag_153\n        /* \".deps/github/OpenZeppelin/openzeppelin-contracts/contracts/token/ERC721/ERC721.sol\":8153:8163  _msgSender */\n      tag_108\n        /* \".deps/github/OpenZeppelin/openzeppelin-contracts/contracts/token/ERC721/ERC721.sol\":8153:8165  _msgSender() */\n      jump\t// in\n    tag_153:\n        /* \".deps/github/OpenZeppelin/openzeppelin-contracts/contracts/token/ERC721/ERC721.sol\":8138:8186  ApprovalForAll(_msgSender(), operator, approved) */\n      0xffffffffffffffffffffffffffffffffffffffff\n      and\n      0x17307eab39ab6107e8899845ad3d59bd9653f200f220920489ca2b5937696c31\n        /* \".deps/github/OpenZeppelin/openzeppelin-contracts/contracts/token/ERC721/ERC721.sol\":8177:8185  approved */\n      dup4\n        /* \".deps/github/OpenZeppelin/openzeppelin-contracts/contracts/token/ERC721/ERC721.sol\":8138:8186  ApprovalForAll(_msgSender(), operator, approved) */\n      mload(0x40)\n      dup1\n      dup3\n      iszero\n      iszero\n      dup2\n      mstore\n      0x20\n      add\n      swap2\n      pop\n      pop\n      mload(0x40)\n      dup1\n      swap2\n      sub\n      swap1\n      log3\n        /* \".deps/github/OpenZeppelin/openzeppelin-contracts/contracts/token/ERC721/ERC721.sol\":7903:8193  function setApprovalForAll(address operator, bool approved) public virtual override {... */\n      pop\n      pop\n      jump\t// out\n        /* \".deps/github/OpenZeppelin/openzeppelin-contracts/contracts/token/ERC721/ERC721.sol\":4184:4344  function unlock()public virtual returns(bool){... */\n    tag_76:\n        /* \".deps/github/OpenZeppelin/openzeppelin-contracts/contracts/token/ERC721/ERC721.sol\":4224:4228  bool */\n      0x00\n        /* \".deps/github/OpenZeppelin/openzeppelin-contracts/contracts/token/ERC721/ERC721.sol\":4258:4262  true */\n      0x01\n        /* \".deps/github/OpenZeppelin/openzeppelin-contracts/contracts/token/ERC721/ERC721.sol\":4247:4262  _locked == true */\n      iszero\n      iszero\n        /* \".deps/github/OpenZeppelin/openzeppelin-contracts/contracts/token/ERC721/ERC721.sol\":4247:4254  _locked */\n      0x0a\n      0x00\n      swap1\n      sload\n      swap1\n      0x0100\n      exp\n      swap1\n      div\n      0xff\n      and\n        /* \".deps/github/OpenZeppelin/openzeppelin-contracts/contracts/token/ERC721/ERC721.sol\":4247:4262  _locked == true */\n      iszero\n      iszero\n      eq\n        /* \".deps/github/OpenZeppelin/openzeppelin-contracts/contracts/token/ERC721/ERC721.sol\":4239:4290  require(_locked == true,\"Token is already locked!\") */\n      tag_155\n      jumpi\n      mload(0x40)\n      0x08c379a000000000000000000000000000000000000000000000000000000000\n      dup2\n      mstore\n      0x04\n      add\n      dup1\n      dup1\n      0x20\n      add\n      dup3\n      dup2\n      sub\n      dup3\n      mstore\n      0x18\n      dup2\n      mstore\n      0x20\n      add\n      dup1\n      0x546f6b656e20697320616c7265616479206c6f636b6564210000000000000000\n      dup2\n      mstore\n      pop\n      0x20\n      add\n      swap2\n      pop\n      pop\n      mload(0x40)\n      dup1\n      swap2\n      sub\n      swap1\n      revert\n    tag_155:\n        /* \".deps/github/OpenZeppelin/openzeppelin-contracts/contracts/token/ERC721/ERC721.sol\":4310:4315  false */\n      0x00\n        /* \".deps/github/OpenZeppelin/openzeppelin-contracts/contracts/token/ERC721/ERC721.sol\":4300:4307  _locked */\n      0x0a\n      0x00\n        /* \".deps/github/OpenZeppelin/openzeppelin-contracts/contracts/token/ERC721/ERC721.sol\":4300:4315  _locked = false */\n      0x0100\n      exp\n      dup2\n      sload\n      dup2\n      0xff\n      mul\n      not\n      and\n      swap1\n      dup4\n      iszero\n      iszero\n      mul\n      or\n      swap1\n      sstore\n      pop\n        /* \".deps/github/OpenZeppelin/openzeppelin-contracts/contracts/token/ERC721/ERC721.sol\":4332:4337  false */\n      0x00\n        /* \".deps/github/OpenZeppelin/openzeppelin-contracts/contracts/token/ERC721/ERC721.sol\":4325:4337  return false */\n      swap1\n      pop\n        /* \".deps/github/OpenZeppelin/openzeppelin-contracts/contracts/token/ERC721/ERC721.sol\":4184:4344  function unlock()public virtual returns(bool){... */\n      swap1\n      jump\t// out\n        /* \".deps/github/OpenZeppelin/openzeppelin-contracts/contracts/token/ERC721/ERC721.sol\":9118:9400  function safeTransferFrom(address from, address to, uint256 tokenId, bytes memory _data) public virtual override {... */\n    tag_82:\n        /* \".deps/github/OpenZeppelin/openzeppelin-contracts/contracts/token/ERC721/ERC721.sol\":9249:9290  _isApprovedOrOwner(_msgSender(), tokenId) */\n      tag_157\n        /* \".deps/github/OpenZeppelin/openzeppelin-contracts/contracts/token/ERC721/ERC721.sol\":9268:9280  _msgSender() */\n      tag_158\n        /* \".deps/github/OpenZeppelin/openzeppelin-contracts/contracts/token/ERC721/ERC721.sol\":9268:9278  _msgSender */\n      tag_108\n        /* \".deps/github/OpenZeppelin/openzeppelin-contracts/contracts/token/ERC721/ERC721.sol\":9268:9280  _msgSender() */\n      jump\t// in\n    tag_158:\n        /* \".deps/github/OpenZeppelin/openzeppelin-contracts/contracts/token/ERC721/ERC721.sol\":9282:9289  tokenId */\n      dup4\n        /* \".deps/github/OpenZeppelin/openzeppelin-contracts/contracts/token/ERC721/ERC721.sol\":9249:9267  _isApprovedOrOwner */\n      tag_121\n        /* \".deps/github/OpenZeppelin/openzeppelin-contracts/contracts/token/ERC721/ERC721.sol\":9249:9290  _isApprovedOrOwner(_msgSender(), tokenId) */\n      jump\t// in\n    tag_157:\n        /* \".deps/github/OpenZeppelin/openzeppelin-contracts/contracts/token/ERC721/ERC721.sol\":9241:9344  require(_isApprovedOrOwner(_msgSender(), tokenId), \"ERC721: transfer caller is not owner nor approved\") */\n      tag_159\n      jumpi\n      mload(0x40)\n      0x08c379a000000000000000000000000000000000000000000000000000000000\n      dup2\n      mstore\n      0x04\n      add\n      dup1\n      dup1\n      0x20\n      add\n      dup3\n      dup2\n      sub\n      dup3\n      mstore\n      0x31\n      dup2\n      mstore\n      0x20\n      add\n      dup1\n      data_c8682f3ad98807db59a6ec6bb812b72fed0a66e3150fa8239699ee83885247f2\n      0x31\n      swap2\n      codecopy\n      0x40\n      add\n      swap2\n      pop\n      pop\n      mload(0x40)\n      dup1\n      swap2\n      sub\n      swap1\n      revert\n    tag_159:\n        /* \".deps/github/OpenZeppelin/openzeppelin-contracts/contracts/token/ERC721/ERC721.sol\":9354:9393  _safeTransfer(from, to, tokenId, _data) */\n      tag_160\n        /* \".deps/github/OpenZeppelin/openzeppelin-contracts/contracts/token/ERC721/ERC721.sol\":9368:9372  from */\n      dup5\n        /* \".deps/github/OpenZeppelin/openzeppelin-contracts/contracts/token/ERC721/ERC721.sol\":9374:9376  to */\n      dup5\n        /* \".deps/github/OpenZeppelin/openzeppelin-contracts/contracts/token/ERC721/ERC721.sol\":9378:9385  tokenId */\n      dup5\n        /* \".deps/github/OpenZeppelin/openzeppelin-contracts/contracts/token/ERC721/ERC721.sol\":9387:9392  _data */\n      dup5\n        /* \".deps/github/OpenZeppelin/openzeppelin-contracts/contracts/token/ERC721/ERC721.sol\":9354:9367  _safeTransfer */\n      tag_161\n        /* \".deps/github/OpenZeppelin/openzeppelin-contracts/contracts/token/ERC721/ERC721.sol\":9354:9393  _safeTransfer(from, to, tokenId, _data) */\n      jump\t// in\n    tag_160:\n        /* \".deps/github/OpenZeppelin/openzeppelin-contracts/contracts/token/ERC721/ERC721.sol\":9118:9400  function safeTransferFrom(address from, address to, uint256 tokenId, bytes memory _data) public virtual override {... */\n      pop\n      pop\n      pop\n      pop\n      jump\t// out\n        /* \".deps/github/OpenZeppelin/openzeppelin-contracts/contracts/token/ERC721/ERC721.sol\":5244:6020  function tokenURI(uint256 tokenId) public view virtual override returns (string memory) {... */\n    tag_85:\n        /* \".deps/github/OpenZeppelin/openzeppelin-contracts/contracts/token/ERC721/ERC721.sol\":5317:5330  string memory */\n      0x60\n        /* \".deps/github/OpenZeppelin/openzeppelin-contracts/contracts/token/ERC721/ERC721.sol\":5350:5366  _exists(tokenId) */\n      tag_163\n        /* \".deps/github/OpenZeppelin/openzeppelin-contracts/contracts/token/ERC721/ERC721.sol\":5358:5365  tokenId */\n      dup3\n        /* \".deps/github/OpenZeppelin/openzeppelin-contracts/contracts/token/ERC721/ERC721.sol\":5350:5357  _exists */\n      tag_102\n        /* \".deps/github/OpenZeppelin/openzeppelin-contracts/contracts/token/ERC721/ERC721.sol\":5350:5366  _exists(tokenId) */\n      jump\t// in\n    tag_163:\n        /* \".deps/github/OpenZeppelin/openzeppelin-contracts/contracts/token/ERC721/ERC721.sol\":5342:5418  require(_exists(tokenId), \"ERC721Metadata: URI query for nonexistent token\") */\n      tag_164\n      jumpi\n      mload(0x40)\n      0x08c379a000000000000000000000000000000000000000000000000000000000\n      dup2\n      mstore\n      0x04\n      add\n      dup1\n      dup1\n      0x20\n      add\n      dup3\n      dup2\n      sub\n      dup3\n      mstore\n      0x2f\n      dup2\n      mstore\n      0x20\n      add\n      dup1\n      data_a2d45c0fba603d40d82d590051761ca952d1ab9d78cca6d0d464d7b6e961a9cb\n      0x2f\n      swap2\n      codecopy\n      0x40\n      add\n      swap2\n      pop\n      pop\n      mload(0x40)\n      dup1\n      swap2\n      sub\n      swap1\n      revert\n    tag_164:\n        /* \".deps/github/OpenZeppelin/openzeppelin-contracts/contracts/token/ERC721/ERC721.sol\":5429:5452  string memory _tokenURI */\n      0x60\n        /* \".deps/github/OpenZeppelin/openzeppelin-contracts/contracts/token/ERC721/ERC721.sol\":5455:5465  _tokenURIs */\n      0x08\n        /* \".deps/github/OpenZeppelin/openzeppelin-contracts/contracts/token/ERC721/ERC721.sol\":5455:5474  _tokenURIs[tokenId] */\n      0x00\n        /* \".deps/github/OpenZeppelin/openzeppelin-contracts/contracts/token/ERC721/ERC721.sol\":5466:5473  tokenId */\n      dup5\n        /* \".deps/github/OpenZeppelin/openzeppelin-contracts/contracts/token/ERC721/ERC721.sol\":5455:5474  _tokenURIs[tokenId] */\n      dup2\n      mstore\n      0x20\n      add\n      swap1\n      dup2\n      mstore\n      0x20\n      add\n      0x00\n      keccak256\n        /* \".deps/github/OpenZeppelin/openzeppelin-contracts/contracts/token/ERC721/ERC721.sol\":5429:5474  string memory _tokenURI = _tokenURIs[tokenId] */\n      dup1\n      sload\n      0x01\n      dup2\n      0x01\n      and\n      iszero\n      0x0100\n      mul\n      sub\n      and\n      0x02\n      swap1\n      div\n      dup1\n      0x1f\n      add\n      0x20\n      dup1\n      swap2\n      div\n      mul\n      0x20\n      add\n      mload(0x40)\n      swap1\n      dup2\n      add\n      0x40\n      mstore\n      dup1\n      swap3\n      swap2\n      swap1\n      dup2\n      dup2\n      mstore\n      0x20\n      add\n      dup3\n      dup1\n      sload\n      0x01\n      dup2\n      0x01\n      and\n      iszero\n      0x0100\n      mul\n      sub\n      and\n      0x02\n      swap1\n      div\n      dup1\n      iszero\n      tag_165\n      jumpi\n      dup1\n      0x1f\n      lt\n      tag_166\n      jumpi\n      0x0100\n      dup1\n      dup4\n      sload\n      div\n      mul\n      dup4\n      mstore\n      swap2\n      0x20\n      add\n      swap2\n      jump(tag_165)\n    tag_166:\n      dup3\n      add\n      swap2\n      swap1\n      0x00\n      mstore\n      keccak256(0x00, 0x20)\n      swap1\n    tag_167:\n      dup2\n      sload\n      dup2\n      mstore\n      swap1\n      0x01\n      add\n      swap1\n      0x20\n      add\n      dup1\n      dup4\n      gt\n      tag_167\n      jumpi\n      dup3\n      swap1\n      sub\n      0x1f\n      and\n      dup3\n      add\n      swap2\n    tag_165:\n      pop\n      pop\n      pop\n      pop\n      pop\n      swap1\n      pop\n        /* \".deps/github/OpenZeppelin/openzeppelin-contracts/contracts/token/ERC721/ERC721.sol\":5484:5502  string memory base */\n      0x60\n        /* \".deps/github/OpenZeppelin/openzeppelin-contracts/contracts/token/ERC721/ERC721.sol\":5505:5514  baseURI() */\n      tag_168\n        /* \".deps/github/OpenZeppelin/openzeppelin-contracts/contracts/token/ERC721/ERC721.sol\":5505:5512  baseURI */\n      tag_58\n        /* \".deps/github/OpenZeppelin/openzeppelin-contracts/contracts/token/ERC721/ERC721.sol\":5505:5514  baseURI() */\n      jump\t// in\n    tag_168:\n        /* \".deps/github/OpenZeppelin/openzeppelin-contracts/contracts/token/ERC721/ERC721.sol\":5484:5514  string memory base = baseURI() */\n      swap1\n      pop\n        /* \".deps/github/OpenZeppelin/openzeppelin-contracts/contracts/token/ERC721/ERC721.sol\":5609:5610  0 */\n      0x00\n        /* \".deps/github/OpenZeppelin/openzeppelin-contracts/contracts/token/ERC721/ERC721.sol\":5593:5597  base */\n      dup2\n        /* \".deps/github/OpenZeppelin/openzeppelin-contracts/contracts/token/ERC721/ERC721.sol\":5587:5605  bytes(base).length */\n      mload\n        /* \".deps/github/OpenZeppelin/openzeppelin-contracts/contracts/token/ERC721/ERC721.sol\":5587:5610  bytes(base).length == 0 */\n      eq\n        /* \".deps/github/OpenZeppelin/openzeppelin-contracts/contracts/token/ERC721/ERC721.sol\":5583:5653  if (bytes(base).length == 0) {... */\n      iszero\n      tag_169\n      jumpi\n        /* \".deps/github/OpenZeppelin/openzeppelin-contracts/contracts/token/ERC721/ERC721.sol\":5633:5642  _tokenURI */\n      dup2\n        /* \".deps/github/OpenZeppelin/openzeppelin-contracts/contracts/token/ERC721/ERC721.sol\":5626:5642  return _tokenURI */\n      swap3\n      pop\n      pop\n      pop\n      jump(tag_162)\n        /* \".deps/github/OpenZeppelin/openzeppelin-contracts/contracts/token/ERC721/ERC721.sol\":5583:5653  if (bytes(base).length == 0) {... */\n    tag_169:\n        /* \".deps/github/OpenZeppelin/openzeppelin-contracts/contracts/token/ERC721/ERC721.sol\":5781:5782  0 */\n      0x00\n        /* \".deps/github/OpenZeppelin/openzeppelin-contracts/contracts/token/ERC721/ERC721.sol\":5761:5770  _tokenURI */\n      dup3\n        /* \".deps/github/OpenZeppelin/openzeppelin-contracts/contracts/token/ERC721/ERC721.sol\":5755:5778  bytes(_tokenURI).length */\n      mload\n        /* \".deps/github/OpenZeppelin/openzeppelin-contracts/contracts/token/ERC721/ERC721.sol\":5755:5782  bytes(_tokenURI).length > 0 */\n      gt\n        /* \".deps/github/OpenZeppelin/openzeppelin-contracts/contracts/token/ERC721/ERC721.sol\":5751:5857  if (bytes(_tokenURI).length > 0) {... */\n      iszero\n      tag_170\n      jumpi\n        /* \".deps/github/OpenZeppelin/openzeppelin-contracts/contracts/token/ERC721/ERC721.sol\":5829:5833  base */\n      dup1\n        /* \".deps/github/OpenZeppelin/openzeppelin-contracts/contracts/token/ERC721/ERC721.sol\":5835:5844  _tokenURI */\n      dup3\n        /* \".deps/github/OpenZeppelin/openzeppelin-contracts/contracts/token/ERC721/ERC721.sol\":5812:5845  abi.encodePacked(base, _tokenURI) */\n      add(0x20, mload(0x40))\n      dup1\n      dup4\n      dup1\n      mload\n      swap1\n      0x20\n      add\n      swap1\n      dup1\n      dup4\n      dup4\n    tag_171:\n      0x20\n      dup4\n      lt\n      tag_173\n      jumpi\n      dup1\n      mload\n      dup3\n      mstore\n      0x20\n      dup3\n      add\n      swap2\n      pop\n      0x20\n      dup2\n      add\n      swap1\n      pop\n      0x20\n      dup4\n      sub\n      swap3\n      pop\n      jump(tag_171)\n    tag_173:\n      0x01\n      dup4\n      0x20\n      sub\n      0x0100\n      exp\n      sub\n      dup1\n      not\n      dup3\n      mload\n      and\n      dup2\n      dup5\n      mload\n      and\n      dup1\n      dup3\n      or\n      dup6\n      mstore\n      pop\n      pop\n      pop\n      pop\n      pop\n      pop\n      swap1\n      pop\n      add\n      dup3\n      dup1\n      mload\n      swap1\n      0x20\n      add\n      swap1\n      dup1\n      dup4\n      dup4\n    tag_174:\n      0x20\n      dup4\n      lt\n      tag_176\n      jumpi\n      dup1\n      mload\n      dup3\n      mstore\n      0x20\n      dup3\n      add\n      swap2\n      pop\n      0x20\n      dup2\n      add\n      swap1\n      pop\n      0x20\n      dup4\n      sub\n      swap3\n      pop\n      jump(tag_174)\n    tag_176:\n      0x01\n      dup4\n      0x20\n      sub\n      0x0100\n      exp\n      sub\n      dup1\n      not\n      dup3\n      mload\n      and\n      dup2\n      dup5\n      mload\n      and\n      dup1\n      dup3\n      or\n      dup6\n      mstore\n      pop\n      pop\n      pop\n      pop\n      pop\n      pop\n      swap1\n      pop\n      add\n      swap3\n      pop\n      pop\n      pop\n      mload(0x40)\n      0x20\n      dup2\n      dup4\n      sub\n      sub\n      dup2\n      mstore\n      swap1\n      0x40\n      mstore\n        /* \".deps/github/OpenZeppelin/openzeppelin-contracts/contracts/token/ERC721/ERC721.sol\":5798:5846  return string(abi.encodePacked(base, _tokenURI)) */\n      swap3\n      pop\n      pop\n      pop\n      jump(tag_162)\n        /* \".deps/github/OpenZeppelin/openzeppelin-contracts/contracts/token/ERC721/ERC721.sol\":5751:5857  if (bytes(_tokenURI).length > 0) {... */\n    tag_170:\n        /* \".deps/github/OpenZeppelin/openzeppelin-contracts/contracts/token/ERC721/ERC721.sol\":5987:5991  base */\n      dup1\n        /* \".deps/github/OpenZeppelin/openzeppelin-contracts/contracts/token/ERC721/ERC721.sol\":5993:6011  tokenId.toString() */\n      tag_177\n        /* \".deps/github/OpenZeppelin/openzeppelin-contracts/contracts/token/ERC721/ERC721.sol\":5993:6000  tokenId */\n      dup6\n        /* \".deps/github/OpenZeppelin/openzeppelin-contracts/contracts/token/ERC721/ERC721.sol\":5993:6009  tokenId.toString */\n      tag_178\n        /* \".deps/github/OpenZeppelin/openzeppelin-contracts/contracts/token/ERC721/ERC721.sol\":5993:6011  tokenId.toString() */\n      jump\t// in\n    tag_177:\n        /* \".deps/github/OpenZeppelin/openzeppelin-contracts/contracts/token/ERC721/ERC721.sol\":5970:6012  abi.encodePacked(base, tokenId.toString()) */\n      add(0x20, mload(0x40))\n      dup1\n      dup4\n      dup1\n      mload\n      swap1\n      0x20\n      add\n      swap1\n      dup1\n      dup4\n      dup4\n    tag_179:\n      0x20\n      dup4\n      lt\n      tag_181\n      jumpi\n      dup1\n      mload\n      dup3\n      mstore\n      0x20\n      dup3\n      add\n      swap2\n      pop\n      0x20\n      dup2\n      add\n      swap1\n      pop\n      0x20\n      dup4\n      sub\n      swap3\n      pop\n      jump(tag_179)\n    tag_181:\n      0x01\n      dup4\n      0x20\n      sub\n      0x0100\n      exp\n      sub\n      dup1\n      not\n      dup3\n      mload\n      and\n      dup2\n      dup5\n      mload\n      and\n      dup1\n      dup3\n      or\n      dup6\n      mstore\n      pop\n      pop\n      pop\n      pop\n      pop\n      pop\n      swap1\n      pop\n      add\n      dup3\n      dup1\n      mload\n      swap1\n      0x20\n      add\n      swap1\n      dup1\n      dup4\n      dup4\n    tag_182:\n      0x20\n      dup4\n      lt\n      tag_184\n      jumpi\n      dup1\n      mload\n      dup3\n      mstore\n      0x20\n      dup3\n      add\n      swap2\n      pop\n      0x20\n      dup2\n      add\n      swap1\n      pop\n      0x20\n      dup4\n      sub\n      swap3\n      pop\n      jump(tag_182)\n    tag_184:\n      0x01\n      dup4\n      0x20\n      sub\n      0x0100\n      exp\n      sub\n      dup1\n      not\n      dup3\n      mload\n      and\n      dup2\n      dup5\n      mload\n      and\n      dup1\n      dup3\n      or\n      dup6\n      mstore\n      pop\n      pop\n      pop\n      pop\n      pop\n      pop\n      swap1\n      pop\n      add\n      swap3\n      pop\n      pop\n      pop\n      mload(0x40)\n      0x20\n      dup2\n      dup4\n      sub\n      sub\n      dup2\n      mstore\n      swap1\n      0x40\n      mstore\n        /* \".deps/github/OpenZeppelin/openzeppelin-contracts/contracts/token/ERC721/ERC721.sol\":5956:6013  return string(abi.encodePacked(base, tokenId.toString())) */\n      swap3\n      pop\n      pop\n      pop\n        /* \".deps/github/OpenZeppelin/openzeppelin-contracts/contracts/token/ERC721/ERC721.sol\":5244:6020  function tokenURI(uint256 tokenId) public view virtual override returns (string memory) {... */\n    tag_162:\n      swap2\n      swap1\n      pop\n      jump\t// out\n        /* \".deps/github/OpenZeppelin/openzeppelin-contracts/contracts/token/ERC721/ERC721.sol\":8259:8421  function isApprovedForAll(address owner, address operator) public view virtual override returns (bool) {... */\n    tag_92:\n        /* \".deps/github/OpenZeppelin/openzeppelin-contracts/contracts/token/ERC721/ERC721.sol\":8356:8360  bool */\n      0x00\n        /* \".deps/github/OpenZeppelin/openzeppelin-contracts/contracts/token/ERC721/ERC721.sol\":8379:8397  _operatorApprovals */\n      0x05\n        /* \".deps/github/OpenZeppelin/openzeppelin-contracts/contracts/token/ERC721/ERC721.sol\":8379:8404  _operatorApprovals[owner] */\n      0x00\n        /* \".deps/github/OpenZeppelin/openzeppelin-contracts/contracts/token/ERC721/ERC721.sol\":8398:8403  owner */\n      dup5\n        /* \".deps/github/OpenZeppelin/openzeppelin-contracts/contracts/token/ERC721/ERC721.sol\":8379:8404  _operatorApprovals[owner] */\n      0xffffffffffffffffffffffffffffffffffffffff\n      and\n      0xffffffffffffffffffffffffffffffffffffffff\n      and\n      dup2\n      mstore\n      0x20\n      add\n      swap1\n      dup2\n      mstore\n      0x20\n      add\n      0x00\n      keccak256\n        /* \".deps/github/OpenZeppelin/openzeppelin-contracts/contracts/token/ERC721/ERC721.sol\":8379:8414  _operatorApprovals[owner][operator] */\n      0x00\n        /* \".deps/github/OpenZeppelin/openzeppelin-contracts/contracts/token/ERC721/ERC721.sol\":8405:8413  operator */\n      dup4\n        /* \".deps/github/OpenZeppelin/openzeppelin-contracts/contracts/token/ERC721/ERC721.sol\":8379:8414  _operatorApprovals[owner][operator] */\n      0xffffffffffffffffffffffffffffffffffffffff\n      and\n      0xffffffffffffffffffffffffffffffffffffffff\n      and\n      dup2\n      mstore\n      0x20\n      add\n      swap1\n      dup2\n      mstore\n      0x20\n      add\n      0x00\n      keccak256\n      0x00\n      swap1\n      sload\n      swap1\n      0x0100\n      exp\n      swap1\n      div\n      0xff\n      and\n        /* \".deps/github/OpenZeppelin/openzeppelin-contracts/contracts/token/ERC721/ERC721.sol\":8372:8414  return _operatorApprovals[owner][operator] */\n      swap1\n      pop\n        /* \".deps/github/OpenZeppelin/openzeppelin-contracts/contracts/token/ERC721/ERC721.sol\":8259:8421  function isApprovedForAll(address owner, address operator) public view virtual override returns (bool) {... */\n      swap3\n      swap2\n      pop\n      pop\n      jump\t// out\n        /* \".deps/github/OpenZeppelin/openzeppelin-contracts/contracts/token/ERC721/ERC721.sol\":4019:4178  function lock()public virtual returns(bool){... */\n    tag_94:\n        /* \".deps/github/OpenZeppelin/openzeppelin-contracts/contracts/token/ERC721/ERC721.sol\":4057:4061  bool */\n      0x00\n        /* \".deps/github/OpenZeppelin/openzeppelin-contracts/contracts/token/ERC721/ERC721.sol\":4091:4096  false */\n      dup1\n        /* \".deps/github/OpenZeppelin/openzeppelin-contracts/contracts/token/ERC721/ERC721.sol\":4080:4096  _locked == false */\n      iszero\n      iszero\n        /* \".deps/github/OpenZeppelin/openzeppelin-contracts/contracts/token/ERC721/ERC721.sol\":4080:4087  _locked */\n      0x0a\n      0x00\n      swap1\n      sload\n      swap1\n      0x0100\n      exp\n      swap1\n      div\n      0xff\n      and\n        /* \".deps/github/OpenZeppelin/openzeppelin-contracts/contracts/token/ERC721/ERC721.sol\":4080:4096  _locked == false */\n      iszero\n      iszero\n      eq\n        /* \".deps/github/OpenZeppelin/openzeppelin-contracts/contracts/token/ERC721/ERC721.sol\":4072:4126  require(_locked == false,\"Token is already unlocked!\") */\n      tag_187\n      jumpi\n      mload(0x40)\n      0x08c379a000000000000000000000000000000000000000000000000000000000\n      dup2\n      mstore\n      0x04\n      add\n      dup1\n      dup1\n      0x20\n      add\n      dup3\n      dup2\n      sub\n      dup3\n      mstore\n      0x1a\n      dup2\n      mstore\n      0x20\n      add\n      dup1\n      0x546f6b656e20697320616c726561647920756e6c6f636b656421000000000000\n      dup2\n      mstore\n      pop\n      0x20\n      add\n      swap2\n      pop\n      pop\n      mload(0x40)\n      dup1\n      swap2\n      sub\n      swap1\n      revert\n    tag_187:\n        /* \".deps/github/OpenZeppelin/openzeppelin-contracts/contracts/token/ERC721/ERC721.sol\":4146:4150  true */\n      0x01\n        /* \".deps/github/OpenZeppelin/openzeppelin-contracts/contracts/token/ERC721/ERC721.sol\":4136:4143  _locked */\n      0x0a\n      0x00\n        /* \".deps/github/OpenZeppelin/openzeppelin-contracts/contracts/token/ERC721/ERC721.sol\":4136:4150  _locked = true */\n      0x0100\n      exp\n      dup2\n      sload\n      dup2\n      0xff\n      mul\n      not\n      and\n      swap1\n      dup4\n      iszero\n      iszero\n      mul\n      or\n      swap1\n      sstore\n      pop\n        /* \".deps/github/OpenZeppelin/openzeppelin-contracts/contracts/token/ERC721/ERC721.sol\":4167:4171  true */\n      0x01\n        /* \".deps/github/OpenZeppelin/openzeppelin-contracts/contracts/token/ERC721/ERC721.sol\":4160:4171  return true */\n      swap1\n      pop\n        /* \".deps/github/OpenZeppelin/openzeppelin-contracts/contracts/token/ERC721/ERC721.sol\":4019:4178  function lock()public virtual returns(bool){... */\n      swap1\n      jump\t// out\n        /* \".deps/github/OpenZeppelin/openzeppelin-contracts/contracts/token/ERC721/ERC721.sol\":10834:10959  function _exists(uint256 tokenId) internal view virtual returns (bool) {... */\n    tag_102:\n        /* \".deps/github/OpenZeppelin/openzeppelin-contracts/contracts/token/ERC721/ERC721.sol\":10899:10903  bool */\n      0x00\n        /* \".deps/github/OpenZeppelin/openzeppelin-contracts/contracts/token/ERC721/ERC721.sol\":10922:10952  _tokenOwners.contains(tokenId) */\n      tag_189\n        /* \".deps/github/OpenZeppelin/openzeppelin-contracts/contracts/token/ERC721/ERC721.sol\":10944:10951  tokenId */\n      dup3\n        /* \".deps/github/OpenZeppelin/openzeppelin-contracts/contracts/token/ERC721/ERC721.sol\":10922:10934  _tokenOwners */\n      0x02\n        /* \".deps/github/OpenZeppelin/openzeppelin-contracts/contracts/token/ERC721/ERC721.sol\":10922:10943  _tokenOwners.contains */\n      tag_190\n      swap1\n        /* \".deps/github/OpenZeppelin/openzeppelin-contracts/contracts/token/ERC721/ERC721.sol\":10922:10952  _tokenOwners.contains(tokenId) */\n      swap2\n      swap1\n      0xffffffff\n      and\n      jump\t// in\n    tag_189:\n        /* \".deps/github/OpenZeppelin/openzeppelin-contracts/contracts/token/ERC721/ERC721.sol\":10915:10952  return _tokenOwners.contains(tokenId) */\n      swap1\n      pop\n        /* \".deps/github/OpenZeppelin/openzeppelin-contracts/contracts/token/ERC721/ERC721.sol\":10834:10959  function _exists(uint256 tokenId) internal view virtual returns (bool) {... */\n      swap2\n      swap1\n      pop\n      jump\t// out\n        /* \".deps/github/OpenZeppelin/openzeppelin-contracts/contracts/utils/Context.sol\":598:702  function _msgSender() internal view virtual returns (address payable) {... */\n    tag_108:\n        /* \".deps/github/OpenZeppelin/openzeppelin-contracts/contracts/utils/Context.sol\":651:666  address payable */\n      0x00\n        /* \".deps/github/OpenZeppelin/openzeppelin-contracts/contracts/utils/Context.sol\":685:695  msg.sender */\n      caller\n        /* \".deps/github/OpenZeppelin/openzeppelin-contracts/contracts/utils/Context.sol\":678:695  return msg.sender */\n      swap1\n      pop\n        /* \".deps/github/OpenZeppelin/openzeppelin-contracts/contracts/utils/Context.sol\":598:702  function _msgSender() internal view virtual returns (address payable) {... */\n      swap1\n      jump\t// out\n        /* \".deps/github/OpenZeppelin/openzeppelin-contracts/contracts/token/ERC721/ERC721.sol\":16570:16750  function _approve(address to, uint256 tokenId) private {... */\n    tag_114:\n        /* \".deps/github/OpenZeppelin/openzeppelin-contracts/contracts/token/ERC721/ERC721.sol\":16662:16664  to */\n      dup2\n        /* \".deps/github/OpenZeppelin/openzeppelin-contracts/contracts/token/ERC721/ERC721.sol\":16635:16650  _tokenApprovals */\n      0x04\n        /* \".deps/github/OpenZeppelin/openzeppelin-contracts/contracts/token/ERC721/ERC721.sol\":16635:16659  _tokenApprovals[tokenId] */\n      0x00\n        /* \".deps/github/OpenZeppelin/openzeppelin-contracts/contracts/token/ERC721/ERC721.sol\":16651:16658  tokenId */\n      dup4\n        /* \".deps/github/OpenZeppelin/openzeppelin-contracts/contracts/token/ERC721/ERC721.sol\":16635:16659  _tokenApprovals[tokenId] */\n      dup2\n      mstore\n      0x20\n      add\n      swap1\n      dup2\n      mstore\n      0x20\n      add\n      0x00\n      keccak256\n      0x00\n        /* \".deps/github/OpenZeppelin/openzeppelin-contracts/contracts/token/ERC721/ERC721.sol\":16635:16664  _tokenApprovals[tokenId] = to */\n      0x0100\n      exp\n      dup2\n      sload\n      dup2\n      0xffffffffffffffffffffffffffffffffffffffff\n      mul\n      not\n      and\n      swap1\n      dup4\n      0xffffffffffffffffffffffffffffffffffffffff\n      and\n      mul\n      or\n      swap1\n      sstore\n      pop\n        /* \".deps/github/OpenZeppelin/openzeppelin-contracts/contracts/token/ERC721/ERC721.sol\":16717:16724  tokenId */\n      dup1\n        /* \".deps/github/OpenZeppelin/openzeppelin-contracts/contracts/token/ERC721/ERC721.sol\":16713:16715  to */\n      dup3\n        /* \".deps/github/OpenZeppelin/openzeppelin-contracts/contracts/token/ERC721/ERC721.sol\":16679:16725  Approval(ERC721.ownerOf(tokenId), to, tokenId) */\n      0xffffffffffffffffffffffffffffffffffffffff\n      and\n        /* \".deps/github/OpenZeppelin/openzeppelin-contracts/contracts/token/ERC721/ERC721.sol\":16688:16711  ERC721.ownerOf(tokenId) */\n      tag_193\n        /* \".deps/github/OpenZeppelin/openzeppelin-contracts/contracts/token/ERC721/ERC721.sol\":16703:16710  tokenId */\n      dup4\n        /* \".deps/github/OpenZeppelin/openzeppelin-contracts/contracts/token/ERC721/ERC721.sol\":16688:16702  ERC721.ownerOf */\n      tag_56\n        /* \".deps/github/OpenZeppelin/openzeppelin-contracts/contracts/token/ERC721/ERC721.sol\":16688:16711  ERC721.ownerOf(tokenId) */\n      jump\t// in\n    tag_193:\n        /* \".deps/github/OpenZeppelin/openzeppelin-contracts/contracts/token/ERC721/ERC721.sol\":16679:16725  Approval(ERC721.ownerOf(tokenId), to, tokenId) */\n      0xffffffffffffffffffffffffffffffffffffffff\n      and\n      0x8c5be1e5ebec7d5bd14f71427d1e84f3dd0314c0f7b2291e5b200ac8c7c3b925\n      mload(0x40)\n      mload(0x40)\n      dup1\n      swap2\n      sub\n      swap1\n      log4\n        /* \".deps/github/OpenZeppelin/openzeppelin-contracts/contracts/token/ERC721/ERC721.sol\":16570:16750  function _approve(address to, uint256 tokenId) private {... */\n      pop\n      pop\n      jump\t// out\n        /* \".deps/github/OpenZeppelin/openzeppelin-contracts/contracts/utils/EnumerableMap.sol\":7820:7941  function length(UintToAddressMap storage map) internal view returns (uint256) {... */\n    tag_117:\n        /* \".deps/github/OpenZeppelin/openzeppelin-contracts/contracts/utils/EnumerableMap.sol\":7889:7896  uint256 */\n      0x00\n        /* \".deps/github/OpenZeppelin/openzeppelin-contracts/contracts/utils/EnumerableMap.sol\":7915:7934  _length(map._inner) */\n      tag_195\n        /* \".deps/github/OpenZeppelin/openzeppelin-contracts/contracts/utils/EnumerableMap.sol\":7923:7926  map */\n      dup3\n        /* \".deps/github/OpenZeppelin/openzeppelin-contracts/contracts/utils/EnumerableMap.sol\":7923:7933  map._inner */\n      0x00\n      add\n        /* \".deps/github/OpenZeppelin/openzeppelin-contracts/contracts/utils/EnumerableMap.sol\":7915:7922  _length */\n      tag_196\n        /* \".deps/github/OpenZeppelin/openzeppelin-contracts/contracts/utils/EnumerableMap.sol\":7915:7934  _length(map._inner) */\n      jump\t// in\n    tag_195:\n        /* \".deps/github/OpenZeppelin/openzeppelin-contracts/contracts/utils/EnumerableMap.sol\":7908:7934  return _length(map._inner) */\n      swap1\n      pop\n        /* \".deps/github/OpenZeppelin/openzeppelin-contracts/contracts/utils/EnumerableMap.sol\":7820:7941  function length(UintToAddressMap storage map) internal view returns (uint256) {... */\n      swap2\n      swap1\n      pop\n      jump\t// out\n        /* \".deps/github/OpenZeppelin/openzeppelin-contracts/contracts/token/ERC721/ERC721.sol\":11117:11468  function _isApprovedOrOwner(address spender, uint256 tokenId) internal view virtual returns (bool) {... */\n    tag_121:\n        /* \".deps/github/OpenZeppelin/openzeppelin-contracts/contracts/token/ERC721/ERC721.sol\":11210:11214  bool */\n      0x00\n        /* \".deps/github/OpenZeppelin/openzeppelin-contracts/contracts/token/ERC721/ERC721.sol\":11234:11250  _exists(tokenId) */\n      tag_198\n        /* \".deps/github/OpenZeppelin/openzeppelin-contracts/contracts/token/ERC721/ERC721.sol\":11242:11249  tokenId */\n      dup3\n        /* \".deps/github/OpenZeppelin/openzeppelin-contracts/contracts/token/ERC721/ERC721.sol\":11234:11241  _exists */\n      tag_102\n        /* \".deps/github/OpenZeppelin/openzeppelin-contracts/contracts/token/ERC721/ERC721.sol\":11234:11250  _exists(tokenId) */\n      jump\t// in\n    tag_198:\n        /* \".deps/github/OpenZeppelin/openzeppelin-contracts/contracts/token/ERC721/ERC721.sol\":11226:11299  require(_exists(tokenId), \"ERC721: operator query for nonexistent token\") */\n      tag_199\n      jumpi\n      mload(0x40)\n      0x08c379a000000000000000000000000000000000000000000000000000000000\n      dup2\n      mstore\n      0x04\n      add\n      dup1\n      dup1\n      0x20\n      add\n      dup3\n      dup2\n      sub\n      dup3\n      mstore\n      0x2c\n      dup2\n      mstore\n      0x20\n      add\n      dup1\n      data_5797d1ccb08b83980dd0c07ea40d8f6a64d35fff736a19bdd17522954cb0899c\n      0x2c\n      swap2\n      codecopy\n      0x40\n      add\n      swap2\n      pop\n      pop\n      mload(0x40)\n      dup1\n      swap2\n      sub\n      swap1\n      revert\n    tag_199:\n        /* \".deps/github/OpenZeppelin/openzeppelin-contracts/contracts/token/ERC721/ERC721.sol\":11309:11322  address owner */\n      0x00\n        /* \".deps/github/OpenZeppelin/openzeppelin-contracts/contracts/token/ERC721/ERC721.sol\":11325:11348  ERC721.ownerOf(tokenId) */\n      tag_200\n        /* \".deps/github/OpenZeppelin/openzeppelin-contracts/contracts/token/ERC721/ERC721.sol\":11340:11347  tokenId */\n      dup4\n        /* \".deps/github/OpenZeppelin/openzeppelin-contracts/contracts/token/ERC721/ERC721.sol\":11325:11339  ERC721.ownerOf */\n      tag_56\n        /* \".deps/github/OpenZeppelin/openzeppelin-contracts/contracts/token/ERC721/ERC721.sol\":11325:11348  ERC721.ownerOf(tokenId) */\n      jump\t// in\n    tag_200:\n        /* \".deps/github/OpenZeppelin/openzeppelin-contracts/contracts/token/ERC721/ERC721.sol\":11309:11348  address owner = ERC721.ownerOf(tokenId) */\n      swap1\n      pop\n        /* \".deps/github/OpenZeppelin/openzeppelin-contracts/contracts/token/ERC721/ERC721.sol\":11377:11382  owner */\n      dup1\n        /* \".deps/github/OpenZeppelin/openzeppelin-contracts/contracts/token/ERC721/ERC721.sol\":11366:11382  spender == owner */\n      0xffffffffffffffffffffffffffffffffffffffff\n      and\n        /* \".deps/github/OpenZeppelin/openzeppelin-contracts/contracts/token/ERC721/ERC721.sol\":11366:11373  spender */\n      dup5\n        /* \".deps/github/OpenZeppelin/openzeppelin-contracts/contracts/token/ERC721/ERC721.sol\":11366:11382  spender == owner */\n      0xffffffffffffffffffffffffffffffffffffffff\n      and\n      eq\n        /* \".deps/github/OpenZeppelin/openzeppelin-contracts/contracts/token/ERC721/ERC721.sol\":11366:11417  spender == owner || getApproved(tokenId) == spender */\n      dup1\n      tag_201\n      jumpi\n      pop\n        /* \".deps/github/OpenZeppelin/openzeppelin-contracts/contracts/token/ERC721/ERC721.sol\":11410:11417  spender */\n      dup4\n        /* \".deps/github/OpenZeppelin/openzeppelin-contracts/contracts/token/ERC721/ERC721.sol\":11386:11417  getApproved(tokenId) == spender */\n      0xffffffffffffffffffffffffffffffffffffffff\n      and\n        /* \".deps/github/OpenZeppelin/openzeppelin-contracts/contracts/token/ERC721/ERC721.sol\":11386:11406  getApproved(tokenId) */\n      tag_202\n        /* \".deps/github/OpenZeppelin/openzeppelin-contracts/contracts/token/ERC721/ERC721.sol\":11398:11405  tokenId */\n      dup5\n        /* \".deps/github/OpenZeppelin/openzeppelin-contracts/contracts/token/ERC721/ERC721.sol\":11386:11397  getApproved */\n      tag_36\n        /* \".deps/github/OpenZeppelin/openzeppelin-contracts/contracts/token/ERC721/ERC721.sol\":11386:11406  getApproved(tokenId) */\n      jump\t// in\n    tag_202:\n        /* \".deps/github/OpenZeppelin/openzeppelin-contracts/contracts/token/ERC721/ERC721.sol\":11386:11417  getApproved(tokenId) == spender */\n      0xffffffffffffffffffffffffffffffffffffffff\n      and\n      eq\n        /* \".deps/github/OpenZeppelin/openzeppelin-contracts/contracts/token/ERC721/ERC721.sol\":11366:11417  spender == owner || getApproved(tokenId) == spender */\n    tag_201:\n        /* \".deps/github/OpenZeppelin/openzeppelin-contracts/contracts/token/ERC721/ERC721.sol\":11366:11460  spender == owner || getApproved(tokenId) == spender || ERC721.isApprovedForAll(owner, spender) */\n      dup1\n      tag_203\n      jumpi\n      pop\n        /* \".deps/github/OpenZeppelin/openzeppelin-contracts/contracts/token/ERC721/ERC721.sol\":11421:11460  ERC721.isApprovedForAll(owner, spender) */\n      tag_204\n        /* \".deps/github/OpenZeppelin/openzeppelin-contracts/contracts/token/ERC721/ERC721.sol\":11445:11450  owner */\n      dup2\n        /* \".deps/github/OpenZeppelin/openzeppelin-contracts/contracts/token/ERC721/ERC721.sol\":11452:11459  spender */\n      dup6\n        /* \".deps/github/OpenZeppelin/openzeppelin-contracts/contracts/token/ERC721/ERC721.sol\":11421:11444  ERC721.isApprovedForAll */\n      tag_92\n        /* \".deps/github/OpenZeppelin/openzeppelin-contracts/contracts/token/ERC721/ERC721.sol\":11421:11460  ERC721.isApprovedForAll(owner, spender) */\n      jump\t// in\n    tag_204:\n        /* \".deps/github/OpenZeppelin/openzeppelin-contracts/contracts/token/ERC721/ERC721.sol\":11366:11460  spender == owner || getApproved(tokenId) == spender || ERC721.isApprovedForAll(owner, spender) */\n    tag_203:\n        /* \".deps/github/OpenZeppelin/openzeppelin-contracts/contracts/token/ERC721/ERC721.sol\":11358:11461  return (spender == owner || getApproved(tokenId) == spender || ERC721.isApprovedForAll(owner, spender)) */\n      swap2\n      pop\n      pop\n        /* \".deps/github/OpenZeppelin/openzeppelin-contracts/contracts/token/ERC721/ERC721.sol\":11117:11468  function _isApprovedOrOwner(address spender, uint256 tokenId) internal view virtual returns (bool) {... */\n      swap3\n      swap2\n      pop\n      pop\n      jump\t// out\n        /* \".deps/github/OpenZeppelin/openzeppelin-contracts/contracts/token/ERC721/ERC721.sol\":14158:14742  function _transfer(address from, address to, uint256 tokenId) internal virtual {... */\n    tag_125:\n        /* \".deps/github/OpenZeppelin/openzeppelin-contracts/contracts/token/ERC721/ERC721.sol\":14282:14286  from */\n      dup3\n        /* \".deps/github/OpenZeppelin/openzeppelin-contracts/contracts/token/ERC721/ERC721.sol\":14255:14286  ERC721.ownerOf(tokenId) == from */\n      0xffffffffffffffffffffffffffffffffffffffff\n      and\n        /* \".deps/github/OpenZeppelin/openzeppelin-contracts/contracts/token/ERC721/ERC721.sol\":14255:14278  ERC721.ownerOf(tokenId) */\n      tag_206\n        /* \".deps/github/OpenZeppelin/openzeppelin-contracts/contracts/token/ERC721/ERC721.sol\":14270:14277  tokenId */\n      dup3\n        /* \".deps/github/OpenZeppelin/openzeppelin-contracts/contracts/token/ERC721/ERC721.sol\":14255:14269  ERC721.ownerOf */\n      tag_56\n        /* \".deps/github/OpenZeppelin/openzeppelin-contracts/contracts/token/ERC721/ERC721.sol\":14255:14278  ERC721.ownerOf(tokenId) */\n      jump\t// in\n    tag_206:\n        /* \".deps/github/OpenZeppelin/openzeppelin-contracts/contracts/token/ERC721/ERC721.sol\":14255:14286  ERC721.ownerOf(tokenId) == from */\n      0xffffffffffffffffffffffffffffffffffffffff\n      and\n      eq\n        /* \".deps/github/OpenZeppelin/openzeppelin-contracts/contracts/token/ERC721/ERC721.sol\":14247:14332  require(ERC721.ownerOf(tokenId) == from, \"ERC721: transfer of token that is not own\") */\n      tag_207\n      jumpi\n      mload(0x40)\n      0x08c379a000000000000000000000000000000000000000000000000000000000\n      dup2\n      mstore\n      0x04\n      add\n      dup1\n      dup1\n      0x20\n      add\n      dup3\n      dup2\n      sub\n      dup3\n      mstore\n      0x29\n      dup2\n      mstore\n      0x20\n      add\n      dup1\n      data_a01073130a885d6c1c1af6ac75fc3b1c4f9403c235362962bbf528e2bd87d950\n      0x29\n      swap2\n      codecopy\n      0x40\n      add\n      swap2\n      pop\n      pop\n      mload(0x40)\n      dup1\n      swap2\n      sub\n      swap1\n      revert\n    tag_207:\n        /* \".deps/github/OpenZeppelin/openzeppelin-contracts/contracts/token/ERC721/ERC721.sol\":14382:14383  0 */\n      0x00\n        /* \".deps/github/OpenZeppelin/openzeppelin-contracts/contracts/token/ERC721/ERC721.sol\":14368:14384  to != address(0) */\n      0xffffffffffffffffffffffffffffffffffffffff\n      and\n        /* \".deps/github/OpenZeppelin/openzeppelin-contracts/contracts/token/ERC721/ERC721.sol\":14368:14370  to */\n      dup3\n        /* \".deps/github/OpenZeppelin/openzeppelin-contracts/contracts/token/ERC721/ERC721.sol\":14368:14384  to != address(0) */\n      0xffffffffffffffffffffffffffffffffffffffff\n      and\n      eq\n      iszero\n        /* \".deps/github/OpenZeppelin/openzeppelin-contracts/contracts/token/ERC721/ERC721.sol\":14360:14425  require(to != address(0), \"ERC721: transfer to the zero address\") */\n      tag_208\n      jumpi\n      mload(0x40)\n      0x08c379a000000000000000000000000000000000000000000000000000000000\n      dup2\n      mstore\n      0x04\n      add\n      dup1\n      dup1\n      0x20\n      add\n      dup3\n      dup2\n      sub\n      dup3\n      mstore\n      0x24\n      dup2\n      mstore\n      0x20\n      add\n      dup1\n      data_455fea98ea03c32d7dd1a6f1426917d80529bf47b3ccbde74e7206e889e709f4\n      0x24\n      swap2\n      codecopy\n      0x40\n      add\n      swap2\n      pop\n      pop\n      mload(0x40)\n      dup1\n      swap2\n      sub\n      swap1\n      revert\n    tag_208:\n        /* \".deps/github/OpenZeppelin/openzeppelin-contracts/contracts/token/ERC721/ERC721.sol\":14436:14475  _beforeTokenTransfer(from, to, tokenId) */\n      tag_209\n        /* \".deps/github/OpenZeppelin/openzeppelin-contracts/contracts/token/ERC721/ERC721.sol\":14457:14461  from */\n      dup4\n        /* \".deps/github/OpenZeppelin/openzeppelin-contracts/contracts/token/ERC721/ERC721.sol\":14463:14465  to */\n      dup4\n        /* \".deps/github/OpenZeppelin/openzeppelin-contracts/contracts/token/ERC721/ERC721.sol\":14467:14474  tokenId */\n      dup4\n        /* \".deps/github/OpenZeppelin/openzeppelin-contracts/contracts/token/ERC721/ERC721.sol\":14436:14456  _beforeTokenTransfer */\n      tag_210\n        /* \".deps/github/OpenZeppelin/openzeppelin-contracts/contracts/token/ERC721/ERC721.sol\":14436:14475  _beforeTokenTransfer(from, to, tokenId) */\n      jump\t// in\n    tag_209:\n        /* \".deps/github/OpenZeppelin/openzeppelin-contracts/contracts/token/ERC721/ERC721.sol\":14537:14566  _approve(address(0), tokenId) */\n      tag_211\n        /* \".deps/github/OpenZeppelin/openzeppelin-contracts/contracts/token/ERC721/ERC721.sol\":14554:14555  0 */\n      0x00\n        /* \".deps/github/OpenZeppelin/openzeppelin-contracts/contracts/token/ERC721/ERC721.sol\":14558:14565  tokenId */\n      dup3\n        /* \".deps/github/OpenZeppelin/openzeppelin-contracts/contracts/token/ERC721/ERC721.sol\":14537:14545  _approve */\n      tag_114\n        /* \".deps/github/OpenZeppelin/openzeppelin-contracts/contracts/token/ERC721/ERC721.sol\":14537:14566  _approve(address(0), tokenId) */\n      jump\t// in\n    tag_211:\n        /* \".deps/github/OpenZeppelin/openzeppelin-contracts/contracts/token/ERC721/ERC721.sol\":14577:14612  _holderTokens[from].remove(tokenId) */\n      tag_212\n        /* \".deps/github/OpenZeppelin/openzeppelin-contracts/contracts/token/ERC721/ERC721.sol\":14604:14611  tokenId */\n      dup2\n        /* \".deps/github/OpenZeppelin/openzeppelin-contracts/contracts/token/ERC721/ERC721.sol\":14577:14590  _holderTokens */\n      0x01\n        /* \".deps/github/OpenZeppelin/openzeppelin-contracts/contracts/token/ERC721/ERC721.sol\":14577:14596  _holderTokens[from] */\n      0x00\n        /* \".deps/github/OpenZeppelin/openzeppelin-contracts/contracts/token/ERC721/ERC721.sol\":14591:14595  from */\n      dup7\n        /* \".deps/github/OpenZeppelin/openzeppelin-contracts/contracts/token/ERC721/ERC721.sol\":14577:14596  _holderTokens[from] */\n      0xffffffffffffffffffffffffffffffffffffffff\n      and\n      0xffffffffffffffffffffffffffffffffffffffff\n      and\n      dup2\n      mstore\n      0x20\n      add\n      swap1\n      dup2\n      mstore\n      0x20\n      add\n      0x00\n      keccak256\n        /* \".deps/github/OpenZeppelin/openzeppelin-contracts/contracts/token/ERC721/ERC721.sol\":14577:14603  _holderTokens[from].remove */\n      tag_213\n      swap1\n        /* \".deps/github/OpenZeppelin/openzeppelin-contracts/contracts/token/ERC721/ERC721.sol\":14577:14612  _holderTokens[from].remove(tokenId) */\n      swap2\n      swap1\n      0xffffffff\n      and\n      jump\t// in\n    tag_212:\n      pop\n        /* \".deps/github/OpenZeppelin/openzeppelin-contracts/contracts/token/ERC721/ERC721.sol\":14622:14652  _holderTokens[to].add(tokenId) */\n      tag_214\n        /* \".deps/github/OpenZeppelin/openzeppelin-contracts/contracts/token/ERC721/ERC721.sol\":14644:14651  tokenId */\n      dup2\n        /* \".deps/github/OpenZeppelin/openzeppelin-contracts/contracts/token/ERC721/ERC721.sol\":14622:14635  _holderTokens */\n      0x01\n        /* \".deps/github/OpenZeppelin/openzeppelin-contracts/contracts/token/ERC721/ERC721.sol\":14622:14639  _holderTokens[to] */\n      0x00\n        /* \".deps/github/OpenZeppelin/openzeppelin-contracts/contracts/token/ERC721/ERC721.sol\":14636:14638  to */\n      dup6\n        /* \".deps/github/OpenZeppelin/openzeppelin-contracts/contracts/token/ERC721/ERC721.sol\":14622:14639  _holderTokens[to] */\n      0xffffffffffffffffffffffffffffffffffffffff\n      and\n      0xffffffffffffffffffffffffffffffffffffffff\n      and\n      dup2\n      mstore\n      0x20\n      add\n      swap1\n      dup2\n      mstore\n      0x20\n      add\n      0x00\n      keccak256\n        /* \".deps/github/OpenZeppelin/openzeppelin-contracts/contracts/token/ERC721/ERC721.sol\":14622:14643  _holderTokens[to].add */\n      tag_215\n      swap1\n        /* \".deps/github/OpenZeppelin/openzeppelin-contracts/contracts/token/ERC721/ERC721.sol\":14622:14652  _holderTokens[to].add(tokenId) */\n      swap2\n      swap1\n      0xffffffff\n      and\n      jump\t// in\n    tag_214:\n      pop\n        /* \".deps/github/OpenZeppelin/openzeppelin-contracts/contracts/token/ERC721/ERC721.sol\":14663:14692  _tokenOwners.set(tokenId, to) */\n      tag_216\n        /* \".deps/github/OpenZeppelin/openzeppelin-contracts/contracts/token/ERC721/ERC721.sol\":14680:14687  tokenId */\n      dup2\n        /* \".deps/github/OpenZeppelin/openzeppelin-contracts/contracts/token/ERC721/ERC721.sol\":14689:14691  to */\n      dup4\n        /* \".deps/github/OpenZeppelin/openzeppelin-contracts/contracts/token/ERC721/ERC721.sol\":14663:14675  _tokenOwners */\n      0x02\n        /* \".deps/github/OpenZeppelin/openzeppelin-contracts/contracts/token/ERC721/ERC721.sol\":14663:14679  _tokenOwners.set */\n      tag_217\n      swap1\n        /* \".deps/github/OpenZeppelin/openzeppelin-contracts/contracts/token/ERC721/ERC721.sol\":14663:14692  _tokenOwners.set(tokenId, to) */\n      swap3\n      swap2\n      swap1\n      0xffffffff\n      and\n      jump\t// in\n    tag_216:\n      pop\n        /* \".deps/github/OpenZeppelin/openzeppelin-contracts/contracts/token/ERC721/ERC721.sol\":14727:14734  tokenId */\n      dup1\n        /* \".deps/github/OpenZeppelin/openzeppelin-contracts/contracts/token/ERC721/ERC721.sol\":14723:14725  to */\n      dup3\n        /* \".deps/github/OpenZeppelin/openzeppelin-contracts/contracts/token/ERC721/ERC721.sol\":14708:14735  Transfer(from, to, tokenId) */\n      0xffffffffffffffffffffffffffffffffffffffff\n      and\n        /* \".deps/github/OpenZeppelin/openzeppelin-contracts/contracts/token/ERC721/ERC721.sol\":14717:14721  from */\n      dup5\n        /* \".deps/github/OpenZeppelin/openzeppelin-contracts/contracts/token/ERC721/ERC721.sol\":14708:14735  Transfer(from, to, tokenId) */\n      0xffffffffffffffffffffffffffffffffffffffff\n      and\n      0xddf252ad1be2c89b69c2b068fc378daa952ba7f163c4a11628f55a4df523b3ef\n      mload(0x40)\n      mload(0x40)\n      dup1\n      swap2\n      sub\n      swap1\n      log4\n        /* \".deps/github/OpenZeppelin/openzeppelin-contracts/contracts/token/ERC721/ERC721.sol\":14158:14742  function _transfer(address from, address to, uint256 tokenId) internal virtual {... */\n      pop\n      pop\n      pop\n      jump\t// out\n        /* \".deps/github/OpenZeppelin/openzeppelin-contracts/contracts/utils/EnumerableSet.sol\":9250:9385  function at(UintSet storage set, uint256 index) internal view returns (uint256) {... */\n    tag_128:\n        /* \".deps/github/OpenZeppelin/openzeppelin-contracts/contracts/utils/EnumerableSet.sol\":9321:9328  uint256 */\n      0x00\n        /* \".deps/github/OpenZeppelin/openzeppelin-contracts/contracts/utils/EnumerableSet.sol\":9355:9377  _at(set._inner, index) */\n      tag_219\n        /* \".deps/github/OpenZeppelin/openzeppelin-contracts/contracts/utils/EnumerableSet.sol\":9359:9362  set */\n      dup4\n        /* \".deps/github/OpenZeppelin/openzeppelin-contracts/contracts/utils/EnumerableSet.sol\":9359:9369  set._inner */\n      0x00\n      add\n        /* \".deps/github/OpenZeppelin/openzeppelin-contracts/contracts/utils/EnumerableSet.sol\":9371:9376  index */\n      dup4\n        /* \".deps/github/OpenZeppelin/openzeppelin-contracts/contracts/utils/EnumerableSet.sol\":9355:9358  _at */\n      tag_220\n        /* \".deps/github/OpenZeppelin/openzeppelin-contracts/contracts/utils/EnumerableSet.sol\":9355:9377  _at(set._inner, index) */\n      jump\t// in\n    tag_219:\n        /* \".deps/github/OpenZeppelin/openzeppelin-contracts/contracts/utils/EnumerableSet.sol\":9347:9378  uint256(_at(set._inner, index)) */\n      0x00\n      shr\n        /* \".deps/github/OpenZeppelin/openzeppelin-contracts/contracts/utils/EnumerableSet.sol\":9340:9378  return uint256(_at(set._inner, index)) */\n      swap1\n      pop\n        /* \".deps/github/OpenZeppelin/openzeppelin-contracts/contracts/utils/EnumerableSet.sol\":9250:9385  function at(UintSet storage set, uint256 index) internal view returns (uint256) {... */\n      swap3\n      swap2\n      pop\n      pop\n      jump\t// out\n        /* \".deps/github/OpenZeppelin/openzeppelin-contracts/contracts/utils/EnumerableMap.sol\":8269:8502  function at(UintToAddressMap storage map, uint256 index) internal view returns (uint256, address) {... */\n    tag_133:\n        /* \".deps/github/OpenZeppelin/openzeppelin-contracts/contracts/utils/EnumerableMap.sol\":8349:8356  uint256 */\n      0x00\n        /* \".deps/github/OpenZeppelin/openzeppelin-contracts/contracts/utils/EnumerableMap.sol\":8358:8365  address */\n      dup1\n        /* \".deps/github/OpenZeppelin/openzeppelin-contracts/contracts/utils/EnumerableMap.sol\":8378:8389  bytes32 key */\n      0x00\n        /* \".deps/github/OpenZeppelin/openzeppelin-contracts/contracts/utils/EnumerableMap.sol\":8391:8404  bytes32 value */\n      dup1\n        /* \".deps/github/OpenZeppelin/openzeppelin-contracts/contracts/utils/EnumerableMap.sol\":8408:8430  _at(map._inner, index) */\n      tag_222\n        /* \".deps/github/OpenZeppelin/openzeppelin-contracts/contracts/utils/EnumerableMap.sol\":8412:8415  map */\n      dup7\n        /* \".deps/github/OpenZeppelin/openzeppelin-contracts/contracts/utils/EnumerableMap.sol\":8412:8422  map._inner */\n      0x00\n      add\n        /* \".deps/github/OpenZeppelin/openzeppelin-contracts/contracts/utils/EnumerableMap.sol\":8424:8429  index */\n      dup7\n        /* \".deps/github/OpenZeppelin/openzeppelin-contracts/contracts/utils/EnumerableMap.sol\":8408:8411  _at */\n      tag_223\n        /* \".deps/github/OpenZeppelin/openzeppelin-contracts/contracts/utils/EnumerableMap.sol\":8408:8430  _at(map._inner, index) */\n      jump\t// in\n    tag_222:\n        /* \".deps/github/OpenZeppelin/openzeppelin-contracts/contracts/utils/EnumerableMap.sol\":8377:8430  (bytes32 key, bytes32 value) = _at(map._inner, index) */\n      swap2\n      pop\n      swap2\n      pop\n        /* \".deps/github/OpenZeppelin/openzeppelin-contracts/contracts/utils/EnumerableMap.sol\":8456:8459  key */\n      dup2\n        /* \".deps/github/OpenZeppelin/openzeppelin-contracts/contracts/utils/EnumerableMap.sol\":8448:8460  uint256(key) */\n      0x00\n      shr\n        /* \".deps/github/OpenZeppelin/openzeppelin-contracts/contracts/utils/EnumerableMap.sol\":8486:8491  value */\n      dup2\n        /* \".deps/github/OpenZeppelin/openzeppelin-contracts/contracts/utils/EnumerableMap.sol\":8478:8492  uint256(value) */\n      0x00\n      shr\n        /* \".deps/github/OpenZeppelin/openzeppelin-contracts/contracts/utils/EnumerableMap.sol\":8440:8495  return (uint256(key), address(uint160(uint256(value)))) */\n      swap4\n      pop\n      swap4\n      pop\n      pop\n      pop\n        /* \".deps/github/OpenZeppelin/openzeppelin-contracts/contracts/utils/EnumerableMap.sol\":8269:8502  function at(UintToAddressMap storage map, uint256 index) internal view returns (uint256, address) {... */\n      swap3\n      pop\n      swap3\n      swap1\n      pop\n      jump\t// out\n        /* \".deps/github/OpenZeppelin/openzeppelin-contracts/contracts/utils/EnumerableMap.sol\":9522:9733  function get(UintToAddressMap storage map, uint256 key, string memory errorMessage) internal view returns (address) {... */\n    tag_136:\n        /* \".deps/github/OpenZeppelin/openzeppelin-contracts/contracts/utils/EnumerableMap.sol\":9629:9636  address */\n      0x00\n        /* \".deps/github/OpenZeppelin/openzeppelin-contracts/contracts/utils/EnumerableMap.sol\":9679:9723  _get(map._inner, bytes32(key), errorMessage) */\n      tag_225\n        /* \".deps/github/OpenZeppelin/openzeppelin-contracts/contracts/utils/EnumerableMap.sol\":9684:9687  map */\n      dup5\n        /* \".deps/github/OpenZeppelin/openzeppelin-contracts/contracts/utils/EnumerableMap.sol\":9684:9694  map._inner */\n      0x00\n      add\n        /* \".deps/github/OpenZeppelin/openzeppelin-contracts/contracts/utils/EnumerableMap.sol\":9704:9707  key */\n      dup5\n        /* \".deps/github/OpenZeppelin/openzeppelin-contracts/contracts/utils/EnumerableMap.sol\":9696:9708  bytes32(key) */\n      0x00\n      shl\n        /* \".deps/github/OpenZeppelin/openzeppelin-contracts/contracts/utils/EnumerableMap.sol\":9710:9722  errorMessage */\n      dup5\n        /* \".deps/github/OpenZeppelin/openzeppelin-contracts/contracts/utils/EnumerableMap.sol\":9679:9683  _get */\n      tag_226\n        /* \".deps/github/OpenZeppelin/openzeppelin-contracts/contracts/utils/EnumerableMap.sol\":9679:9723  _get(map._inner, bytes32(key), errorMessage) */\n      jump\t// in\n    tag_225:\n        /* \".deps/github/OpenZeppelin/openzeppelin-contracts/contracts/utils/EnumerableMap.sol\":9671:9724  uint256(_get(map._inner, bytes32(key), errorMessage)) */\n      0x00\n      shr\n        /* \".deps/github/OpenZeppelin/openzeppelin-contracts/contracts/utils/EnumerableMap.sol\":9648:9726  return address(uint160(uint256(_get(map._inner, bytes32(key), errorMessage)))) */\n      swap1\n      pop\n        /* \".deps/github/OpenZeppelin/openzeppelin-contracts/contracts/utils/EnumerableMap.sol\":9522:9733  function get(UintToAddressMap storage map, uint256 key, string memory errorMessage) internal view returns (address) {... */\n      swap4\n      swap3\n      pop\n      pop\n      pop\n      jump\t// out\n        /* \".deps/github/OpenZeppelin/openzeppelin-contracts/contracts/utils/EnumerableSet.sol\":8806:8918  function length(UintSet storage set) internal view returns (uint256) {... */\n    tag_144:\n        /* \".deps/github/OpenZeppelin/openzeppelin-contracts/contracts/utils/EnumerableSet.sol\":8866:8873  uint256 */\n      0x00\n        /* \".deps/github/OpenZeppelin/openzeppelin-contracts/contracts/utils/EnumerableSet.sol\":8892:8911  _length(set._inner) */\n      tag_228\n        /* \".deps/github/OpenZeppelin/openzeppelin-contracts/contracts/utils/EnumerableSet.sol\":8900:8903  set */\n      dup3\n        /* \".deps/github/OpenZeppelin/openzeppelin-contracts/contracts/utils/EnumerableSet.sol\":8900:8910  set._inner */\n      0x00\n      add\n        /* \".deps/github/OpenZeppelin/openzeppelin-contracts/contracts/utils/EnumerableSet.sol\":8892:8899  _length */\n      tag_229\n        /* \".deps/github/OpenZeppelin/openzeppelin-contracts/contracts/utils/EnumerableSet.sol\":8892:8911  _length(set._inner) */\n      jump\t// in\n    tag_228:\n        /* \".deps/github/OpenZeppelin/openzeppelin-contracts/contracts/utils/EnumerableSet.sol\":8885:8911  return _length(set._inner) */\n      swap1\n      pop\n        /* \".deps/github/OpenZeppelin/openzeppelin-contracts/contracts/utils/EnumerableSet.sol\":8806:8918  function length(UintSet storage set) internal view returns (uint256) {... */\n      swap2\n      swap1\n      pop\n      jump\t// out\n        /* \".deps/github/OpenZeppelin/openzeppelin-contracts/contracts/token/ERC721/ERC721.sol\":10262:10531  function _safeTransfer(address from, address to, uint256 tokenId, bytes memory _data) internal virtual {... */\n    tag_161:\n        /* \".deps/github/OpenZeppelin/openzeppelin-contracts/contracts/token/ERC721/ERC721.sol\":10375:10403  _transfer(from, to, tokenId) */\n      tag_231\n        /* \".deps/github/OpenZeppelin/openzeppelin-contracts/contracts/token/ERC721/ERC721.sol\":10385:10389  from */\n      dup5\n        /* \".deps/github/OpenZeppelin/openzeppelin-contracts/contracts/token/ERC721/ERC721.sol\":10391:10393  to */\n      dup5\n        /* \".deps/github/OpenZeppelin/openzeppelin-contracts/contracts/token/ERC721/ERC721.sol\":10395:10402  tokenId */\n      dup5\n        /* \".deps/github/OpenZeppelin/openzeppelin-contracts/contracts/token/ERC721/ERC721.sol\":10375:10384  _transfer */\n      tag_125\n        /* \".deps/github/OpenZeppelin/openzeppelin-contracts/contracts/token/ERC721/ERC721.sol\":10375:10403  _transfer(from, to, tokenId) */\n      jump\t// in\n    tag_231:\n        /* \".deps/github/OpenZeppelin/openzeppelin-contracts/contracts/token/ERC721/ERC721.sol\":10421:10469  _checkOnERC721Received(from, to, tokenId, _data) */\n      tag_232\n        /* \".deps/github/OpenZeppelin/openzeppelin-contracts/contracts/token/ERC721/ERC721.sol\":10444:10448  from */\n      dup5\n        /* \".deps/github/OpenZeppelin/openzeppelin-contracts/contracts/token/ERC721/ERC721.sol\":10450:10452  to */\n      dup5\n        /* \".deps/github/OpenZeppelin/openzeppelin-contracts/contracts/token/ERC721/ERC721.sol\":10454:10461  tokenId */\n      dup5\n        /* \".deps/github/OpenZeppelin/openzeppelin-contracts/contracts/token/ERC721/ERC721.sol\":10463:10468  _data */\n      dup5\n        /* \".deps/github/OpenZeppelin/openzeppelin-contracts/contracts/token/ERC721/ERC721.sol\":10421:10443  _checkOnERC721Received */\n      tag_233\n        /* \".deps/github/OpenZeppelin/openzeppelin-contracts/contracts/token/ERC721/ERC721.sol\":10421:10469  _checkOnERC721Received(from, to, tokenId, _data) */\n      jump\t// in\n    tag_232:\n        /* \".deps/github/OpenZeppelin/openzeppelin-contracts/contracts/token/ERC721/ERC721.sol\":10413:10524  require(_checkOnERC721Received(from, to, tokenId, _data), \"ERC721: transfer to non ERC721Receiver implementer\") */\n      tag_234\n      jumpi\n      mload(0x40)\n      0x08c379a000000000000000000000000000000000000000000000000000000000\n      dup2\n      mstore\n      0x04\n      add\n      dup1\n      dup1\n      0x20\n      add\n      dup3\n      dup2\n      sub\n      dup3\n      mstore\n      0x32\n      dup2\n      mstore\n      0x20\n      add\n      dup1\n      data_1e766a06da43a53d0f4c380e06e5a342e14d5af1bf8501996c844905530ca84e\n      0x32\n      swap2\n      codecopy\n      0x40\n      add\n      swap2\n      pop\n      pop\n      mload(0x40)\n      dup1\n      swap2\n      sub\n      swap1\n      revert\n    tag_234:\n        /* \".deps/github/OpenZeppelin/openzeppelin-contracts/contracts/token/ERC721/ERC721.sol\":10262:10531  function _safeTransfer(address from, address to, uint256 tokenId, bytes memory _data) internal virtual {... */\n      pop\n      pop\n      pop\n      pop\n      jump\t// out\n        /* \".deps/github/OpenZeppelin/openzeppelin-contracts/contracts/utils/Strings.sol\":210:935  function toString(uint256 value) internal pure returns (string memory) {... */\n    tag_178:\n        /* \".deps/github/OpenZeppelin/openzeppelin-contracts/contracts/utils/Strings.sol\":266:279  string memory */\n      0x60\n        /* \".deps/github/OpenZeppelin/openzeppelin-contracts/contracts/utils/Strings.sol\":492:493  0 */\n      0x00\n        /* \".deps/github/OpenZeppelin/openzeppelin-contracts/contracts/utils/Strings.sol\":483:488  value */\n      dup3\n        /* \".deps/github/OpenZeppelin/openzeppelin-contracts/contracts/utils/Strings.sol\":483:493  value == 0 */\n      eq\n        /* \".deps/github/OpenZeppelin/openzeppelin-contracts/contracts/utils/Strings.sol\":479:530  if (value == 0) {... */\n      iszero\n      tag_236\n      jumpi\n        /* \".deps/github/OpenZeppelin/openzeppelin-contracts/contracts/utils/Strings.sol\":509:519  return \"0\" */\n      mload(0x40)\n      dup1\n      0x40\n      add\n      0x40\n      mstore\n      dup1\n      0x01\n      dup2\n      mstore\n      0x20\n      add\n      0x3000000000000000000000000000000000000000000000000000000000000000\n      dup2\n      mstore\n      pop\n      swap1\n      pop\n      jump(tag_235)\n        /* \".deps/github/OpenZeppelin/openzeppelin-contracts/contracts/utils/Strings.sol\":479:530  if (value == 0) {... */\n    tag_236:\n        /* \".deps/github/OpenZeppelin/openzeppelin-contracts/contracts/utils/Strings.sol\":539:551  uint256 temp */\n      0x00\n        /* \".deps/github/OpenZeppelin/openzeppelin-contracts/contracts/utils/Strings.sol\":554:559  value */\n      dup3\n        /* \".deps/github/OpenZeppelin/openzeppelin-contracts/contracts/utils/Strings.sol\":539:559  uint256 temp = value */\n      swap1\n      pop\n        /* \".deps/github/OpenZeppelin/openzeppelin-contracts/contracts/utils/Strings.sol\":569:583  uint256 digits */\n      0x00\n        /* \".deps/github/OpenZeppelin/openzeppelin-contracts/contracts/utils/Strings.sol\":593:668  while (temp != 0) {... */\n    tag_237:\n        /* \".deps/github/OpenZeppelin/openzeppelin-contracts/contracts/utils/Strings.sol\":608:609  0 */\n      0x00\n        /* \".deps/github/OpenZeppelin/openzeppelin-contracts/contracts/utils/Strings.sol\":600:604  temp */\n      dup3\n        /* \".deps/github/OpenZeppelin/openzeppelin-contracts/contracts/utils/Strings.sol\":600:609  temp != 0 */\n      eq\n        /* \".deps/github/OpenZeppelin/openzeppelin-contracts/contracts/utils/Strings.sol\":593:668  while (temp != 0) {... */\n      tag_238\n      jumpi\n        /* \".deps/github/OpenZeppelin/openzeppelin-contracts/contracts/utils/Strings.sol\":625:633  digits++ */\n      dup1\n      dup1\n      0x01\n      add\n      swap2\n      pop\n      pop\n        /* \".deps/github/OpenZeppelin/openzeppelin-contracts/contracts/utils/Strings.sol\":655:657  10 */\n      0x0a\n        /* \".deps/github/OpenZeppelin/openzeppelin-contracts/contracts/utils/Strings.sol\":647:657  temp /= 10 */\n      dup3\n      dup2\n      tag_239\n      jumpi\n      invalid\n    tag_239:\n      div\n      swap2\n      pop\n        /* \".deps/github/OpenZeppelin/openzeppelin-contracts/contracts/utils/Strings.sol\":593:668  while (temp != 0) {... */\n      jump(tag_237)\n    tag_238:\n        /* \".deps/github/OpenZeppelin/openzeppelin-contracts/contracts/utils/Strings.sol\":677:696  bytes memory buffer */\n      0x60\n        /* \".deps/github/OpenZeppelin/openzeppelin-contracts/contracts/utils/Strings.sol\":709:715  digits */\n      dup2\n        /* \".deps/github/OpenZeppelin/openzeppelin-contracts/contracts/utils/Strings.sol\":699:716  new bytes(digits) */\n      0xffffffffffffffff\n      dup2\n      gt\n      dup1\n      iszero\n      tag_240\n      jumpi\n      0x00\n      dup1\n      revert\n    tag_240:\n      pop\n      mload(0x40)\n      swap1\n      dup1\n      dup3\n      mstore\n      dup1\n      0x1f\n      add\n      not(0x1f)\n      and\n      0x20\n      add\n      dup3\n      add\n      0x40\n      mstore\n      dup1\n      iszero\n      tag_241\n      jumpi\n      dup2\n      0x20\n      add\n      0x01\n      dup3\n      mul\n      dup1\n      calldatasize\n      dup4\n      calldatacopy\n      dup1\n      dup3\n      add\n      swap2\n      pop\n      pop\n      swap1\n      pop\n    tag_241:\n      pop\n        /* \".deps/github/OpenZeppelin/openzeppelin-contracts/contracts/utils/Strings.sol\":677:716  bytes memory buffer = new bytes(digits) */\n      swap1\n      pop\n        /* \".deps/github/OpenZeppelin/openzeppelin-contracts/contracts/utils/Strings.sol\":726:739  uint256 index */\n      0x00\n        /* \".deps/github/OpenZeppelin/openzeppelin-contracts/contracts/utils/Strings.sol\":751:752  1 */\n      0x01\n        /* \".deps/github/OpenZeppelin/openzeppelin-contracts/contracts/utils/Strings.sol\":742:748  digits */\n      dup4\n        /* \".deps/github/OpenZeppelin/openzeppelin-contracts/contracts/utils/Strings.sol\":742:752  digits - 1 */\n      sub\n        /* \".deps/github/OpenZeppelin/openzeppelin-contracts/contracts/utils/Strings.sol\":726:752  uint256 index = digits - 1 */\n      swap1\n      pop\n        /* \".deps/github/OpenZeppelin/openzeppelin-contracts/contracts/utils/Strings.sol\":769:774  value */\n      dup6\n        /* \".deps/github/OpenZeppelin/openzeppelin-contracts/contracts/utils/Strings.sol\":762:774  temp = value */\n      swap4\n      pop\n        /* \".deps/github/OpenZeppelin/openzeppelin-contracts/contracts/utils/Strings.sol\":784:898  while (temp != 0) {... */\n    tag_242:\n        /* \".deps/github/OpenZeppelin/openzeppelin-contracts/contracts/utils/Strings.sol\":799:800  0 */\n      0x00\n        /* \".deps/github/OpenZeppelin/openzeppelin-contracts/contracts/utils/Strings.sol\":791:795  temp */\n      dup5\n        /* \".deps/github/OpenZeppelin/openzeppelin-contracts/contracts/utils/Strings.sol\":791:800  temp != 0 */\n      eq\n        /* \".deps/github/OpenZeppelin/openzeppelin-contracts/contracts/utils/Strings.sol\":784:898  while (temp != 0) {... */\n      tag_243\n      jumpi\n        /* \".deps/github/OpenZeppelin/openzeppelin-contracts/contracts/utils/Strings.sol\":859:861  10 */\n      0x0a\n        /* \".deps/github/OpenZeppelin/openzeppelin-contracts/contracts/utils/Strings.sol\":852:856  temp */\n      dup5\n        /* \".deps/github/OpenZeppelin/openzeppelin-contracts/contracts/utils/Strings.sol\":852:861  temp % 10 */\n      dup2\n      tag_244\n      jumpi\n      invalid\n    tag_244:\n      mod\n        /* \".deps/github/OpenZeppelin/openzeppelin-contracts/contracts/utils/Strings.sol\":847:849  48 */\n      0x30\n        /* \".deps/github/OpenZeppelin/openzeppelin-contracts/contracts/utils/Strings.sol\":847:861  48 + temp % 10 */\n      add\n        /* \".deps/github/OpenZeppelin/openzeppelin-contracts/contracts/utils/Strings.sol\":834:863  bytes1(uint8(48 + temp % 10)) */\n      0xf8\n      shl\n        /* \".deps/github/OpenZeppelin/openzeppelin-contracts/contracts/utils/Strings.sol\":816:822  buffer */\n      dup3\n        /* \".deps/github/OpenZeppelin/openzeppelin-contracts/contracts/utils/Strings.sol\":823:830  index-- */\n      dup3\n      dup1\n      0x01\n      swap1\n      sub\n      swap4\n      pop\n        /* \".deps/github/OpenZeppelin/openzeppelin-contracts/contracts/utils/Strings.sol\":816:831  buffer[index--] */\n      dup2\n      mload\n      dup2\n      lt\n      tag_245\n      jumpi\n      invalid\n    tag_245:\n      0x20\n      add\n      add\n        /* \".deps/github/OpenZeppelin/openzeppelin-contracts/contracts/utils/Strings.sol\":816:863  buffer[index--] = bytes1(uint8(48 + temp % 10)) */\n      swap1\n      not(0xffffffffffffffffffffffffffffffffffffffffffffffffffffffffffffff)\n      and\n      swap1\n      dup2\n      0x00\n      byte\n      swap1\n      mstore8\n      pop\n        /* \".deps/github/OpenZeppelin/openzeppelin-contracts/contracts/utils/Strings.sol\":885:887  10 */\n      0x0a\n        /* \".deps/github/OpenZeppelin/openzeppelin-contracts/contracts/utils/Strings.sol\":877:887  temp /= 10 */\n      dup5\n      dup2\n      tag_246\n      jumpi\n      invalid\n    tag_246:\n      div\n      swap4\n      pop\n        /* \".deps/github/OpenZeppelin/openzeppelin-contracts/contracts/utils/Strings.sol\":784:898  while (temp != 0) {... */\n      jump(tag_242)\n    tag_243:\n        /* \".deps/github/OpenZeppelin/openzeppelin-contracts/contracts/utils/Strings.sol\":921:927  buffer */\n      dup2\n        /* \".deps/github/OpenZeppelin/openzeppelin-contracts/contracts/utils/Strings.sol\":907:928  return string(buffer) */\n      swap5\n      pop\n      pop\n      pop\n      pop\n      pop\n        /* \".deps/github/OpenZeppelin/openzeppelin-contracts/contracts/utils/Strings.sol\":210:935  function toString(uint256 value) internal pure returns (string memory) {... */\n    tag_235:\n      swap2\n      swap1\n      pop\n      jump\t// out\n        /* \".deps/github/OpenZeppelin/openzeppelin-contracts/contracts/utils/EnumerableMap.sol\":7588:7737  function contains(UintToAddressMap storage map, uint256 key) internal view returns (bool) {... */\n    tag_190:\n        /* \".deps/github/OpenZeppelin/openzeppelin-contracts/contracts/utils/EnumerableMap.sol\":7672:7676  bool */\n      0x00\n        /* \".deps/github/OpenZeppelin/openzeppelin-contracts/contracts/utils/EnumerableMap.sol\":7695:7730  _contains(map._inner, bytes32(key)) */\n      tag_248\n        /* \".deps/github/OpenZeppelin/openzeppelin-contracts/contracts/utils/EnumerableMap.sol\":7705:7708  map */\n      dup4\n        /* \".deps/github/OpenZeppelin/openzeppelin-contracts/contracts/utils/EnumerableMap.sol\":7705:7715  map._inner */\n      0x00\n      add\n        /* \".deps/github/OpenZeppelin/openzeppelin-contracts/contracts/utils/EnumerableMap.sol\":7725:7728  key */\n      dup4\n        /* \".deps/github/OpenZeppelin/openzeppelin-contracts/contracts/utils/EnumerableMap.sol\":7717:7729  bytes32(key) */\n      0x00\n      shl\n        /* \".deps/github/OpenZeppelin/openzeppelin-contracts/contracts/utils/EnumerableMap.sol\":7695:7704  _contains */\n      tag_249\n        /* \".deps/github/OpenZeppelin/openzeppelin-contracts/contracts/utils/EnumerableMap.sol\":7695:7730  _contains(map._inner, bytes32(key)) */\n      jump\t// in\n    tag_248:\n        /* \".deps/github/OpenZeppelin/openzeppelin-contracts/contracts/utils/EnumerableMap.sol\":7688:7730  return _contains(map._inner, bytes32(key)) */\n      swap1\n      pop\n        /* \".deps/github/OpenZeppelin/openzeppelin-contracts/contracts/utils/EnumerableMap.sol\":7588:7737  function contains(UintToAddressMap storage map, uint256 key) internal view returns (bool) {... */\n      swap3\n      swap2\n      pop\n      pop\n      jump\t// out\n        /* \".deps/github/OpenZeppelin/openzeppelin-contracts/contracts/utils/EnumerableMap.sol\":4491:4599  function _length(Map storage map) private view returns (uint256) {... */\n    tag_196:\n        /* \".deps/github/OpenZeppelin/openzeppelin-contracts/contracts/utils/EnumerableMap.sol\":4547:4554  uint256 */\n      0x00\n        /* \".deps/github/OpenZeppelin/openzeppelin-contracts/contracts/utils/EnumerableMap.sol\":4573:4576  map */\n      dup2\n        /* \".deps/github/OpenZeppelin/openzeppelin-contracts/contracts/utils/EnumerableMap.sol\":4573:4585  map._entries */\n      0x00\n      add\n        /* \".deps/github/OpenZeppelin/openzeppelin-contracts/contracts/utils/EnumerableMap.sol\":4573:4592  map._entries.length */\n      dup1\n      sload\n      swap1\n      pop\n        /* \".deps/github/OpenZeppelin/openzeppelin-contracts/contracts/utils/EnumerableMap.sol\":4566:4592  return map._entries.length */\n      swap1\n      pop\n        /* \".deps/github/OpenZeppelin/openzeppelin-contracts/contracts/utils/EnumerableMap.sol\":4491:4599  function _length(Map storage map) private view returns (uint256) {... */\n      swap2\n      swap1\n      pop\n      jump\t// out\n        /* \".deps/github/OpenZeppelin/openzeppelin-contracts/contracts/token/ERC721/ERC721.sol\":17346:17439  function _beforeTokenTransfer(address from, address to, uint256 tokenId) internal virtual { } */\n    tag_210:\n      pop\n      pop\n      pop\n      jump\t// out\n        /* \".deps/github/OpenZeppelin/openzeppelin-contracts/contracts/utils/EnumerableSet.sol\":8365:8500  function remove(UintSet storage set, uint256 value) internal returns (bool) {... */\n    tag_213:\n        /* \".deps/github/OpenZeppelin/openzeppelin-contracts/contracts/utils/EnumerableSet.sol\":8435:8439  bool */\n      0x00\n        /* \".deps/github/OpenZeppelin/openzeppelin-contracts/contracts/utils/EnumerableSet.sol\":8458:8493  _remove(set._inner, bytes32(value)) */\n      tag_253\n        /* \".deps/github/OpenZeppelin/openzeppelin-contracts/contracts/utils/EnumerableSet.sol\":8466:8469  set */\n      dup4\n        /* \".deps/github/OpenZeppelin/openzeppelin-contracts/contracts/utils/EnumerableSet.sol\":8466:8476  set._inner */\n      0x00\n      add\n        /* \".deps/github/OpenZeppelin/openzeppelin-contracts/contracts/utils/EnumerableSet.sol\":8486:8491  value */\n      dup4\n        /* \".deps/github/OpenZeppelin/openzeppelin-contracts/contracts/utils/EnumerableSet.sol\":8478:8492  bytes32(value) */\n      0x00\n      shl\n        /* \".deps/github/OpenZeppelin/openzeppelin-contracts/contracts/utils/EnumerableSet.sol\":8458:8465  _remove */\n      tag_254\n        /* \".deps/github/OpenZeppelin/openzeppelin-contracts/contracts/utils/EnumerableSet.sol\":8458:8493  _remove(set._inner, bytes32(value)) */\n      jump\t// in\n    tag_253:\n        /* \".deps/github/OpenZeppelin/openzeppelin-contracts/contracts/utils/EnumerableSet.sol\":8451:8493  return _remove(set._inner, bytes32(value)) */\n      swap1\n      pop\n        /* \".deps/github/OpenZeppelin/openzeppelin-contracts/contracts/utils/EnumerableSet.sol\":8365:8500  function remove(UintSet storage set, uint256 value) internal returns (bool) {... */\n      swap3\n      swap2\n      pop\n      pop\n      jump\t// out\n        /* \".deps/github/OpenZeppelin/openzeppelin-contracts/contracts/utils/EnumerableSet.sol\":8068:8197  function add(UintSet storage set, uint256 value) internal returns (bool) {... */\n    tag_215:\n        /* \".deps/github/OpenZeppelin/openzeppelin-contracts/contracts/utils/EnumerableSet.sol\":8135:8139  bool */\n      0x00\n        /* \".deps/github/OpenZeppelin/openzeppelin-contracts/contracts/utils/EnumerableSet.sol\":8158:8190  _add(set._inner, bytes32(value)) */\n      tag_256\n        /* \".deps/github/OpenZeppelin/openzeppelin-contracts/contracts/utils/EnumerableSet.sol\":8163:8166  set */\n      dup4\n        /* \".deps/github/OpenZeppelin/openzeppelin-contracts/contracts/utils/EnumerableSet.sol\":8163:8173  set._inner */\n      0x00\n      add\n        /* \".deps/github/OpenZeppelin/openzeppelin-contracts/contracts/utils/EnumerableSet.sol\":8183:8188  value */\n      dup4\n        /* \".deps/github/OpenZeppelin/openzeppelin-contracts/contracts/utils/EnumerableSet.sol\":8175:8189  bytes32(value) */\n      0x00\n      shl\n        /* \".deps/github/OpenZeppelin/openzeppelin-contracts/contracts/utils/EnumerableSet.sol\":8158:8162  _add */\n      tag_257\n        /* \".deps/github/OpenZeppelin/openzeppelin-contracts/contracts/utils/EnumerableSet.sol\":8158:8190  _add(set._inner, bytes32(value)) */\n      jump\t// in\n    tag_256:\n        /* \".deps/github/OpenZeppelin/openzeppelin-contracts/contracts/utils/EnumerableSet.sol\":8151:8190  return _add(set._inner, bytes32(value)) */\n      swap1\n      pop\n        /* \".deps/github/OpenZeppelin/openzeppelin-contracts/contracts/utils/EnumerableSet.sol\":8068:8197  function add(UintSet storage set, uint256 value) internal returns (bool) {... */\n      swap3\n      swap2\n      pop\n      pop\n      jump\t// out\n        /* \".deps/github/OpenZeppelin/openzeppelin-contracts/contracts/utils/EnumerableMap.sol\":7027:7210  function set(UintToAddressMap storage map, uint256 key, address value) internal returns (bool) {... */\n    tag_217:\n        /* \".deps/github/OpenZeppelin/openzeppelin-contracts/contracts/utils/EnumerableMap.sol\":7116:7120  bool */\n      0x00\n        /* \".deps/github/OpenZeppelin/openzeppelin-contracts/contracts/utils/EnumerableMap.sol\":7139:7203  _set(map._inner, bytes32(key), bytes32(uint256(uint160(value)))) */\n      tag_259\n        /* \".deps/github/OpenZeppelin/openzeppelin-contracts/contracts/utils/EnumerableMap.sol\":7144:7147  map */\n      dup5\n        /* \".deps/github/OpenZeppelin/openzeppelin-contracts/contracts/utils/EnumerableMap.sol\":7144:7154  map._inner */\n      0x00\n      add\n        /* \".deps/github/OpenZeppelin/openzeppelin-contracts/contracts/utils/EnumerableMap.sol\":7164:7167  key */\n      dup5\n        /* \".deps/github/OpenZeppelin/openzeppelin-contracts/contracts/utils/EnumerableMap.sol\":7156:7168  bytes32(key) */\n      0x00\n      shl\n        /* \".deps/github/OpenZeppelin/openzeppelin-contracts/contracts/utils/EnumerableMap.sol\":7194:7199  value */\n      dup5\n        /* \".deps/github/OpenZeppelin/openzeppelin-contracts/contracts/utils/EnumerableMap.sol\":7178:7201  uint256(uint160(value)) */\n      0xffffffffffffffffffffffffffffffffffffffff\n      and\n        /* \".deps/github/OpenZeppelin/openzeppelin-contracts/contracts/utils/EnumerableMap.sol\":7170:7202  bytes32(uint256(uint160(value))) */\n      0x00\n      shl\n        /* \".deps/github/OpenZeppelin/openzeppelin-contracts/contracts/utils/EnumerableMap.sol\":7139:7143  _set */\n      tag_260\n        /* \".deps/github/OpenZeppelin/openzeppelin-contracts/contracts/utils/EnumerableMap.sol\":7139:7203  _set(map._inner, bytes32(key), bytes32(uint256(uint160(value)))) */\n      jump\t// in\n    tag_259:\n        /* \".deps/github/OpenZeppelin/openzeppelin-contracts/contracts/utils/EnumerableMap.sol\":7132:7203  return _set(map._inner, bytes32(key), bytes32(uint256(uint160(value)))) */\n      swap1\n      pop\n        /* \".deps/github/OpenZeppelin/openzeppelin-contracts/contracts/utils/EnumerableMap.sol\":7027:7210  function set(UintToAddressMap storage map, uint256 key, address value) internal returns (bool) {... */\n      swap4\n      swap3\n      pop\n      pop\n      pop\n      jump\t// out\n        /* \".deps/github/OpenZeppelin/openzeppelin-contracts/contracts/utils/EnumerableSet.sol\":4452:4653  function _at(Set storage set, uint256 index) private view returns (bytes32) {... */\n    tag_220:\n        /* \".deps/github/OpenZeppelin/openzeppelin-contracts/contracts/utils/EnumerableSet.sol\":4519:4526  bytes32 */\n      0x00\n        /* \".deps/github/OpenZeppelin/openzeppelin-contracts/contracts/utils/EnumerableSet.sol\":4567:4572  index */\n      dup2\n        /* \".deps/github/OpenZeppelin/openzeppelin-contracts/contracts/utils/EnumerableSet.sol\":4546:4549  set */\n      dup4\n        /* \".deps/github/OpenZeppelin/openzeppelin-contracts/contracts/utils/EnumerableSet.sol\":4546:4557  set._values */\n      0x00\n      add\n        /* \".deps/github/OpenZeppelin/openzeppelin-contracts/contracts/utils/EnumerableSet.sol\":4546:4564  set._values.length */\n      dup1\n      sload\n      swap1\n      pop\n        /* \".deps/github/OpenZeppelin/openzeppelin-contracts/contracts/utils/EnumerableSet.sol\":4546:4572  set._values.length > index */\n      gt\n        /* \".deps/github/OpenZeppelin/openzeppelin-contracts/contracts/utils/EnumerableSet.sol\":4538:4611  require(set._values.length > index, \"EnumerableSet: index out of bounds\") */\n      tag_262\n      jumpi\n      mload(0x40)\n      0x08c379a000000000000000000000000000000000000000000000000000000000\n      dup2\n      mstore\n      0x04\n      add\n      dup1\n      dup1\n      0x20\n      add\n      dup3\n      dup2\n      sub\n      dup3\n      mstore\n      0x22\n      dup2\n      mstore\n      0x20\n      add\n      dup1\n      data_045d6834e6193a687012a3ad777f612279e549b6945364d9d2324f48610d3cbb\n      0x22\n      swap2\n      codecopy\n      0x40\n      add\n      swap2\n      pop\n      pop\n      mload(0x40)\n      dup1\n      swap2\n      sub\n      swap1\n      revert\n    tag_262:\n        /* \".deps/github/OpenZeppelin/openzeppelin-contracts/contracts/utils/EnumerableSet.sol\":4628:4631  set */\n      dup3\n        /* \".deps/github/OpenZeppelin/openzeppelin-contracts/contracts/utils/EnumerableSet.sol\":4628:4639  set._values */\n      0x00\n      add\n        /* \".deps/github/OpenZeppelin/openzeppelin-contracts/contracts/utils/EnumerableSet.sol\":4640:4645  index */\n      dup3\n        /* \".deps/github/OpenZeppelin/openzeppelin-contracts/contracts/utils/EnumerableSet.sol\":4628:4646  set._values[index] */\n      dup2\n      sload\n      dup2\n      lt\n      tag_263\n      jumpi\n      invalid\n    tag_263:\n      swap1\n      0x00\n      mstore\n      keccak256(0x00, 0x20)\n      add\n      sload\n        /* \".deps/github/OpenZeppelin/openzeppelin-contracts/contracts/utils/EnumerableSet.sol\":4621:4646  return set._values[index] */\n      swap1\n      pop\n        /* \".deps/github/OpenZeppelin/openzeppelin-contracts/contracts/utils/EnumerableSet.sol\":4452:4653  function _at(Set storage set, uint256 index) private view returns (bytes32) {... */\n      swap3\n      swap2\n      pop\n      pop\n      jump\t// out\n        /* \".deps/github/OpenZeppelin/openzeppelin-contracts/contracts/utils/EnumerableMap.sol\":4942:5216  function _at(Map storage map, uint256 index) private view returns (bytes32, bytes32) {... */\n    tag_223:\n        /* \".deps/github/OpenZeppelin/openzeppelin-contracts/contracts/utils/EnumerableMap.sol\":5009:5016  bytes32 */\n      0x00\n        /* \".deps/github/OpenZeppelin/openzeppelin-contracts/contracts/utils/EnumerableMap.sol\":5018:5025  bytes32 */\n      dup1\n        /* \".deps/github/OpenZeppelin/openzeppelin-contracts/contracts/utils/EnumerableMap.sol\":5067:5072  index */\n      dup3\n        /* \".deps/github/OpenZeppelin/openzeppelin-contracts/contracts/utils/EnumerableMap.sol\":5045:5048  map */\n      dup5\n        /* \".deps/github/OpenZeppelin/openzeppelin-contracts/contracts/utils/EnumerableMap.sol\":5045:5057  map._entries */\n      0x00\n      add\n        /* \".deps/github/OpenZeppelin/openzeppelin-contracts/contracts/utils/EnumerableMap.sol\":5045:5064  map._entries.length */\n      dup1\n      sload\n      swap1\n      pop\n        /* \".deps/github/OpenZeppelin/openzeppelin-contracts/contracts/utils/EnumerableMap.sol\":5045:5072  map._entries.length > index */\n      gt\n        /* \".deps/github/OpenZeppelin/openzeppelin-contracts/contracts/utils/EnumerableMap.sol\":5037:5111  require(map._entries.length > index, \"EnumerableMap: index out of bounds\") */\n      tag_266\n      jumpi\n      mload(0x40)\n      0x08c379a000000000000000000000000000000000000000000000000000000000\n      dup2\n      mstore\n      0x04\n      add\n      dup1\n      dup1\n      0x20\n      add\n      dup3\n      dup2\n      sub\n      dup3\n      mstore\n      0x22\n      dup2\n      mstore\n      0x20\n      add\n      dup1\n      data_86631030b9066a18616a068fc09fce83d18af4765cb1d2166fa475228f4db155\n      0x22\n      swap2\n      codecopy\n      0x40\n      add\n      swap2\n      pop\n      pop\n      mload(0x40)\n      dup1\n      swap2\n      sub\n      swap1\n      revert\n    tag_266:\n        /* \".deps/github/OpenZeppelin/openzeppelin-contracts/contracts/utils/EnumerableMap.sol\":5122:5144  MapEntry storage entry */\n      0x00\n        /* \".deps/github/OpenZeppelin/openzeppelin-contracts/contracts/utils/EnumerableMap.sol\":5147:5150  map */\n      dup5\n        /* \".deps/github/OpenZeppelin/openzeppelin-contracts/contracts/utils/EnumerableMap.sol\":5147:5159  map._entries */\n      0x00\n      add\n        /* \".deps/github/OpenZeppelin/openzeppelin-contracts/contracts/utils/EnumerableMap.sol\":5160:5165  index */\n      dup5\n        /* \".deps/github/OpenZeppelin/openzeppelin-contracts/contracts/utils/EnumerableMap.sol\":5147:5166  map._entries[index] */\n      dup2\n      sload\n      dup2\n      lt\n      tag_267\n      jumpi\n      invalid\n    tag_267:\n      swap1\n      0x00\n      mstore\n      keccak256(0x00, 0x20)\n      swap1\n      0x02\n      mul\n      add\n        /* \".deps/github/OpenZeppelin/openzeppelin-contracts/contracts/utils/EnumerableMap.sol\":5122:5166  MapEntry storage entry = map._entries[index] */\n      swap1\n      pop\n        /* \".deps/github/OpenZeppelin/openzeppelin-contracts/contracts/utils/EnumerableMap.sol\":5184:5189  entry */\n      dup1\n        /* \".deps/github/OpenZeppelin/openzeppelin-contracts/contracts/utils/EnumerableMap.sol\":5184:5194  entry._key */\n      0x00\n      add\n      sload\n        /* \".deps/github/OpenZeppelin/openzeppelin-contracts/contracts/utils/EnumerableMap.sol\":5196:5201  entry */\n      dup2\n        /* \".deps/github/OpenZeppelin/openzeppelin-contracts/contracts/utils/EnumerableMap.sol\":5196:5208  entry._value */\n      0x01\n      add\n      sload\n        /* \".deps/github/OpenZeppelin/openzeppelin-contracts/contracts/utils/EnumerableMap.sol\":5176:5209  return (entry._key, entry._value) */\n      swap3\n      pop\n      swap3\n      pop\n      pop\n        /* \".deps/github/OpenZeppelin/openzeppelin-contracts/contracts/utils/EnumerableMap.sol\":4942:5216  function _at(Map storage map, uint256 index) private view returns (bytes32, bytes32) {... */\n      swap3\n      pop\n      swap3\n      swap1\n      pop\n      jump\t// out\n        /* \".deps/github/OpenZeppelin/openzeppelin-contracts/contracts/utils/EnumerableMap.sol\":6403:6718  function _get(Map storage map, bytes32 key, string memory errorMessage) private view returns (bytes32) {... */\n    tag_226:\n        /* \".deps/github/OpenZeppelin/openzeppelin-contracts/contracts/utils/EnumerableMap.sol\":6497:6504  bytes32 */\n      0x00\n        /* \".deps/github/OpenZeppelin/openzeppelin-contracts/contracts/utils/EnumerableMap.sol\":6516:6532  uint256 keyIndex */\n      dup1\n        /* \".deps/github/OpenZeppelin/openzeppelin-contracts/contracts/utils/EnumerableMap.sol\":6535:6538  map */\n      dup5\n        /* \".deps/github/OpenZeppelin/openzeppelin-contracts/contracts/utils/EnumerableMap.sol\":6535:6547  map._indexes */\n      0x01\n      add\n        /* \".deps/github/OpenZeppelin/openzeppelin-contracts/contracts/utils/EnumerableMap.sol\":6535:6552  map._indexes[key] */\n      0x00\n        /* \".deps/github/OpenZeppelin/openzeppelin-contracts/contracts/utils/EnumerableMap.sol\":6548:6551  key */\n      dup6\n        /* \".deps/github/OpenZeppelin/openzeppelin-contracts/contracts/utils/EnumerableMap.sol\":6535:6552  map._indexes[key] */\n      dup2\n      mstore\n      0x20\n      add\n      swap1\n      dup2\n      mstore\n      0x20\n      add\n      0x00\n      keccak256\n      sload\n        /* \".deps/github/OpenZeppelin/openzeppelin-contracts/contracts/utils/EnumerableMap.sol\":6516:6552  uint256 keyIndex = map._indexes[key] */\n      swap1\n      pop\n        /* \".deps/github/OpenZeppelin/openzeppelin-contracts/contracts/utils/EnumerableMap.sol\":6582:6583  0 */\n      0x00\n        /* \".deps/github/OpenZeppelin/openzeppelin-contracts/contracts/utils/EnumerableMap.sol\":6570:6578  keyIndex */\n      dup2\n        /* \".deps/github/OpenZeppelin/openzeppelin-contracts/contracts/utils/EnumerableMap.sol\":6570:6583  keyIndex != 0 */\n      eq\n      iszero\n        /* \".deps/github/OpenZeppelin/openzeppelin-contracts/contracts/utils/EnumerableMap.sol\":6585:6597  errorMessage */\n      dup4\n        /* \".deps/github/OpenZeppelin/openzeppelin-contracts/contracts/utils/EnumerableMap.sol\":6562:6598  require(keyIndex != 0, errorMessage) */\n      swap1\n      tag_270\n      jumpi\n      mload(0x40)\n      0x08c379a000000000000000000000000000000000000000000000000000000000\n      dup2\n      mstore\n      0x04\n      add\n      dup1\n      dup1\n      0x20\n      add\n      dup3\n      dup2\n      sub\n      dup3\n      mstore\n      dup4\n      dup2\n      dup2\n      mload\n      dup2\n      mstore\n      0x20\n      add\n      swap2\n      pop\n      dup1\n      mload\n      swap1\n      0x20\n      add\n      swap1\n      dup1\n      dup4\n      dup4\n      0x00\n    tag_271:\n      dup4\n      dup2\n      lt\n      iszero\n      tag_273\n      jumpi\n      dup1\n      dup3\n      add\n      mload\n      dup2\n      dup5\n      add\n      mstore\n      0x20\n      dup2\n      add\n      swap1\n      pop\n      jump(tag_271)\n    tag_273:\n      pop\n      pop\n      pop\n      pop\n      swap1\n      pop\n      swap1\n      dup2\n      add\n      swap1\n      0x1f\n      and\n      dup1\n      iszero\n      tag_274\n      jumpi\n      dup1\n      dup3\n      sub\n      dup1\n      mload\n      0x01\n      dup4\n      0x20\n      sub\n      0x0100\n      exp\n      sub\n      not\n      and\n      dup2\n      mstore\n      0x20\n      add\n      swap2\n      pop\n    tag_274:\n      pop\n      swap3\n      pop\n      pop\n      pop\n      mload(0x40)\n      dup1\n      swap2\n      sub\n      swap1\n      revert\n    tag_270:\n      pop\n        /* \".deps/github/OpenZeppelin/openzeppelin-contracts/contracts/utils/EnumerableMap.sol\":6651:6654  map */\n      dup5\n        /* \".deps/github/OpenZeppelin/openzeppelin-contracts/contracts/utils/EnumerableMap.sol\":6651:6663  map._entries */\n      0x00\n      add\n        /* \".deps/github/OpenZeppelin/openzeppelin-contracts/contracts/utils/EnumerableMap.sol\":6675:6676  1 */\n      0x01\n        /* \".deps/github/OpenZeppelin/openzeppelin-contracts/contracts/utils/EnumerableMap.sol\":6664:6672  keyIndex */\n      dup3\n        /* \".deps/github/OpenZeppelin/openzeppelin-contracts/contracts/utils/EnumerableMap.sol\":6664:6676  keyIndex - 1 */\n      sub\n        /* \".deps/github/OpenZeppelin/openzeppelin-contracts/contracts/utils/EnumerableMap.sol\":6651:6677  map._entries[keyIndex - 1] */\n      dup2\n      sload\n      dup2\n      lt\n      tag_275\n      jumpi\n      invalid\n    tag_275:\n      swap1\n      0x00\n      mstore\n      keccak256(0x00, 0x20)\n      swap1\n      0x02\n      mul\n      add\n        /* \".deps/github/OpenZeppelin/openzeppelin-contracts/contracts/utils/EnumerableMap.sol\":6651:6684  map._entries[keyIndex - 1]._value */\n      0x01\n      add\n      sload\n        /* \".deps/github/OpenZeppelin/openzeppelin-contracts/contracts/utils/EnumerableMap.sol\":6644:6684  return map._entries[keyIndex - 1]._value */\n      swap2\n      pop\n      pop\n        /* \".deps/github/OpenZeppelin/openzeppelin-contracts/contracts/utils/EnumerableMap.sol\":6403:6718  function _get(Map storage map, bytes32 key, string memory errorMessage) private view returns (bytes32) {... */\n      swap4\n      swap3\n      pop\n      pop\n      pop\n      jump\t// out\n        /* \".deps/github/OpenZeppelin/openzeppelin-contracts/contracts/utils/EnumerableSet.sol\":4013:4120  function _length(Set storage set) private view returns (uint256) {... */\n    tag_229:\n        /* \".deps/github/OpenZeppelin/openzeppelin-contracts/contracts/utils/EnumerableSet.sol\":4069:4076  uint256 */\n      0x00\n        /* \".deps/github/OpenZeppelin/openzeppelin-contracts/contracts/utils/EnumerableSet.sol\":4095:4098  set */\n      dup2\n        /* \".deps/github/OpenZeppelin/openzeppelin-contracts/contracts/utils/EnumerableSet.sol\":4095:4106  set._values */\n      0x00\n      add\n        /* \".deps/github/OpenZeppelin/openzeppelin-contracts/contracts/utils/EnumerableSet.sol\":4095:4113  set._values.length */\n      dup1\n      sload\n      swap1\n      pop\n        /* \".deps/github/OpenZeppelin/openzeppelin-contracts/contracts/utils/EnumerableSet.sol\":4088:4113  return set._values.length */\n      swap1\n      pop\n        /* \".deps/github/OpenZeppelin/openzeppelin-contracts/contracts/utils/EnumerableSet.sol\":4013:4120  function _length(Set storage set) private view returns (uint256) {... */\n      swap2\n      swap1\n      pop\n      jump\t// out\n        /* \".deps/github/OpenZeppelin/openzeppelin-contracts/contracts/token/ERC721/ERC721.sol\":15975:16564  function _checkOnERC721Received(address from, address to, uint256 tokenId, bytes memory _data)... */\n    tag_233:\n        /* \".deps/github/OpenZeppelin/openzeppelin-contracts/contracts/token/ERC721/ERC721.sol\":16095:16099  bool */\n      0x00\n        /* \".deps/github/OpenZeppelin/openzeppelin-contracts/contracts/token/ERC721/ERC721.sol\":16120:16135  to.isContract() */\n      tag_279\n        /* \".deps/github/OpenZeppelin/openzeppelin-contracts/contracts/token/ERC721/ERC721.sol\":16120:16122  to */\n      dup5\n        /* \".deps/github/OpenZeppelin/openzeppelin-contracts/contracts/token/ERC721/ERC721.sol\":16120:16133  to.isContract */\n      0xffffffffffffffffffffffffffffffffffffffff\n      and\n      tag_280\n        /* \".deps/github/OpenZeppelin/openzeppelin-contracts/contracts/token/ERC721/ERC721.sol\":16120:16135  to.isContract() */\n      jump\t// in\n    tag_279:\n        /* \".deps/github/OpenZeppelin/openzeppelin-contracts/contracts/token/ERC721/ERC721.sol\":16115:16173  if (!to.isContract()) {... */\n      tag_281\n      jumpi\n        /* \".deps/github/OpenZeppelin/openzeppelin-contracts/contracts/token/ERC721/ERC721.sol\":16158:16162  true */\n      0x01\n        /* \".deps/github/OpenZeppelin/openzeppelin-contracts/contracts/token/ERC721/ERC721.sol\":16151:16162  return true */\n      swap1\n      pop\n      jump(tag_278)\n        /* \".deps/github/OpenZeppelin/openzeppelin-contracts/contracts/token/ERC721/ERC721.sol\":16115:16173  if (!to.isContract()) {... */\n    tag_281:\n        /* \".deps/github/OpenZeppelin/openzeppelin-contracts/contracts/token/ERC721/ERC721.sol\":16182:16205  bytes memory returndata */\n      0x60\n        /* \".deps/github/OpenZeppelin/openzeppelin-contracts/contracts/token/ERC721/ERC721.sol\":16208:16454  to.functionCall(abi.encodeWithSelector(... */\n      tag_282\n        /* \".deps/github/OpenZeppelin/openzeppelin-contracts/contracts/token/ERC721/ERC721.sol\":16260:16305  IERC721Receiver(to).onERC721Received.selector */\n      shl(0xe0, 0x150b7a02)\n        /* \".deps/github/OpenZeppelin/openzeppelin-contracts/contracts/token/ERC721/ERC721.sol\":16319:16331  _msgSender() */\n      tag_283\n        /* \".deps/github/OpenZeppelin/openzeppelin-contracts/contracts/token/ERC721/ERC721.sol\":16319:16329  _msgSender */\n      tag_108\n        /* \".deps/github/OpenZeppelin/openzeppelin-contracts/contracts/token/ERC721/ERC721.sol\":16319:16331  _msgSender() */\n      jump\t// in\n    tag_283:\n        /* \".deps/github/OpenZeppelin/openzeppelin-contracts/contracts/token/ERC721/ERC721.sol\":16345:16349  from */\n      dup9\n        /* \".deps/github/OpenZeppelin/openzeppelin-contracts/contracts/token/ERC721/ERC721.sol\":16363:16370  tokenId */\n      dup8\n        /* \".deps/github/OpenZeppelin/openzeppelin-contracts/contracts/token/ERC721/ERC721.sol\":16384:16389  _data */\n      dup8\n        /* \".deps/github/OpenZeppelin/openzeppelin-contracts/contracts/token/ERC721/ERC721.sol\":16224:16399  abi.encodeWithSelector(... */\n      add(0x24, mload(0x40))\n      dup1\n      dup6\n      0xffffffffffffffffffffffffffffffffffffffff\n      and\n      dup2\n      mstore\n      0x20\n      add\n      dup5\n      0xffffffffffffffffffffffffffffffffffffffff\n      and\n      dup2\n      mstore\n      0x20\n      add\n      dup4\n      dup2\n      mstore\n      0x20\n      add\n      dup1\n      0x20\n      add\n      dup3\n      dup2\n      sub\n      dup3\n      mstore\n      dup4\n      dup2\n      dup2\n      mload\n      dup2\n      mstore\n      0x20\n      add\n      swap2\n      pop\n      dup1\n      mload\n      swap1\n      0x20\n      add\n      swap1\n      dup1\n      dup4\n      dup4\n      0x00\n    tag_284:\n      dup4\n      dup2\n      lt\n      iszero\n      tag_286\n      jumpi\n      dup1\n      dup3\n      add\n      mload\n      dup2\n      dup5\n      add\n      mstore\n      0x20\n      dup2\n      add\n      swap1\n      pop\n      jump(tag_284)\n    tag_286:\n      pop\n      pop\n      pop\n      pop\n      swap1\n      pop\n      swap1\n      dup2\n      add\n      swap1\n      0x1f\n      and\n      dup1\n      iszero\n      tag_287\n      jumpi\n      dup1\n      dup3\n      sub\n      dup1\n      mload\n      0x01\n      dup4\n      0x20\n      sub\n      0x0100\n      exp\n      sub\n      not\n      and\n      dup2\n      mstore\n      0x20\n      add\n      swap2\n      pop\n    tag_287:\n      pop\n      swap6\n      pop\n      pop\n      pop\n      pop\n      pop\n      pop\n      mload(0x40)\n      0x20\n      dup2\n      dup4\n      sub\n      sub\n      dup2\n      mstore\n      swap1\n      0x40\n      mstore\n      swap1\n      not(0xffffffffffffffffffffffffffffffffffffffffffffffffffffffff)\n      and\n      0x20\n      dup3\n      add\n      dup1\n      mload\n      0xffffffffffffffffffffffffffffffffffffffffffffffffffffffff\n      dup4\n      dup2\n      dup4\n      and\n      or\n      dup4\n      mstore\n      pop\n      pop\n      pop\n      pop\n        /* \".deps/github/OpenZeppelin/openzeppelin-contracts/contracts/token/ERC721/ERC721.sol\":16208:16454  to.functionCall(abi.encodeWithSelector(... */\n      mload(0x40)\n      dup1\n      0x60\n      add\n      0x40\n      mstore\n      dup1\n      0x32\n      dup2\n      mstore\n      0x20\n      add\n      data_1e766a06da43a53d0f4c380e06e5a342e14d5af1bf8501996c844905530ca84e\n      0x32\n      swap2\n      codecopy\n        /* \".deps/github/OpenZeppelin/openzeppelin-contracts/contracts/token/ERC721/ERC721.sol\":16208:16210  to */\n      dup8\n        /* \".deps/github/OpenZeppelin/openzeppelin-contracts/contracts/token/ERC721/ERC721.sol\":16208:16223  to.functionCall */\n      0xffffffffffffffffffffffffffffffffffffffff\n      and\n      tag_288\n      swap1\n        /* \".deps/github/OpenZeppelin/openzeppelin-contracts/contracts/token/ERC721/ERC721.sol\":16208:16454  to.functionCall(abi.encodeWithSelector(... */\n      swap3\n      swap2\n      swap1\n      0xffffffff\n      and\n      jump\t// in\n    tag_282:\n        /* \".deps/github/OpenZeppelin/openzeppelin-contracts/contracts/token/ERC721/ERC721.sol\":16182:16454  bytes memory returndata = to.functionCall(abi.encodeWithSelector(... */\n      swap1\n      pop\n        /* \".deps/github/OpenZeppelin/openzeppelin-contracts/contracts/token/ERC721/ERC721.sol\":16464:16477  bytes4 retval */\n      0x00\n        /* \".deps/github/OpenZeppelin/openzeppelin-contracts/contracts/token/ERC721/ERC721.sol\":16491:16501  returndata */\n      dup2\n        /* \".deps/github/OpenZeppelin/openzeppelin-contracts/contracts/token/ERC721/ERC721.sol\":16480:16512  abi.decode(returndata, (bytes4)) */\n      dup1\n      0x20\n      add\n      swap1\n      mload\n      0x20\n      dup2\n      lt\n      iszero\n      tag_289\n      jumpi\n      0x00\n      dup1\n      revert\n    tag_289:\n      dup2\n      add\n      swap1\n      dup1\n      dup1\n      mload\n      swap1\n      0x20\n      add\n      swap1\n      swap3\n      swap2\n      swap1\n      pop\n      pop\n      pop\n        /* \".deps/github/OpenZeppelin/openzeppelin-contracts/contracts/token/ERC721/ERC721.sol\":16464:16512  bytes4 retval = abi.decode(returndata, (bytes4)) */\n      swap1\n      pop\n        /* \".deps/github/OpenZeppelin/openzeppelin-contracts/contracts/token/ERC721/ERC721.sol\":1078:1088  0x150b7a02 */\n      0x150b7a02\n        /* \".deps/github/OpenZeppelin/openzeppelin-contracts/contracts/token/ERC721/ERC721.sol\":16540:16556  _ERC721_RECEIVED */\n      0xe0\n      shl\n        /* \".deps/github/OpenZeppelin/openzeppelin-contracts/contracts/token/ERC721/ERC721.sol\":16530:16556  retval == _ERC721_RECEIVED */\n      not(0xffffffffffffffffffffffffffffffffffffffffffffffffffffffff)\n      and\n        /* \".deps/github/OpenZeppelin/openzeppelin-contracts/contracts/token/ERC721/ERC721.sol\":16530:16536  retval */\n      dup2\n        /* \".deps/github/OpenZeppelin/openzeppelin-contracts/contracts/token/ERC721/ERC721.sol\":16530:16556  retval == _ERC721_RECEIVED */\n      not(0xffffffffffffffffffffffffffffffffffffffffffffffffffffffff)\n      and\n      eq\n        /* \".deps/github/OpenZeppelin/openzeppelin-contracts/contracts/token/ERC721/ERC721.sol\":16522:16557  return (retval == _ERC721_RECEIVED) */\n      swap3\n      pop\n      pop\n      pop\n        /* \".deps/github/OpenZeppelin/openzeppelin-contracts/contracts/token/ERC721/ERC721.sol\":15975:16564  function _checkOnERC721Received(address from, address to, uint256 tokenId, bytes memory _data)... */\n    tag_278:\n      swap5\n      swap4\n      pop\n      pop\n      pop\n      pop\n      jump\t// out\n        /* \".deps/github/OpenZeppelin/openzeppelin-contracts/contracts/utils/EnumerableMap.sol\":4278:4401  function _contains(Map storage map, bytes32 key) private view returns (bool) {... */\n    tag_249:\n        /* \".deps/github/OpenZeppelin/openzeppelin-contracts/contracts/utils/EnumerableMap.sol\":4349:4353  bool */\n      0x00\n        /* \".deps/github/OpenZeppelin/openzeppelin-contracts/contracts/utils/EnumerableMap.sol\":4393:4394  0 */\n      dup1\n        /* \".deps/github/OpenZeppelin/openzeppelin-contracts/contracts/utils/EnumerableMap.sol\":4372:4375  map */\n      dup4\n        /* \".deps/github/OpenZeppelin/openzeppelin-contracts/contracts/utils/EnumerableMap.sol\":4372:4384  map._indexes */\n      0x01\n      add\n        /* \".deps/github/OpenZeppelin/openzeppelin-contracts/contracts/utils/EnumerableMap.sol\":4372:4389  map._indexes[key] */\n      0x00\n        /* \".deps/github/OpenZeppelin/openzeppelin-contracts/contracts/utils/EnumerableMap.sol\":4385:4388  key */\n      dup5\n        /* \".deps/github/OpenZeppelin/openzeppelin-contracts/contracts/utils/EnumerableMap.sol\":4372:4389  map._indexes[key] */\n      dup2\n      mstore\n      0x20\n      add\n      swap1\n      dup2\n      mstore\n      0x20\n      add\n      0x00\n      keccak256\n      sload\n        /* \".deps/github/OpenZeppelin/openzeppelin-contracts/contracts/utils/EnumerableMap.sol\":4372:4394  map._indexes[key] != 0 */\n      eq\n      iszero\n        /* \".deps/github/OpenZeppelin/openzeppelin-contracts/contracts/utils/EnumerableMap.sol\":4365:4394  return map._indexes[key] != 0 */\n      swap1\n      pop\n        /* \".deps/github/OpenZeppelin/openzeppelin-contracts/contracts/utils/EnumerableMap.sol\":4278:4401  function _contains(Map storage map, bytes32 key) private view returns (bool) {... */\n      swap3\n      swap2\n      pop\n      pop\n      jump\t// out\n        /* \".deps/github/OpenZeppelin/openzeppelin-contracts/contracts/utils/EnumerableSet.sol\":2212:3724  function _remove(Set storage set, bytes32 value) private returns (bool) {... */\n    tag_254:\n        /* \".deps/github/OpenZeppelin/openzeppelin-contracts/contracts/utils/EnumerableSet.sol\":2278:2282  bool */\n      0x00\n        /* \".deps/github/OpenZeppelin/openzeppelin-contracts/contracts/utils/EnumerableSet.sol\":2394:2412  uint256 valueIndex */\n      dup1\n        /* \".deps/github/OpenZeppelin/openzeppelin-contracts/contracts/utils/EnumerableSet.sol\":2415:2418  set */\n      dup4\n        /* \".deps/github/OpenZeppelin/openzeppelin-contracts/contracts/utils/EnumerableSet.sol\":2415:2427  set._indexes */\n      0x01\n      add\n        /* \".deps/github/OpenZeppelin/openzeppelin-contracts/contracts/utils/EnumerableSet.sol\":2415:2434  set._indexes[value] */\n      0x00\n        /* \".deps/github/OpenZeppelin/openzeppelin-contracts/contracts/utils/EnumerableSet.sol\":2428:2433  value */\n      dup5\n        /* \".deps/github/OpenZeppelin/openzeppelin-contracts/contracts/utils/EnumerableSet.sol\":2415:2434  set._indexes[value] */\n      dup2\n      mstore\n      0x20\n      add\n      swap1\n      dup2\n      mstore\n      0x20\n      add\n      0x00\n      keccak256\n      sload\n        /* \".deps/github/OpenZeppelin/openzeppelin-contracts/contracts/utils/EnumerableSet.sol\":2394:2434  uint256 valueIndex = set._indexes[value] */\n      swap1\n      pop\n        /* \".deps/github/OpenZeppelin/openzeppelin-contracts/contracts/utils/EnumerableSet.sol\":2463:2464  0 */\n      0x00\n        /* \".deps/github/OpenZeppelin/openzeppelin-contracts/contracts/utils/EnumerableSet.sol\":2449:2459  valueIndex */\n      dup2\n        /* \".deps/github/OpenZeppelin/openzeppelin-contracts/contracts/utils/EnumerableSet.sol\":2449:2464  valueIndex != 0 */\n      eq\n        /* \".deps/github/OpenZeppelin/openzeppelin-contracts/contracts/utils/EnumerableSet.sol\":2445:3718  if (valueIndex != 0) { // Equivalent to contains(set, value)... */\n      tag_292\n      jumpi\n        /* \".deps/github/OpenZeppelin/openzeppelin-contracts/contracts/utils/EnumerableSet.sol\":2806:2827  uint256 toDeleteIndex */\n      0x00\n        /* \".deps/github/OpenZeppelin/openzeppelin-contracts/contracts/utils/EnumerableSet.sol\":2843:2844  1 */\n      0x01\n        /* \".deps/github/OpenZeppelin/openzeppelin-contracts/contracts/utils/EnumerableSet.sol\":2830:2840  valueIndex */\n      dup3\n        /* \".deps/github/OpenZeppelin/openzeppelin-contracts/contracts/utils/EnumerableSet.sol\":2830:2844  valueIndex - 1 */\n      sub\n        /* \".deps/github/OpenZeppelin/openzeppelin-contracts/contracts/utils/EnumerableSet.sol\":2806:2844  uint256 toDeleteIndex = valueIndex - 1 */\n      swap1\n      pop\n        /* \".deps/github/OpenZeppelin/openzeppelin-contracts/contracts/utils/EnumerableSet.sol\":2858:2875  uint256 lastIndex */\n      0x00\n        /* \".deps/github/OpenZeppelin/openzeppelin-contracts/contracts/utils/EnumerableSet.sol\":2899:2900  1 */\n      0x01\n        /* \".deps/github/OpenZeppelin/openzeppelin-contracts/contracts/utils/EnumerableSet.sol\":2878:2881  set */\n      dup7\n        /* \".deps/github/OpenZeppelin/openzeppelin-contracts/contracts/utils/EnumerableSet.sol\":2878:2889  set._values */\n      0x00\n      add\n        /* \".deps/github/OpenZeppelin/openzeppelin-contracts/contracts/utils/EnumerableSet.sol\":2878:2896  set._values.length */\n      dup1\n      sload\n      swap1\n      pop\n        /* \".deps/github/OpenZeppelin/openzeppelin-contracts/contracts/utils/EnumerableSet.sol\":2878:2900  set._values.length - 1 */\n      sub\n        /* \".deps/github/OpenZeppelin/openzeppelin-contracts/contracts/utils/EnumerableSet.sol\":2858:2900  uint256 lastIndex = set._values.length - 1 */\n      swap1\n      pop\n        /* \".deps/github/OpenZeppelin/openzeppelin-contracts/contracts/utils/EnumerableSet.sol\":3140:3157  bytes32 lastvalue */\n      0x00\n        /* \".deps/github/OpenZeppelin/openzeppelin-contracts/contracts/utils/EnumerableSet.sol\":3160:3163  set */\n      dup7\n        /* \".deps/github/OpenZeppelin/openzeppelin-contracts/contracts/utils/EnumerableSet.sol\":3160:3171  set._values */\n      0x00\n      add\n        /* \".deps/github/OpenZeppelin/openzeppelin-contracts/contracts/utils/EnumerableSet.sol\":3172:3181  lastIndex */\n      dup3\n        /* \".deps/github/OpenZeppelin/openzeppelin-contracts/contracts/utils/EnumerableSet.sol\":3160:3182  set._values[lastIndex] */\n      dup2\n      sload\n      dup2\n      lt\n      tag_293\n      jumpi\n      invalid\n    tag_293:\n      swap1\n      0x00\n      mstore\n      keccak256(0x00, 0x20)\n      add\n      sload\n        /* \".deps/github/OpenZeppelin/openzeppelin-contracts/contracts/utils/EnumerableSet.sol\":3140:3182  bytes32 lastvalue = set._values[lastIndex] */\n      swap1\n      pop\n        /* \".deps/github/OpenZeppelin/openzeppelin-contracts/contracts/utils/EnumerableSet.sol\":3303:3312  lastvalue */\n      dup1\n        /* \".deps/github/OpenZeppelin/openzeppelin-contracts/contracts/utils/EnumerableSet.sol\":3274:3277  set */\n      dup8\n        /* \".deps/github/OpenZeppelin/openzeppelin-contracts/contracts/utils/EnumerableSet.sol\":3274:3285  set._values */\n      0x00\n      add\n        /* \".deps/github/OpenZeppelin/openzeppelin-contracts/contracts/utils/EnumerableSet.sol\":3286:3299  toDeleteIndex */\n      dup5\n        /* \".deps/github/OpenZeppelin/openzeppelin-contracts/contracts/utils/EnumerableSet.sol\":3274:3300  set._values[toDeleteIndex] */\n      dup2\n      sload\n      dup2\n      lt\n      tag_295\n      jumpi\n      invalid\n    tag_295:\n      swap1\n      0x00\n      mstore\n      keccak256(0x00, 0x20)\n      add\n        /* \".deps/github/OpenZeppelin/openzeppelin-contracts/contracts/utils/EnumerableSet.sol\":3274:3312  set._values[toDeleteIndex] = lastvalue */\n      dup2\n      swap1\n      sstore\n      pop\n        /* \".deps/github/OpenZeppelin/openzeppelin-contracts/contracts/utils/EnumerableSet.sol\":3420:3421  1 */\n      0x01\n        /* \".deps/github/OpenZeppelin/openzeppelin-contracts/contracts/utils/EnumerableSet.sol\":3404:3417  toDeleteIndex */\n      dup4\n        /* \".deps/github/OpenZeppelin/openzeppelin-contracts/contracts/utils/EnumerableSet.sol\":3404:3421  toDeleteIndex + 1 */\n      add\n        /* \".deps/github/OpenZeppelin/openzeppelin-contracts/contracts/utils/EnumerableSet.sol\":3378:3381  set */\n      dup8\n        /* \".deps/github/OpenZeppelin/openzeppelin-contracts/contracts/utils/EnumerableSet.sol\":3378:3390  set._indexes */\n      0x01\n      add\n        /* \".deps/github/OpenZeppelin/openzeppelin-contracts/contracts/utils/EnumerableSet.sol\":3378:3401  set._indexes[lastvalue] */\n      0x00\n        /* \".deps/github/OpenZeppelin/openzeppelin-contracts/contracts/utils/EnumerableSet.sol\":3391:3400  lastvalue */\n      dup4\n        /* \".deps/github/OpenZeppelin/openzeppelin-contracts/contracts/utils/EnumerableSet.sol\":3378:3401  set._indexes[lastvalue] */\n      dup2\n      mstore\n      0x20\n      add\n      swap1\n      dup2\n      mstore\n      0x20\n      add\n      0x00\n      keccak256\n        /* \".deps/github/OpenZeppelin/openzeppelin-contracts/contracts/utils/EnumerableSet.sol\":3378:3421  set._indexes[lastvalue] = toDeleteIndex + 1 */\n      dup2\n      swap1\n      sstore\n      pop\n        /* \".deps/github/OpenZeppelin/openzeppelin-contracts/contracts/utils/EnumerableSet.sol\":3527:3530  set */\n      dup7\n        /* \".deps/github/OpenZeppelin/openzeppelin-contracts/contracts/utils/EnumerableSet.sol\":3527:3538  set._values */\n      0x00\n      add\n        /* \".deps/github/OpenZeppelin/openzeppelin-contracts/contracts/utils/EnumerableSet.sol\":3527:3544  set._values.pop() */\n      dup1\n      sload\n      dup1\n      tag_297\n      jumpi\n      invalid\n    tag_297:\n      0x01\n      swap1\n      sub\n      dup2\n      dup2\n      swap1\n      0x00\n      mstore\n      keccak256(0x00, 0x20)\n      add\n      0x00\n      swap1\n      sstore\n      swap1\n      sstore\n        /* \".deps/github/OpenZeppelin/openzeppelin-contracts/contracts/utils/EnumerableSet.sol\":3619:3622  set */\n      dup7\n        /* \".deps/github/OpenZeppelin/openzeppelin-contracts/contracts/utils/EnumerableSet.sol\":3619:3631  set._indexes */\n      0x01\n      add\n        /* \".deps/github/OpenZeppelin/openzeppelin-contracts/contracts/utils/EnumerableSet.sol\":3619:3638  set._indexes[value] */\n      0x00\n        /* \".deps/github/OpenZeppelin/openzeppelin-contracts/contracts/utils/EnumerableSet.sol\":3632:3637  value */\n      dup8\n        /* \".deps/github/OpenZeppelin/openzeppelin-contracts/contracts/utils/EnumerableSet.sol\":3619:3638  set._indexes[value] */\n      dup2\n      mstore\n      0x20\n      add\n      swap1\n      dup2\n      mstore\n      0x20\n      add\n      0x00\n      keccak256\n        /* \".deps/github/OpenZeppelin/openzeppelin-contracts/contracts/utils/EnumerableSet.sol\":3612:3638  delete set._indexes[value] */\n      0x00\n      swap1\n      sstore\n        /* \".deps/github/OpenZeppelin/openzeppelin-contracts/contracts/utils/EnumerableSet.sol\":3660:3664  true */\n      0x01\n        /* \".deps/github/OpenZeppelin/openzeppelin-contracts/contracts/utils/EnumerableSet.sol\":3653:3664  return true */\n      swap5\n      pop\n      pop\n      pop\n      pop\n      pop\n      jump(tag_291)\n        /* \".deps/github/OpenZeppelin/openzeppelin-contracts/contracts/utils/EnumerableSet.sol\":2445:3718  if (valueIndex != 0) { // Equivalent to contains(set, value)... */\n    tag_292:\n        /* \".deps/github/OpenZeppelin/openzeppelin-contracts/contracts/utils/EnumerableSet.sol\":3702:3707  false */\n      0x00\n        /* \".deps/github/OpenZeppelin/openzeppelin-contracts/contracts/utils/EnumerableSet.sol\":3695:3707  return false */\n      swap2\n      pop\n      pop\n        /* \".deps/github/OpenZeppelin/openzeppelin-contracts/contracts/utils/EnumerableSet.sol\":2212:3724  function _remove(Set storage set, bytes32 value) private returns (bool) {... */\n    tag_291:\n      swap3\n      swap2\n      pop\n      pop\n      jump\t// out\n        /* \".deps/github/OpenZeppelin/openzeppelin-contracts/contracts/utils/EnumerableSet.sol\":1640:2044  function _add(Set storage set, bytes32 value) private returns (bool) {... */\n    tag_257:\n        /* \".deps/github/OpenZeppelin/openzeppelin-contracts/contracts/utils/EnumerableSet.sol\":1703:1707  bool */\n      0x00\n        /* \".deps/github/OpenZeppelin/openzeppelin-contracts/contracts/utils/EnumerableSet.sol\":1724:1745  _contains(set, value) */\n      tag_301\n        /* \".deps/github/OpenZeppelin/openzeppelin-contracts/contracts/utils/EnumerableSet.sol\":1734:1737  set */\n      dup4\n        /* \".deps/github/OpenZeppelin/openzeppelin-contracts/contracts/utils/EnumerableSet.sol\":1739:1744  value */\n      dup4\n        /* \".deps/github/OpenZeppelin/openzeppelin-contracts/contracts/utils/EnumerableSet.sol\":1724:1733  _contains */\n      tag_302\n        /* \".deps/github/OpenZeppelin/openzeppelin-contracts/contracts/utils/EnumerableSet.sol\":1724:1745  _contains(set, value) */\n      jump\t// in\n    tag_301:\n        /* \".deps/github/OpenZeppelin/openzeppelin-contracts/contracts/utils/EnumerableSet.sol\":1719:2038  if (!_contains(set, value)) {... */\n      tag_303\n      jumpi\n        /* \".deps/github/OpenZeppelin/openzeppelin-contracts/contracts/utils/EnumerableSet.sol\":1761:1764  set */\n      dup3\n        /* \".deps/github/OpenZeppelin/openzeppelin-contracts/contracts/utils/EnumerableSet.sol\":1761:1772  set._values */\n      0x00\n      add\n        /* \".deps/github/OpenZeppelin/openzeppelin-contracts/contracts/utils/EnumerableSet.sol\":1778:1783  value */\n      dup3\n        /* \".deps/github/OpenZeppelin/openzeppelin-contracts/contracts/utils/EnumerableSet.sol\":1761:1784  set._values.push(value) */\n      swap1\n      dup1\n      0x01\n      dup2\n      sload\n      add\n      dup1\n      dup3\n      sstore\n      dup1\n      swap2\n      pop\n      pop\n      0x01\n      swap1\n      sub\n      swap1\n      0x00\n      mstore\n      keccak256(0x00, 0x20)\n      add\n      0x00\n      swap1\n      swap2\n      swap1\n      swap2\n      swap1\n      swap2\n      pop\n      sstore\n        /* \".deps/github/OpenZeppelin/openzeppelin-contracts/contracts/utils/EnumerableSet.sol\":1941:1944  set */\n      dup3\n        /* \".deps/github/OpenZeppelin/openzeppelin-contracts/contracts/utils/EnumerableSet.sol\":1941:1952  set._values */\n      0x00\n      add\n        /* \".deps/github/OpenZeppelin/openzeppelin-contracts/contracts/utils/EnumerableSet.sol\":1941:1959  set._values.length */\n      dup1\n      sload\n      swap1\n      pop\n        /* \".deps/github/OpenZeppelin/openzeppelin-contracts/contracts/utils/EnumerableSet.sol\":1919:1922  set */\n      dup4\n        /* \".deps/github/OpenZeppelin/openzeppelin-contracts/contracts/utils/EnumerableSet.sol\":1919:1931  set._indexes */\n      0x01\n      add\n        /* \".deps/github/OpenZeppelin/openzeppelin-contracts/contracts/utils/EnumerableSet.sol\":1919:1938  set._indexes[value] */\n      0x00\n        /* \".deps/github/OpenZeppelin/openzeppelin-contracts/contracts/utils/EnumerableSet.sol\":1932:1937  value */\n      dup5\n        /* \".deps/github/OpenZeppelin/openzeppelin-contracts/contracts/utils/EnumerableSet.sol\":1919:1938  set._indexes[value] */\n      dup2\n      mstore\n      0x20\n      add\n      swap1\n      dup2\n      mstore\n      0x20\n      add\n      0x00\n      keccak256\n        /* \".deps/github/OpenZeppelin/openzeppelin-contracts/contracts/utils/EnumerableSet.sol\":1919:1959  set._indexes[value] = set._values.length */\n      dup2\n      swap1\n      sstore\n      pop\n        /* \".deps/github/OpenZeppelin/openzeppelin-contracts/contracts/utils/EnumerableSet.sol\":1980:1984  true */\n      0x01\n        /* \".deps/github/OpenZeppelin/openzeppelin-contracts/contracts/utils/EnumerableSet.sol\":1973:1984  return true */\n      swap1\n      pop\n      jump(tag_300)\n        /* \".deps/github/OpenZeppelin/openzeppelin-contracts/contracts/utils/EnumerableSet.sol\":1719:2038  if (!_contains(set, value)) {... */\n    tag_303:\n        /* \".deps/github/OpenZeppelin/openzeppelin-contracts/contracts/utils/EnumerableSet.sol\":2022:2027  false */\n      0x00\n        /* \".deps/github/OpenZeppelin/openzeppelin-contracts/contracts/utils/EnumerableSet.sol\":2015:2027  return false */\n      swap1\n      pop\n        /* \".deps/github/OpenZeppelin/openzeppelin-contracts/contracts/utils/EnumerableSet.sol\":1640:2044  function _add(Set storage set, bytes32 value) private returns (bool) {... */\n    tag_300:\n      swap3\n      swap2\n      pop\n      pop\n      jump\t// out\n        /* \".deps/github/OpenZeppelin/openzeppelin-contracts/contracts/utils/EnumerableMap.sol\":1836:2514  function _set(Map storage map, bytes32 key, bytes32 value) private returns (bool) {... */\n    tag_260:\n        /* \".deps/github/OpenZeppelin/openzeppelin-contracts/contracts/utils/EnumerableMap.sol\":1912:1916  bool */\n      0x00\n        /* \".deps/github/OpenZeppelin/openzeppelin-contracts/contracts/utils/EnumerableMap.sol\":2026:2042  uint256 keyIndex */\n      dup1\n        /* \".deps/github/OpenZeppelin/openzeppelin-contracts/contracts/utils/EnumerableMap.sol\":2045:2048  map */\n      dup5\n        /* \".deps/github/OpenZeppelin/openzeppelin-contracts/contracts/utils/EnumerableMap.sol\":2045:2057  map._indexes */\n      0x01\n      add\n        /* \".deps/github/OpenZeppelin/openzeppelin-contracts/contracts/utils/EnumerableMap.sol\":2045:2062  map._indexes[key] */\n      0x00\n        /* \".deps/github/OpenZeppelin/openzeppelin-contracts/contracts/utils/EnumerableMap.sol\":2058:2061  key */\n      dup6\n        /* \".deps/github/OpenZeppelin/openzeppelin-contracts/contracts/utils/EnumerableMap.sol\":2045:2062  map._indexes[key] */\n      dup2\n      mstore\n      0x20\n      add\n      swap1\n      dup2\n      mstore\n      0x20\n      add\n      0x00\n      keccak256\n      sload\n        /* \".deps/github/OpenZeppelin/openzeppelin-contracts/contracts/utils/EnumerableMap.sol\":2026:2062  uint256 keyIndex = map._indexes[key] */\n      swap1\n      pop\n        /* \".deps/github/OpenZeppelin/openzeppelin-contracts/contracts/utils/EnumerableMap.sol\":2089:2090  0 */\n      0x00\n        /* \".deps/github/OpenZeppelin/openzeppelin-contracts/contracts/utils/EnumerableMap.sol\":2077:2085  keyIndex */\n      dup2\n        /* \".deps/github/OpenZeppelin/openzeppelin-contracts/contracts/utils/EnumerableMap.sol\":2077:2090  keyIndex == 0 */\n      eq\n        /* \".deps/github/OpenZeppelin/openzeppelin-contracts/contracts/utils/EnumerableMap.sol\":2073:2508  if (keyIndex == 0) { // Equivalent to !contains(map, key)... */\n      iszero\n      tag_307\n      jumpi\n        /* \".deps/github/OpenZeppelin/openzeppelin-contracts/contracts/utils/EnumerableMap.sol\":2143:2146  map */\n      dup5\n        /* \".deps/github/OpenZeppelin/openzeppelin-contracts/contracts/utils/EnumerableMap.sol\":2143:2155  map._entries */\n      0x00\n      add\n        /* \".deps/github/OpenZeppelin/openzeppelin-contracts/contracts/utils/EnumerableMap.sol\":2161:2199  MapEntry({ _key: key, _value: value }) */\n      mload(0x40)\n      dup1\n      0x40\n      add\n      0x40\n      mstore\n      dup1\n        /* \".deps/github/OpenZeppelin/openzeppelin-contracts/contracts/utils/EnumerableMap.sol\":2178:2181  key */\n      dup7\n        /* \".deps/github/OpenZeppelin/openzeppelin-contracts/contracts/utils/EnumerableMap.sol\":2161:2199  MapEntry({ _key: key, _value: value }) */\n      dup2\n      mstore\n      0x20\n      add\n        /* \".deps/github/OpenZeppelin/openzeppelin-contracts/contracts/utils/EnumerableMap.sol\":2191:2196  value */\n      dup6\n        /* \".deps/github/OpenZeppelin/openzeppelin-contracts/contracts/utils/EnumerableMap.sol\":2161:2199  MapEntry({ _key: key, _value: value }) */\n      dup2\n      mstore\n      pop\n        /* \".deps/github/OpenZeppelin/openzeppelin-contracts/contracts/utils/EnumerableMap.sol\":2143:2200  map._entries.push(MapEntry({ _key: key, _value: value })) */\n      swap1\n      dup1\n      0x01\n      dup2\n      sload\n      add\n      dup1\n      dup3\n      sstore\n      dup1\n      swap2\n      pop\n      pop\n      0x01\n      swap1\n      sub\n      swap1\n      0x00\n      mstore\n      keccak256(0x00, 0x20)\n      swap1\n      0x02\n      mul\n      add\n      0x00\n      swap1\n      swap2\n      swap1\n      swap2\n      swap1\n      swap2\n      pop\n      0x00\n      dup3\n      add\n      mload\n      dup2\n      0x00\n      add\n      sstore\n      0x20\n      dup3\n      add\n      mload\n      dup2\n      0x01\n      add\n      sstore\n      pop\n      pop\n        /* \".deps/github/OpenZeppelin/openzeppelin-contracts/contracts/utils/EnumerableMap.sol\":2355:2358  map */\n      dup5\n        /* \".deps/github/OpenZeppelin/openzeppelin-contracts/contracts/utils/EnumerableMap.sol\":2355:2367  map._entries */\n      0x00\n      add\n        /* \".deps/github/OpenZeppelin/openzeppelin-contracts/contracts/utils/EnumerableMap.sol\":2355:2374  map._entries.length */\n      dup1\n      sload\n      swap1\n      pop\n        /* \".deps/github/OpenZeppelin/openzeppelin-contracts/contracts/utils/EnumerableMap.sol\":2335:2338  map */\n      dup6\n        /* \".deps/github/OpenZeppelin/openzeppelin-contracts/contracts/utils/EnumerableMap.sol\":2335:2347  map._indexes */\n      0x01\n      add\n        /* \".deps/github/OpenZeppelin/openzeppelin-contracts/contracts/utils/EnumerableMap.sol\":2335:2352  map._indexes[key] */\n      0x00\n        /* \".deps/github/OpenZeppelin/openzeppelin-contracts/contracts/utils/EnumerableMap.sol\":2348:2351  key */\n      dup7\n        /* \".deps/github/OpenZeppelin/openzeppelin-contracts/contracts/utils/EnumerableMap.sol\":2335:2352  map._indexes[key] */\n      dup2\n      mstore\n      0x20\n      add\n      swap1\n      dup2\n      mstore\n      0x20\n      add\n      0x00\n      keccak256\n        /* \".deps/github/OpenZeppelin/openzeppelin-contracts/contracts/utils/EnumerableMap.sol\":2335:2374  map._indexes[key] = map._entries.length */\n      dup2\n      swap1\n      sstore\n      pop\n        /* \".deps/github/OpenZeppelin/openzeppelin-contracts/contracts/utils/EnumerableMap.sol\":2395:2399  true */\n      0x01\n        /* \".deps/github/OpenZeppelin/openzeppelin-contracts/contracts/utils/EnumerableMap.sol\":2388:2399  return true */\n      swap2\n      pop\n      pop\n      jump(tag_306)\n        /* \".deps/github/OpenZeppelin/openzeppelin-contracts/contracts/utils/EnumerableMap.sol\":2073:2508  if (keyIndex == 0) { // Equivalent to !contains(map, key)... */\n    tag_307:\n        /* \".deps/github/OpenZeppelin/openzeppelin-contracts/contracts/utils/EnumerableMap.sol\":2466:2471  value */\n      dup3\n        /* \".deps/github/OpenZeppelin/openzeppelin-contracts/contracts/utils/EnumerableMap.sol\":2430:2433  map */\n      dup6\n        /* \".deps/github/OpenZeppelin/openzeppelin-contracts/contracts/utils/EnumerableMap.sol\":2430:2442  map._entries */\n      0x00\n      add\n        /* \".deps/github/OpenZeppelin/openzeppelin-contracts/contracts/utils/EnumerableMap.sol\":2454:2455  1 */\n      0x01\n        /* \".deps/github/OpenZeppelin/openzeppelin-contracts/contracts/utils/EnumerableMap.sol\":2443:2451  keyIndex */\n      dup4\n        /* \".deps/github/OpenZeppelin/openzeppelin-contracts/contracts/utils/EnumerableMap.sol\":2443:2455  keyIndex - 1 */\n      sub\n        /* \".deps/github/OpenZeppelin/openzeppelin-contracts/contracts/utils/EnumerableMap.sol\":2430:2456  map._entries[keyIndex - 1] */\n      dup2\n      sload\n      dup2\n      lt\n      tag_310\n      jumpi\n      invalid\n    tag_310:\n      swap1\n      0x00\n      mstore\n      keccak256(0x00, 0x20)\n      swap1\n      0x02\n      mul\n      add\n        /* \".deps/github/OpenZeppelin/openzeppelin-contracts/contracts/utils/EnumerableMap.sol\":2430:2463  map._entries[keyIndex - 1]._value */\n      0x01\n      add\n        /* \".deps/github/OpenZeppelin/openzeppelin-contracts/contracts/utils/EnumerableMap.sol\":2430:2471  map._entries[keyIndex - 1]._value = value */\n      dup2\n      swap1\n      sstore\n      pop\n        /* \".deps/github/OpenZeppelin/openzeppelin-contracts/contracts/utils/EnumerableMap.sol\":2492:2497  false */\n      0x00\n        /* \".deps/github/OpenZeppelin/openzeppelin-contracts/contracts/utils/EnumerableMap.sol\":2485:2497  return false */\n      swap2\n      pop\n      pop\n        /* \".deps/github/OpenZeppelin/openzeppelin-contracts/contracts/utils/EnumerableMap.sol\":1836:2514  function _set(Map storage map, bytes32 key, bytes32 value) private returns (bool) {... */\n    tag_306:\n      swap4\n      swap3\n      pop\n      pop\n      pop\n      jump\t// out\n        /* \".deps/github/OpenZeppelin/openzeppelin-contracts/contracts/utils/Address.sol\":726:1139  function isContract(address account) internal view returns (bool) {... */\n    tag_280:\n        /* \".deps/github/OpenZeppelin/openzeppelin-contracts/contracts/utils/Address.sol\":786:790  bool */\n      0x00\n        /* \".deps/github/OpenZeppelin/openzeppelin-contracts/contracts/utils/Address.sol\":989:1001  uint256 size */\n      dup1\n        /* \".deps/github/OpenZeppelin/openzeppelin-contracts/contracts/utils/Address.sol\":1098:1105  account */\n      dup3\n        /* \".deps/github/OpenZeppelin/openzeppelin-contracts/contracts/utils/Address.sol\":1086:1106  extcodesize(account) */\n      extcodesize\n        /* \".deps/github/OpenZeppelin/openzeppelin-contracts/contracts/utils/Address.sol\":1078:1106  size := extcodesize(account) */\n      swap1\n      pop\n        /* \".deps/github/OpenZeppelin/openzeppelin-contracts/contracts/utils/Address.sol\":1131:1132  0 */\n      0x00\n        /* \".deps/github/OpenZeppelin/openzeppelin-contracts/contracts/utils/Address.sol\":1124:1128  size */\n      dup2\n        /* \".deps/github/OpenZeppelin/openzeppelin-contracts/contracts/utils/Address.sol\":1124:1132  size > 0 */\n      gt\n        /* \".deps/github/OpenZeppelin/openzeppelin-contracts/contracts/utils/Address.sol\":1117:1132  return size > 0 */\n      swap2\n      pop\n      pop\n        /* \".deps/github/OpenZeppelin/openzeppelin-contracts/contracts/utils/Address.sol\":726:1139  function isContract(address account) internal view returns (bool) {... */\n      swap2\n      swap1\n      pop\n      jump\t// out\n        /* \".deps/github/OpenZeppelin/openzeppelin-contracts/contracts/utils/Address.sol\":3581:3774  function functionCall(address target, bytes memory data, string memory errorMessage) internal returns (bytes memory) {... */\n    tag_288:\n        /* \".deps/github/OpenZeppelin/openzeppelin-contracts/contracts/utils/Address.sol\":3684:3696  bytes memory */\n      0x60\n        /* \".deps/github/OpenZeppelin/openzeppelin-contracts/contracts/utils/Address.sol\":3715:3767  functionCallWithValue(target, data, 0, errorMessage) */\n      tag_314\n        /* \".deps/github/OpenZeppelin/openzeppelin-contracts/contracts/utils/Address.sol\":3737:3743  target */\n      dup5\n        /* \".deps/github/OpenZeppelin/openzeppelin-contracts/contracts/utils/Address.sol\":3745:3749  data */\n      dup5\n        /* \".deps/github/OpenZeppelin/openzeppelin-contracts/contracts/utils/Address.sol\":3751:3752  0 */\n      0x00\n        /* \".deps/github/OpenZeppelin/openzeppelin-contracts/contracts/utils/Address.sol\":3754:3766  errorMessage */\n      dup6\n        /* \".deps/github/OpenZeppelin/openzeppelin-contracts/contracts/utils/Address.sol\":3715:3736  functionCallWithValue */\n      tag_315\n        /* \".deps/github/OpenZeppelin/openzeppelin-contracts/contracts/utils/Address.sol\":3715:3767  functionCallWithValue(target, data, 0, errorMessage) */\n      jump\t// in\n    tag_314:\n        /* \".deps/github/OpenZeppelin/openzeppelin-contracts/contracts/utils/Address.sol\":3708:3767  return functionCallWithValue(target, data, 0, errorMessage) */\n      swap1\n      pop\n        /* \".deps/github/OpenZeppelin/openzeppelin-contracts/contracts/utils/Address.sol\":3581:3774  function functionCall(address target, bytes memory data, string memory errorMessage) internal returns (bytes memory) {... */\n      swap4\n      swap3\n      pop\n      pop\n      pop\n      jump\t// out\n        /* \".deps/github/OpenZeppelin/openzeppelin-contracts/contracts/utils/EnumerableSet.sol\":3805:3932  function _contains(Set storage set, bytes32 value) private view returns (bool) {... */\n    tag_302:\n        /* \".deps/github/OpenZeppelin/openzeppelin-contracts/contracts/utils/EnumerableSet.sol\":3878:3882  bool */\n      0x00\n        /* \".deps/github/OpenZeppelin/openzeppelin-contracts/contracts/utils/EnumerableSet.sol\":3924:3925  0 */\n      dup1\n        /* \".deps/github/OpenZeppelin/openzeppelin-contracts/contracts/utils/EnumerableSet.sol\":3901:3904  set */\n      dup4\n        /* \".deps/github/OpenZeppelin/openzeppelin-contracts/contracts/utils/EnumerableSet.sol\":3901:3913  set._indexes */\n      0x01\n      add\n        /* \".deps/github/OpenZeppelin/openzeppelin-contracts/contracts/utils/EnumerableSet.sol\":3901:3920  set._indexes[value] */\n      0x00\n        /* \".deps/github/OpenZeppelin/openzeppelin-contracts/contracts/utils/EnumerableSet.sol\":3914:3919  value */\n      dup5\n        /* \".deps/github/OpenZeppelin/openzeppelin-contracts/contracts/utils/EnumerableSet.sol\":3901:3920  set._indexes[value] */\n      dup2\n      mstore\n      0x20\n      add\n      swap1\n      dup2\n      mstore\n      0x20\n      add\n      0x00\n      keccak256\n      sload\n        /* \".deps/github/OpenZeppelin/openzeppelin-contracts/contracts/utils/EnumerableSet.sol\":3901:3925  set._indexes[value] != 0 */\n      eq\n      iszero\n        /* \".deps/github/OpenZeppelin/openzeppelin-contracts/contracts/utils/EnumerableSet.sol\":3894:3925  return set._indexes[value] != 0 */\n      swap1\n      pop\n        /* \".deps/github/OpenZeppelin/openzeppelin-contracts/contracts/utils/EnumerableSet.sol\":3805:3932  function _contains(Set storage set, bytes32 value) private view returns (bool) {... */\n      swap3\n      swap2\n      pop\n      pop\n      jump\t// out\n        /* \".deps/github/OpenZeppelin/openzeppelin-contracts/contracts/utils/Address.sol\":4608:5131  function functionCallWithValue(address target, bytes memory data, uint256 value, string memory errorMessage) internal returns (bytes memory) {... */\n    tag_315:\n        /* \".deps/github/OpenZeppelin/openzeppelin-contracts/contracts/utils/Address.sol\":4735:4747  bytes memory */\n      0x60\n        /* \".deps/github/OpenZeppelin/openzeppelin-contracts/contracts/utils/Address.sol\":4792:4797  value */\n      dup3\n        /* \".deps/github/OpenZeppelin/openzeppelin-contracts/contracts/utils/Address.sol\":4767:4788  address(this).balance */\n      selfbalance\n        /* \".deps/github/OpenZeppelin/openzeppelin-contracts/contracts/utils/Address.sol\":4767:4797  address(this).balance >= value */\n      lt\n      iszero\n        /* \".deps/github/OpenZeppelin/openzeppelin-contracts/contracts/utils/Address.sol\":4759:4840  require(address(this).balance >= value, \"Address: insufficient balance for call\") */\n      tag_318\n      jumpi\n      mload(0x40)\n      0x08c379a000000000000000000000000000000000000000000000000000000000\n      dup2\n      mstore\n      0x04\n      add\n      dup1\n      dup1\n      0x20\n      add\n      dup3\n      dup2\n      sub\n      dup3\n      mstore\n      0x26\n      dup2\n      mstore\n      0x20\n      add\n      dup1\n      data_565f1a77334fc4792800921178c71e4521acffab18ff9e7885b49377ee80ab4c\n      0x26\n      swap2\n      codecopy\n      0x40\n      add\n      swap2\n      pop\n      pop\n      mload(0x40)\n      dup1\n      swap2\n      sub\n      swap1\n      revert\n    tag_318:\n        /* \".deps/github/OpenZeppelin/openzeppelin-contracts/contracts/utils/Address.sol\":4858:4876  isContract(target) */\n      tag_319\n        /* \".deps/github/OpenZeppelin/openzeppelin-contracts/contracts/utils/Address.sol\":4869:4875  target */\n      dup6\n        /* \".deps/github/OpenZeppelin/openzeppelin-contracts/contracts/utils/Address.sol\":4858:4868  isContract */\n      tag_280\n        /* \".deps/github/OpenZeppelin/openzeppelin-contracts/contracts/utils/Address.sol\":4858:4876  isContract(target) */\n      jump\t// in\n    tag_319:\n        /* \".deps/github/OpenZeppelin/openzeppelin-contracts/contracts/utils/Address.sol\":4850:4910  require(isContract(target), \"Address: call to non-contract\") */\n      tag_320\n      jumpi\n      mload(0x40)\n      0x08c379a000000000000000000000000000000000000000000000000000000000\n      dup2\n      mstore\n      0x04\n      add\n      dup1\n      dup1\n      0x20\n      add\n      dup3\n      dup2\n      sub\n      dup3\n      mstore\n      0x1d\n      dup2\n      mstore\n      0x20\n      add\n      dup1\n      0x416464726573733a2063616c6c20746f206e6f6e2d636f6e7472616374000000\n      dup2\n      mstore\n      pop\n      0x20\n      add\n      swap2\n      pop\n      pop\n      mload(0x40)\n      dup1\n      swap2\n      sub\n      swap1\n      revert\n    tag_320:\n        /* \".deps/github/OpenZeppelin/openzeppelin-contracts/contracts/utils/Address.sol\":4981:4993  bool success */\n      0x00\n        /* \".deps/github/OpenZeppelin/openzeppelin-contracts/contracts/utils/Address.sol\":4995:5018  bytes memory returndata */\n      0x60\n        /* \".deps/github/OpenZeppelin/openzeppelin-contracts/contracts/utils/Address.sol\":5022:5028  target */\n      dup7\n        /* \".deps/github/OpenZeppelin/openzeppelin-contracts/contracts/utils/Address.sol\":5022:5033  target.call */\n      0xffffffffffffffffffffffffffffffffffffffff\n      and\n        /* \".deps/github/OpenZeppelin/openzeppelin-contracts/contracts/utils/Address.sol\":5042:5047  value */\n      dup6\n        /* \".deps/github/OpenZeppelin/openzeppelin-contracts/contracts/utils/Address.sol\":5050:5054  data */\n      dup8\n        /* \".deps/github/OpenZeppelin/openzeppelin-contracts/contracts/utils/Address.sol\":5022:5055  target.call{ value: value }(data) */\n      mload(0x40)\n      dup1\n      dup3\n      dup1\n      mload\n      swap1\n      0x20\n      add\n      swap1\n      dup1\n      dup4\n      dup4\n    tag_321:\n      0x20\n      dup4\n      lt\n      tag_323\n      jumpi\n      dup1\n      mload\n      dup3\n      mstore\n      0x20\n      dup3\n      add\n      swap2\n      pop\n      0x20\n      dup2\n      add\n      swap1\n      pop\n      0x20\n      dup4\n      sub\n      swap3\n      pop\n      jump(tag_321)\n    tag_323:\n      0x01\n      dup4\n      0x20\n      sub\n      0x0100\n      exp\n      sub\n      dup1\n      not\n      dup3\n      mload\n      and\n      dup2\n      dup5\n      mload\n      and\n      dup1\n      dup3\n      or\n      dup6\n      mstore\n      pop\n      pop\n      pop\n      pop\n      pop\n      pop\n      swap1\n      pop\n      add\n      swap2\n      pop\n      pop\n      0x00\n      mload(0x40)\n      dup1\n      dup4\n      sub\n      dup2\n      dup6\n      dup8\n      gas\n      call\n      swap3\n      pop\n      pop\n      pop\n      returndatasize\n      dup1\n      0x00\n      dup2\n      eq\n      tag_326\n      jumpi\n      mload(0x40)\n      swap2\n      pop\n      and(add(returndatasize, 0x3f), not(0x1f))\n      dup3\n      add\n      0x40\n      mstore\n      returndatasize\n      dup3\n      mstore\n      returndatasize\n      0x00\n      0x20\n      dup5\n      add\n      returndatacopy\n      jump(tag_325)\n    tag_326:\n      0x60\n      swap2\n      pop\n    tag_325:\n      pop\n        /* \".deps/github/OpenZeppelin/openzeppelin-contracts/contracts/utils/Address.sol\":4980:5055  (bool success, bytes memory returndata) = target.call{ value: value }(data) */\n      swap2\n      pop\n      swap2\n      pop\n        /* \".deps/github/OpenZeppelin/openzeppelin-contracts/contracts/utils/Address.sol\":5072:5124  _verifyCallResult(success, returndata, errorMessage) */\n      tag_327\n        /* \".deps/github/OpenZeppelin/openzeppelin-contracts/contracts/utils/Address.sol\":5090:5097  success */\n      dup3\n        /* \".deps/github/OpenZeppelin/openzeppelin-contracts/contracts/utils/Address.sol\":5099:5109  returndata */\n      dup3\n        /* \".deps/github/OpenZeppelin/openzeppelin-contracts/contracts/utils/Address.sol\":5111:5123  errorMessage */\n      dup7\n        /* \".deps/github/OpenZeppelin/openzeppelin-contracts/contracts/utils/Address.sol\":5072:5089  _verifyCallResult */\n      tag_328\n        /* \".deps/github/OpenZeppelin/openzeppelin-contracts/contracts/utils/Address.sol\":5072:5124  _verifyCallResult(success, returndata, errorMessage) */\n      jump\t// in\n    tag_327:\n        /* \".deps/github/OpenZeppelin/openzeppelin-contracts/contracts/utils/Address.sol\":5065:5124  return _verifyCallResult(success, returndata, errorMessage) */\n      swap3\n      pop\n      pop\n      pop\n        /* \".deps/github/OpenZeppelin/openzeppelin-contracts/contracts/utils/Address.sol\":4608:5131  function functionCallWithValue(address target, bytes memory data, uint256 value, string memory errorMessage) internal returns (bytes memory) {... */\n      swap5\n      swap4\n      pop\n      pop\n      pop\n      pop\n      jump\t// out\n        /* \".deps/github/OpenZeppelin/openzeppelin-contracts/contracts/utils/Address.sol\":7091:7816  function _verifyCallResult(bool success, bytes memory returndata, string memory errorMessage) private pure returns(bytes memory) {... */\n    tag_328:\n        /* \".deps/github/OpenZeppelin/openzeppelin-contracts/contracts/utils/Address.sol\":7206:7218  bytes memory */\n      0x60\n        /* \".deps/github/OpenZeppelin/openzeppelin-contracts/contracts/utils/Address.sol\":7234:7241  success */\n      dup4\n        /* \".deps/github/OpenZeppelin/openzeppelin-contracts/contracts/utils/Address.sol\":7230:7810  if (success) {... */\n      iszero\n      tag_330\n      jumpi\n        /* \".deps/github/OpenZeppelin/openzeppelin-contracts/contracts/utils/Address.sol\":7264:7274  returndata */\n      dup3\n        /* \".deps/github/OpenZeppelin/openzeppelin-contracts/contracts/utils/Address.sol\":7257:7274  return returndata */\n      swap1\n      pop\n      jump(tag_329)\n        /* \".deps/github/OpenZeppelin/openzeppelin-contracts/contracts/utils/Address.sol\":7230:7810  if (success) {... */\n    tag_330:\n        /* \".deps/github/OpenZeppelin/openzeppelin-contracts/contracts/utils/Address.sol\":7395:7396  0 */\n      0x00\n        /* \".deps/github/OpenZeppelin/openzeppelin-contracts/contracts/utils/Address.sol\":7375:7385  returndata */\n      dup4\n        /* \".deps/github/OpenZeppelin/openzeppelin-contracts/contracts/utils/Address.sol\":7375:7392  returndata.length */\n      mload\n        /* \".deps/github/OpenZeppelin/openzeppelin-contracts/contracts/utils/Address.sol\":7375:7396  returndata.length > 0 */\n      gt\n        /* \".deps/github/OpenZeppelin/openzeppelin-contracts/contracts/utils/Address.sol\":7371:7800  if (returndata.length > 0) {... */\n      iszero\n      tag_332\n      jumpi\n        /* \".deps/github/OpenZeppelin/openzeppelin-contracts/contracts/utils/Address.sol\":7633:7643  returndata */\n      dup3\n        /* \".deps/github/OpenZeppelin/openzeppelin-contracts/contracts/utils/Address.sol\":7627:7644  mload(returndata) */\n      mload\n        /* \".deps/github/OpenZeppelin/openzeppelin-contracts/contracts/utils/Address.sol\":7693:7708  returndata_size */\n      dup1\n        /* \".deps/github/OpenZeppelin/openzeppelin-contracts/contracts/utils/Address.sol\":7680:7690  returndata */\n      dup5\n        /* \".deps/github/OpenZeppelin/openzeppelin-contracts/contracts/utils/Address.sol\":7676:7678  32 */\n      0x20\n        /* \".deps/github/OpenZeppelin/openzeppelin-contracts/contracts/utils/Address.sol\":7672:7691  add(32, returndata) */\n      add\n        /* \".deps/github/OpenZeppelin/openzeppelin-contracts/contracts/utils/Address.sol\":7665:7709  revert(add(32, returndata), returndata_size) */\n      revert\n        /* \".deps/github/OpenZeppelin/openzeppelin-contracts/contracts/utils/Address.sol\":7582:7727  {... */\n    tag_332:\n        /* \".deps/github/OpenZeppelin/openzeppelin-contracts/contracts/utils/Address.sol\":7772:7784  errorMessage */\n      dup2\n        /* \".deps/github/OpenZeppelin/openzeppelin-contracts/contracts/utils/Address.sol\":7765:7785  revert(errorMessage) */\n      mload(0x40)\n      0x08c379a000000000000000000000000000000000000000000000000000000000\n      dup2\n      mstore\n      0x04\n      add\n      dup1\n      dup1\n      0x20\n      add\n      dup3\n      dup2\n      sub\n      dup3\n      mstore\n      dup4\n      dup2\n      dup2\n      mload\n      dup2\n      mstore\n      0x20\n      add\n      swap2\n      pop\n      dup1\n      mload\n      swap1\n      0x20\n      add\n      swap1\n      dup1\n      dup4\n      dup4\n      0x00\n    tag_334:\n      dup4\n      dup2\n      lt\n      iszero\n      tag_336\n      jumpi\n      dup1\n      dup3\n      add\n      mload\n      dup2\n      dup5\n      add\n      mstore\n      0x20\n      dup2\n      add\n      swap1\n      pop\n      jump(tag_334)\n    tag_336:\n      pop\n      pop\n      pop\n      pop\n      swap1\n      pop\n      swap1\n      dup2\n      add\n      swap1\n      0x1f\n      and\n      dup1\n      iszero\n      tag_337\n      jumpi\n      dup1\n      dup3\n      sub\n      dup1\n      mload\n      0x01\n      dup4\n      0x20\n      sub\n      0x0100\n      exp\n      sub\n      not\n      and\n      dup2\n      mstore\n      0x20\n      add\n      swap2\n      pop\n    tag_337:\n      pop\n      swap3\n      pop\n      pop\n      pop\n      mload(0x40)\n      dup1\n      swap2\n      sub\n      swap1\n      revert\n        /* \".deps/github/OpenZeppelin/openzeppelin-contracts/contracts/utils/Address.sol\":7091:7816  function _verifyCallResult(bool success, bytes memory returndata, string memory errorMessage) private pure returns(bytes memory) {... */\n    tag_329:\n      swap4\n      swap3\n      pop\n      pop\n      pop\n      jump\t// out\n    stop\n    data_045d6834e6193a687012a3ad777f612279e549b6945364d9d2324f48610d3cbb 456e756d657261626c655365743a20696e646578206f7574206f6620626f756e6473\n    data_1e766a06da43a53d0f4c380e06e5a342e14d5af1bf8501996c844905530ca84e 4552433732313a207472616e7366657220746f206e6f6e20455243373231526563656976657220696d706c656d656e746572\n    data_455fea98ea03c32d7dd1a6f1426917d80529bf47b3ccbde74e7206e889e709f4 4552433732313a207472616e7366657220746f20746865207a65726f2061646472657373\n    data_565f1a77334fc4792800921178c71e4521acffab18ff9e7885b49377ee80ab4c 416464726573733a20696e73756666696369656e742062616c616e636520666f722063616c6c\n    data_5797d1ccb08b83980dd0c07ea40d8f6a64d35fff736a19bdd17522954cb0899c 4552433732313a206f70657261746f7220717565727920666f72206e6f6e6578697374656e7420746f6b656e\n    data_6d83cef3e0cb19b8320a9c5feb26b56bbb08f152a8e61b12eca3302d8d68b23d 4552433732313a20617070726f76652063616c6c6572206973206e6f74206f776e6572206e6f7220617070726f76656420666f7220616c6c\n    data_7395d4d3901c50cdfcab223d072f9aa36241df5d883e62cbf147ee1b05a9e6ba 4552433732313a2062616c616e636520717565727920666f7220746865207a65726f2061646472657373\n    data_7481f3df2a424c0755a1ad2356614e9a5a358d461ea2eae1f89cb21cbad00397 4552433732313a206f776e657220717565727920666f72206e6f6e6578697374656e7420746f6b656e\n    data_86631030b9066a18616a068fc09fce83d18af4765cb1d2166fa475228f4db155 456e756d657261626c654d61703a20696e646578206f7574206f6620626f756e6473\n    data_9291e0f44949204f2e9b40e6be090924979d6047b2365868f4e9f027722eb89d 4552433732313a20617070726f76656420717565727920666f72206e6f6e6578697374656e7420746f6b656e\n    data_a01073130a885d6c1c1af6ac75fc3b1c4f9403c235362962bbf528e2bd87d950 4552433732313a207472616e73666572206f6620746f6b656e2074686174206973206e6f74206f776e\n    data_a2d45c0fba603d40d82d590051761ca952d1ab9d78cca6d0d464d7b6e961a9cb 4552433732314d657461646174613a2055524920717565727920666f72206e6f6e6578697374656e7420746f6b656e\n    data_b51b4875eede07862961e8f9365c6749f5fe55c6ee5d7a9e42b6912ad0b15942 4552433732313a20617070726f76616c20746f2063757272656e74206f776e6572\n    data_c8682f3ad98807db59a6ec6bb812b72fed0a66e3150fa8239699ee83885247f2 4552433732313a207472616e736665722063616c6c6572206973206e6f74206f776e6572206e6f7220617070726f766564\n\n    auxdata: 0xa2646970667358221220ce3f81644191a6b3ee2ec38ca19ba6622887b627931796c6733fbf89fe8818c964736f6c634300060c0033\n}\n",
				"bytecode": {
					"linkReferences": {},
					"object": "60806040526001600a60006101000a81548160ff0219169083151502179055503480156200002c57600080fd5b5060405162002d8638038062002d86833981810160405260408110156200005257600080fd5b81019080805160405193929190846401000000008211156200007357600080fd5b838201915060208201858111156200008a57600080fd5b8251866001820283011164010000000082111715620000a857600080fd5b8083526020830192505050908051906020019080838360005b83811015620000de578082015181840152602081019050620000c1565b50505050905090810190601f1680156200010c5780820380516001836020036101000a031916815260200191505b50604052602001805160405193929190846401000000008211156200013057600080fd5b838201915060208201858111156200014757600080fd5b82518660018202830111640100000000821117156200016557600080fd5b8083526020830192505050908051906020019080838360005b838110156200019b5780820151818401526020810190506200017e565b50505050905090810190601f168015620001c95780820380516001836020036101000a031916815260200191505b50604052505050620001e86301ffc9a760e01b6200026a60201b60201c565b81600690805190602001906200020092919062000373565b5080600790805190602001906200021992919062000373565b50620002326380ac58cd60e01b6200026a60201b60201c565b6200024a635b5e139f60e01b6200026a60201b60201c565b6200026263780e9d6360e01b6200026a60201b60201c565b505062000419565b63ffffffff60e01b817bffffffffffffffffffffffffffffffffffffffffffffffffffffffff1916141562000307576040517f08c379a000000000000000000000000000000000000000000000000000000000815260040180806020018281038252601c8152602001807f4552433136353a20696e76616c696420696e746572666163652069640000000081525060200191505060405180910390fd5b6001600080837bffffffffffffffffffffffffffffffffffffffffffffffffffffffff19167bffffffffffffffffffffffffffffffffffffffffffffffffffffffff1916815260200190815260200160002060006101000a81548160ff02191690831515021790555050565b828054600181600116156101000203166002900490600052602060002090601f016020900481019282601f10620003b657805160ff1916838001178555620003e7565b82800160010185558215620003e7579182015b82811115620003e6578251825591602001919060010190620003c9565b5b509050620003f69190620003fa565b5090565b5b8082111562000415576000816000905550600101620003fb565b5090565b61295d80620004296000396000f3fe608060405234801561001057600080fd5b50600436106101215760003560e01c80636352211e116100ad578063a69df4b511610071578063a69df4b514610656578063b88d4fde14610676578063c87b56dd1461077b578063e985e9c514610822578063f83d08ba1461089c57610121565b80636352211e146104505780636c0360eb146104a857806370a082311461052b57806395d89b4114610583578063a22cb4651461060657610121565b806318160ddd116100f457806318160ddd146102b257806323b872dd146102d05780632f745c591461033e57806342842e0e146103a05780634f6ccce71461040e57610121565b806301ffc9a71461012657806306fdde0314610189578063081812fc1461020c578063095ea7b314610264575b600080fd5b6101716004803603602081101561013c57600080fd5b8101908080357bffffffffffffffffffffffffffffffffffffffffffffffffffffffff191690602001909291905050506108bc565b60405180821515815260200191505060405180910390f35b610191610923565b6040518080602001828103825283818151815260200191508051906020019080838360005b838110156101d15780820151818401526020810190506101b6565b50505050905090810190601f1680156101fe5780820380516001836020036101000a031916815260200191505b509250505060405180910390f35b6102386004803603602081101561022257600080fd5b81019080803590602001909291905050506109c5565b604051808273ffffffffffffffffffffffffffffffffffffffff16815260200191505060405180910390f35b6102b06004803603604081101561027a57600080fd5b81019080803573ffffffffffffffffffffffffffffffffffffffff16906020019092919080359060200190929190505050610a60565b005b6102ba610ba4565b6040518082815260200191505060405180910390f35b61033c600480360360608110156102e657600080fd5b81019080803573ffffffffffffffffffffffffffffffffffffffff169060200190929190803573ffffffffffffffffffffffffffffffffffffffff16906020019092919080359060200190929190505050610bb5565b005b61038a6004803603604081101561035457600080fd5b81019080803573ffffffffffffffffffffffffffffffffffffffff16906020019092919080359060200190929190505050610cb4565b6040518082815260200191505060405180910390f35b61040c600480360360608110156103b657600080fd5b81019080803573ffffffffffffffffffffffffffffffffffffffff169060200190929190803573ffffffffffffffffffffffffffffffffffffffff16906020019092919080359060200190929190505050610d0f565b005b61043a6004803603602081101561042457600080fd5b8101908080359060200190929190505050610d2f565b6040518082815260200191505060405180910390f35b61047c6004803603602081101561046657600080fd5b8101908080359060200190929190505050610d52565b604051808273ffffffffffffffffffffffffffffffffffffffff16815260200191505060405180910390f35b6104b0610d89565b6040518080602001828103825283818151815260200191508051906020019080838360005b838110156104f05780820151818401526020810190506104d5565b50505050905090810190601f16801561051d5780820380516001836020036101000a031916815260200191505b509250505060405180910390f35b61056d6004803603602081101561054157600080fd5b81019080803573ffffffffffffffffffffffffffffffffffffffff169060200190929190505050610e2b565b6040518082815260200191505060405180910390f35b61058b610f00565b6040518080602001828103825283818151815260200191508051906020019080838360005b838110156105cb5780820151818401526020810190506105b0565b50505050905090810190601f1680156105f85780820380516001836020036101000a031916815260200191505b509250505060405180910390f35b6106546004803603604081101561061c57600080fd5b81019080803573ffffffffffffffffffffffffffffffffffffffff169060200190929190803515159060200190929190505050610fa2565b005b61065e611158565b60405180821515815260200191505060405180910390f35b6107796004803603608081101561068c57600080fd5b81019080803573ffffffffffffffffffffffffffffffffffffffff169060200190929190803573ffffffffffffffffffffffffffffffffffffffff16906020019092919080359060200190929190803590602001906401000000008111156106f357600080fd5b82018360208201111561070557600080fd5b8035906020019184600183028401116401000000008311171561072757600080fd5b91908080601f016020809104026020016040519081016040528093929190818152602001838380828437600081840152601f19601f820116905080830192505050505050509192919290505050611205565b005b6107a76004803603602081101561079157600080fd5b810190808035906020019092919050505061127d565b6040518080602001828103825283818151815260200191508051906020019080838360005b838110156107e75780820151818401526020810190506107cc565b50505050905090810190601f1680156108145780820380516001836020036101000a031916815260200191505b509250505060405180910390f35b6108846004803603604081101561083857600080fd5b81019080803573ffffffffffffffffffffffffffffffffffffffff169060200190929190803573ffffffffffffffffffffffffffffffffffffffff16906020019092919050505061154e565b60405180821515815260200191505060405180910390f35b6108a46115e2565b60405180821515815260200191505060405180910390f35b6000806000837bffffffffffffffffffffffffffffffffffffffffffffffffffffffff19167bffffffffffffffffffffffffffffffffffffffffffffffffffffffff1916815260200190815260200160002060009054906101000a900460ff169050919050565b606060068054600181600116156101000203166002900480601f0160208091040260200160405190810160405280929190818152602001828054600181600116156101000203166002900480156109bb5780601f10610990576101008083540402835291602001916109bb565b820191906000526020600020905b81548152906001019060200180831161099e57829003601f168201915b5050505050905090565b60006109d08261168e565b610a25576040517f08c379a000000000000000000000000000000000000000000000000000000000815260040180806020018281038252602c815260200180612852602c913960400191505060405180910390fd5b6004600083815260200190815260200160002060009054906101000a900473ffffffffffffffffffffffffffffffffffffffff169050919050565b6000610a6b82610d52565b90508073ffffffffffffffffffffffffffffffffffffffff168373ffffffffffffffffffffffffffffffffffffffff161415610af2576040517f08c379a00000000000000000000000000000000000000000000000000000000081526004018080602001828103825260218152602001806128d66021913960400191505060405180910390fd5b8073ffffffffffffffffffffffffffffffffffffffff16610b116116ab565b73ffffffffffffffffffffffffffffffffffffffff161480610b405750610b3f81610b3a6116ab565b61154e565b5b610b95576040517f08c379a00000000000000000000000000000000000000000000000000000000081526004018080602001828103825260388152602001806127a56038913960400191505060405180910390fd5b610b9f83836116b3565b505050565b6000610bb0600261176c565b905090565b610bc6610bc06116ab565b82611781565b610c1b576040517f08c379a00000000000000000000000000000000000000000000000000000000081526004018080602001828103825260318152602001806128f76031913960400191505060405180910390fd5b60001515600a60009054906101000a900460ff16151514610ca4576040517f08c379a00000000000000000000000000000000000000000000000000000000081526004018080602001828103825260108152602001807f546f6b656e206973206c6f636b6564210000000000000000000000000000000081525060200191505060405180910390fd5b610caf838383611875565b505050565b6000610d0782600160008673ffffffffffffffffffffffffffffffffffffffff1673ffffffffffffffffffffffffffffffffffffffff168152602001908152602001600020611ab890919063ffffffff16565b905092915050565b610d2a83838360405180602001604052806000815250611205565b505050565b600080610d46836002611ad290919063ffffffff16565b50905080915050919050565b6000610d8282604051806060016040528060298152602001612807602991396002611afe9092919063ffffffff16565b9050919050565b606060098054600181600116156101000203166002900480601f016020809104026020016040519081016040528092919081815260200182805460018160011615610100020316600290048015610e215780601f10610df657610100808354040283529160200191610e21565b820191906000526020600020905b815481529060010190602001808311610e0457829003601f168201915b5050505050905090565b60008073ffffffffffffffffffffffffffffffffffffffff168273ffffffffffffffffffffffffffffffffffffffff161415610eb2576040517f08c379a000000000000000000000000000000000000000000000000000000000815260040180806020018281038252602a8152602001806127dd602a913960400191505060405180910390fd5b610ef9600160008473ffffffffffffffffffffffffffffffffffffffff1673ffffffffffffffffffffffffffffffffffffffff168152602001908152602001600020611b1d565b9050919050565b606060078054600181600116156101000203166002900480601f016020809104026020016040519081016040528092919081815260200182805460018160011615610100020316600290048015610f985780601f10610f6d57610100808354040283529160200191610f98565b820191906000526020600020905b815481529060010190602001808311610f7b57829003601f168201915b5050505050905090565b610faa6116ab565b73ffffffffffffffffffffffffffffffffffffffff168273ffffffffffffffffffffffffffffffffffffffff16141561104b576040517f08c379a00000000000000000000000000000000000000000000000000000000081526004018080602001828103825260198152602001807f4552433732313a20617070726f766520746f2063616c6c65720000000000000081525060200191505060405180910390fd5b80600560006110586116ab565b73ffffffffffffffffffffffffffffffffffffffff1673ffffffffffffffffffffffffffffffffffffffff16815260200190815260200160002060008473ffffffffffffffffffffffffffffffffffffffff1673ffffffffffffffffffffffffffffffffffffffff16815260200190815260200160002060006101000a81548160ff0219169083151502179055508173ffffffffffffffffffffffffffffffffffffffff166111056116ab565b73ffffffffffffffffffffffffffffffffffffffff167f17307eab39ab6107e8899845ad3d59bd9653f200f220920489ca2b5937696c318360405180821515815260200191505060405180910390a35050565b600060011515600a60009054906101000a900460ff161515146111e3576040517f08c379a00000000000000000000000000000000000000000000000000000000081526004018080602001828103825260188152602001807f546f6b656e20697320616c7265616479206c6f636b656421000000000000000081525060200191505060405180910390fd5b6000600a60006101000a81548160ff0219169083151502179055506000905090565b6112166112106116ab565b83611781565b61126b576040517f08c379a00000000000000000000000000000000000000000000000000000000081526004018080602001828103825260318152602001806128f76031913960400191505060405180910390fd5b61127784848484611b32565b50505050565b60606112888261168e565b6112dd576040517f08c379a000000000000000000000000000000000000000000000000000000000815260040180806020018281038252602f8152602001806128a7602f913960400191505060405180910390fd5b6060600860008481526020019081526020016000208054600181600116156101000203166002900480601f0160208091040260200160405190810160405280929190818152602001828054600181600116156101000203166002900480156113865780601f1061135b57610100808354040283529160200191611386565b820191906000526020600020905b81548152906001019060200180831161136957829003601f168201915b505050505090506060611397610d89565b90506000815114156113ad578192505050611549565b60008251111561147e5780826040516020018083805190602001908083835b602083106113ef57805182526020820191506020810190506020830392506113cc565b6001836020036101000a03801982511681845116808217855250505050505090500182805190602001908083835b60208310611440578051825260208201915060208101905060208303925061141d565b6001836020036101000a0380198251168184511680821785525050505050509050019250505060405160208183030381529060405292505050611549565b8061148885611ba4565b6040516020018083805190602001908083835b602083106114be578051825260208201915060208101905060208303925061149b565b6001836020036101000a03801982511681845116808217855250505050505090500182805190602001908083835b6020831061150f57805182526020820191506020810190506020830392506114ec565b6001836020036101000a03801982511681845116808217855250505050505090500192505050604051602081830303815290604052925050505b919050565b6000600560008473ffffffffffffffffffffffffffffffffffffffff1673ffffffffffffffffffffffffffffffffffffffff16815260200190815260200160002060008373ffffffffffffffffffffffffffffffffffffffff1673ffffffffffffffffffffffffffffffffffffffff16815260200190815260200160002060009054906101000a900460ff16905092915050565b6000801515600a60009054906101000a900460ff1615151461166c576040517f08c379a000000000000000000000000000000000000000000000000000000000815260040180806020018281038252601a8152602001807f546f6b656e20697320616c726561647920756e6c6f636b65642100000000000081525060200191505060405180910390fd5b6001600a60006101000a81548160ff0219169083151502179055506001905090565b60006116a4826002611ceb90919063ffffffff16565b9050919050565b600033905090565b816004600083815260200190815260200160002060006101000a81548173ffffffffffffffffffffffffffffffffffffffff021916908373ffffffffffffffffffffffffffffffffffffffff160217905550808273ffffffffffffffffffffffffffffffffffffffff1661172683610d52565b73ffffffffffffffffffffffffffffffffffffffff167f8c5be1e5ebec7d5bd14f71427d1e84f3dd0314c0f7b2291e5b200ac8c7c3b92560405160405180910390a45050565b600061177a82600001611d05565b9050919050565b600061178c8261168e565b6117e1576040517f08c379a000000000000000000000000000000000000000000000000000000000815260040180806020018281038252602c815260200180612779602c913960400191505060405180910390fd5b60006117ec83610d52565b90508073ffffffffffffffffffffffffffffffffffffffff168473ffffffffffffffffffffffffffffffffffffffff16148061185b57508373ffffffffffffffffffffffffffffffffffffffff16611843846109c5565b73ffffffffffffffffffffffffffffffffffffffff16145b8061186c575061186b818561154e565b5b91505092915050565b8273ffffffffffffffffffffffffffffffffffffffff1661189582610d52565b73ffffffffffffffffffffffffffffffffffffffff1614611901576040517f08c379a000000000000000000000000000000000000000000000000000000000815260040180806020018281038252602981526020018061287e6029913960400191505060405180910390fd5b600073ffffffffffffffffffffffffffffffffffffffff168273ffffffffffffffffffffffffffffffffffffffff161415611987576040517f08c379a000000000000000000000000000000000000000000000000000000000815260040180806020018281038252602481526020018061272f6024913960400191505060405180910390fd5b611992838383611d16565b61199d6000826116b3565b6119ee81600160008673ffffffffffffffffffffffffffffffffffffffff1673ffffffffffffffffffffffffffffffffffffffff168152602001908152602001600020611d1b90919063ffffffff16565b50611a4081600160008573ffffffffffffffffffffffffffffffffffffffff1673ffffffffffffffffffffffffffffffffffffffff168152602001908152602001600020611d3590919063ffffffff16565b50611a5781836002611d4f9092919063ffffffff16565b50808273ffffffffffffffffffffffffffffffffffffffff168473ffffffffffffffffffffffffffffffffffffffff167fddf252ad1be2c89b69c2b068fc378daa952ba7f163c4a11628f55a4df523b3ef60405160405180910390a4505050565b6000611ac78360000183611d84565b60001c905092915050565b600080600080611ae58660000186611e07565b915091508160001c8160001c9350935050509250929050565b6000611b11846000018460001b84611ea0565b60001c90509392505050565b6000611b2b82600001611f96565b9050919050565b611b3d848484611875565b611b4984848484611fa7565b611b9e576040517f08c379a00000000000000000000000000000000000000000000000000000000081526004018080602001828103825260328152602001806126fd6032913960400191505060405180910390fd5b50505050565b60606000821415611bec576040518060400160405280600181526020017f30000000000000000000000000000000000000000000000000000000000000008152509050611ce6565b600082905060005b60008214611c16578080600101915050600a8281611c0e57fe5b049150611bf4565b60608167ffffffffffffffff81118015611c2f57600080fd5b506040519080825280601f01601f191660200182016040528015611c625781602001600182028036833780820191505090505b50905060006001830390508593505b60008414611cde57600a8481611c8357fe5b0660300160f81b82828060019003935081518110611c9d57fe5b60200101907effffffffffffffffffffffffffffffffffffffffffffffffffffffffffffff1916908160001a905350600a8481611cd657fe5b049350611c71565b819450505050505b919050565b6000611cfd836000018360001b6121c0565b905092915050565b600081600001805490509050919050565b505050565b6000611d2d836000018360001b6121e3565b905092915050565b6000611d47836000018360001b6122cb565b905092915050565b6000611d7b846000018460001b8473ffffffffffffffffffffffffffffffffffffffff1660001b61233b565b90509392505050565b600081836000018054905011611de5576040517f08c379a00000000000000000000000000000000000000000000000000000000081526004018080602001828103825260228152602001806126db6022913960400191505060405180910390fd5b826000018281548110611df457fe5b9060005260206000200154905092915050565b60008082846000018054905011611e69576040517f08c379a00000000000000000000000000000000000000000000000000000000081526004018080602001828103825260228152602001806128306022913960400191505060405180910390fd5b6000846000018481548110611e7a57fe5b906000526020600020906002020190508060000154816001015492509250509250929050565b60008084600101600085815260200190815260200160002054905060008114158390611f67576040517f08c379a00000000000000000000000000000000000000000000000000000000081526004018080602001828103825283818151815260200191508051906020019080838360005b83811015611f2c578082015181840152602081019050611f11565b50505050905090810190601f168015611f595780820380516001836020036101000a031916815260200191505b509250505060405180910390fd5b50846000016001820381548110611f7a57fe5b9060005260206000209060020201600101549150509392505050565b600081600001805490509050919050565b6000611fc88473ffffffffffffffffffffffffffffffffffffffff16612417565b611fd557600190506121b8565b606061213f63150b7a0260e01b611fea6116ab565b888787604051602401808573ffffffffffffffffffffffffffffffffffffffff1681526020018473ffffffffffffffffffffffffffffffffffffffff16815260200183815260200180602001828103825283818151815260200191508051906020019080838360005b8381101561206e578082015181840152602081019050612053565b50505050905090810190601f16801561209b5780820380516001836020036101000a031916815260200191505b5095505050505050604051602081830303815290604052907bffffffffffffffffffffffffffffffffffffffffffffffffffffffff19166020820180517bffffffffffffffffffffffffffffffffffffffffffffffffffffffff83818316178352505050506040518060600160405280603281526020016126fd603291398773ffffffffffffffffffffffffffffffffffffffff1661242a9092919063ffffffff16565b9050600081806020019051602081101561215857600080fd5b8101908080519060200190929190505050905063150b7a0260e01b7bffffffffffffffffffffffffffffffffffffffffffffffffffffffff1916817bffffffffffffffffffffffffffffffffffffffffffffffffffffffff191614925050505b949350505050565b600080836001016000848152602001908152602001600020541415905092915050565b600080836001016000848152602001908152602001600020549050600081146122bf576000600182039050600060018660000180549050039050600086600001828154811061222e57fe5b906000526020600020015490508087600001848154811061224b57fe5b906000526020600020018190555060018301876001016000838152602001908152602001600020819055508660000180548061228357fe5b600190038181906000526020600020016000905590558660010160008781526020019081526020016000206000905560019450505050506122c5565b60009150505b92915050565b60006122d78383612442565b612330578260000182908060018154018082558091505060019003906000526020600020016000909190919091505582600001805490508360010160008481526020019081526020016000208190555060019050612335565b600090505b92915050565b60008084600101600085815260200190815260200160002054905060008114156123e257846000016040518060400160405280868152602001858152509080600181540180825580915050600190039060005260206000209060020201600090919091909150600082015181600001556020820151816001015550508460000180549050856001016000868152602001908152602001600020819055506001915050612410565b828560000160018303815481106123f557fe5b90600052602060002090600202016001018190555060009150505b9392505050565b600080823b905060008111915050919050565b60606124398484600085612465565b90509392505050565b600080836001016000848152602001908152602001600020541415905092915050565b6060824710156124c0576040517f08c379a00000000000000000000000000000000000000000000000000000000081526004018080602001828103825260268152602001806127536026913960400191505060405180910390fd5b6124c985612417565b61253b576040517f08c379a000000000000000000000000000000000000000000000000000000000815260040180806020018281038252601d8152602001807f416464726573733a2063616c6c20746f206e6f6e2d636f6e747261637400000081525060200191505060405180910390fd5b600060608673ffffffffffffffffffffffffffffffffffffffff1685876040518082805190602001908083835b6020831061258b5780518252602082019150602081019050602083039250612568565b6001836020036101000a03801982511681845116808217855250505050505090500191505060006040518083038185875af1925050503d80600081146125ed576040519150601f19603f3d011682016040523d82523d6000602084013e6125f2565b606091505b509150915061260282828661260e565b92505050949350505050565b6060831561261e578290506126d3565b6000835111156126315782518084602001fd5b816040517f08c379a00000000000000000000000000000000000000000000000000000000081526004018080602001828103825283818151815260200191508051906020019080838360005b8381101561269857808201518184015260208101905061267d565b50505050905090810190601f1680156126c55780820380516001836020036101000a031916815260200191505b509250505060405180910390fd5b939250505056fe456e756d657261626c655365743a20696e646578206f7574206f6620626f756e64734552433732313a207472616e7366657220746f206e6f6e20455243373231526563656976657220696d706c656d656e7465724552433732313a207472616e7366657220746f20746865207a65726f2061646472657373416464726573733a20696e73756666696369656e742062616c616e636520666f722063616c6c4552433732313a206f70657261746f7220717565727920666f72206e6f6e6578697374656e7420746f6b656e4552433732313a20617070726f76652063616c6c6572206973206e6f74206f776e6572206e6f7220617070726f76656420666f7220616c6c4552433732313a2062616c616e636520717565727920666f7220746865207a65726f20616464726573734552433732313a206f776e657220717565727920666f72206e6f6e6578697374656e7420746f6b656e456e756d657261626c654d61703a20696e646578206f7574206f6620626f756e64734552433732313a20617070726f76656420717565727920666f72206e6f6e6578697374656e7420746f6b656e4552433732313a207472616e73666572206f6620746f6b656e2074686174206973206e6f74206f776e4552433732314d657461646174613a2055524920717565727920666f72206e6f6e6578697374656e7420746f6b656e4552433732313a20617070726f76616c20746f2063757272656e74206f776e65724552433732313a207472616e736665722063616c6c6572206973206e6f74206f776e6572206e6f7220617070726f766564a2646970667358221220ce3f81644191a6b3ee2ec38ca19ba6622887b627931796c6733fbf89fe8818c964736f6c634300060c0033",
					"opcodes": "PUSH1 0x80 PUSH1 0x40 MSTORE PUSH1 0x1 PUSH1 0xA PUSH1 0x0 PUSH2 0x100 EXP DUP2 SLOAD DUP2 PUSH1 0xFF MUL NOT AND SWAP1 DUP4 ISZERO ISZERO MUL OR SWAP1 SSTORE POP CALLVALUE DUP1 ISZERO PUSH3 0x2C JUMPI PUSH1 0x0 DUP1 REVERT JUMPDEST POP PUSH1 0x40 MLOAD PUSH3 0x2D86 CODESIZE SUB DUP1 PUSH3 0x2D86 DUP4 CODECOPY DUP2 DUP2 ADD PUSH1 0x40 MSTORE PUSH1 0x40 DUP2 LT ISZERO PUSH3 0x52 JUMPI PUSH1 0x0 DUP1 REVERT JUMPDEST DUP2 ADD SWAP1 DUP1 DUP1 MLOAD PUSH1 0x40 MLOAD SWAP4 SWAP3 SWAP2 SWAP1 DUP5 PUSH5 0x100000000 DUP3 GT ISZERO PUSH3 0x73 JUMPI PUSH1 0x0 DUP1 REVERT JUMPDEST DUP4 DUP3 ADD SWAP2 POP PUSH1 0x20 DUP3 ADD DUP6 DUP2 GT ISZERO PUSH3 0x8A JUMPI PUSH1 0x0 DUP1 REVERT JUMPDEST DUP3 MLOAD DUP7 PUSH1 0x1 DUP3 MUL DUP4 ADD GT PUSH5 0x100000000 DUP3 GT OR ISZERO PUSH3 0xA8 JUMPI PUSH1 0x0 DUP1 REVERT JUMPDEST DUP1 DUP4 MSTORE PUSH1 0x20 DUP4 ADD SWAP3 POP POP POP SWAP1 DUP1 MLOAD SWAP1 PUSH1 0x20 ADD SWAP1 DUP1 DUP4 DUP4 PUSH1 0x0 JUMPDEST DUP4 DUP2 LT ISZERO PUSH3 0xDE JUMPI DUP1 DUP3 ADD MLOAD DUP2 DUP5 ADD MSTORE PUSH1 0x20 DUP2 ADD SWAP1 POP PUSH3 0xC1 JUMP JUMPDEST POP POP POP POP SWAP1 POP SWAP1 DUP2 ADD SWAP1 PUSH1 0x1F AND DUP1 ISZERO PUSH3 0x10C JUMPI DUP1 DUP3 SUB DUP1 MLOAD PUSH1 0x1 DUP4 PUSH1 0x20 SUB PUSH2 0x100 EXP SUB NOT AND DUP2 MSTORE PUSH1 0x20 ADD SWAP2 POP JUMPDEST POP PUSH1 0x40 MSTORE PUSH1 0x20 ADD DUP1 MLOAD PUSH1 0x40 MLOAD SWAP4 SWAP3 SWAP2 SWAP1 DUP5 PUSH5 0x100000000 DUP3 GT ISZERO PUSH3 0x130 JUMPI PUSH1 0x0 DUP1 REVERT JUMPDEST DUP4 DUP3 ADD SWAP2 POP PUSH1 0x20 DUP3 ADD DUP6 DUP2 GT ISZERO PUSH3 0x147 JUMPI PUSH1 0x0 DUP1 REVERT JUMPDEST DUP3 MLOAD DUP7 PUSH1 0x1 DUP3 MUL DUP4 ADD GT PUSH5 0x100000000 DUP3 GT OR ISZERO PUSH3 0x165 JUMPI PUSH1 0x0 DUP1 REVERT JUMPDEST DUP1 DUP4 MSTORE PUSH1 0x20 DUP4 ADD SWAP3 POP POP POP SWAP1 DUP1 MLOAD SWAP1 PUSH1 0x20 ADD SWAP1 DUP1 DUP4 DUP4 PUSH1 0x0 JUMPDEST DUP4 DUP2 LT ISZERO PUSH3 0x19B JUMPI DUP1 DUP3 ADD MLOAD DUP2 DUP5 ADD MSTORE PUSH1 0x20 DUP2 ADD SWAP1 POP PUSH3 0x17E JUMP JUMPDEST POP POP POP POP SWAP1 POP SWAP1 DUP2 ADD SWAP1 PUSH1 0x1F AND DUP1 ISZERO PUSH3 0x1C9 JUMPI DUP1 DUP3 SUB DUP1 MLOAD PUSH1 0x1 DUP4 PUSH1 0x20 SUB PUSH2 0x100 EXP SUB NOT AND DUP2 MSTORE PUSH1 0x20 ADD SWAP2 POP JUMPDEST POP PUSH1 0x40 MSTORE POP POP POP PUSH3 0x1E8 PUSH4 0x1FFC9A7 PUSH1 0xE0 SHL PUSH3 0x26A PUSH1 0x20 SHL PUSH1 0x20 SHR JUMP JUMPDEST DUP2 PUSH1 0x6 SWAP1 DUP1 MLOAD SWAP1 PUSH1 0x20 ADD SWAP1 PUSH3 0x200 SWAP3 SWAP2 SWAP1 PUSH3 0x373 JUMP JUMPDEST POP DUP1 PUSH1 0x7 SWAP1 DUP1 MLOAD SWAP1 PUSH1 0x20 ADD SWAP1 PUSH3 0x219 SWAP3 SWAP2 SWAP1 PUSH3 0x373 JUMP JUMPDEST POP PUSH3 0x232 PUSH4 0x80AC58CD PUSH1 0xE0 SHL PUSH3 0x26A PUSH1 0x20 SHL PUSH1 0x20 SHR JUMP JUMPDEST PUSH3 0x24A PUSH4 0x5B5E139F PUSH1 0xE0 SHL PUSH3 0x26A PUSH1 0x20 SHL PUSH1 0x20 SHR JUMP JUMPDEST PUSH3 0x262 PUSH4 0x780E9D63 PUSH1 0xE0 SHL PUSH3 0x26A PUSH1 0x20 SHL PUSH1 0x20 SHR JUMP JUMPDEST POP POP PUSH3 0x419 JUMP JUMPDEST PUSH4 0xFFFFFFFF PUSH1 0xE0 SHL DUP2 PUSH28 0xFFFFFFFFFFFFFFFFFFFFFFFFFFFFFFFFFFFFFFFFFFFFFFFFFFFFFFFF NOT AND EQ ISZERO PUSH3 0x307 JUMPI PUSH1 0x40 MLOAD PUSH32 0x8C379A000000000000000000000000000000000000000000000000000000000 DUP2 MSTORE PUSH1 0x4 ADD DUP1 DUP1 PUSH1 0x20 ADD DUP3 DUP2 SUB DUP3 MSTORE PUSH1 0x1C DUP2 MSTORE PUSH1 0x20 ADD DUP1 PUSH32 0x4552433136353A20696E76616C696420696E7465726661636520696400000000 DUP2 MSTORE POP PUSH1 0x20 ADD SWAP2 POP POP PUSH1 0x40 MLOAD DUP1 SWAP2 SUB SWAP1 REVERT JUMPDEST PUSH1 0x1 PUSH1 0x0 DUP1 DUP4 PUSH28 0xFFFFFFFFFFFFFFFFFFFFFFFFFFFFFFFFFFFFFFFFFFFFFFFFFFFFFFFF NOT AND PUSH28 0xFFFFFFFFFFFFFFFFFFFFFFFFFFFFFFFFFFFFFFFFFFFFFFFFFFFFFFFF NOT AND DUP2 MSTORE PUSH1 0x20 ADD SWAP1 DUP2 MSTORE PUSH1 0x20 ADD PUSH1 0x0 KECCAK256 PUSH1 0x0 PUSH2 0x100 EXP DUP2 SLOAD DUP2 PUSH1 0xFF MUL NOT AND SWAP1 DUP4 ISZERO ISZERO MUL OR SWAP1 SSTORE POP POP JUMP JUMPDEST DUP3 DUP1 SLOAD PUSH1 0x1 DUP2 PUSH1 0x1 AND ISZERO PUSH2 0x100 MUL SUB AND PUSH1 0x2 SWAP1 DIV SWAP1 PUSH1 0x0 MSTORE PUSH1 0x20 PUSH1 0x0 KECCAK256 SWAP1 PUSH1 0x1F ADD PUSH1 0x20 SWAP1 DIV DUP2 ADD SWAP3 DUP3 PUSH1 0x1F LT PUSH3 0x3B6 JUMPI DUP1 MLOAD PUSH1 0xFF NOT AND DUP4 DUP1 ADD OR DUP6 SSTORE PUSH3 0x3E7 JUMP JUMPDEST DUP3 DUP1 ADD PUSH1 0x1 ADD DUP6 SSTORE DUP3 ISZERO PUSH3 0x3E7 JUMPI SWAP2 DUP3 ADD JUMPDEST DUP3 DUP2 GT ISZERO PUSH3 0x3E6 JUMPI DUP3 MLOAD DUP3 SSTORE SWAP2 PUSH1 0x20 ADD SWAP2 SWAP1 PUSH1 0x1 ADD SWAP1 PUSH3 0x3C9 JUMP JUMPDEST JUMPDEST POP SWAP1 POP PUSH3 0x3F6 SWAP2 SWAP1 PUSH3 0x3FA JUMP JUMPDEST POP SWAP1 JUMP JUMPDEST JUMPDEST DUP1 DUP3 GT ISZERO PUSH3 0x415 JUMPI PUSH1 0x0 DUP2 PUSH1 0x0 SWAP1 SSTORE POP PUSH1 0x1 ADD PUSH3 0x3FB JUMP JUMPDEST POP SWAP1 JUMP JUMPDEST PUSH2 0x295D DUP1 PUSH3 0x429 PUSH1 0x0 CODECOPY PUSH1 0x0 RETURN INVALID PUSH1 0x80 PUSH1 0x40 MSTORE CALLVALUE DUP1 ISZERO PUSH2 0x10 JUMPI PUSH1 0x0 DUP1 REVERT JUMPDEST POP PUSH1 0x4 CALLDATASIZE LT PUSH2 0x121 JUMPI PUSH1 0x0 CALLDATALOAD PUSH1 0xE0 SHR DUP1 PUSH4 0x6352211E GT PUSH2 0xAD JUMPI DUP1 PUSH4 0xA69DF4B5 GT PUSH2 0x71 JUMPI DUP1 PUSH4 0xA69DF4B5 EQ PUSH2 0x656 JUMPI DUP1 PUSH4 0xB88D4FDE EQ PUSH2 0x676 JUMPI DUP1 PUSH4 0xC87B56DD EQ PUSH2 0x77B JUMPI DUP1 PUSH4 0xE985E9C5 EQ PUSH2 0x822 JUMPI DUP1 PUSH4 0xF83D08BA EQ PUSH2 0x89C JUMPI PUSH2 0x121 JUMP JUMPDEST DUP1 PUSH4 0x6352211E EQ PUSH2 0x450 JUMPI DUP1 PUSH4 0x6C0360EB EQ PUSH2 0x4A8 JUMPI DUP1 PUSH4 0x70A08231 EQ PUSH2 0x52B JUMPI DUP1 PUSH4 0x95D89B41 EQ PUSH2 0x583 JUMPI DUP1 PUSH4 0xA22CB465 EQ PUSH2 0x606 JUMPI PUSH2 0x121 JUMP JUMPDEST DUP1 PUSH4 0x18160DDD GT PUSH2 0xF4 JUMPI DUP1 PUSH4 0x18160DDD EQ PUSH2 0x2B2 JUMPI DUP1 PUSH4 0x23B872DD EQ PUSH2 0x2D0 JUMPI DUP1 PUSH4 0x2F745C59 EQ PUSH2 0x33E JUMPI DUP1 PUSH4 0x42842E0E EQ PUSH2 0x3A0 JUMPI DUP1 PUSH4 0x4F6CCCE7 EQ PUSH2 0x40E JUMPI PUSH2 0x121 JUMP JUMPDEST DUP1 PUSH4 0x1FFC9A7 EQ PUSH2 0x126 JUMPI DUP1 PUSH4 0x6FDDE03 EQ PUSH2 0x189 JUMPI DUP1 PUSH4 0x81812FC EQ PUSH2 0x20C JUMPI DUP1 PUSH4 0x95EA7B3 EQ PUSH2 0x264 JUMPI JUMPDEST PUSH1 0x0 DUP1 REVERT JUMPDEST PUSH2 0x171 PUSH1 0x4 DUP1 CALLDATASIZE SUB PUSH1 0x20 DUP2 LT ISZERO PUSH2 0x13C JUMPI PUSH1 0x0 DUP1 REVERT JUMPDEST DUP2 ADD SWAP1 DUP1 DUP1 CALLDATALOAD PUSH28 0xFFFFFFFFFFFFFFFFFFFFFFFFFFFFFFFFFFFFFFFFFFFFFFFFFFFFFFFF NOT AND SWAP1 PUSH1 0x20 ADD SWAP1 SWAP3 SWAP2 SWAP1 POP POP POP PUSH2 0x8BC JUMP JUMPDEST PUSH1 0x40 MLOAD DUP1 DUP3 ISZERO ISZERO DUP2 MSTORE PUSH1 0x20 ADD SWAP2 POP POP PUSH1 0x40 MLOAD DUP1 SWAP2 SUB SWAP1 RETURN JUMPDEST PUSH2 0x191 PUSH2 0x923 JUMP JUMPDEST PUSH1 0x40 MLOAD DUP1 DUP1 PUSH1 0x20 ADD DUP3 DUP2 SUB DUP3 MSTORE DUP4 DUP2 DUP2 MLOAD DUP2 MSTORE PUSH1 0x20 ADD SWAP2 POP DUP1 MLOAD SWAP1 PUSH1 0x20 ADD SWAP1 DUP1 DUP4 DUP4 PUSH1 0x0 JUMPDEST DUP4 DUP2 LT ISZERO PUSH2 0x1D1 JUMPI DUP1 DUP3 ADD MLOAD DUP2 DUP5 ADD MSTORE PUSH1 0x20 DUP2 ADD SWAP1 POP PUSH2 0x1B6 JUMP JUMPDEST POP POP POP POP SWAP1 POP SWAP1 DUP2 ADD SWAP1 PUSH1 0x1F AND DUP1 ISZERO PUSH2 0x1FE JUMPI DUP1 DUP3 SUB DUP1 MLOAD PUSH1 0x1 DUP4 PUSH1 0x20 SUB PUSH2 0x100 EXP SUB NOT AND DUP2 MSTORE PUSH1 0x20 ADD SWAP2 POP JUMPDEST POP SWAP3 POP POP POP PUSH1 0x40 MLOAD DUP1 SWAP2 SUB SWAP1 RETURN JUMPDEST PUSH2 0x238 PUSH1 0x4 DUP1 CALLDATASIZE SUB PUSH1 0x20 DUP2 LT ISZERO PUSH2 0x222 JUMPI PUSH1 0x0 DUP1 REVERT JUMPDEST DUP2 ADD SWAP1 DUP1 DUP1 CALLDATALOAD SWAP1 PUSH1 0x20 ADD SWAP1 SWAP3 SWAP2 SWAP1 POP POP POP PUSH2 0x9C5 JUMP JUMPDEST PUSH1 0x40 MLOAD DUP1 DUP3 PUSH20 0xFFFFFFFFFFFFFFFFFFFFFFFFFFFFFFFFFFFFFFFF AND DUP2 MSTORE PUSH1 0x20 ADD SWAP2 POP POP PUSH1 0x40 MLOAD DUP1 SWAP2 SUB SWAP1 RETURN JUMPDEST PUSH2 0x2B0 PUSH1 0x4 DUP1 CALLDATASIZE SUB PUSH1 0x40 DUP2 LT ISZERO PUSH2 0x27A JUMPI PUSH1 0x0 DUP1 REVERT JUMPDEST DUP2 ADD SWAP1 DUP1 DUP1 CALLDATALOAD PUSH20 0xFFFFFFFFFFFFFFFFFFFFFFFFFFFFFFFFFFFFFFFF AND SWAP1 PUSH1 0x20 ADD SWAP1 SWAP3 SWAP2 SWAP1 DUP1 CALLDATALOAD SWAP1 PUSH1 0x20 ADD SWAP1 SWAP3 SWAP2 SWAP1 POP POP POP PUSH2 0xA60 JUMP JUMPDEST STOP JUMPDEST PUSH2 0x2BA PUSH2 0xBA4 JUMP JUMPDEST PUSH1 0x40 MLOAD DUP1 DUP3 DUP2 MSTORE PUSH1 0x20 ADD SWAP2 POP POP PUSH1 0x40 MLOAD DUP1 SWAP2 SUB SWAP1 RETURN JUMPDEST PUSH2 0x33C PUSH1 0x4 DUP1 CALLDATASIZE SUB PUSH1 0x60 DUP2 LT ISZERO PUSH2 0x2E6 JUMPI PUSH1 0x0 DUP1 REVERT JUMPDEST DUP2 ADD SWAP1 DUP1 DUP1 CALLDATALOAD PUSH20 0xFFFFFFFFFFFFFFFFFFFFFFFFFFFFFFFFFFFFFFFF AND SWAP1 PUSH1 0x20 ADD SWAP1 SWAP3 SWAP2 SWAP1 DUP1 CALLDATALOAD PUSH20 0xFFFFFFFFFFFFFFFFFFFFFFFFFFFFFFFFFFFFFFFF AND SWAP1 PUSH1 0x20 ADD SWAP1 SWAP3 SWAP2 SWAP1 DUP1 CALLDATALOAD SWAP1 PUSH1 0x20 ADD SWAP1 SWAP3 SWAP2 SWAP1 POP POP POP PUSH2 0xBB5 JUMP JUMPDEST STOP JUMPDEST PUSH2 0x38A PUSH1 0x4 DUP1 CALLDATASIZE SUB PUSH1 0x40 DUP2 LT ISZERO PUSH2 0x354 JUMPI PUSH1 0x0 DUP1 REVERT JUMPDEST DUP2 ADD SWAP1 DUP1 DUP1 CALLDATALOAD PUSH20 0xFFFFFFFFFFFFFFFFFFFFFFFFFFFFFFFFFFFFFFFF AND SWAP1 PUSH1 0x20 ADD SWAP1 SWAP3 SWAP2 SWAP1 DUP1 CALLDATALOAD SWAP1 PUSH1 0x20 ADD SWAP1 SWAP3 SWAP2 SWAP1 POP POP POP PUSH2 0xCB4 JUMP JUMPDEST PUSH1 0x40 MLOAD DUP1 DUP3 DUP2 MSTORE PUSH1 0x20 ADD SWAP2 POP POP PUSH1 0x40 MLOAD DUP1 SWAP2 SUB SWAP1 RETURN JUMPDEST PUSH2 0x40C PUSH1 0x4 DUP1 CALLDATASIZE SUB PUSH1 0x60 DUP2 LT ISZERO PUSH2 0x3B6 JUMPI PUSH1 0x0 DUP1 REVERT JUMPDEST DUP2 ADD SWAP1 DUP1 DUP1 CALLDATALOAD PUSH20 0xFFFFFFFFFFFFFFFFFFFFFFFFFFFFFFFFFFFFFFFF AND SWAP1 PUSH1 0x20 ADD SWAP1 SWAP3 SWAP2 SWAP1 DUP1 CALLDATALOAD PUSH20 0xFFFFFFFFFFFFFFFFFFFFFFFFFFFFFFFFFFFFFFFF AND SWAP1 PUSH1 0x20 ADD SWAP1 SWAP3 SWAP2 SWAP1 DUP1 CALLDATALOAD SWAP1 PUSH1 0x20 ADD SWAP1 SWAP3 SWAP2 SWAP1 POP POP POP PUSH2 0xD0F JUMP JUMPDEST STOP JUMPDEST PUSH2 0x43A PUSH1 0x4 DUP1 CALLDATASIZE SUB PUSH1 0x20 DUP2 LT ISZERO PUSH2 0x424 JUMPI PUSH1 0x0 DUP1 REVERT JUMPDEST DUP2 ADD SWAP1 DUP1 DUP1 CALLDATALOAD SWAP1 PUSH1 0x20 ADD SWAP1 SWAP3 SWAP2 SWAP1 POP POP POP PUSH2 0xD2F JUMP JUMPDEST PUSH1 0x40 MLOAD DUP1 DUP3 DUP2 MSTORE PUSH1 0x20 ADD SWAP2 POP POP PUSH1 0x40 MLOAD DUP1 SWAP2 SUB SWAP1 RETURN JUMPDEST PUSH2 0x47C PUSH1 0x4 DUP1 CALLDATASIZE SUB PUSH1 0x20 DUP2 LT ISZERO PUSH2 0x466 JUMPI PUSH1 0x0 DUP1 REVERT JUMPDEST DUP2 ADD SWAP1 DUP1 DUP1 CALLDATALOAD SWAP1 PUSH1 0x20 ADD SWAP1 SWAP3 SWAP2 SWAP1 POP POP POP PUSH2 0xD52 JUMP JUMPDEST PUSH1 0x40 MLOAD DUP1 DUP3 PUSH20 0xFFFFFFFFFFFFFFFFFFFFFFFFFFFFFFFFFFFFFFFF AND DUP2 MSTORE PUSH1 0x20 ADD SWAP2 POP POP PUSH1 0x40 MLOAD DUP1 SWAP2 SUB SWAP1 RETURN JUMPDEST PUSH2 0x4B0 PUSH2 0xD89 JUMP JUMPDEST PUSH1 0x40 MLOAD DUP1 DUP1 PUSH1 0x20 ADD DUP3 DUP2 SUB DUP3 MSTORE DUP4 DUP2 DUP2 MLOAD DUP2 MSTORE PUSH1 0x20 ADD SWAP2 POP DUP1 MLOAD SWAP1 PUSH1 0x20 ADD SWAP1 DUP1 DUP4 DUP4 PUSH1 0x0 JUMPDEST DUP4 DUP2 LT ISZERO PUSH2 0x4F0 JUMPI DUP1 DUP3 ADD MLOAD DUP2 DUP5 ADD MSTORE PUSH1 0x20 DUP2 ADD SWAP1 POP PUSH2 0x4D5 JUMP JUMPDEST POP POP POP POP SWAP1 POP SWAP1 DUP2 ADD SWAP1 PUSH1 0x1F AND DUP1 ISZERO PUSH2 0x51D JUMPI DUP1 DUP3 SUB DUP1 MLOAD PUSH1 0x1 DUP4 PUSH1 0x20 SUB PUSH2 0x100 EXP SUB NOT AND DUP2 MSTORE PUSH1 0x20 ADD SWAP2 POP JUMPDEST POP SWAP3 POP POP POP PUSH1 0x40 MLOAD DUP1 SWAP2 SUB SWAP1 RETURN JUMPDEST PUSH2 0x56D PUSH1 0x4 DUP1 CALLDATASIZE SUB PUSH1 0x20 DUP2 LT ISZERO PUSH2 0x541 JUMPI PUSH1 0x0 DUP1 REVERT JUMPDEST DUP2 ADD SWAP1 DUP1 DUP1 CALLDATALOAD PUSH20 0xFFFFFFFFFFFFFFFFFFFFFFFFFFFFFFFFFFFFFFFF AND SWAP1 PUSH1 0x20 ADD SWAP1 SWAP3 SWAP2 SWAP1 POP POP POP PUSH2 0xE2B JUMP JUMPDEST PUSH1 0x40 MLOAD DUP1 DUP3 DUP2 MSTORE PUSH1 0x20 ADD SWAP2 POP POP PUSH1 0x40 MLOAD DUP1 SWAP2 SUB SWAP1 RETURN JUMPDEST PUSH2 0x58B PUSH2 0xF00 JUMP JUMPDEST PUSH1 0x40 MLOAD DUP1 DUP1 PUSH1 0x20 ADD DUP3 DUP2 SUB DUP3 MSTORE DUP4 DUP2 DUP2 MLOAD DUP2 MSTORE PUSH1 0x20 ADD SWAP2 POP DUP1 MLOAD SWAP1 PUSH1 0x20 ADD SWAP1 DUP1 DUP4 DUP4 PUSH1 0x0 JUMPDEST DUP4 DUP2 LT ISZERO PUSH2 0x5CB JUMPI DUP1 DUP3 ADD MLOAD DUP2 DUP5 ADD MSTORE PUSH1 0x20 DUP2 ADD SWAP1 POP PUSH2 0x5B0 JUMP JUMPDEST POP POP POP POP SWAP1 POP SWAP1 DUP2 ADD SWAP1 PUSH1 0x1F AND DUP1 ISZERO PUSH2 0x5F8 JUMPI DUP1 DUP3 SUB DUP1 MLOAD PUSH1 0x1 DUP4 PUSH1 0x20 SUB PUSH2 0x100 EXP SUB NOT AND DUP2 MSTORE PUSH1 0x20 ADD SWAP2 POP JUMPDEST POP SWAP3 POP POP POP PUSH1 0x40 MLOAD DUP1 SWAP2 SUB SWAP1 RETURN JUMPDEST PUSH2 0x654 PUSH1 0x4 DUP1 CALLDATASIZE SUB PUSH1 0x40 DUP2 LT ISZERO PUSH2 0x61C JUMPI PUSH1 0x0 DUP1 REVERT JUMPDEST DUP2 ADD SWAP1 DUP1 DUP1 CALLDATALOAD PUSH20 0xFFFFFFFFFFFFFFFFFFFFFFFFFFFFFFFFFFFFFFFF AND SWAP1 PUSH1 0x20 ADD SWAP1 SWAP3 SWAP2 SWAP1 DUP1 CALLDATALOAD ISZERO ISZERO SWAP1 PUSH1 0x20 ADD SWAP1 SWAP3 SWAP2 SWAP1 POP POP POP PUSH2 0xFA2 JUMP JUMPDEST STOP JUMPDEST PUSH2 0x65E PUSH2 0x1158 JUMP JUMPDEST PUSH1 0x40 MLOAD DUP1 DUP3 ISZERO ISZERO DUP2 MSTORE PUSH1 0x20 ADD SWAP2 POP POP PUSH1 0x40 MLOAD DUP1 SWAP2 SUB SWAP1 RETURN JUMPDEST PUSH2 0x779 PUSH1 0x4 DUP1 CALLDATASIZE SUB PUSH1 0x80 DUP2 LT ISZERO PUSH2 0x68C JUMPI PUSH1 0x0 DUP1 REVERT JUMPDEST DUP2 ADD SWAP1 DUP1 DUP1 CALLDATALOAD PUSH20 0xFFFFFFFFFFFFFFFFFFFFFFFFFFFFFFFFFFFFFFFF AND SWAP1 PUSH1 0x20 ADD SWAP1 SWAP3 SWAP2 SWAP1 DUP1 CALLDATALOAD PUSH20 0xFFFFFFFFFFFFFFFFFFFFFFFFFFFFFFFFFFFFFFFF AND SWAP1 PUSH1 0x20 ADD SWAP1 SWAP3 SWAP2 SWAP1 DUP1 CALLDATALOAD SWAP1 PUSH1 0x20 ADD SWAP1 SWAP3 SWAP2 SWAP1 DUP1 CALLDATALOAD SWAP1 PUSH1 0x20 ADD SWAP1 PUSH5 0x100000000 DUP2 GT ISZERO PUSH2 0x6F3 JUMPI PUSH1 0x0 DUP1 REVERT JUMPDEST DUP3 ADD DUP4 PUSH1 0x20 DUP3 ADD GT ISZERO PUSH2 0x705 JUMPI PUSH1 0x0 DUP1 REVERT JUMPDEST DUP1 CALLDATALOAD SWAP1 PUSH1 0x20 ADD SWAP2 DUP5 PUSH1 0x1 DUP4 MUL DUP5 ADD GT PUSH5 0x100000000 DUP4 GT OR ISZERO PUSH2 0x727 JUMPI PUSH1 0x0 DUP1 REVERT JUMPDEST SWAP2 SWAP1 DUP1 DUP1 PUSH1 0x1F ADD PUSH1 0x20 DUP1 SWAP2 DIV MUL PUSH1 0x20 ADD PUSH1 0x40 MLOAD SWAP1 DUP2 ADD PUSH1 0x40 MSTORE DUP1 SWAP4 SWAP3 SWAP2 SWAP1 DUP2 DUP2 MSTORE PUSH1 0x20 ADD DUP4 DUP4 DUP1 DUP3 DUP5 CALLDATACOPY PUSH1 0x0 DUP2 DUP5 ADD MSTORE PUSH1 0x1F NOT PUSH1 0x1F DUP3 ADD AND SWAP1 POP DUP1 DUP4 ADD SWAP3 POP POP POP POP POP POP POP SWAP2 SWAP3 SWAP2 SWAP3 SWAP1 POP POP POP PUSH2 0x1205 JUMP JUMPDEST STOP JUMPDEST PUSH2 0x7A7 PUSH1 0x4 DUP1 CALLDATASIZE SUB PUSH1 0x20 DUP2 LT ISZERO PUSH2 0x791 JUMPI PUSH1 0x0 DUP1 REVERT JUMPDEST DUP2 ADD SWAP1 DUP1 DUP1 CALLDATALOAD SWAP1 PUSH1 0x20 ADD SWAP1 SWAP3 SWAP2 SWAP1 POP POP POP PUSH2 0x127D JUMP JUMPDEST PUSH1 0x40 MLOAD DUP1 DUP1 PUSH1 0x20 ADD DUP3 DUP2 SUB DUP3 MSTORE DUP4 DUP2 DUP2 MLOAD DUP2 MSTORE PUSH1 0x20 ADD SWAP2 POP DUP1 MLOAD SWAP1 PUSH1 0x20 ADD SWAP1 DUP1 DUP4 DUP4 PUSH1 0x0 JUMPDEST DUP4 DUP2 LT ISZERO PUSH2 0x7E7 JUMPI DUP1 DUP3 ADD MLOAD DUP2 DUP5 ADD MSTORE PUSH1 0x20 DUP2 ADD SWAP1 POP PUSH2 0x7CC JUMP JUMPDEST POP POP POP POP SWAP1 POP SWAP1 DUP2 ADD SWAP1 PUSH1 0x1F AND DUP1 ISZERO PUSH2 0x814 JUMPI DUP1 DUP3 SUB DUP1 MLOAD PUSH1 0x1 DUP4 PUSH1 0x20 SUB PUSH2 0x100 EXP SUB NOT AND DUP2 MSTORE PUSH1 0x20 ADD SWAP2 POP JUMPDEST POP SWAP3 POP POP POP PUSH1 0x40 MLOAD DUP1 SWAP2 SUB SWAP1 RETURN JUMPDEST PUSH2 0x884 PUSH1 0x4 DUP1 CALLDATASIZE SUB PUSH1 0x40 DUP2 LT ISZERO PUSH2 0x838 JUMPI PUSH1 0x0 DUP1 REVERT JUMPDEST DUP2 ADD SWAP1 DUP1 DUP1 CALLDATALOAD PUSH20 0xFFFFFFFFFFFFFFFFFFFFFFFFFFFFFFFFFFFFFFFF AND SWAP1 PUSH1 0x20 ADD SWAP1 SWAP3 SWAP2 SWAP1 DUP1 CALLDATALOAD PUSH20 0xFFFFFFFFFFFFFFFFFFFFFFFFFFFFFFFFFFFFFFFF AND SWAP1 PUSH1 0x20 ADD SWAP1 SWAP3 SWAP2 SWAP1 POP POP POP PUSH2 0x154E JUMP JUMPDEST PUSH1 0x40 MLOAD DUP1 DUP3 ISZERO ISZERO DUP2 MSTORE PUSH1 0x20 ADD SWAP2 POP POP PUSH1 0x40 MLOAD DUP1 SWAP2 SUB SWAP1 RETURN JUMPDEST PUSH2 0x8A4 PUSH2 0x15E2 JUMP JUMPDEST PUSH1 0x40 MLOAD DUP1 DUP3 ISZERO ISZERO DUP2 MSTORE PUSH1 0x20 ADD SWAP2 POP POP PUSH1 0x40 MLOAD DUP1 SWAP2 SUB SWAP1 RETURN JUMPDEST PUSH1 0x0 DUP1 PUSH1 0x0 DUP4 PUSH28 0xFFFFFFFFFFFFFFFFFFFFFFFFFFFFFFFFFFFFFFFFFFFFFFFFFFFFFFFF NOT AND PUSH28 0xFFFFFFFFFFFFFFFFFFFFFFFFFFFFFFFFFFFFFFFFFFFFFFFFFFFFFFFF NOT AND DUP2 MSTORE PUSH1 0x20 ADD SWAP1 DUP2 MSTORE PUSH1 0x20 ADD PUSH1 0x0 KECCAK256 PUSH1 0x0 SWAP1 SLOAD SWAP1 PUSH2 0x100 EXP SWAP1 DIV PUSH1 0xFF AND SWAP1 POP SWAP2 SWAP1 POP JUMP JUMPDEST PUSH1 0x60 PUSH1 0x6 DUP1 SLOAD PUSH1 0x1 DUP2 PUSH1 0x1 AND ISZERO PUSH2 0x100 MUL SUB AND PUSH1 0x2 SWAP1 DIV DUP1 PUSH1 0x1F ADD PUSH1 0x20 DUP1 SWAP2 DIV MUL PUSH1 0x20 ADD PUSH1 0x40 MLOAD SWAP1 DUP2 ADD PUSH1 0x40 MSTORE DUP1 SWAP3 SWAP2 SWAP1 DUP2 DUP2 MSTORE PUSH1 0x20 ADD DUP3 DUP1 SLOAD PUSH1 0x1 DUP2 PUSH1 0x1 AND ISZERO PUSH2 0x100 MUL SUB AND PUSH1 0x2 SWAP1 DIV DUP1 ISZERO PUSH2 0x9BB JUMPI DUP1 PUSH1 0x1F LT PUSH2 0x990 JUMPI PUSH2 0x100 DUP1 DUP4 SLOAD DIV MUL DUP4 MSTORE SWAP2 PUSH1 0x20 ADD SWAP2 PUSH2 0x9BB JUMP JUMPDEST DUP3 ADD SWAP2 SWAP1 PUSH1 0x0 MSTORE PUSH1 0x20 PUSH1 0x0 KECCAK256 SWAP1 JUMPDEST DUP2 SLOAD DUP2 MSTORE SWAP1 PUSH1 0x1 ADD SWAP1 PUSH1 0x20 ADD DUP1 DUP4 GT PUSH2 0x99E JUMPI DUP3 SWAP1 SUB PUSH1 0x1F AND DUP3 ADD SWAP2 JUMPDEST POP POP POP POP POP SWAP1 POP SWAP1 JUMP JUMPDEST PUSH1 0x0 PUSH2 0x9D0 DUP3 PUSH2 0x168E JUMP JUMPDEST PUSH2 0xA25 JUMPI PUSH1 0x40 MLOAD PUSH32 0x8C379A000000000000000000000000000000000000000000000000000000000 DUP2 MSTORE PUSH1 0x4 ADD DUP1 DUP1 PUSH1 0x20 ADD DUP3 DUP2 SUB DUP3 MSTORE PUSH1 0x2C DUP2 MSTORE PUSH1 0x20 ADD DUP1 PUSH2 0x2852 PUSH1 0x2C SWAP2 CODECOPY PUSH1 0x40 ADD SWAP2 POP POP PUSH1 0x40 MLOAD DUP1 SWAP2 SUB SWAP1 REVERT JUMPDEST PUSH1 0x4 PUSH1 0x0 DUP4 DUP2 MSTORE PUSH1 0x20 ADD SWAP1 DUP2 MSTORE PUSH1 0x20 ADD PUSH1 0x0 KECCAK256 PUSH1 0x0 SWAP1 SLOAD SWAP1 PUSH2 0x100 EXP SWAP1 DIV PUSH20 0xFFFFFFFFFFFFFFFFFFFFFFFFFFFFFFFFFFFFFFFF AND SWAP1 POP SWAP2 SWAP1 POP JUMP JUMPDEST PUSH1 0x0 PUSH2 0xA6B DUP3 PUSH2 0xD52 JUMP JUMPDEST SWAP1 POP DUP1 PUSH20 0xFFFFFFFFFFFFFFFFFFFFFFFFFFFFFFFFFFFFFFFF AND DUP4 PUSH20 0xFFFFFFFFFFFFFFFFFFFFFFFFFFFFFFFFFFFFFFFF AND EQ ISZERO PUSH2 0xAF2 JUMPI PUSH1 0x40 MLOAD PUSH32 0x8C379A000000000000000000000000000000000000000000000000000000000 DUP2 MSTORE PUSH1 0x4 ADD DUP1 DUP1 PUSH1 0x20 ADD DUP3 DUP2 SUB DUP3 MSTORE PUSH1 0x21 DUP2 MSTORE PUSH1 0x20 ADD DUP1 PUSH2 0x28D6 PUSH1 0x21 SWAP2 CODECOPY PUSH1 0x40 ADD SWAP2 POP POP PUSH1 0x40 MLOAD DUP1 SWAP2 SUB SWAP1 REVERT JUMPDEST DUP1 PUSH20 0xFFFFFFFFFFFFFFFFFFFFFFFFFFFFFFFFFFFFFFFF AND PUSH2 0xB11 PUSH2 0x16AB JUMP JUMPDEST PUSH20 0xFFFFFFFFFFFFFFFFFFFFFFFFFFFFFFFFFFFFFFFF AND EQ DUP1 PUSH2 0xB40 JUMPI POP PUSH2 0xB3F DUP2 PUSH2 0xB3A PUSH2 0x16AB JUMP JUMPDEST PUSH2 0x154E JUMP JUMPDEST JUMPDEST PUSH2 0xB95 JUMPI PUSH1 0x40 MLOAD PUSH32 0x8C379A000000000000000000000000000000000000000000000000000000000 DUP2 MSTORE PUSH1 0x4 ADD DUP1 DUP1 PUSH1 0x20 ADD DUP3 DUP2 SUB DUP3 MSTORE PUSH1 0x38 DUP2 MSTORE PUSH1 0x20 ADD DUP1 PUSH2 0x27A5 PUSH1 0x38 SWAP2 CODECOPY PUSH1 0x40 ADD SWAP2 POP POP PUSH1 0x40 MLOAD DUP1 SWAP2 SUB SWAP1 REVERT JUMPDEST PUSH2 0xB9F DUP4 DUP4 PUSH2 0x16B3 JUMP JUMPDEST POP POP POP JUMP JUMPDEST PUSH1 0x0 PUSH2 0xBB0 PUSH1 0x2 PUSH2 0x176C JUMP JUMPDEST SWAP1 POP SWAP1 JUMP JUMPDEST PUSH2 0xBC6 PUSH2 0xBC0 PUSH2 0x16AB JUMP JUMPDEST DUP3 PUSH2 0x1781 JUMP JUMPDEST PUSH2 0xC1B JUMPI PUSH1 0x40 MLOAD PUSH32 0x8C379A000000000000000000000000000000000000000000000000000000000 DUP2 MSTORE PUSH1 0x4 ADD DUP1 DUP1 PUSH1 0x20 ADD DUP3 DUP2 SUB DUP3 MSTORE PUSH1 0x31 DUP2 MSTORE PUSH1 0x20 ADD DUP1 PUSH2 0x28F7 PUSH1 0x31 SWAP2 CODECOPY PUSH1 0x40 ADD SWAP2 POP POP PUSH1 0x40 MLOAD DUP1 SWAP2 SUB SWAP1 REVERT JUMPDEST PUSH1 0x0 ISZERO ISZERO PUSH1 0xA PUSH1 0x0 SWAP1 SLOAD SWAP1 PUSH2 0x100 EXP SWAP1 DIV PUSH1 0xFF AND ISZERO ISZERO EQ PUSH2 0xCA4 JUMPI PUSH1 0x40 MLOAD PUSH32 0x8C379A000000000000000000000000000000000000000000000000000000000 DUP2 MSTORE PUSH1 0x4 ADD DUP1 DUP1 PUSH1 0x20 ADD DUP3 DUP2 SUB DUP3 MSTORE PUSH1 0x10 DUP2 MSTORE PUSH1 0x20 ADD DUP1 PUSH32 0x546F6B656E206973206C6F636B65642100000000000000000000000000000000 DUP2 MSTORE POP PUSH1 0x20 ADD SWAP2 POP POP PUSH1 0x40 MLOAD DUP1 SWAP2 SUB SWAP1 REVERT JUMPDEST PUSH2 0xCAF DUP4 DUP4 DUP4 PUSH2 0x1875 JUMP JUMPDEST POP POP POP JUMP JUMPDEST PUSH1 0x0 PUSH2 0xD07 DUP3 PUSH1 0x1 PUSH1 0x0 DUP7 PUSH20 0xFFFFFFFFFFFFFFFFFFFFFFFFFFFFFFFFFFFFFFFF AND PUSH20 0xFFFFFFFFFFFFFFFFFFFFFFFFFFFFFFFFFFFFFFFF AND DUP2 MSTORE PUSH1 0x20 ADD SWAP1 DUP2 MSTORE PUSH1 0x20 ADD PUSH1 0x0 KECCAK256 PUSH2 0x1AB8 SWAP1 SWAP2 SWAP1 PUSH4 0xFFFFFFFF AND JUMP JUMPDEST SWAP1 POP SWAP3 SWAP2 POP POP JUMP JUMPDEST PUSH2 0xD2A DUP4 DUP4 DUP4 PUSH1 0x40 MLOAD DUP1 PUSH1 0x20 ADD PUSH1 0x40 MSTORE DUP1 PUSH1 0x0 DUP2 MSTORE POP PUSH2 0x1205 JUMP JUMPDEST POP POP POP JUMP JUMPDEST PUSH1 0x0 DUP1 PUSH2 0xD46 DUP4 PUSH1 0x2 PUSH2 0x1AD2 SWAP1 SWAP2 SWAP1 PUSH4 0xFFFFFFFF AND JUMP JUMPDEST POP SWAP1 POP DUP1 SWAP2 POP POP SWAP2 SWAP1 POP JUMP JUMPDEST PUSH1 0x0 PUSH2 0xD82 DUP3 PUSH1 0x40 MLOAD DUP1 PUSH1 0x60 ADD PUSH1 0x40 MSTORE DUP1 PUSH1 0x29 DUP2 MSTORE PUSH1 0x20 ADD PUSH2 0x2807 PUSH1 0x29 SWAP2 CODECOPY PUSH1 0x2 PUSH2 0x1AFE SWAP1 SWAP3 SWAP2 SWAP1 PUSH4 0xFFFFFFFF AND JUMP JUMPDEST SWAP1 POP SWAP2 SWAP1 POP JUMP JUMPDEST PUSH1 0x60 PUSH1 0x9 DUP1 SLOAD PUSH1 0x1 DUP2 PUSH1 0x1 AND ISZERO PUSH2 0x100 MUL SUB AND PUSH1 0x2 SWAP1 DIV DUP1 PUSH1 0x1F ADD PUSH1 0x20 DUP1 SWAP2 DIV MUL PUSH1 0x20 ADD PUSH1 0x40 MLOAD SWAP1 DUP2 ADD PUSH1 0x40 MSTORE DUP1 SWAP3 SWAP2 SWAP1 DUP2 DUP2 MSTORE PUSH1 0x20 ADD DUP3 DUP1 SLOAD PUSH1 0x1 DUP2 PUSH1 0x1 AND ISZERO PUSH2 0x100 MUL SUB AND PUSH1 0x2 SWAP1 DIV DUP1 ISZERO PUSH2 0xE21 JUMPI DUP1 PUSH1 0x1F LT PUSH2 0xDF6 JUMPI PUSH2 0x100 DUP1 DUP4 SLOAD DIV MUL DUP4 MSTORE SWAP2 PUSH1 0x20 ADD SWAP2 PUSH2 0xE21 JUMP JUMPDEST DUP3 ADD SWAP2 SWAP1 PUSH1 0x0 MSTORE PUSH1 0x20 PUSH1 0x0 KECCAK256 SWAP1 JUMPDEST DUP2 SLOAD DUP2 MSTORE SWAP1 PUSH1 0x1 ADD SWAP1 PUSH1 0x20 ADD DUP1 DUP4 GT PUSH2 0xE04 JUMPI DUP3 SWAP1 SUB PUSH1 0x1F AND DUP3 ADD SWAP2 JUMPDEST POP POP POP POP POP SWAP1 POP SWAP1 JUMP JUMPDEST PUSH1 0x0 DUP1 PUSH20 0xFFFFFFFFFFFFFFFFFFFFFFFFFFFFFFFFFFFFFFFF AND DUP3 PUSH20 0xFFFFFFFFFFFFFFFFFFFFFFFFFFFFFFFFFFFFFFFF AND EQ ISZERO PUSH2 0xEB2 JUMPI PUSH1 0x40 MLOAD PUSH32 0x8C379A000000000000000000000000000000000000000000000000000000000 DUP2 MSTORE PUSH1 0x4 ADD DUP1 DUP1 PUSH1 0x20 ADD DUP3 DUP2 SUB DUP3 MSTORE PUSH1 0x2A DUP2 MSTORE PUSH1 0x20 ADD DUP1 PUSH2 0x27DD PUSH1 0x2A SWAP2 CODECOPY PUSH1 0x40 ADD SWAP2 POP POP PUSH1 0x40 MLOAD DUP1 SWAP2 SUB SWAP1 REVERT JUMPDEST PUSH2 0xEF9 PUSH1 0x1 PUSH1 0x0 DUP5 PUSH20 0xFFFFFFFFFFFFFFFFFFFFFFFFFFFFFFFFFFFFFFFF AND PUSH20 0xFFFFFFFFFFFFFFFFFFFFFFFFFFFFFFFFFFFFFFFF AND DUP2 MSTORE PUSH1 0x20 ADD SWAP1 DUP2 MSTORE PUSH1 0x20 ADD PUSH1 0x0 KECCAK256 PUSH2 0x1B1D JUMP JUMPDEST SWAP1 POP SWAP2 SWAP1 POP JUMP JUMPDEST PUSH1 0x60 PUSH1 0x7 DUP1 SLOAD PUSH1 0x1 DUP2 PUSH1 0x1 AND ISZERO PUSH2 0x100 MUL SUB AND PUSH1 0x2 SWAP1 DIV DUP1 PUSH1 0x1F ADD PUSH1 0x20 DUP1 SWAP2 DIV MUL PUSH1 0x20 ADD PUSH1 0x40 MLOAD SWAP1 DUP2 ADD PUSH1 0x40 MSTORE DUP1 SWAP3 SWAP2 SWAP1 DUP2 DUP2 MSTORE PUSH1 0x20 ADD DUP3 DUP1 SLOAD PUSH1 0x1 DUP2 PUSH1 0x1 AND ISZERO PUSH2 0x100 MUL SUB AND PUSH1 0x2 SWAP1 DIV DUP1 ISZERO PUSH2 0xF98 JUMPI DUP1 PUSH1 0x1F LT PUSH2 0xF6D JUMPI PUSH2 0x100 DUP1 DUP4 SLOAD DIV MUL DUP4 MSTORE SWAP2 PUSH1 0x20 ADD SWAP2 PUSH2 0xF98 JUMP JUMPDEST DUP3 ADD SWAP2 SWAP1 PUSH1 0x0 MSTORE PUSH1 0x20 PUSH1 0x0 KECCAK256 SWAP1 JUMPDEST DUP2 SLOAD DUP2 MSTORE SWAP1 PUSH1 0x1 ADD SWAP1 PUSH1 0x20 ADD DUP1 DUP4 GT PUSH2 0xF7B JUMPI DUP3 SWAP1 SUB PUSH1 0x1F AND DUP3 ADD SWAP2 JUMPDEST POP POP POP POP POP SWAP1 POP SWAP1 JUMP JUMPDEST PUSH2 0xFAA PUSH2 0x16AB JUMP JUMPDEST PUSH20 0xFFFFFFFFFFFFFFFFFFFFFFFFFFFFFFFFFFFFFFFF AND DUP3 PUSH20 0xFFFFFFFFFFFFFFFFFFFFFFFFFFFFFFFFFFFFFFFF AND EQ ISZERO PUSH2 0x104B JUMPI PUSH1 0x40 MLOAD PUSH32 0x8C379A000000000000000000000000000000000000000000000000000000000 DUP2 MSTORE PUSH1 0x4 ADD DUP1 DUP1 PUSH1 0x20 ADD DUP3 DUP2 SUB DUP3 MSTORE PUSH1 0x19 DUP2 MSTORE PUSH1 0x20 ADD DUP1 PUSH32 0x4552433732313A20617070726F766520746F2063616C6C657200000000000000 DUP2 MSTORE POP PUSH1 0x20 ADD SWAP2 POP POP PUSH1 0x40 MLOAD DUP1 SWAP2 SUB SWAP1 REVERT JUMPDEST DUP1 PUSH1 0x5 PUSH1 0x0 PUSH2 0x1058 PUSH2 0x16AB JUMP JUMPDEST PUSH20 0xFFFFFFFFFFFFFFFFFFFFFFFFFFFFFFFFFFFFFFFF AND PUSH20 0xFFFFFFFFFFFFFFFFFFFFFFFFFFFFFFFFFFFFFFFF AND DUP2 MSTORE PUSH1 0x20 ADD SWAP1 DUP2 MSTORE PUSH1 0x20 ADD PUSH1 0x0 KECCAK256 PUSH1 0x0 DUP5 PUSH20 0xFFFFFFFFFFFFFFFFFFFFFFFFFFFFFFFFFFFFFFFF AND PUSH20 0xFFFFFFFFFFFFFFFFFFFFFFFFFFFFFFFFFFFFFFFF AND DUP2 MSTORE PUSH1 0x20 ADD SWAP1 DUP2 MSTORE PUSH1 0x20 ADD PUSH1 0x0 KECCAK256 PUSH1 0x0 PUSH2 0x100 EXP DUP2 SLOAD DUP2 PUSH1 0xFF MUL NOT AND SWAP1 DUP4 ISZERO ISZERO MUL OR SWAP1 SSTORE POP DUP2 PUSH20 0xFFFFFFFFFFFFFFFFFFFFFFFFFFFFFFFFFFFFFFFF AND PUSH2 0x1105 PUSH2 0x16AB JUMP JUMPDEST PUSH20 0xFFFFFFFFFFFFFFFFFFFFFFFFFFFFFFFFFFFFFFFF AND PUSH32 0x17307EAB39AB6107E8899845AD3D59BD9653F200F220920489CA2B5937696C31 DUP4 PUSH1 0x40 MLOAD DUP1 DUP3 ISZERO ISZERO DUP2 MSTORE PUSH1 0x20 ADD SWAP2 POP POP PUSH1 0x40 MLOAD DUP1 SWAP2 SUB SWAP1 LOG3 POP POP JUMP JUMPDEST PUSH1 0x0 PUSH1 0x1 ISZERO ISZERO PUSH1 0xA PUSH1 0x0 SWAP1 SLOAD SWAP1 PUSH2 0x100 EXP SWAP1 DIV PUSH1 0xFF AND ISZERO ISZERO EQ PUSH2 0x11E3 JUMPI PUSH1 0x40 MLOAD PUSH32 0x8C379A000000000000000000000000000000000000000000000000000000000 DUP2 MSTORE PUSH1 0x4 ADD DUP1 DUP1 PUSH1 0x20 ADD DUP3 DUP2 SUB DUP3 MSTORE PUSH1 0x18 DUP2 MSTORE PUSH1 0x20 ADD DUP1 PUSH32 0x546F6B656E20697320616C7265616479206C6F636B6564210000000000000000 DUP2 MSTORE POP PUSH1 0x20 ADD SWAP2 POP POP PUSH1 0x40 MLOAD DUP1 SWAP2 SUB SWAP1 REVERT JUMPDEST PUSH1 0x0 PUSH1 0xA PUSH1 0x0 PUSH2 0x100 EXP DUP2 SLOAD DUP2 PUSH1 0xFF MUL NOT AND SWAP1 DUP4 ISZERO ISZERO MUL OR SWAP1 SSTORE POP PUSH1 0x0 SWAP1 POP SWAP1 JUMP JUMPDEST PUSH2 0x1216 PUSH2 0x1210 PUSH2 0x16AB JUMP JUMPDEST DUP4 PUSH2 0x1781 JUMP JUMPDEST PUSH2 0x126B JUMPI PUSH1 0x40 MLOAD PUSH32 0x8C379A000000000000000000000000000000000000000000000000000000000 DUP2 MSTORE PUSH1 0x4 ADD DUP1 DUP1 PUSH1 0x20 ADD DUP3 DUP2 SUB DUP3 MSTORE PUSH1 0x31 DUP2 MSTORE PUSH1 0x20 ADD DUP1 PUSH2 0x28F7 PUSH1 0x31 SWAP2 CODECOPY PUSH1 0x40 ADD SWAP2 POP POP PUSH1 0x40 MLOAD DUP1 SWAP2 SUB SWAP1 REVERT JUMPDEST PUSH2 0x1277 DUP5 DUP5 DUP5 DUP5 PUSH2 0x1B32 JUMP JUMPDEST POP POP POP POP JUMP JUMPDEST PUSH1 0x60 PUSH2 0x1288 DUP3 PUSH2 0x168E JUMP JUMPDEST PUSH2 0x12DD JUMPI PUSH1 0x40 MLOAD PUSH32 0x8C379A000000000000000000000000000000000000000000000000000000000 DUP2 MSTORE PUSH1 0x4 ADD DUP1 DUP1 PUSH1 0x20 ADD DUP3 DUP2 SUB DUP3 MSTORE PUSH1 0x2F DUP2 MSTORE PUSH1 0x20 ADD DUP1 PUSH2 0x28A7 PUSH1 0x2F SWAP2 CODECOPY PUSH1 0x40 ADD SWAP2 POP POP PUSH1 0x40 MLOAD DUP1 SWAP2 SUB SWAP1 REVERT JUMPDEST PUSH1 0x60 PUSH1 0x8 PUSH1 0x0 DUP5 DUP2 MSTORE PUSH1 0x20 ADD SWAP1 DUP2 MSTORE PUSH1 0x20 ADD PUSH1 0x0 KECCAK256 DUP1 SLOAD PUSH1 0x1 DUP2 PUSH1 0x1 AND ISZERO PUSH2 0x100 MUL SUB AND PUSH1 0x2 SWAP1 DIV DUP1 PUSH1 0x1F ADD PUSH1 0x20 DUP1 SWAP2 DIV MUL PUSH1 0x20 ADD PUSH1 0x40 MLOAD SWAP1 DUP2 ADD PUSH1 0x40 MSTORE DUP1 SWAP3 SWAP2 SWAP1 DUP2 DUP2 MSTORE PUSH1 0x20 ADD DUP3 DUP1 SLOAD PUSH1 0x1 DUP2 PUSH1 0x1 AND ISZERO PUSH2 0x100 MUL SUB AND PUSH1 0x2 SWAP1 DIV DUP1 ISZERO PUSH2 0x1386 JUMPI DUP1 PUSH1 0x1F LT PUSH2 0x135B JUMPI PUSH2 0x100 DUP1 DUP4 SLOAD DIV MUL DUP4 MSTORE SWAP2 PUSH1 0x20 ADD SWAP2 PUSH2 0x1386 JUMP JUMPDEST DUP3 ADD SWAP2 SWAP1 PUSH1 0x0 MSTORE PUSH1 0x20 PUSH1 0x0 KECCAK256 SWAP1 JUMPDEST DUP2 SLOAD DUP2 MSTORE SWAP1 PUSH1 0x1 ADD SWAP1 PUSH1 0x20 ADD DUP1 DUP4 GT PUSH2 0x1369 JUMPI DUP3 SWAP1 SUB PUSH1 0x1F AND DUP3 ADD SWAP2 JUMPDEST POP POP POP POP POP SWAP1 POP PUSH1 0x60 PUSH2 0x1397 PUSH2 0xD89 JUMP JUMPDEST SWAP1 POP PUSH1 0x0 DUP2 MLOAD EQ ISZERO PUSH2 0x13AD JUMPI DUP2 SWAP3 POP POP POP PUSH2 0x1549 JUMP JUMPDEST PUSH1 0x0 DUP3 MLOAD GT ISZERO PUSH2 0x147E JUMPI DUP1 DUP3 PUSH1 0x40 MLOAD PUSH1 0x20 ADD DUP1 DUP4 DUP1 MLOAD SWAP1 PUSH1 0x20 ADD SWAP1 DUP1 DUP4 DUP4 JUMPDEST PUSH1 0x20 DUP4 LT PUSH2 0x13EF JUMPI DUP1 MLOAD DUP3 MSTORE PUSH1 0x20 DUP3 ADD SWAP2 POP PUSH1 0x20 DUP2 ADD SWAP1 POP PUSH1 0x20 DUP4 SUB SWAP3 POP PUSH2 0x13CC JUMP JUMPDEST PUSH1 0x1 DUP4 PUSH1 0x20 SUB PUSH2 0x100 EXP SUB DUP1 NOT DUP3 MLOAD AND DUP2 DUP5 MLOAD AND DUP1 DUP3 OR DUP6 MSTORE POP POP POP POP POP POP SWAP1 POP ADD DUP3 DUP1 MLOAD SWAP1 PUSH1 0x20 ADD SWAP1 DUP1 DUP4 DUP4 JUMPDEST PUSH1 0x20 DUP4 LT PUSH2 0x1440 JUMPI DUP1 MLOAD DUP3 MSTORE PUSH1 0x20 DUP3 ADD SWAP2 POP PUSH1 0x20 DUP2 ADD SWAP1 POP PUSH1 0x20 DUP4 SUB SWAP3 POP PUSH2 0x141D JUMP JUMPDEST PUSH1 0x1 DUP4 PUSH1 0x20 SUB PUSH2 0x100 EXP SUB DUP1 NOT DUP3 MLOAD AND DUP2 DUP5 MLOAD AND DUP1 DUP3 OR DUP6 MSTORE POP POP POP POP POP POP SWAP1 POP ADD SWAP3 POP POP POP PUSH1 0x40 MLOAD PUSH1 0x20 DUP2 DUP4 SUB SUB DUP2 MSTORE SWAP1 PUSH1 0x40 MSTORE SWAP3 POP POP POP PUSH2 0x1549 JUMP JUMPDEST DUP1 PUSH2 0x1488 DUP6 PUSH2 0x1BA4 JUMP JUMPDEST PUSH1 0x40 MLOAD PUSH1 0x20 ADD DUP1 DUP4 DUP1 MLOAD SWAP1 PUSH1 0x20 ADD SWAP1 DUP1 DUP4 DUP4 JUMPDEST PUSH1 0x20 DUP4 LT PUSH2 0x14BE JUMPI DUP1 MLOAD DUP3 MSTORE PUSH1 0x20 DUP3 ADD SWAP2 POP PUSH1 0x20 DUP2 ADD SWAP1 POP PUSH1 0x20 DUP4 SUB SWAP3 POP PUSH2 0x149B JUMP JUMPDEST PUSH1 0x1 DUP4 PUSH1 0x20 SUB PUSH2 0x100 EXP SUB DUP1 NOT DUP3 MLOAD AND DUP2 DUP5 MLOAD AND DUP1 DUP3 OR DUP6 MSTORE POP POP POP POP POP POP SWAP1 POP ADD DUP3 DUP1 MLOAD SWAP1 PUSH1 0x20 ADD SWAP1 DUP1 DUP4 DUP4 JUMPDEST PUSH1 0x20 DUP4 LT PUSH2 0x150F JUMPI DUP1 MLOAD DUP3 MSTORE PUSH1 0x20 DUP3 ADD SWAP2 POP PUSH1 0x20 DUP2 ADD SWAP1 POP PUSH1 0x20 DUP4 SUB SWAP3 POP PUSH2 0x14EC JUMP JUMPDEST PUSH1 0x1 DUP4 PUSH1 0x20 SUB PUSH2 0x100 EXP SUB DUP1 NOT DUP3 MLOAD AND DUP2 DUP5 MLOAD AND DUP1 DUP3 OR DUP6 MSTORE POP POP POP POP POP POP SWAP1 POP ADD SWAP3 POP POP POP PUSH1 0x40 MLOAD PUSH1 0x20 DUP2 DUP4 SUB SUB DUP2 MSTORE SWAP1 PUSH1 0x40 MSTORE SWAP3 POP POP POP JUMPDEST SWAP2 SWAP1 POP JUMP JUMPDEST PUSH1 0x0 PUSH1 0x5 PUSH1 0x0 DUP5 PUSH20 0xFFFFFFFFFFFFFFFFFFFFFFFFFFFFFFFFFFFFFFFF AND PUSH20 0xFFFFFFFFFFFFFFFFFFFFFFFFFFFFFFFFFFFFFFFF AND DUP2 MSTORE PUSH1 0x20 ADD SWAP1 DUP2 MSTORE PUSH1 0x20 ADD PUSH1 0x0 KECCAK256 PUSH1 0x0 DUP4 PUSH20 0xFFFFFFFFFFFFFFFFFFFFFFFFFFFFFFFFFFFFFFFF AND PUSH20 0xFFFFFFFFFFFFFFFFFFFFFFFFFFFFFFFFFFFFFFFF AND DUP2 MSTORE PUSH1 0x20 ADD SWAP1 DUP2 MSTORE PUSH1 0x20 ADD PUSH1 0x0 KECCAK256 PUSH1 0x0 SWAP1 SLOAD SWAP1 PUSH2 0x100 EXP SWAP1 DIV PUSH1 0xFF AND SWAP1 POP SWAP3 SWAP2 POP POP JUMP JUMPDEST PUSH1 0x0 DUP1 ISZERO ISZERO PUSH1 0xA PUSH1 0x0 SWAP1 SLOAD SWAP1 PUSH2 0x100 EXP SWAP1 DIV PUSH1 0xFF AND ISZERO ISZERO EQ PUSH2 0x166C JUMPI PUSH1 0x40 MLOAD PUSH32 0x8C379A000000000000000000000000000000000000000000000000000000000 DUP2 MSTORE PUSH1 0x4 ADD DUP1 DUP1 PUSH1 0x20 ADD DUP3 DUP2 SUB DUP3 MSTORE PUSH1 0x1A DUP2 MSTORE PUSH1 0x20 ADD DUP1 PUSH32 0x546F6B656E20697320616C726561647920756E6C6F636B656421000000000000 DUP2 MSTORE POP PUSH1 0x20 ADD SWAP2 POP POP PUSH1 0x40 MLOAD DUP1 SWAP2 SUB SWAP1 REVERT JUMPDEST PUSH1 0x1 PUSH1 0xA PUSH1 0x0 PUSH2 0x100 EXP DUP2 SLOAD DUP2 PUSH1 0xFF MUL NOT AND SWAP1 DUP4 ISZERO ISZERO MUL OR SWAP1 SSTORE POP PUSH1 0x1 SWAP1 POP SWAP1 JUMP JUMPDEST PUSH1 0x0 PUSH2 0x16A4 DUP3 PUSH1 0x2 PUSH2 0x1CEB SWAP1 SWAP2 SWAP1 PUSH4 0xFFFFFFFF AND JUMP JUMPDEST SWAP1 POP SWAP2 SWAP1 POP JUMP JUMPDEST PUSH1 0x0 CALLER SWAP1 POP SWAP1 JUMP JUMPDEST DUP2 PUSH1 0x4 PUSH1 0x0 DUP4 DUP2 MSTORE PUSH1 0x20 ADD SWAP1 DUP2 MSTORE PUSH1 0x20 ADD PUSH1 0x0 KECCAK256 PUSH1 0x0 PUSH2 0x100 EXP DUP2 SLOAD DUP2 PUSH20 0xFFFFFFFFFFFFFFFFFFFFFFFFFFFFFFFFFFFFFFFF MUL NOT AND SWAP1 DUP4 PUSH20 0xFFFFFFFFFFFFFFFFFFFFFFFFFFFFFFFFFFFFFFFF AND MUL OR SWAP1 SSTORE POP DUP1 DUP3 PUSH20 0xFFFFFFFFFFFFFFFFFFFFFFFFFFFFFFFFFFFFFFFF AND PUSH2 0x1726 DUP4 PUSH2 0xD52 JUMP JUMPDEST PUSH20 0xFFFFFFFFFFFFFFFFFFFFFFFFFFFFFFFFFFFFFFFF AND PUSH32 0x8C5BE1E5EBEC7D5BD14F71427D1E84F3DD0314C0F7B2291E5B200AC8C7C3B925 PUSH1 0x40 MLOAD PUSH1 0x40 MLOAD DUP1 SWAP2 SUB SWAP1 LOG4 POP POP JUMP JUMPDEST PUSH1 0x0 PUSH2 0x177A DUP3 PUSH1 0x0 ADD PUSH2 0x1D05 JUMP JUMPDEST SWAP1 POP SWAP2 SWAP1 POP JUMP JUMPDEST PUSH1 0x0 PUSH2 0x178C DUP3 PUSH2 0x168E JUMP JUMPDEST PUSH2 0x17E1 JUMPI PUSH1 0x40 MLOAD PUSH32 0x8C379A000000000000000000000000000000000000000000000000000000000 DUP2 MSTORE PUSH1 0x4 ADD DUP1 DUP1 PUSH1 0x20 ADD DUP3 DUP2 SUB DUP3 MSTORE PUSH1 0x2C DUP2 MSTORE PUSH1 0x20 ADD DUP1 PUSH2 0x2779 PUSH1 0x2C SWAP2 CODECOPY PUSH1 0x40 ADD SWAP2 POP POP PUSH1 0x40 MLOAD DUP1 SWAP2 SUB SWAP1 REVERT JUMPDEST PUSH1 0x0 PUSH2 0x17EC DUP4 PUSH2 0xD52 JUMP JUMPDEST SWAP1 POP DUP1 PUSH20 0xFFFFFFFFFFFFFFFFFFFFFFFFFFFFFFFFFFFFFFFF AND DUP5 PUSH20 0xFFFFFFFFFFFFFFFFFFFFFFFFFFFFFFFFFFFFFFFF AND EQ DUP1 PUSH2 0x185B JUMPI POP DUP4 PUSH20 0xFFFFFFFFFFFFFFFFFFFFFFFFFFFFFFFFFFFFFFFF AND PUSH2 0x1843 DUP5 PUSH2 0x9C5 JUMP JUMPDEST PUSH20 0xFFFFFFFFFFFFFFFFFFFFFFFFFFFFFFFFFFFFFFFF AND EQ JUMPDEST DUP1 PUSH2 0x186C JUMPI POP PUSH2 0x186B DUP2 DUP6 PUSH2 0x154E JUMP JUMPDEST JUMPDEST SWAP2 POP POP SWAP3 SWAP2 POP POP JUMP JUMPDEST DUP3 PUSH20 0xFFFFFFFFFFFFFFFFFFFFFFFFFFFFFFFFFFFFFFFF AND PUSH2 0x1895 DUP3 PUSH2 0xD52 JUMP JUMPDEST PUSH20 0xFFFFFFFFFFFFFFFFFFFFFFFFFFFFFFFFFFFFFFFF AND EQ PUSH2 0x1901 JUMPI PUSH1 0x40 MLOAD PUSH32 0x8C379A000000000000000000000000000000000000000000000000000000000 DUP2 MSTORE PUSH1 0x4 ADD DUP1 DUP1 PUSH1 0x20 ADD DUP3 DUP2 SUB DUP3 MSTORE PUSH1 0x29 DUP2 MSTORE PUSH1 0x20 ADD DUP1 PUSH2 0x287E PUSH1 0x29 SWAP2 CODECOPY PUSH1 0x40 ADD SWAP2 POP POP PUSH1 0x40 MLOAD DUP1 SWAP2 SUB SWAP1 REVERT JUMPDEST PUSH1 0x0 PUSH20 0xFFFFFFFFFFFFFFFFFFFFFFFFFFFFFFFFFFFFFFFF AND DUP3 PUSH20 0xFFFFFFFFFFFFFFFFFFFFFFFFFFFFFFFFFFFFFFFF AND EQ ISZERO PUSH2 0x1987 JUMPI PUSH1 0x40 MLOAD PUSH32 0x8C379A000000000000000000000000000000000000000000000000000000000 DUP2 MSTORE PUSH1 0x4 ADD DUP1 DUP1 PUSH1 0x20 ADD DUP3 DUP2 SUB DUP3 MSTORE PUSH1 0x24 DUP2 MSTORE PUSH1 0x20 ADD DUP1 PUSH2 0x272F PUSH1 0x24 SWAP2 CODECOPY PUSH1 0x40 ADD SWAP2 POP POP PUSH1 0x40 MLOAD DUP1 SWAP2 SUB SWAP1 REVERT JUMPDEST PUSH2 0x1992 DUP4 DUP4 DUP4 PUSH2 0x1D16 JUMP JUMPDEST PUSH2 0x199D PUSH1 0x0 DUP3 PUSH2 0x16B3 JUMP JUMPDEST PUSH2 0x19EE DUP2 PUSH1 0x1 PUSH1 0x0 DUP7 PUSH20 0xFFFFFFFFFFFFFFFFFFFFFFFFFFFFFFFFFFFFFFFF AND PUSH20 0xFFFFFFFFFFFFFFFFFFFFFFFFFFFFFFFFFFFFFFFF AND DUP2 MSTORE PUSH1 0x20 ADD SWAP1 DUP2 MSTORE PUSH1 0x20 ADD PUSH1 0x0 KECCAK256 PUSH2 0x1D1B SWAP1 SWAP2 SWAP1 PUSH4 0xFFFFFFFF AND JUMP JUMPDEST POP PUSH2 0x1A40 DUP2 PUSH1 0x1 PUSH1 0x0 DUP6 PUSH20 0xFFFFFFFFFFFFFFFFFFFFFFFFFFFFFFFFFFFFFFFF AND PUSH20 0xFFFFFFFFFFFFFFFFFFFFFFFFFFFFFFFFFFFFFFFF AND DUP2 MSTORE PUSH1 0x20 ADD SWAP1 DUP2 MSTORE PUSH1 0x20 ADD PUSH1 0x0 KECCAK256 PUSH2 0x1D35 SWAP1 SWAP2 SWAP1 PUSH4 0xFFFFFFFF AND JUMP JUMPDEST POP PUSH2 0x1A57 DUP2 DUP4 PUSH1 0x2 PUSH2 0x1D4F SWAP1 SWAP3 SWAP2 SWAP1 PUSH4 0xFFFFFFFF AND JUMP JUMPDEST POP DUP1 DUP3 PUSH20 0xFFFFFFFFFFFFFFFFFFFFFFFFFFFFFFFFFFFFFFFF AND DUP5 PUSH20 0xFFFFFFFFFFFFFFFFFFFFFFFFFFFFFFFFFFFFFFFF AND PUSH32 0xDDF252AD1BE2C89B69C2B068FC378DAA952BA7F163C4A11628F55A4DF523B3EF PUSH1 0x40 MLOAD PUSH1 0x40 MLOAD DUP1 SWAP2 SUB SWAP1 LOG4 POP POP POP JUMP JUMPDEST PUSH1 0x0 PUSH2 0x1AC7 DUP4 PUSH1 0x0 ADD DUP4 PUSH2 0x1D84 JUMP JUMPDEST PUSH1 0x0 SHR SWAP1 POP SWAP3 SWAP2 POP POP JUMP JUMPDEST PUSH1 0x0 DUP1 PUSH1 0x0 DUP1 PUSH2 0x1AE5 DUP7 PUSH1 0x0 ADD DUP7 PUSH2 0x1E07 JUMP JUMPDEST SWAP2 POP SWAP2 POP DUP2 PUSH1 0x0 SHR DUP2 PUSH1 0x0 SHR SWAP4 POP SWAP4 POP POP POP SWAP3 POP SWAP3 SWAP1 POP JUMP JUMPDEST PUSH1 0x0 PUSH2 0x1B11 DUP5 PUSH1 0x0 ADD DUP5 PUSH1 0x0 SHL DUP5 PUSH2 0x1EA0 JUMP JUMPDEST PUSH1 0x0 SHR SWAP1 POP SWAP4 SWAP3 POP POP POP JUMP JUMPDEST PUSH1 0x0 PUSH2 0x1B2B DUP3 PUSH1 0x0 ADD PUSH2 0x1F96 JUMP JUMPDEST SWAP1 POP SWAP2 SWAP1 POP JUMP JUMPDEST PUSH2 0x1B3D DUP5 DUP5 DUP5 PUSH2 0x1875 JUMP JUMPDEST PUSH2 0x1B49 DUP5 DUP5 DUP5 DUP5 PUSH2 0x1FA7 JUMP JUMPDEST PUSH2 0x1B9E JUMPI PUSH1 0x40 MLOAD PUSH32 0x8C379A000000000000000000000000000000000000000000000000000000000 DUP2 MSTORE PUSH1 0x4 ADD DUP1 DUP1 PUSH1 0x20 ADD DUP3 DUP2 SUB DUP3 MSTORE PUSH1 0x32 DUP2 MSTORE PUSH1 0x20 ADD DUP1 PUSH2 0x26FD PUSH1 0x32 SWAP2 CODECOPY PUSH1 0x40 ADD SWAP2 POP POP PUSH1 0x40 MLOAD DUP1 SWAP2 SUB SWAP1 REVERT JUMPDEST POP POP POP POP JUMP JUMPDEST PUSH1 0x60 PUSH1 0x0 DUP3 EQ ISZERO PUSH2 0x1BEC JUMPI PUSH1 0x40 MLOAD DUP1 PUSH1 0x40 ADD PUSH1 0x40 MSTORE DUP1 PUSH1 0x1 DUP2 MSTORE PUSH1 0x20 ADD PUSH32 0x3000000000000000000000000000000000000000000000000000000000000000 DUP2 MSTORE POP SWAP1 POP PUSH2 0x1CE6 JUMP JUMPDEST PUSH1 0x0 DUP3 SWAP1 POP PUSH1 0x0 JUMPDEST PUSH1 0x0 DUP3 EQ PUSH2 0x1C16 JUMPI DUP1 DUP1 PUSH1 0x1 ADD SWAP2 POP POP PUSH1 0xA DUP3 DUP2 PUSH2 0x1C0E JUMPI INVALID JUMPDEST DIV SWAP2 POP PUSH2 0x1BF4 JUMP JUMPDEST PUSH1 0x60 DUP2 PUSH8 0xFFFFFFFFFFFFFFFF DUP2 GT DUP1 ISZERO PUSH2 0x1C2F JUMPI PUSH1 0x0 DUP1 REVERT JUMPDEST POP PUSH1 0x40 MLOAD SWAP1 DUP1 DUP3 MSTORE DUP1 PUSH1 0x1F ADD PUSH1 0x1F NOT AND PUSH1 0x20 ADD DUP3 ADD PUSH1 0x40 MSTORE DUP1 ISZERO PUSH2 0x1C62 JUMPI DUP2 PUSH1 0x20 ADD PUSH1 0x1 DUP3 MUL DUP1 CALLDATASIZE DUP4 CALLDATACOPY DUP1 DUP3 ADD SWAP2 POP POP SWAP1 POP JUMPDEST POP SWAP1 POP PUSH1 0x0 PUSH1 0x1 DUP4 SUB SWAP1 POP DUP6 SWAP4 POP JUMPDEST PUSH1 0x0 DUP5 EQ PUSH2 0x1CDE JUMPI PUSH1 0xA DUP5 DUP2 PUSH2 0x1C83 JUMPI INVALID JUMPDEST MOD PUSH1 0x30 ADD PUSH1 0xF8 SHL DUP3 DUP3 DUP1 PUSH1 0x1 SWAP1 SUB SWAP4 POP DUP2 MLOAD DUP2 LT PUSH2 0x1C9D JUMPI INVALID JUMPDEST PUSH1 0x20 ADD ADD SWAP1 PUSH31 0xFFFFFFFFFFFFFFFFFFFFFFFFFFFFFFFFFFFFFFFFFFFFFFFFFFFFFFFFFFFFFF NOT AND SWAP1 DUP2 PUSH1 0x0 BYTE SWAP1 MSTORE8 POP PUSH1 0xA DUP5 DUP2 PUSH2 0x1CD6 JUMPI INVALID JUMPDEST DIV SWAP4 POP PUSH2 0x1C71 JUMP JUMPDEST DUP2 SWAP5 POP POP POP POP POP JUMPDEST SWAP2 SWAP1 POP JUMP JUMPDEST PUSH1 0x0 PUSH2 0x1CFD DUP4 PUSH1 0x0 ADD DUP4 PUSH1 0x0 SHL PUSH2 0x21C0 JUMP JUMPDEST SWAP1 POP SWAP3 SWAP2 POP POP JUMP JUMPDEST PUSH1 0x0 DUP2 PUSH1 0x0 ADD DUP1 SLOAD SWAP1 POP SWAP1 POP SWAP2 SWAP1 POP JUMP JUMPDEST POP POP POP JUMP JUMPDEST PUSH1 0x0 PUSH2 0x1D2D DUP4 PUSH1 0x0 ADD DUP4 PUSH1 0x0 SHL PUSH2 0x21E3 JUMP JUMPDEST SWAP1 POP SWAP3 SWAP2 POP POP JUMP JUMPDEST PUSH1 0x0 PUSH2 0x1D47 DUP4 PUSH1 0x0 ADD DUP4 PUSH1 0x0 SHL PUSH2 0x22CB JUMP JUMPDEST SWAP1 POP SWAP3 SWAP2 POP POP JUMP JUMPDEST PUSH1 0x0 PUSH2 0x1D7B DUP5 PUSH1 0x0 ADD DUP5 PUSH1 0x0 SHL DUP5 PUSH20 0xFFFFFFFFFFFFFFFFFFFFFFFFFFFFFFFFFFFFFFFF AND PUSH1 0x0 SHL PUSH2 0x233B JUMP JUMPDEST SWAP1 POP SWAP4 SWAP3 POP POP POP JUMP JUMPDEST PUSH1 0x0 DUP2 DUP4 PUSH1 0x0 ADD DUP1 SLOAD SWAP1 POP GT PUSH2 0x1DE5 JUMPI PUSH1 0x40 MLOAD PUSH32 0x8C379A000000000000000000000000000000000000000000000000000000000 DUP2 MSTORE PUSH1 0x4 ADD DUP1 DUP1 PUSH1 0x20 ADD DUP3 DUP2 SUB DUP3 MSTORE PUSH1 0x22 DUP2 MSTORE PUSH1 0x20 ADD DUP1 PUSH2 0x26DB PUSH1 0x22 SWAP2 CODECOPY PUSH1 0x40 ADD SWAP2 POP POP PUSH1 0x40 MLOAD DUP1 SWAP2 SUB SWAP1 REVERT JUMPDEST DUP3 PUSH1 0x0 ADD DUP3 DUP2 SLOAD DUP2 LT PUSH2 0x1DF4 JUMPI INVALID JUMPDEST SWAP1 PUSH1 0x0 MSTORE PUSH1 0x20 PUSH1 0x0 KECCAK256 ADD SLOAD SWAP1 POP SWAP3 SWAP2 POP POP JUMP JUMPDEST PUSH1 0x0 DUP1 DUP3 DUP5 PUSH1 0x0 ADD DUP1 SLOAD SWAP1 POP GT PUSH2 0x1E69 JUMPI PUSH1 0x40 MLOAD PUSH32 0x8C379A000000000000000000000000000000000000000000000000000000000 DUP2 MSTORE PUSH1 0x4 ADD DUP1 DUP1 PUSH1 0x20 ADD DUP3 DUP2 SUB DUP3 MSTORE PUSH1 0x22 DUP2 MSTORE PUSH1 0x20 ADD DUP1 PUSH2 0x2830 PUSH1 0x22 SWAP2 CODECOPY PUSH1 0x40 ADD SWAP2 POP POP PUSH1 0x40 MLOAD DUP1 SWAP2 SUB SWAP1 REVERT JUMPDEST PUSH1 0x0 DUP5 PUSH1 0x0 ADD DUP5 DUP2 SLOAD DUP2 LT PUSH2 0x1E7A JUMPI INVALID JUMPDEST SWAP1 PUSH1 0x0 MSTORE PUSH1 0x20 PUSH1 0x0 KECCAK256 SWAP1 PUSH1 0x2 MUL ADD SWAP1 POP DUP1 PUSH1 0x0 ADD SLOAD DUP2 PUSH1 0x1 ADD SLOAD SWAP3 POP SWAP3 POP POP SWAP3 POP SWAP3 SWAP1 POP JUMP JUMPDEST PUSH1 0x0 DUP1 DUP5 PUSH1 0x1 ADD PUSH1 0x0 DUP6 DUP2 MSTORE PUSH1 0x20 ADD SWAP1 DUP2 MSTORE PUSH1 0x20 ADD PUSH1 0x0 KECCAK256 SLOAD SWAP1 POP PUSH1 0x0 DUP2 EQ ISZERO DUP4 SWAP1 PUSH2 0x1F67 JUMPI PUSH1 0x40 MLOAD PUSH32 0x8C379A000000000000000000000000000000000000000000000000000000000 DUP2 MSTORE PUSH1 0x4 ADD DUP1 DUP1 PUSH1 0x20 ADD DUP3 DUP2 SUB DUP3 MSTORE DUP4 DUP2 DUP2 MLOAD DUP2 MSTORE PUSH1 0x20 ADD SWAP2 POP DUP1 MLOAD SWAP1 PUSH1 0x20 ADD SWAP1 DUP1 DUP4 DUP4 PUSH1 0x0 JUMPDEST DUP4 DUP2 LT ISZERO PUSH2 0x1F2C JUMPI DUP1 DUP3 ADD MLOAD DUP2 DUP5 ADD MSTORE PUSH1 0x20 DUP2 ADD SWAP1 POP PUSH2 0x1F11 JUMP JUMPDEST POP POP POP POP SWAP1 POP SWAP1 DUP2 ADD SWAP1 PUSH1 0x1F AND DUP1 ISZERO PUSH2 0x1F59 JUMPI DUP1 DUP3 SUB DUP1 MLOAD PUSH1 0x1 DUP4 PUSH1 0x20 SUB PUSH2 0x100 EXP SUB NOT AND DUP2 MSTORE PUSH1 0x20 ADD SWAP2 POP JUMPDEST POP SWAP3 POP POP POP PUSH1 0x40 MLOAD DUP1 SWAP2 SUB SWAP1 REVERT JUMPDEST POP DUP5 PUSH1 0x0 ADD PUSH1 0x1 DUP3 SUB DUP2 SLOAD DUP2 LT PUSH2 0x1F7A JUMPI INVALID JUMPDEST SWAP1 PUSH1 0x0 MSTORE PUSH1 0x20 PUSH1 0x0 KECCAK256 SWAP1 PUSH1 0x2 MUL ADD PUSH1 0x1 ADD SLOAD SWAP2 POP POP SWAP4 SWAP3 POP POP POP JUMP JUMPDEST PUSH1 0x0 DUP2 PUSH1 0x0 ADD DUP1 SLOAD SWAP1 POP SWAP1 POP SWAP2 SWAP1 POP JUMP JUMPDEST PUSH1 0x0 PUSH2 0x1FC8 DUP5 PUSH20 0xFFFFFFFFFFFFFFFFFFFFFFFFFFFFFFFFFFFFFFFF AND PUSH2 0x2417 JUMP JUMPDEST PUSH2 0x1FD5 JUMPI PUSH1 0x1 SWAP1 POP PUSH2 0x21B8 JUMP JUMPDEST PUSH1 0x60 PUSH2 0x213F PUSH4 0x150B7A02 PUSH1 0xE0 SHL PUSH2 0x1FEA PUSH2 0x16AB JUMP JUMPDEST DUP9 DUP8 DUP8 PUSH1 0x40 MLOAD PUSH1 0x24 ADD DUP1 DUP6 PUSH20 0xFFFFFFFFFFFFFFFFFFFFFFFFFFFFFFFFFFFFFFFF AND DUP2 MSTORE PUSH1 0x20 ADD DUP5 PUSH20 0xFFFFFFFFFFFFFFFFFFFFFFFFFFFFFFFFFFFFFFFF AND DUP2 MSTORE PUSH1 0x20 ADD DUP4 DUP2 MSTORE PUSH1 0x20 ADD DUP1 PUSH1 0x20 ADD DUP3 DUP2 SUB DUP3 MSTORE DUP4 DUP2 DUP2 MLOAD DUP2 MSTORE PUSH1 0x20 ADD SWAP2 POP DUP1 MLOAD SWAP1 PUSH1 0x20 ADD SWAP1 DUP1 DUP4 DUP4 PUSH1 0x0 JUMPDEST DUP4 DUP2 LT ISZERO PUSH2 0x206E JUMPI DUP1 DUP3 ADD MLOAD DUP2 DUP5 ADD MSTORE PUSH1 0x20 DUP2 ADD SWAP1 POP PUSH2 0x2053 JUMP JUMPDEST POP POP POP POP SWAP1 POP SWAP1 DUP2 ADD SWAP1 PUSH1 0x1F AND DUP1 ISZERO PUSH2 0x209B JUMPI DUP1 DUP3 SUB DUP1 MLOAD PUSH1 0x1 DUP4 PUSH1 0x20 SUB PUSH2 0x100 EXP SUB NOT AND DUP2 MSTORE PUSH1 0x20 ADD SWAP2 POP JUMPDEST POP SWAP6 POP POP POP POP POP POP PUSH1 0x40 MLOAD PUSH1 0x20 DUP2 DUP4 SUB SUB DUP2 MSTORE SWAP1 PUSH1 0x40 MSTORE SWAP1 PUSH28 0xFFFFFFFFFFFFFFFFFFFFFFFFFFFFFFFFFFFFFFFFFFFFFFFFFFFFFFFF NOT AND PUSH1 0x20 DUP3 ADD DUP1 MLOAD PUSH28 0xFFFFFFFFFFFFFFFFFFFFFFFFFFFFFFFFFFFFFFFFFFFFFFFFFFFFFFFF DUP4 DUP2 DUP4 AND OR DUP4 MSTORE POP POP POP POP PUSH1 0x40 MLOAD DUP1 PUSH1 0x60 ADD PUSH1 0x40 MSTORE DUP1 PUSH1 0x32 DUP2 MSTORE PUSH1 0x20 ADD PUSH2 0x26FD PUSH1 0x32 SWAP2 CODECOPY DUP8 PUSH20 0xFFFFFFFFFFFFFFFFFFFFFFFFFFFFFFFFFFFFFFFF AND PUSH2 0x242A SWAP1 SWAP3 SWAP2 SWAP1 PUSH4 0xFFFFFFFF AND JUMP JUMPDEST SWAP1 POP PUSH1 0x0 DUP2 DUP1 PUSH1 0x20 ADD SWAP1 MLOAD PUSH1 0x20 DUP2 LT ISZERO PUSH2 0x2158 JUMPI PUSH1 0x0 DUP1 REVERT JUMPDEST DUP2 ADD SWAP1 DUP1 DUP1 MLOAD SWAP1 PUSH1 0x20 ADD SWAP1 SWAP3 SWAP2 SWAP1 POP POP POP SWAP1 POP PUSH4 0x150B7A02 PUSH1 0xE0 SHL PUSH28 0xFFFFFFFFFFFFFFFFFFFFFFFFFFFFFFFFFFFFFFFFFFFFFFFFFFFFFFFF NOT AND DUP2 PUSH28 0xFFFFFFFFFFFFFFFFFFFFFFFFFFFFFFFFFFFFFFFFFFFFFFFFFFFFFFFF NOT AND EQ SWAP3 POP POP POP JUMPDEST SWAP5 SWAP4 POP POP POP POP JUMP JUMPDEST PUSH1 0x0 DUP1 DUP4 PUSH1 0x1 ADD PUSH1 0x0 DUP5 DUP2 MSTORE PUSH1 0x20 ADD SWAP1 DUP2 MSTORE PUSH1 0x20 ADD PUSH1 0x0 KECCAK256 SLOAD EQ ISZERO SWAP1 POP SWAP3 SWAP2 POP POP JUMP JUMPDEST PUSH1 0x0 DUP1 DUP4 PUSH1 0x1 ADD PUSH1 0x0 DUP5 DUP2 MSTORE PUSH1 0x20 ADD SWAP1 DUP2 MSTORE PUSH1 0x20 ADD PUSH1 0x0 KECCAK256 SLOAD SWAP1 POP PUSH1 0x0 DUP2 EQ PUSH2 0x22BF JUMPI PUSH1 0x0 PUSH1 0x1 DUP3 SUB SWAP1 POP PUSH1 0x0 PUSH1 0x1 DUP7 PUSH1 0x0 ADD DUP1 SLOAD SWAP1 POP SUB SWAP1 POP PUSH1 0x0 DUP7 PUSH1 0x0 ADD DUP3 DUP2 SLOAD DUP2 LT PUSH2 0x222E JUMPI INVALID JUMPDEST SWAP1 PUSH1 0x0 MSTORE PUSH1 0x20 PUSH1 0x0 KECCAK256 ADD SLOAD SWAP1 POP DUP1 DUP8 PUSH1 0x0 ADD DUP5 DUP2 SLOAD DUP2 LT PUSH2 0x224B JUMPI INVALID JUMPDEST SWAP1 PUSH1 0x0 MSTORE PUSH1 0x20 PUSH1 0x0 KECCAK256 ADD DUP2 SWAP1 SSTORE POP PUSH1 0x1 DUP4 ADD DUP8 PUSH1 0x1 ADD PUSH1 0x0 DUP4 DUP2 MSTORE PUSH1 0x20 ADD SWAP1 DUP2 MSTORE PUSH1 0x20 ADD PUSH1 0x0 KECCAK256 DUP2 SWAP1 SSTORE POP DUP7 PUSH1 0x0 ADD DUP1 SLOAD DUP1 PUSH2 0x2283 JUMPI INVALID JUMPDEST PUSH1 0x1 SWAP1 SUB DUP2 DUP2 SWAP1 PUSH1 0x0 MSTORE PUSH1 0x20 PUSH1 0x0 KECCAK256 ADD PUSH1 0x0 SWAP1 SSTORE SWAP1 SSTORE DUP7 PUSH1 0x1 ADD PUSH1 0x0 DUP8 DUP2 MSTORE PUSH1 0x20 ADD SWAP1 DUP2 MSTORE PUSH1 0x20 ADD PUSH1 0x0 KECCAK256 PUSH1 0x0 SWAP1 SSTORE PUSH1 0x1 SWAP5 POP POP POP POP POP PUSH2 0x22C5 JUMP JUMPDEST PUSH1 0x0 SWAP2 POP POP JUMPDEST SWAP3 SWAP2 POP POP JUMP JUMPDEST PUSH1 0x0 PUSH2 0x22D7 DUP4 DUP4 PUSH2 0x2442 JUMP JUMPDEST PUSH2 0x2330 JUMPI DUP3 PUSH1 0x0 ADD DUP3 SWAP1 DUP1 PUSH1 0x1 DUP2 SLOAD ADD DUP1 DUP3 SSTORE DUP1 SWAP2 POP POP PUSH1 0x1 SWAP1 SUB SWAP1 PUSH1 0x0 MSTORE PUSH1 0x20 PUSH1 0x0 KECCAK256 ADD PUSH1 0x0 SWAP1 SWAP2 SWAP1 SWAP2 SWAP1 SWAP2 POP SSTORE DUP3 PUSH1 0x0 ADD DUP1 SLOAD SWAP1 POP DUP4 PUSH1 0x1 ADD PUSH1 0x0 DUP5 DUP2 MSTORE PUSH1 0x20 ADD SWAP1 DUP2 MSTORE PUSH1 0x20 ADD PUSH1 0x0 KECCAK256 DUP2 SWAP1 SSTORE POP PUSH1 0x1 SWAP1 POP PUSH2 0x2335 JUMP JUMPDEST PUSH1 0x0 SWAP1 POP JUMPDEST SWAP3 SWAP2 POP POP JUMP JUMPDEST PUSH1 0x0 DUP1 DUP5 PUSH1 0x1 ADD PUSH1 0x0 DUP6 DUP2 MSTORE PUSH1 0x20 ADD SWAP1 DUP2 MSTORE PUSH1 0x20 ADD PUSH1 0x0 KECCAK256 SLOAD SWAP1 POP PUSH1 0x0 DUP2 EQ ISZERO PUSH2 0x23E2 JUMPI DUP5 PUSH1 0x0 ADD PUSH1 0x40 MLOAD DUP1 PUSH1 0x40 ADD PUSH1 0x40 MSTORE DUP1 DUP7 DUP2 MSTORE PUSH1 0x20 ADD DUP6 DUP2 MSTORE POP SWAP1 DUP1 PUSH1 0x1 DUP2 SLOAD ADD DUP1 DUP3 SSTORE DUP1 SWAP2 POP POP PUSH1 0x1 SWAP1 SUB SWAP1 PUSH1 0x0 MSTORE PUSH1 0x20 PUSH1 0x0 KECCAK256 SWAP1 PUSH1 0x2 MUL ADD PUSH1 0x0 SWAP1 SWAP2 SWAP1 SWAP2 SWAP1 SWAP2 POP PUSH1 0x0 DUP3 ADD MLOAD DUP2 PUSH1 0x0 ADD SSTORE PUSH1 0x20 DUP3 ADD MLOAD DUP2 PUSH1 0x1 ADD SSTORE POP POP DUP5 PUSH1 0x0 ADD DUP1 SLOAD SWAP1 POP DUP6 PUSH1 0x1 ADD PUSH1 0x0 DUP7 DUP2 MSTORE PUSH1 0x20 ADD SWAP1 DUP2 MSTORE PUSH1 0x20 ADD PUSH1 0x0 KECCAK256 DUP2 SWAP1 SSTORE POP PUSH1 0x1 SWAP2 POP POP PUSH2 0x2410 JUMP JUMPDEST DUP3 DUP6 PUSH1 0x0 ADD PUSH1 0x1 DUP4 SUB DUP2 SLOAD DUP2 LT PUSH2 0x23F5 JUMPI INVALID JUMPDEST SWAP1 PUSH1 0x0 MSTORE PUSH1 0x20 PUSH1 0x0 KECCAK256 SWAP1 PUSH1 0x2 MUL ADD PUSH1 0x1 ADD DUP2 SWAP1 SSTORE POP PUSH1 0x0 SWAP2 POP POP JUMPDEST SWAP4 SWAP3 POP POP POP JUMP JUMPDEST PUSH1 0x0 DUP1 DUP3 EXTCODESIZE SWAP1 POP PUSH1 0x0 DUP2 GT SWAP2 POP POP SWAP2 SWAP1 POP JUMP JUMPDEST PUSH1 0x60 PUSH2 0x2439 DUP5 DUP5 PUSH1 0x0 DUP6 PUSH2 0x2465 JUMP JUMPDEST SWAP1 POP SWAP4 SWAP3 POP POP POP JUMP JUMPDEST PUSH1 0x0 DUP1 DUP4 PUSH1 0x1 ADD PUSH1 0x0 DUP5 DUP2 MSTORE PUSH1 0x20 ADD SWAP1 DUP2 MSTORE PUSH1 0x20 ADD PUSH1 0x0 KECCAK256 SLOAD EQ ISZERO SWAP1 POP SWAP3 SWAP2 POP POP JUMP JUMPDEST PUSH1 0x60 DUP3 SELFBALANCE LT ISZERO PUSH2 0x24C0 JUMPI PUSH1 0x40 MLOAD PUSH32 0x8C379A000000000000000000000000000000000000000000000000000000000 DUP2 MSTORE PUSH1 0x4 ADD DUP1 DUP1 PUSH1 0x20 ADD DUP3 DUP2 SUB DUP3 MSTORE PUSH1 0x26 DUP2 MSTORE PUSH1 0x20 ADD DUP1 PUSH2 0x2753 PUSH1 0x26 SWAP2 CODECOPY PUSH1 0x40 ADD SWAP2 POP POP PUSH1 0x40 MLOAD DUP1 SWAP2 SUB SWAP1 REVERT JUMPDEST PUSH2 0x24C9 DUP6 PUSH2 0x2417 JUMP JUMPDEST PUSH2 0x253B JUMPI PUSH1 0x40 MLOAD PUSH32 0x8C379A000000000000000000000000000000000000000000000000000000000 DUP2 MSTORE PUSH1 0x4 ADD DUP1 DUP1 PUSH1 0x20 ADD DUP3 DUP2 SUB DUP3 MSTORE PUSH1 0x1D DUP2 MSTORE PUSH1 0x20 ADD DUP1 PUSH32 0x416464726573733A2063616C6C20746F206E6F6E2D636F6E7472616374000000 DUP2 MSTORE POP PUSH1 0x20 ADD SWAP2 POP POP PUSH1 0x40 MLOAD DUP1 SWAP2 SUB SWAP1 REVERT JUMPDEST PUSH1 0x0 PUSH1 0x60 DUP7 PUSH20 0xFFFFFFFFFFFFFFFFFFFFFFFFFFFFFFFFFFFFFFFF AND DUP6 DUP8 PUSH1 0x40 MLOAD DUP1 DUP3 DUP1 MLOAD SWAP1 PUSH1 0x20 ADD SWAP1 DUP1 DUP4 DUP4 JUMPDEST PUSH1 0x20 DUP4 LT PUSH2 0x258B JUMPI DUP1 MLOAD DUP3 MSTORE PUSH1 0x20 DUP3 ADD SWAP2 POP PUSH1 0x20 DUP2 ADD SWAP1 POP PUSH1 0x20 DUP4 SUB SWAP3 POP PUSH2 0x2568 JUMP JUMPDEST PUSH1 0x1 DUP4 PUSH1 0x20 SUB PUSH2 0x100 EXP SUB DUP1 NOT DUP3 MLOAD AND DUP2 DUP5 MLOAD AND DUP1 DUP3 OR DUP6 MSTORE POP POP POP POP POP POP SWAP1 POP ADD SWAP2 POP POP PUSH1 0x0 PUSH1 0x40 MLOAD DUP1 DUP4 SUB DUP2 DUP6 DUP8 GAS CALL SWAP3 POP POP POP RETURNDATASIZE DUP1 PUSH1 0x0 DUP2 EQ PUSH2 0x25ED JUMPI PUSH1 0x40 MLOAD SWAP2 POP PUSH1 0x1F NOT PUSH1 0x3F RETURNDATASIZE ADD AND DUP3 ADD PUSH1 0x40 MSTORE RETURNDATASIZE DUP3 MSTORE RETURNDATASIZE PUSH1 0x0 PUSH1 0x20 DUP5 ADD RETURNDATACOPY PUSH2 0x25F2 JUMP JUMPDEST PUSH1 0x60 SWAP2 POP JUMPDEST POP SWAP2 POP SWAP2 POP PUSH2 0x2602 DUP3 DUP3 DUP7 PUSH2 0x260E JUMP JUMPDEST SWAP3 POP POP POP SWAP5 SWAP4 POP POP POP POP JUMP JUMPDEST PUSH1 0x60 DUP4 ISZERO PUSH2 0x261E JUMPI DUP3 SWAP1 POP PUSH2 0x26D3 JUMP JUMPDEST PUSH1 0x0 DUP4 MLOAD GT ISZERO PUSH2 0x2631 JUMPI DUP3 MLOAD DUP1 DUP5 PUSH1 0x20 ADD REVERT JUMPDEST DUP2 PUSH1 0x40 MLOAD PUSH32 0x8C379A000000000000000000000000000000000000000000000000000000000 DUP2 MSTORE PUSH1 0x4 ADD DUP1 DUP1 PUSH1 0x20 ADD DUP3 DUP2 SUB DUP3 MSTORE DUP4 DUP2 DUP2 MLOAD DUP2 MSTORE PUSH1 0x20 ADD SWAP2 POP DUP1 MLOAD SWAP1 PUSH1 0x20 ADD SWAP1 DUP1 DUP4 DUP4 PUSH1 0x0 JUMPDEST DUP4 DUP2 LT ISZERO PUSH2 0x2698 JUMPI DUP1 DUP3 ADD MLOAD DUP2 DUP5 ADD MSTORE PUSH1 0x20 DUP2 ADD SWAP1 POP PUSH2 0x267D JUMP JUMPDEST POP POP POP POP SWAP1 POP SWAP1 DUP2 ADD SWAP1 PUSH1 0x1F AND DUP1 ISZERO PUSH2 0x26C5 JUMPI DUP1 DUP3 SUB DUP1 MLOAD PUSH1 0x1 DUP4 PUSH1 0x20 SUB PUSH2 0x100 EXP SUB NOT AND DUP2 MSTORE PUSH1 0x20 ADD SWAP2 POP JUMPDEST POP SWAP3 POP POP POP PUSH1 0x40 MLOAD DUP1 SWAP2 SUB SWAP1 REVERT JUMPDEST SWAP4 SWAP3 POP POP POP JUMP INVALID GASLIMIT PUSH15 0x756D657261626C655365743A20696E PUSH5 0x6578206F75 PUSH21 0x206F6620626F756E64734552433732313A20747261 PUSH15 0x7366657220746F206E6F6E20455243 CALLDATACOPY ORIGIN BALANCE MSTORE PUSH6 0x636569766572 KECCAK256 PUSH10 0x6D706C656D656E746572 GASLIMIT MSTORE NUMBER CALLDATACOPY ORIGIN BALANCE GASPRICE KECCAK256 PUSH21 0x72616E7366657220746F20746865207A65726F2061 PUSH5 0x6472657373 COINBASE PUSH5 0x6472657373 GASPRICE KECCAK256 PUSH10 0x6E73756666696369656E PUSH21 0x2062616C616E636520666F722063616C6C45524337 ORIGIN BALANCE GASPRICE KECCAK256 PUSH16 0x70657261746F7220717565727920666F PUSH19 0x206E6F6E6578697374656E7420746F6B656E45 MSTORE NUMBER CALLDATACOPY ORIGIN BALANCE GASPRICE KECCAK256 PUSH2 0x7070 PUSH19 0x6F76652063616C6C6572206973206E6F74206F PUSH24 0x6E6572206E6F7220617070726F76656420666F7220616C6C GASLIMIT MSTORE NUMBER CALLDATACOPY ORIGIN BALANCE GASPRICE KECCAK256 PUSH3 0x616C61 PUSH15 0x636520717565727920666F72207468 PUSH6 0x207A65726F20 PUSH2 0x6464 PUSH19 0x6573734552433732313A206F776E6572207175 PUSH6 0x727920666F72 KECCAK256 PUSH15 0x6F6E6578697374656E7420746F6B65 PUSH15 0x456E756D657261626C654D61703A20 PUSH10 0x6E646578206F7574206F PUSH7 0x20626F756E6473 GASLIMIT MSTORE NUMBER CALLDATACOPY ORIGIN BALANCE GASPRICE KECCAK256 PUSH2 0x7070 PUSH19 0x6F76656420717565727920666F72206E6F6E65 PUSH25 0x697374656E7420746F6B656E4552433732313A207472616E73 PUSH7 0x6572206F662074 PUSH16 0x6B656E2074686174206973206E6F7420 PUSH16 0x776E4552433732314D65746164617461 GASPRICE KECCAK256 SSTORE MSTORE 0x49 KECCAK256 PUSH18 0x7565727920666F72206E6F6E657869737465 PUSH15 0x7420746F6B656E4552433732313A20 PUSH2 0x7070 PUSH19 0x6F76616C20746F2063757272656E74206F776E PUSH6 0x724552433732 BALANCE GASPRICE KECCAK256 PUSH21 0x72616E736665722063616C6C6572206973206E6F74 KECCAK256 PUSH16 0x776E6572206E6F7220617070726F7665 PUSH5 0xA264697066 PUSH20 0x58221220CE3F81644191A6B3EE2EC38CA19BA662 0x28 DUP8 0xB6 0x27 SWAP4 OR SWAP7 0xC6 PUSH20 0x3FBF89FE8818C964736F6C634300060C00330000 "
				},
				"gasEstimates": {
					"creation": {
						"codeDepositCost": "2117800",
						"executionCost": "infinite",
						"totalCost": "infinite"
					},
					"external": {
						"approve(address,uint256)": "infinite",
						"balanceOf(address)": "infinite",
						"baseURI()": "infinite",
						"getApproved(uint256)": "infinite",
						"isApprovedForAll(address,address)": "1451",
						"lock()": "22067",
						"name()": "infinite",
						"ownerOf(uint256)": "infinite",
						"safeTransferFrom(address,address,uint256)": "infinite",
						"safeTransferFrom(address,address,uint256,bytes)": "infinite",
						"setApprovalForAll(address,bool)": "infinite",
						"supportsInterface(bytes4)": "1271",
						"symbol()": "infinite",
						"tokenByIndex(uint256)": "infinite",
						"tokenOfOwnerByIndex(address,uint256)": "infinite",
						"tokenURI(uint256)": "infinite",
						"totalSupply()": "1142",
						"transferFrom(address,address,uint256)": "infinite",
						"unlock()": "21979"
					},
					"internal": {
						"_approve(address,uint256)": "infinite",
						"_beforeTokenTransfer(address,address,uint256)": "15",
						"_burn(uint256)": "infinite",
						"_checkOnERC721Received(address,address,uint256,bytes memory)": "infinite",
						"_exists(uint256)": "infinite",
						"_isApprovedOrOwner(address,uint256)": "infinite",
						"_mint(address,uint256)": "infinite",
						"_safeMint(address,uint256)": "infinite",
						"_safeMint(address,uint256,bytes memory)": "infinite",
						"_safeTransfer(address,address,uint256,bytes memory)": "infinite",
						"_setBaseURI(string memory)": "infinite",
						"_setTokenURI(uint256,string memory)": "infinite",
						"_transfer(address,address,uint256)": "infinite"
					}
				},
				"methodIdentifiers": {
					"approve(address,uint256)": "095ea7b3",
					"balanceOf(address)": "70a08231",
					"baseURI()": "6c0360eb",
					"getApproved(uint256)": "081812fc",
					"isApprovedForAll(address,address)": "e985e9c5",
					"lock()": "f83d08ba",
					"name()": "06fdde03",
					"ownerOf(uint256)": "6352211e",
					"safeTransferFrom(address,address,uint256)": "42842e0e",
					"safeTransferFrom(address,address,uint256,bytes)": "b88d4fde",
					"setApprovalForAll(address,bool)": "a22cb465",
					"supportsInterface(bytes4)": "01ffc9a7",
					"symbol()": "95d89b41",
					"tokenByIndex(uint256)": "4f6ccce7",
					"tokenOfOwnerByIndex(address,uint256)": "2f745c59",
					"tokenURI(uint256)": "c87b56dd",
					"totalSupply()": "18160ddd",
					"transferFrom(address,address,uint256)": "23b872dd",
					"unlock()": "a69df4b5"
				}
			},
			"storageLayout": {
				"storage": [
					{
						"astId": 13,
						"contract": ".deps/github/OpenZeppelin/openzeppelin-contracts/contracts/token/ERC721/ERC721.sol:ERC721",
						"label": "_supportedInterfaces",
						"offset": 0,
						"slot": "0",
						"type": "t_mapping(t_bytes4,t_bool)"
					},
					{
						"astId": 469,
						"contract": ".deps/github/OpenZeppelin/openzeppelin-contracts/contracts/token/ERC721/ERC721.sol:ERC721",
						"label": "_holderTokens",
						"offset": 0,
						"slot": "1",
						"type": "t_mapping(t_address,t_struct(UintSet)2882_storage)"
					},
					{
						"astId": 471,
						"contract": ".deps/github/OpenZeppelin/openzeppelin-contracts/contracts/token/ERC721/ERC721.sol:ERC721",
						"label": "_tokenOwners",
						"offset": 0,
						"slot": "2",
						"type": "t_struct(UintToAddressMap)2259_storage"
					},
					{
						"astId": 475,
						"contract": ".deps/github/OpenZeppelin/openzeppelin-contracts/contracts/token/ERC721/ERC721.sol:ERC721",
						"label": "_tokenApprovals",
						"offset": 0,
						"slot": "4",
						"type": "t_mapping(t_uint256,t_address)"
					},
					{
						"astId": 481,
						"contract": ".deps/github/OpenZeppelin/openzeppelin-contracts/contracts/token/ERC721/ERC721.sol:ERC721",
						"label": "_operatorApprovals",
						"offset": 0,
						"slot": "5",
						"type": "t_mapping(t_address,t_mapping(t_address,t_bool))"
					},
					{
						"astId": 483,
						"contract": ".deps/github/OpenZeppelin/openzeppelin-contracts/contracts/token/ERC721/ERC721.sol:ERC721",
						"label": "_name",
						"offset": 0,
						"slot": "6",
						"type": "t_string_storage"
					},
					{
						"astId": 485,
						"contract": ".deps/github/OpenZeppelin/openzeppelin-contracts/contracts/token/ERC721/ERC721.sol:ERC721",
						"label": "_symbol",
						"offset": 0,
						"slot": "7",
						"type": "t_string_storage"
					},
					{
						"astId": 489,
						"contract": ".deps/github/OpenZeppelin/openzeppelin-contracts/contracts/token/ERC721/ERC721.sol:ERC721",
						"label": "_tokenURIs",
						"offset": 0,
						"slot": "8",
						"type": "t_mapping(t_uint256,t_string_storage)"
					},
					{
						"astId": 491,
						"contract": ".deps/github/OpenZeppelin/openzeppelin-contracts/contracts/token/ERC721/ERC721.sol:ERC721",
						"label": "_baseURI",
						"offset": 0,
						"slot": "9",
						"type": "t_string_storage"
					},
					{
						"astId": 494,
						"contract": ".deps/github/OpenZeppelin/openzeppelin-contracts/contracts/token/ERC721/ERC721.sol:ERC721",
						"label": "_locked",
						"offset": 0,
						"slot": "10",
						"type": "t_bool"
					}
				],
				"types": {
					"t_address": {
						"encoding": "inplace",
						"label": "address",
						"numberOfBytes": "20"
					},
					"t_array(t_bytes32)dyn_storage": {
						"base": "t_bytes32",
						"encoding": "dynamic_array",
						"label": "bytes32[]",
						"numberOfBytes": "32"
					},
					"t_array(t_struct(MapEntry)1933_storage)dyn_storage": {
						"base": "t_struct(MapEntry)1933_storage",
						"encoding": "dynamic_array",
						"label": "struct EnumerableMap.MapEntry[]",
						"numberOfBytes": "32"
					},
					"t_bool": {
						"encoding": "inplace",
						"label": "bool",
						"numberOfBytes": "1"
					},
					"t_bytes32": {
						"encoding": "inplace",
						"label": "bytes32",
						"numberOfBytes": "32"
					},
					"t_bytes4": {
						"encoding": "inplace",
						"label": "bytes4",
						"numberOfBytes": "4"
					},
					"t_mapping(t_address,t_bool)": {
						"encoding": "mapping",
						"key": "t_address",
						"label": "mapping(address => bool)",
						"numberOfBytes": "32",
						"value": "t_bool"
					},
					"t_mapping(t_address,t_mapping(t_address,t_bool))": {
						"encoding": "mapping",
						"key": "t_address",
						"label": "mapping(address => mapping(address => bool))",
						"numberOfBytes": "32",
						"value": "t_mapping(t_address,t_bool)"
					},
					"t_mapping(t_address,t_struct(UintSet)2882_storage)": {
						"encoding": "mapping",
						"key": "t_address",
						"label": "mapping(address => struct EnumerableSet.UintSet)",
						"numberOfBytes": "32",
						"value": "t_struct(UintSet)2882_storage"
					},
					"t_mapping(t_bytes32,t_uint256)": {
						"encoding": "mapping",
						"key": "t_bytes32",
						"label": "mapping(bytes32 => uint256)",
						"numberOfBytes": "32",
						"value": "t_uint256"
					},
					"t_mapping(t_bytes4,t_bool)": {
						"encoding": "mapping",
						"key": "t_bytes4",
						"label": "mapping(bytes4 => bool)",
						"numberOfBytes": "32",
						"value": "t_bool"
					},
					"t_mapping(t_uint256,t_address)": {
						"encoding": "mapping",
						"key": "t_uint256",
						"label": "mapping(uint256 => address)",
						"numberOfBytes": "32",
						"value": "t_address"
					},
					"t_mapping(t_uint256,t_string_storage)": {
						"encoding": "mapping",
						"key": "t_uint256",
						"label": "mapping(uint256 => string)",
						"numberOfBytes": "32",
						"value": "t_string_storage"
					},
					"t_string_storage": {
						"encoding": "bytes",
						"label": "string",
						"numberOfBytes": "32"
					},
					"t_struct(Map)1941_storage": {
						"encoding": "inplace",
						"label": "struct EnumerableMap.Map",
						"members": [
							{
								"astId": 1936,
								"contract": ".deps/github/OpenZeppelin/openzeppelin-contracts/contracts/token/ERC721/ERC721.sol:ERC721",
								"label": "_entries",
								"offset": 0,
								"slot": "0",
								"type": "t_array(t_struct(MapEntry)1933_storage)dyn_storage"
							},
							{
								"astId": 1940,
								"contract": ".deps/github/OpenZeppelin/openzeppelin-contracts/contracts/token/ERC721/ERC721.sol:ERC721",
								"label": "_indexes",
								"offset": 0,
								"slot": "1",
								"type": "t_mapping(t_bytes32,t_uint256)"
							}
						],
						"numberOfBytes": "64"
					},
					"t_struct(MapEntry)1933_storage": {
						"encoding": "inplace",
						"label": "struct EnumerableMap.MapEntry",
						"members": [
							{
								"astId": 1930,
								"contract": ".deps/github/OpenZeppelin/openzeppelin-contracts/contracts/token/ERC721/ERC721.sol:ERC721",
								"label": "_key",
								"offset": 0,
								"slot": "0",
								"type": "t_bytes32"
							},
							{
								"astId": 1932,
								"contract": ".deps/github/OpenZeppelin/openzeppelin-contracts/contracts/token/ERC721/ERC721.sol:ERC721",
								"label": "_value",
								"offset": 0,
								"slot": "1",
								"type": "t_bytes32"
							}
						],
						"numberOfBytes": "64"
					},
					"t_struct(Set)2496_storage": {
						"encoding": "inplace",
						"label": "struct EnumerableSet.Set",
						"members": [
							{
								"astId": 2491,
								"contract": ".deps/github/OpenZeppelin/openzeppelin-contracts/contracts/token/ERC721/ERC721.sol:ERC721",
								"label": "_values",
								"offset": 0,
								"slot": "0",
								"type": "t_array(t_bytes32)dyn_storage"
							},
							{
								"astId": 2495,
								"contract": ".deps/github/OpenZeppelin/openzeppelin-contracts/contracts/token/ERC721/ERC721.sol:ERC721",
								"label": "_indexes",
								"offset": 0,
								"slot": "1",
								"type": "t_mapping(t_bytes32,t_uint256)"
							}
						],
						"numberOfBytes": "64"
					},
					"t_struct(UintSet)2882_storage": {
						"encoding": "inplace",
						"label": "struct EnumerableSet.UintSet",
						"members": [
							{
								"astId": 2881,
								"contract": ".deps/github/OpenZeppelin/openzeppelin-contracts/contracts/token/ERC721/ERC721.sol:ERC721",
								"label": "_inner",
								"offset": 0,
								"slot": "0",
								"type": "t_struct(Set)2496_storage"
							}
						],
						"numberOfBytes": "64"
					},
					"t_struct(UintToAddressMap)2259_storage": {
						"encoding": "inplace",
						"label": "struct EnumerableMap.UintToAddressMap",
						"members": [
							{
								"astId": 2258,
								"contract": ".deps/github/OpenZeppelin/openzeppelin-contracts/contracts/token/ERC721/ERC721.sol:ERC721",
								"label": "_inner",
								"offset": 0,
								"slot": "0",
								"type": "t_struct(Map)1941_storage"
							}
						],
						"numberOfBytes": "64"
					},
					"t_uint256": {
						"encoding": "inplace",
						"label": "uint256",
						"numberOfBytes": "32"
					}
				}
			},
			"userdoc": {
				"kind": "user",
				"methods": {},
				"version": 1
			}
		}
	}
}