{
	".deps/github/OpenZeppelin/openzeppelin-contracts/contracts/token/ERC721/ERC721.sol": {
		"ERC721": {
			"abi": [
				{
					"inputs": [
						{
							"internalType": "string",
							"name": "name_",
							"type": "string"
						},
						{
							"internalType": "string",
							"name": "symbol_",
							"type": "string"
						}
					],
					"stateMutability": "nonpayable",
					"type": "constructor"
				},
				{
					"anonymous": false,
					"inputs": [
						{
							"indexed": true,
							"internalType": "address",
							"name": "owner",
							"type": "address"
						},
						{
							"indexed": true,
							"internalType": "address",
							"name": "approved",
							"type": "address"
						},
						{
							"indexed": true,
							"internalType": "uint256",
							"name": "tokenId",
							"type": "uint256"
						}
					],
					"name": "Approval",
					"type": "event"
				},
				{
					"anonymous": false,
					"inputs": [
						{
							"indexed": true,
							"internalType": "address",
							"name": "owner",
							"type": "address"
						},
						{
							"indexed": true,
							"internalType": "address",
							"name": "operator",
							"type": "address"
						},
						{
							"indexed": false,
							"internalType": "bool",
							"name": "approved",
							"type": "bool"
						}
					],
					"name": "ApprovalForAll",
					"type": "event"
				},
				{
					"anonymous": false,
					"inputs": [
						{
							"indexed": true,
							"internalType": "address",
							"name": "from",
							"type": "address"
						},
						{
							"indexed": true,
							"internalType": "address",
							"name": "to",
							"type": "address"
						},
						{
							"indexed": true,
							"internalType": "uint256",
							"name": "tokenId",
							"type": "uint256"
						}
					],
					"name": "Transfer",
					"type": "event"
				},
				{
					"inputs": [
						{
							"internalType": "address",
							"name": "to",
							"type": "address"
						},
						{
							"internalType": "uint256",
							"name": "tokenId",
							"type": "uint256"
						}
					],
					"name": "approve",
					"outputs": [],
					"stateMutability": "nonpayable",
					"type": "function"
				},
				{
					"inputs": [
						{
							"internalType": "address",
							"name": "owner",
							"type": "address"
						}
					],
					"name": "balanceOf",
					"outputs": [
						{
							"internalType": "uint256",
							"name": "",
							"type": "uint256"
						}
					],
					"stateMutability": "view",
					"type": "function"
				},
				{
					"inputs": [],
					"name": "baseURI",
					"outputs": [
						{
							"internalType": "string",
							"name": "",
							"type": "string"
						}
					],
					"stateMutability": "view",
					"type": "function"
				},
				{
					"inputs": [
						{
							"internalType": "uint256",
							"name": "tokenId",
							"type": "uint256"
						}
					],
					"name": "getApproved",
					"outputs": [
						{
							"internalType": "address",
							"name": "",
							"type": "address"
						}
					],
					"stateMutability": "view",
					"type": "function"
				},
				{
					"inputs": [
						{
							"internalType": "address",
							"name": "owner",
							"type": "address"
						},
						{
							"internalType": "address",
							"name": "operator",
							"type": "address"
						}
					],
					"name": "isApprovedForAll",
					"outputs": [
						{
							"internalType": "bool",
							"name": "",
							"type": "bool"
						}
					],
					"stateMutability": "view",
					"type": "function"
				},
				{
					"inputs": [],
					"name": "lockOrUnlock",
					"outputs": [],
					"stateMutability": "view",
					"type": "function"
				},
				{
					"inputs": [],
					"name": "name",
					"outputs": [
						{
							"internalType": "string",
							"name": "",
							"type": "string"
						}
					],
					"stateMutability": "view",
					"type": "function"
				},
				{
					"inputs": [
						{
							"internalType": "uint256",
							"name": "tokenId",
							"type": "uint256"
						}
					],
					"name": "ownerOf",
					"outputs": [
						{
							"internalType": "address",
							"name": "",
							"type": "address"
						}
					],
					"stateMutability": "view",
					"type": "function"
				},
				{
					"inputs": [
						{
							"internalType": "address",
							"name": "from",
							"type": "address"
						},
						{
							"internalType": "address",
							"name": "to",
							"type": "address"
						},
						{
							"internalType": "uint256",
							"name": "tokenId",
							"type": "uint256"
						}
					],
					"name": "safeTransferFrom",
					"outputs": [],
					"stateMutability": "nonpayable",
					"type": "function"
				},
				{
					"inputs": [
						{
							"internalType": "address",
							"name": "from",
							"type": "address"
						},
						{
							"internalType": "address",
							"name": "to",
							"type": "address"
						},
						{
							"internalType": "uint256",
							"name": "tokenId",
							"type": "uint256"
						},
						{
							"internalType": "bytes",
							"name": "_data",
							"type": "bytes"
						}
					],
					"name": "safeTransferFrom",
					"outputs": [],
					"stateMutability": "nonpayable",
					"type": "function"
				},
				{
					"inputs": [
						{
							"internalType": "address",
							"name": "operator",
							"type": "address"
						},
						{
							"internalType": "bool",
							"name": "approved",
							"type": "bool"
						}
					],
					"name": "setApprovalForAll",
					"outputs": [],
					"stateMutability": "nonpayable",
					"type": "function"
				},
				{
					"inputs": [
						{
							"internalType": "bytes4",
							"name": "interfaceId",
							"type": "bytes4"
						}
					],
					"name": "supportsInterface",
					"outputs": [
						{
							"internalType": "bool",
							"name": "",
							"type": "bool"
						}
					],
					"stateMutability": "view",
					"type": "function"
				},
				{
					"inputs": [],
					"name": "symbol",
					"outputs": [
						{
							"internalType": "string",
							"name": "",
							"type": "string"
						}
					],
					"stateMutability": "view",
					"type": "function"
				},
				{
					"inputs": [
						{
							"internalType": "uint256",
							"name": "index",
							"type": "uint256"
						}
					],
					"name": "tokenByIndex",
					"outputs": [
						{
							"internalType": "uint256",
							"name": "",
							"type": "uint256"
						}
					],
					"stateMutability": "view",
					"type": "function"
				},
				{
					"inputs": [
						{
							"internalType": "address",
							"name": "owner",
							"type": "address"
						},
						{
							"internalType": "uint256",
							"name": "index",
							"type": "uint256"
						}
					],
					"name": "tokenOfOwnerByIndex",
					"outputs": [
						{
							"internalType": "uint256",
							"name": "",
							"type": "uint256"
						}
					],
					"stateMutability": "view",
					"type": "function"
				},
				{
					"inputs": [
						{
							"internalType": "uint256",
							"name": "tokenId",
							"type": "uint256"
						}
					],
					"name": "tokenURI",
					"outputs": [
						{
							"internalType": "string",
							"name": "",
							"type": "string"
						}
					],
					"stateMutability": "view",
					"type": "function"
				},
				{
					"inputs": [],
					"name": "totalSupply",
					"outputs": [
						{
							"internalType": "uint256",
							"name": "",
							"type": "uint256"
						}
					],
					"stateMutability": "view",
					"type": "function"
				},
				{
					"inputs": [
						{
							"internalType": "address",
							"name": "from",
							"type": "address"
						},
						{
							"internalType": "address",
							"name": "to",
							"type": "address"
						},
						{
							"internalType": "uint256",
							"name": "tokenId",
							"type": "uint256"
						}
					],
					"name": "transferFrom",
					"outputs": [],
					"stateMutability": "nonpayable",
					"type": "function"
				}
			],
			"devdoc": {
				"details": "see https://eips.ethereum.org/EIPS/eip-721",
				"kind": "dev",
				"methods": {
					"approve(address,uint256)": {
						"details": "See {IERC721-approve}."
					},
					"balanceOf(address)": {
						"details": "See {IERC721-balanceOf}."
					},
					"baseURI()": {
						"details": "Returns the base URI set via {_setBaseURI}. This will be automatically added as a prefix in {tokenURI} to each token's URI, or to the token ID if no specific URI is set for that token ID."
					},
					"constructor": {
						"details": "Initializes the contract by setting a `name` and a `symbol` to the token collection."
					},
					"getApproved(uint256)": {
						"details": "See {IERC721-getApproved}."
					},
					"isApprovedForAll(address,address)": {
						"details": "See {IERC721-isApprovedForAll}."
					},
					"name()": {
						"details": "See {IERC721Metadata-name}."
					},
					"ownerOf(uint256)": {
						"details": "See {IERC721-ownerOf}."
					},
					"safeTransferFrom(address,address,uint256)": {
						"details": "See {IERC721-safeTransferFrom}."
					},
					"safeTransferFrom(address,address,uint256,bytes)": {
						"details": "See {IERC721-safeTransferFrom}."
					},
					"setApprovalForAll(address,bool)": {
						"details": "See {IERC721-setApprovalForAll}."
					},
					"supportsInterface(bytes4)": {
						"details": "See {IERC165-supportsInterface}. Time complexity O(1), guaranteed to always use less than 30 000 gas."
					},
					"symbol()": {
						"details": "See {IERC721Metadata-symbol}."
					},
					"tokenByIndex(uint256)": {
						"details": "See {IERC721Enumerable-tokenByIndex}."
					},
					"tokenOfOwnerByIndex(address,uint256)": {
						"details": "See {IERC721Enumerable-tokenOfOwnerByIndex}."
					},
					"tokenURI(uint256)": {
						"details": "See {IERC721Metadata-tokenURI}."
					},
					"totalSupply()": {
						"details": "See {IERC721Enumerable-totalSupply}."
					},
					"transferFrom(address,address,uint256)": {
						"details": "See {IERC721-transferFrom}."
					}
				},
				"title": "ERC721 Non-Fungible Token Standard basic implementation",
				"version": 1
			},
			"evm": {
				"assembly": "    /* \".deps/github/OpenZeppelin/openzeppelin-contracts/contracts/token/ERC721/ERC721.sol\":571:17259  contract ERC721 is Context, ERC165, IERC721, IERC721Metadata, IERC721Enumerable {... */\n  mstore(0x40, 0x80)\n    /* \".deps/github/OpenZeppelin/openzeppelin-contracts/contracts/token/ERC721/ERC721.sol\":1864:1868  true */\n  0x01\n    /* \".deps/github/OpenZeppelin/openzeppelin-contracts/contracts/token/ERC721/ERC721.sol\":1841:1868  bool private _locked = true */\n  0x0a\n  exp(0x0100, 0x00)\n  dup2\n  sload\n  dup2\n  0xff\n  mul\n  not\n  and\n  swap1\n  dup4\n  iszero\n  iszero\n  mul\n  or\n  swap1\n  sstore\n  pop\n    /* \".deps/github/OpenZeppelin/openzeppelin-contracts/contracts/token/ERC721/ERC721.sol\":3626:3995  constructor (string memory name_, string memory symbol_) public {... */\n  callvalue\n  dup1\n  iszero\n  tag_1\n  jumpi\n  0x00\n  dup1\n  revert\ntag_1:\n  pop\n  mload(0x40)\n  sub(codesize, bytecodeSize)\n  dup1\n  bytecodeSize\n  dup4\n  codecopy\n  dup2\n  dup2\n  add\n  0x40\n  mstore\n  0x40\n  dup2\n  lt\n  iszero\n  tag_2\n  jumpi\n  0x00\n  dup1\n  revert\ntag_2:\n  dup2\n  add\n  swap1\n  dup1\n  dup1\n  mload\n  mload(0x40)\n  swap4\n  swap3\n  swap2\n  swap1\n  dup5\n  0x0100000000\n  dup3\n  gt\n  iszero\n  tag_3\n  jumpi\n  0x00\n  dup1\n  revert\ntag_3:\n  dup4\n  dup3\n  add\n  swap2\n  pop\n  0x20\n  dup3\n  add\n  dup6\n  dup2\n  gt\n  iszero\n  tag_4\n  jumpi\n  0x00\n  dup1\n  revert\ntag_4:\n  dup3\n  mload\n  dup7\n  0x01\n  dup3\n  mul\n  dup4\n  add\n  gt\n  0x0100000000\n  dup3\n  gt\n  or\n  iszero\n  tag_5\n  jumpi\n  0x00\n  dup1\n  revert\ntag_5:\n  dup1\n  dup4\n  mstore\n  0x20\n  dup4\n  add\n  swap3\n  pop\n  pop\n  pop\n  swap1\n  dup1\n  mload\n  swap1\n  0x20\n  add\n  swap1\n  dup1\n  dup4\n  dup4\n  0x00\ntag_6:\n  dup4\n  dup2\n  lt\n  iszero\n  tag_8\n  jumpi\n  dup1\n  dup3\n  add\n  mload\n  dup2\n  dup5\n  add\n  mstore\n  0x20\n  dup2\n  add\n  swap1\n  pop\n  jump(tag_6)\ntag_8:\n  pop\n  pop\n  pop\n  pop\n  swap1\n  pop\n  swap1\n  dup2\n  add\n  swap1\n  0x1f\n  and\n  dup1\n  iszero\n  tag_9\n  jumpi\n  dup1\n  dup3\n  sub\n  dup1\n  mload\n  0x01\n  dup4\n  0x20\n  sub\n  0x0100\n  exp\n  sub\n  not\n  and\n  dup2\n  mstore\n  0x20\n  add\n  swap2\n  pop\ntag_9:\n  pop\n  0x40\n  mstore\n  0x20\n  add\n  dup1\n  mload\n  mload(0x40)\n  swap4\n  swap3\n  swap2\n  swap1\n  dup5\n  0x0100000000\n  dup3\n  gt\n  iszero\n  tag_10\n  jumpi\n  0x00\n  dup1\n  revert\ntag_10:\n  dup4\n  dup3\n  add\n  swap2\n  pop\n  0x20\n  dup3\n  add\n  dup6\n  dup2\n  gt\n  iszero\n  tag_11\n  jumpi\n  0x00\n  dup1\n  revert\ntag_11:\n  dup3\n  mload\n  dup7\n  0x01\n  dup3\n  mul\n  dup4\n  add\n  gt\n  0x0100000000\n  dup3\n  gt\n  or\n  iszero\n  tag_12\n  jumpi\n  0x00\n  dup1\n  revert\ntag_12:\n  dup1\n  dup4\n  mstore\n  0x20\n  dup4\n  add\n  swap3\n  pop\n  pop\n  pop\n  swap1\n  dup1\n  mload\n  swap1\n  0x20\n  add\n  swap1\n  dup1\n  dup4\n  dup4\n  0x00\ntag_13:\n  dup4\n  dup2\n  lt\n  iszero\n  tag_15\n  jumpi\n  dup1\n  dup3\n  add\n  mload\n  dup2\n  dup5\n  add\n  mstore\n  0x20\n  dup2\n  add\n  swap1\n  pop\n  jump(tag_13)\ntag_15:\n  pop\n  pop\n  pop\n  pop\n  swap1\n  pop\n  swap1\n  dup2\n  add\n  swap1\n  0x1f\n  and\n  dup1\n  iszero\n  tag_16\n  jumpi\n  dup1\n  dup3\n  sub\n  dup1\n  mload\n  0x01\n  dup4\n  0x20\n  sub\n  0x0100\n  exp\n  sub\n  not\n  and\n  dup2\n  mstore\n  0x20\n  add\n  swap2\n  pop\ntag_16:\n  pop\n  0x40\n  mstore\n  pop\n  pop\n  pop\n    /* \".deps/github/OpenZeppelin/openzeppelin-contracts/contracts/introspection/ERC165.sol\":768:808  _registerInterface(_INTERFACE_ID_ERC165) */\n  tag_20\n    /* \".deps/github/OpenZeppelin/openzeppelin-contracts/contracts/introspection/ERC165.sol\":435:445  0x01ffc9a7 */\n  0x01ffc9a7\n    /* \".deps/github/OpenZeppelin/openzeppelin-contracts/contracts/introspection/ERC165.sol\":787:807  _INTERFACE_ID_ERC165 */\n  0xe0\n  shl\n    /* \".deps/github/OpenZeppelin/openzeppelin-contracts/contracts/introspection/ERC165.sol\":768:786  _registerInterface */\n  shl(0x20, tag_21)\n    /* \".deps/github/OpenZeppelin/openzeppelin-contracts/contracts/introspection/ERC165.sol\":768:808  _registerInterface(_INTERFACE_ID_ERC165) */\n  0x20\n  shr\n  jump\t// in\ntag_20:\n    /* \".deps/github/OpenZeppelin/openzeppelin-contracts/contracts/token/ERC721/ERC721.sol\":3708:3713  name_ */\n  dup2\n    /* \".deps/github/OpenZeppelin/openzeppelin-contracts/contracts/token/ERC721/ERC721.sol\":3700:3705  _name */\n  0x06\n    /* \".deps/github/OpenZeppelin/openzeppelin-contracts/contracts/token/ERC721/ERC721.sol\":3700:3713  _name = name_ */\n  swap1\n  dup1\n  mload\n  swap1\n  0x20\n  add\n  swap1\n  tag_23\n  swap3\n  swap2\n  swap1\n  tag_24\n  jump\t// in\ntag_23:\n  pop\n    /* \".deps/github/OpenZeppelin/openzeppelin-contracts/contracts/token/ERC721/ERC721.sol\":3733:3740  symbol_ */\n  dup1\n    /* \".deps/github/OpenZeppelin/openzeppelin-contracts/contracts/token/ERC721/ERC721.sol\":3723:3730  _symbol */\n  0x07\n    /* \".deps/github/OpenZeppelin/openzeppelin-contracts/contracts/token/ERC721/ERC721.sol\":3723:3740  _symbol = symbol_ */\n  swap1\n  dup1\n  mload\n  swap1\n  0x20\n  add\n  swap1\n  tag_25\n  swap3\n  swap2\n  swap1\n  tag_24\n  jump\t// in\ntag_25:\n  pop\n    /* \".deps/github/OpenZeppelin/openzeppelin-contracts/contracts/token/ERC721/ERC721.sol\":3828:3868  _registerInterface(_INTERFACE_ID_ERC721) */\n  tag_26\n    /* \".deps/github/OpenZeppelin/openzeppelin-contracts/contracts/token/ERC721/ERC721.sol\":2791:2801  0x80ac58cd */\n  0x80ac58cd\n    /* \".deps/github/OpenZeppelin/openzeppelin-contracts/contracts/token/ERC721/ERC721.sol\":3847:3867  _INTERFACE_ID_ERC721 */\n  0xe0\n  shl\n    /* \".deps/github/OpenZeppelin/openzeppelin-contracts/contracts/token/ERC721/ERC721.sol\":3828:3846  _registerInterface */\n  shl(0x20, tag_21)\n    /* \".deps/github/OpenZeppelin/openzeppelin-contracts/contracts/token/ERC721/ERC721.sol\":3828:3868  _registerInterface(_INTERFACE_ID_ERC721) */\n  0x20\n  shr\n  jump\t// in\ntag_26:\n    /* \".deps/github/OpenZeppelin/openzeppelin-contracts/contracts/token/ERC721/ERC721.sol\":3878:3927  _registerInterface(_INTERFACE_ID_ERC721_METADATA) */\n  tag_27\n    /* \".deps/github/OpenZeppelin/openzeppelin-contracts/contracts/token/ERC721/ERC721.sol\":3123:3133  0x5b5e139f */\n  0x5b5e139f\n    /* \".deps/github/OpenZeppelin/openzeppelin-contracts/contracts/token/ERC721/ERC721.sol\":3897:3926  _INTERFACE_ID_ERC721_METADATA */\n  0xe0\n  shl\n    /* \".deps/github/OpenZeppelin/openzeppelin-contracts/contracts/token/ERC721/ERC721.sol\":3878:3896  _registerInterface */\n  shl(0x20, tag_21)\n    /* \".deps/github/OpenZeppelin/openzeppelin-contracts/contracts/token/ERC721/ERC721.sol\":3878:3927  _registerInterface(_INTERFACE_ID_ERC721_METADATA) */\n  0x20\n  shr\n  jump\t// in\ntag_27:\n    /* \".deps/github/OpenZeppelin/openzeppelin-contracts/contracts/token/ERC721/ERC721.sol\":3937:3988  _registerInterface(_INTERFACE_ID_ERC721_ENUMERABLE) */\n  tag_28\n    /* \".deps/github/OpenZeppelin/openzeppelin-contracts/contracts/token/ERC721/ERC721.sol\":3496:3506  0x780e9d63 */\n  0x780e9d63\n    /* \".deps/github/OpenZeppelin/openzeppelin-contracts/contracts/token/ERC721/ERC721.sol\":3956:3987  _INTERFACE_ID_ERC721_ENUMERABLE */\n  0xe0\n  shl\n    /* \".deps/github/OpenZeppelin/openzeppelin-contracts/contracts/token/ERC721/ERC721.sol\":3937:3955  _registerInterface */\n  shl(0x20, tag_21)\n    /* \".deps/github/OpenZeppelin/openzeppelin-contracts/contracts/token/ERC721/ERC721.sol\":3937:3988  _registerInterface(_INTERFACE_ID_ERC721_ENUMERABLE) */\n  0x20\n  shr\n  jump\t// in\ntag_28:\n    /* \".deps/github/OpenZeppelin/openzeppelin-contracts/contracts/token/ERC721/ERC721.sol\":3626:3995  constructor (string memory name_, string memory symbol_) public {... */\n  pop\n  pop\n    /* \".deps/github/OpenZeppelin/openzeppelin-contracts/contracts/token/ERC721/ERC721.sol\":571:17259  contract ERC721 is Context, ERC165, IERC721, IERC721Metadata, IERC721Enumerable {... */\n  jump(tag_29)\n    /* \".deps/github/OpenZeppelin/openzeppelin-contracts/contracts/introspection/ERC165.sol\":1507:1705  function _registerInterface(bytes4 interfaceId) internal virtual {... */\ntag_21:\n    /* \".deps/github/OpenZeppelin/openzeppelin-contracts/contracts/introspection/ERC165.sol\":1605:1615  0xffffffff */\n  0xffffffff\n    /* \".deps/github/OpenZeppelin/openzeppelin-contracts/contracts/introspection/ERC165.sol\":1590:1615  interfaceId != 0xffffffff */\n  0xe0\n  shl\n    /* \".deps/github/OpenZeppelin/openzeppelin-contracts/contracts/introspection/ERC165.sol\":1590:1601  interfaceId */\n  dup2\n    /* \".deps/github/OpenZeppelin/openzeppelin-contracts/contracts/introspection/ERC165.sol\":1590:1615  interfaceId != 0xffffffff */\n  not(0xffffffffffffffffffffffffffffffffffffffffffffffffffffffff)\n  and\n  eq\n  iszero\n    /* \".deps/github/OpenZeppelin/openzeppelin-contracts/contracts/introspection/ERC165.sol\":1582:1648  require(interfaceId != 0xffffffff, \"ERC165: invalid interface id\") */\n  tag_31\n  jumpi\n  mload(0x40)\n  0x08c379a000000000000000000000000000000000000000000000000000000000\n  dup2\n  mstore\n  0x04\n  add\n  dup1\n  dup1\n  0x20\n  add\n  dup3\n  dup2\n  sub\n  dup3\n  mstore\n  0x1c\n  dup2\n  mstore\n  0x20\n  add\n  dup1\n  0x4552433136353a20696e76616c696420696e7465726661636520696400000000\n  dup2\n  mstore\n  pop\n  0x20\n  add\n  swap2\n  pop\n  pop\n  mload(0x40)\n  dup1\n  swap2\n  sub\n  swap1\n  revert\ntag_31:\n    /* \".deps/github/OpenZeppelin/openzeppelin-contracts/contracts/introspection/ERC165.sol\":1694:1698  true */\n  0x01\n    /* \".deps/github/OpenZeppelin/openzeppelin-contracts/contracts/introspection/ERC165.sol\":1658:1678  _supportedInterfaces */\n  0x00\n    /* \".deps/github/OpenZeppelin/openzeppelin-contracts/contracts/introspection/ERC165.sol\":1658:1691  _supportedInterfaces[interfaceId] */\n  dup1\n    /* \".deps/github/OpenZeppelin/openzeppelin-contracts/contracts/introspection/ERC165.sol\":1679:1690  interfaceId */\n  dup4\n    /* \".deps/github/OpenZeppelin/openzeppelin-contracts/contracts/introspection/ERC165.sol\":1658:1691  _supportedInterfaces[interfaceId] */\n  not(0xffffffffffffffffffffffffffffffffffffffffffffffffffffffff)\n  and\n  not(0xffffffffffffffffffffffffffffffffffffffffffffffffffffffff)\n  and\n  dup2\n  mstore\n  0x20\n  add\n  swap1\n  dup2\n  mstore\n  0x20\n  add\n  0x00\n  keccak256\n  0x00\n    /* \".deps/github/OpenZeppelin/openzeppelin-contracts/contracts/introspection/ERC165.sol\":1658:1698  _supportedInterfaces[interfaceId] = true */\n  0x0100\n  exp\n  dup2\n  sload\n  dup2\n  0xff\n  mul\n  not\n  and\n  swap1\n  dup4\n  iszero\n  iszero\n  mul\n  or\n  swap1\n  sstore\n  pop\n    /* \".deps/github/OpenZeppelin/openzeppelin-contracts/contracts/introspection/ERC165.sol\":1507:1705  function _registerInterface(bytes4 interfaceId) internal virtual {... */\n  pop\n  jump\t// out\n    /* \".deps/github/OpenZeppelin/openzeppelin-contracts/contracts/token/ERC721/ERC721.sol\":571:17259  contract ERC721 is Context, ERC165, IERC721, IERC721Metadata, IERC721Enumerable {... */\ntag_24:\n  dup3\n  dup1\n  sload\n  0x01\n  dup2\n  0x01\n  and\n  iszero\n  0x0100\n  mul\n  sub\n  and\n  0x02\n  swap1\n  div\n  swap1\n  0x00\n  mstore\n  keccak256(0x00, 0x20)\n  swap1\n  0x1f\n  add\n  0x20\n  swap1\n  div\n  dup2\n  add\n  swap3\n  dup3\n  0x1f\n  lt\n  tag_33\n  jumpi\n  dup1\n  mload\n  not(0xff)\n  and\n  dup4\n  dup1\n  add\n  or\n  dup6\n  sstore\n  jump(tag_32)\ntag_33:\n  dup3\n  dup1\n  add\n  0x01\n  add\n  dup6\n  sstore\n  dup3\n  iszero\n  tag_32\n  jumpi\n  swap2\n  dup3\n  add\ntag_34:\n  dup3\n  dup2\n  gt\n  iszero\n  tag_35\n  jumpi\n  dup3\n  mload\n  dup3\n  sstore\n  swap2\n  0x20\n  add\n  swap2\n  swap1\n  0x01\n  add\n  swap1\n  jump(tag_34)\ntag_35:\ntag_32:\n  pop\n  swap1\n  pop\n  tag_36\n  swap2\n  swap1\n  tag_37\n  jump\t// in\ntag_36:\n  pop\n  swap1\n  jump\t// out\ntag_37:\ntag_38:\n  dup1\n  dup3\n  gt\n  iszero\n  tag_39\n  jumpi\n  0x00\n  dup2\n  0x00\n  swap1\n  sstore\n  pop\n  0x01\n  add\n  jump(tag_38)\ntag_39:\n  pop\n  swap1\n  jump\t// out\ntag_29:\n  dataSize(sub_0)\n  dup1\n  dataOffset(sub_0)\n  0x00\n  codecopy\n  0x00\n  return\nstop\n\nsub_0: assembly {\n        /* \".deps/github/OpenZeppelin/openzeppelin-contracts/contracts/token/ERC721/ERC721.sol\":571:17259  contract ERC721 is Context, ERC165, IERC721, IERC721Metadata, IERC721Enumerable {... */\n      mstore(0x40, 0x80)\n      callvalue\n      dup1\n      iszero\n      tag_1\n      jumpi\n      0x00\n      dup1\n      revert\n    tag_1:\n      pop\n      jumpi(tag_2, lt(calldatasize, 0x04))\n      shr(0xe0, calldataload(0x00))\n      dup1\n      0x6352211e\n      gt\n      tag_21\n      jumpi\n      dup1\n      0xa22cb465\n      gt\n      tag_22\n      jumpi\n      dup1\n      0xa22cb465\n      eq\n      tag_16\n      jumpi\n      dup1\n      0xb88d4fde\n      eq\n      tag_17\n      jumpi\n      dup1\n      0xc87b56dd\n      eq\n      tag_18\n      jumpi\n      dup1\n      0xc8f02558\n      eq\n      tag_19\n      jumpi\n      dup1\n      0xe985e9c5\n      eq\n      tag_20\n      jumpi\n      jump(tag_2)\n    tag_22:\n      dup1\n      0x6352211e\n      eq\n      tag_12\n      jumpi\n      dup1\n      0x6c0360eb\n      eq\n      tag_13\n      jumpi\n      dup1\n      0x70a08231\n      eq\n      tag_14\n      jumpi\n      dup1\n      0x95d89b41\n      eq\n      tag_15\n      jumpi\n      jump(tag_2)\n    tag_21:\n      dup1\n      0x18160ddd\n      gt\n      tag_23\n      jumpi\n      dup1\n      0x18160ddd\n      eq\n      tag_7\n      jumpi\n      dup1\n      0x23b872dd\n      eq\n      tag_8\n      jumpi\n      dup1\n      0x2f745c59\n      eq\n      tag_9\n      jumpi\n      dup1\n      0x42842e0e\n      eq\n      tag_10\n      jumpi\n      dup1\n      0x4f6ccce7\n      eq\n      tag_11\n      jumpi\n      jump(tag_2)\n    tag_23:\n      dup1\n      0x01ffc9a7\n      eq\n      tag_3\n      jumpi\n      dup1\n      0x06fdde03\n      eq\n      tag_4\n      jumpi\n      dup1\n      0x081812fc\n      eq\n      tag_5\n      jumpi\n      dup1\n      0x095ea7b3\n      eq\n      tag_6\n      jumpi\n    tag_2:\n      0x00\n      dup1\n      revert\n        /* \".deps/github/OpenZeppelin/openzeppelin-contracts/contracts/introspection/ERC165.sol\":965:1113  function supportsInterface(bytes4 interfaceId) public view virtual override returns (bool) {... */\n    tag_3:\n      tag_24\n      0x04\n      dup1\n      calldatasize\n      sub\n      0x20\n      dup2\n      lt\n      iszero\n      tag_25\n      jumpi\n      0x00\n      dup1\n      revert\n    tag_25:\n      dup2\n      add\n      swap1\n      dup1\n      dup1\n      calldataload\n      not(0xffffffffffffffffffffffffffffffffffffffffffffffffffffffff)\n      and\n      swap1\n      0x20\n      add\n      swap1\n      swap3\n      swap2\n      swap1\n      pop\n      pop\n      pop\n      tag_26\n      jump\t// in\n    tag_24:\n      mload(0x40)\n      dup1\n      dup3\n      iszero\n      iszero\n      dup2\n      mstore\n      0x20\n      add\n      swap2\n      pop\n      pop\n      mload(0x40)\n      dup1\n      swap2\n      sub\n      swap1\n      return\n        /* \".deps/github/OpenZeppelin/openzeppelin-contracts/contracts/token/ERC721/ERC721.sol\":4732:4830  function name() public view virtual override returns (string memory) {... */\n    tag_4:\n      tag_27\n      tag_28\n      jump\t// in\n    tag_27:\n      mload(0x40)\n      dup1\n      dup1\n      0x20\n      add\n      dup3\n      dup2\n      sub\n      dup3\n      mstore\n      dup4\n      dup2\n      dup2\n      mload\n      dup2\n      mstore\n      0x20\n      add\n      swap2\n      pop\n      dup1\n      mload\n      swap1\n      0x20\n      add\n      swap1\n      dup1\n      dup4\n      dup4\n      0x00\n    tag_29:\n      dup4\n      dup2\n      lt\n      iszero\n      tag_31\n      jumpi\n      dup1\n      dup3\n      add\n      mload\n      dup2\n      dup5\n      add\n      mstore\n      0x20\n      dup2\n      add\n      swap1\n      pop\n      jump(tag_29)\n    tag_31:\n      pop\n      pop\n      pop\n      pop\n      swap1\n      pop\n      swap1\n      dup2\n      add\n      swap1\n      0x1f\n      and\n      dup1\n      iszero\n      tag_32\n      jumpi\n      dup1\n      dup3\n      sub\n      dup1\n      mload\n      0x01\n      dup4\n      0x20\n      sub\n      0x0100\n      exp\n      sub\n      not\n      and\n      dup2\n      mstore\n      0x20\n      add\n      swap2\n      pop\n    tag_32:\n      pop\n      swap3\n      pop\n      pop\n      pop\n      mload(0x40)\n      dup1\n      swap2\n      sub\n      swap1\n      return\n        /* \".deps/github/OpenZeppelin/openzeppelin-contracts/contracts/token/ERC721/ERC721.sol\":7437:7654  function getApproved(uint256 tokenId) public view virtual override returns (address) {... */\n    tag_5:\n      tag_33\n      0x04\n      dup1\n      calldatasize\n      sub\n      0x20\n      dup2\n      lt\n      iszero\n      tag_34\n      jumpi\n      0x00\n      dup1\n      revert\n    tag_34:\n      dup2\n      add\n      swap1\n      dup1\n      dup1\n      calldataload\n      swap1\n      0x20\n      add\n      swap1\n      swap3\n      swap2\n      swap1\n      pop\n      pop\n      pop\n      tag_35\n      jump\t// in\n    tag_33:\n      mload(0x40)\n      dup1\n      dup3\n      0xffffffffffffffffffffffffffffffffffffffff\n      and\n      dup2\n      mstore\n      0x20\n      add\n      swap2\n      pop\n      pop\n      mload(0x40)\n      dup1\n      swap2\n      sub\n      swap1\n      return\n        /* \".deps/github/OpenZeppelin/openzeppelin-contracts/contracts/token/ERC721/ERC721.sol\":6981:7376  function approve(address to, uint256 tokenId) public virtual override {... */\n    tag_6:\n      tag_36\n      0x04\n      dup1\n      calldatasize\n      sub\n      0x40\n      dup2\n      lt\n      iszero\n      tag_37\n      jumpi\n      0x00\n      dup1\n      revert\n    tag_37:\n      dup2\n      add\n      swap1\n      dup1\n      dup1\n      calldataload\n      0xffffffffffffffffffffffffffffffffffffffff\n      and\n      swap1\n      0x20\n      add\n      swap1\n      swap3\n      swap2\n      swap1\n      dup1\n      calldataload\n      swap1\n      0x20\n      add\n      swap1\n      swap3\n      swap2\n      swap1\n      pop\n      pop\n      pop\n      tag_38\n      jump\t// in\n    tag_36:\n      stop\n        /* \".deps/github/OpenZeppelin/openzeppelin-contracts/contracts/token/ERC721/ERC721.sol\":6475:6683  function totalSupply() public view virtual override returns (uint256) {... */\n    tag_7:\n      tag_39\n      tag_40\n      jump\t// in\n    tag_39:\n      mload(0x40)\n      dup1\n      dup3\n      dup2\n      mstore\n      0x20\n      add\n      swap2\n      pop\n      pop\n      mload(0x40)\n      dup1\n      swap2\n      sub\n      swap1\n      return\n        /* \".deps/github/OpenZeppelin/openzeppelin-contracts/contracts/token/ERC721/ERC721.sol\":8301:8655  function transferFrom(address from, address to, uint256 tokenId) public virtual override {... */\n    tag_8:\n      tag_41\n      0x04\n      dup1\n      calldatasize\n      sub\n      0x60\n      dup2\n      lt\n      iszero\n      tag_42\n      jumpi\n      0x00\n      dup1\n      revert\n    tag_42:\n      dup2\n      add\n      swap1\n      dup1\n      dup1\n      calldataload\n      0xffffffffffffffffffffffffffffffffffffffff\n      and\n      swap1\n      0x20\n      add\n      swap1\n      swap3\n      swap2\n      swap1\n      dup1\n      calldataload\n      0xffffffffffffffffffffffffffffffffffffffff\n      and\n      swap1\n      0x20\n      add\n      swap1\n      swap3\n      swap2\n      swap1\n      dup1\n      calldataload\n      swap1\n      0x20\n      add\n      swap1\n      swap3\n      swap2\n      swap1\n      pop\n      pop\n      pop\n      tag_43\n      jump\t// in\n    tag_41:\n      stop\n        /* \".deps/github/OpenZeppelin/openzeppelin-contracts/contracts/token/ERC721/ERC721.sol\":6244:6404  function tokenOfOwnerByIndex(address owner, uint256 index) public view virtual override returns (uint256) {... */\n    tag_9:\n      tag_44\n      0x04\n      dup1\n      calldatasize\n      sub\n      0x40\n      dup2\n      lt\n      iszero\n      tag_45\n      jumpi\n      0x00\n      dup1\n      revert\n    tag_45:\n      dup2\n      add\n      swap1\n      dup1\n      dup1\n      calldataload\n      0xffffffffffffffffffffffffffffffffffffffff\n      and\n      swap1\n      0x20\n      add\n      swap1\n      swap3\n      swap2\n      swap1\n      dup1\n      calldataload\n      swap1\n      0x20\n      add\n      swap1\n      swap3\n      swap2\n      swap1\n      pop\n      pop\n      pop\n      tag_46\n      jump\t// in\n    tag_44:\n      mload(0x40)\n      dup1\n      dup3\n      dup2\n      mstore\n      0x20\n      add\n      swap2\n      pop\n      pop\n      mload(0x40)\n      dup1\n      swap2\n      sub\n      swap1\n      return\n        /* \".deps/github/OpenZeppelin/openzeppelin-contracts/contracts/token/ERC721/ERC721.sol\":8721:8870  function safeTransferFrom(address from, address to, uint256 tokenId) public virtual override {... */\n    tag_10:\n      tag_47\n      0x04\n      dup1\n      calldatasize\n      sub\n      0x60\n      dup2\n      lt\n      iszero\n      tag_48\n      jumpi\n      0x00\n      dup1\n      revert\n    tag_48:\n      dup2\n      add\n      swap1\n      dup1\n      dup1\n      calldataload\n      0xffffffffffffffffffffffffffffffffffffffff\n      and\n      swap1\n      0x20\n      add\n      swap1\n      swap3\n      swap2\n      swap1\n      dup1\n      calldataload\n      0xffffffffffffffffffffffffffffffffffffffff\n      and\n      swap1\n      0x20\n      add\n      swap1\n      swap3\n      swap2\n      swap1\n      dup1\n      calldataload\n      swap1\n      0x20\n      add\n      swap1\n      swap3\n      swap2\n      swap1\n      pop\n      pop\n      pop\n      tag_49\n      jump\t// in\n    tag_47:\n      stop\n        /* \".deps/github/OpenZeppelin/openzeppelin-contracts/contracts/token/ERC721/ERC721.sol\":6755:6924  function tokenByIndex(uint256 index) public view virtual override returns (uint256) {... */\n    tag_11:\n      tag_50\n      0x04\n      dup1\n      calldatasize\n      sub\n      0x20\n      dup2\n      lt\n      iszero\n      tag_51\n      jumpi\n      0x00\n      dup1\n      revert\n    tag_51:\n      dup2\n      add\n      swap1\n      dup1\n      dup1\n      calldataload\n      swap1\n      0x20\n      add\n      swap1\n      swap3\n      swap2\n      swap1\n      pop\n      pop\n      pop\n      tag_52\n      jump\t// in\n    tag_50:\n      mload(0x40)\n      dup1\n      dup3\n      dup2\n      mstore\n      0x20\n      add\n      swap2\n      pop\n      pop\n      mload(0x40)\n      dup1\n      swap2\n      sub\n      swap1\n      return\n        /* \".deps/github/OpenZeppelin/openzeppelin-contracts/contracts/token/ERC721/ERC721.sol\":4495:4670  function ownerOf(uint256 tokenId) public view virtual override returns (address) {... */\n    tag_12:\n      tag_53\n      0x04\n      dup1\n      calldatasize\n      sub\n      0x20\n      dup2\n      lt\n      iszero\n      tag_54\n      jumpi\n      0x00\n      dup1\n      revert\n    tag_54:\n      dup2\n      add\n      swap1\n      dup1\n      dup1\n      calldataload\n      swap1\n      0x20\n      add\n      swap1\n      swap3\n      swap2\n      swap1\n      pop\n      pop\n      pop\n      tag_55\n      jump\t// in\n    tag_53:\n      mload(0x40)\n      dup1\n      dup3\n      0xffffffffffffffffffffffffffffffffffffffff\n      and\n      dup2\n      mstore\n      0x20\n      add\n      swap2\n      pop\n      pop\n      mload(0x40)\n      dup1\n      swap2\n      sub\n      swap1\n      return\n        /* \".deps/github/OpenZeppelin/openzeppelin-contracts/contracts/token/ERC721/ERC721.sol\":6070:6165  function baseURI() public view virtual returns (string memory) {... */\n    tag_13:\n      tag_56\n      tag_57\n      jump\t// in\n    tag_56:\n      mload(0x40)\n      dup1\n      dup1\n      0x20\n      add\n      dup3\n      dup2\n      sub\n      dup3\n      mstore\n      dup4\n      dup2\n      dup2\n      mload\n      dup2\n      mstore\n      0x20\n      add\n      swap2\n      pop\n      dup1\n      mload\n      swap1\n      0x20\n      add\n      swap1\n      dup1\n      dup4\n      dup4\n      0x00\n    tag_58:\n      dup4\n      dup2\n      lt\n      iszero\n      tag_60\n      jumpi\n      dup1\n      dup3\n      add\n      mload\n      dup2\n      dup5\n      add\n      mstore\n      0x20\n      dup2\n      add\n      swap1\n      pop\n      jump(tag_58)\n    tag_60:\n      pop\n      pop\n      pop\n      pop\n      swap1\n      pop\n      swap1\n      dup2\n      add\n      swap1\n      0x1f\n      and\n      dup1\n      iszero\n      tag_61\n      jumpi\n      dup1\n      dup3\n      sub\n      dup1\n      mload\n      0x01\n      dup4\n      0x20\n      sub\n      0x0100\n      exp\n      sub\n      not\n      and\n      dup2\n      mstore\n      0x20\n      add\n      swap2\n      pop\n    tag_61:\n      pop\n      swap3\n      pop\n      pop\n      pop\n      mload(0x40)\n      dup1\n      swap2\n      sub\n      swap1\n      return\n        /* \".deps/github/OpenZeppelin/openzeppelin-contracts/contracts/token/ERC721/ERC721.sol\":4220:4438  function balanceOf(address owner) public view virtual override returns (uint256) {... */\n    tag_14:\n      tag_62\n      0x04\n      dup1\n      calldatasize\n      sub\n      0x20\n      dup2\n      lt\n      iszero\n      tag_63\n      jumpi\n      0x00\n      dup1\n      revert\n    tag_63:\n      dup2\n      add\n      swap1\n      dup1\n      dup1\n      calldataload\n      0xffffffffffffffffffffffffffffffffffffffff\n      and\n      swap1\n      0x20\n      add\n      swap1\n      swap3\n      swap2\n      swap1\n      pop\n      pop\n      pop\n      tag_64\n      jump\t// in\n    tag_62:\n      mload(0x40)\n      dup1\n      dup3\n      dup2\n      mstore\n      0x20\n      add\n      swap2\n      pop\n      pop\n      mload(0x40)\n      dup1\n      swap2\n      sub\n      swap1\n      return\n        /* \".deps/github/OpenZeppelin/openzeppelin-contracts/contracts/token/ERC721/ERC721.sol\":4894:4996  function symbol() public view virtual override returns (string memory) {... */\n    tag_15:\n      tag_65\n      tag_66\n      jump\t// in\n    tag_65:\n      mload(0x40)\n      dup1\n      dup1\n      0x20\n      add\n      dup3\n      dup2\n      sub\n      dup3\n      mstore\n      dup4\n      dup2\n      dup2\n      mload\n      dup2\n      mstore\n      0x20\n      add\n      swap2\n      pop\n      dup1\n      mload\n      swap1\n      0x20\n      add\n      swap1\n      dup1\n      dup4\n      dup4\n      0x00\n    tag_67:\n      dup4\n      dup2\n      lt\n      iszero\n      tag_69\n      jumpi\n      dup1\n      dup3\n      add\n      mload\n      dup2\n      dup5\n      add\n      mstore\n      0x20\n      dup2\n      add\n      swap1\n      pop\n      jump(tag_67)\n    tag_69:\n      pop\n      pop\n      pop\n      pop\n      swap1\n      pop\n      swap1\n      dup2\n      add\n      swap1\n      0x1f\n      and\n      dup1\n      iszero\n      tag_70\n      jumpi\n      dup1\n      dup3\n      sub\n      dup1\n      mload\n      0x01\n      dup4\n      0x20\n      sub\n      0x0100\n      exp\n      sub\n      not\n      and\n      dup2\n      mstore\n      0x20\n      add\n      swap2\n      pop\n    tag_70:\n      pop\n      swap3\n      pop\n      pop\n      pop\n      mload(0x40)\n      dup1\n      swap2\n      sub\n      swap1\n      return\n        /* \".deps/github/OpenZeppelin/openzeppelin-contracts/contracts/token/ERC721/ERC721.sol\":7721:8011  function setApprovalForAll(address operator, bool approved) public virtual override {... */\n    tag_16:\n      tag_71\n      0x04\n      dup1\n      calldatasize\n      sub\n      0x40\n      dup2\n      lt\n      iszero\n      tag_72\n      jumpi\n      0x00\n      dup1\n      revert\n    tag_72:\n      dup2\n      add\n      swap1\n      dup1\n      dup1\n      calldataload\n      0xffffffffffffffffffffffffffffffffffffffff\n      and\n      swap1\n      0x20\n      add\n      swap1\n      swap3\n      swap2\n      swap1\n      dup1\n      calldataload\n      iszero\n      iszero\n      swap1\n      0x20\n      add\n      swap1\n      swap3\n      swap2\n      swap1\n      pop\n      pop\n      pop\n      tag_73\n      jump\t// in\n    tag_71:\n      stop\n        /* \".deps/github/OpenZeppelin/openzeppelin-contracts/contracts/token/ERC721/ERC721.sol\":8936:9218  function safeTransferFrom(address from, address to, uint256 tokenId, bytes memory _data) public virtual override {... */\n    tag_17:\n      tag_74\n      0x04\n      dup1\n      calldatasize\n      sub\n      0x80\n      dup2\n      lt\n      iszero\n      tag_75\n      jumpi\n      0x00\n      dup1\n      revert\n    tag_75:\n      dup2\n      add\n      swap1\n      dup1\n      dup1\n      calldataload\n      0xffffffffffffffffffffffffffffffffffffffff\n      and\n      swap1\n      0x20\n      add\n      swap1\n      swap3\n      swap2\n      swap1\n      dup1\n      calldataload\n      0xffffffffffffffffffffffffffffffffffffffff\n      and\n      swap1\n      0x20\n      add\n      swap1\n      swap3\n      swap2\n      swap1\n      dup1\n      calldataload\n      swap1\n      0x20\n      add\n      swap1\n      swap3\n      swap2\n      swap1\n      dup1\n      calldataload\n      swap1\n      0x20\n      add\n      swap1\n      0x0100000000\n      dup2\n      gt\n      iszero\n      tag_76\n      jumpi\n      0x00\n      dup1\n      revert\n    tag_76:\n      dup3\n      add\n      dup4\n      0x20\n      dup3\n      add\n      gt\n      iszero\n      tag_77\n      jumpi\n      0x00\n      dup1\n      revert\n    tag_77:\n      dup1\n      calldataload\n      swap1\n      0x20\n      add\n      swap2\n      dup5\n      0x01\n      dup4\n      mul\n      dup5\n      add\n      gt\n      0x0100000000\n      dup4\n      gt\n      or\n      iszero\n      tag_78\n      jumpi\n      0x00\n      dup1\n      revert\n    tag_78:\n      swap2\n      swap1\n      dup1\n      dup1\n      0x1f\n      add\n      0x20\n      dup1\n      swap2\n      div\n      mul\n      0x20\n      add\n      mload(0x40)\n      swap1\n      dup2\n      add\n      0x40\n      mstore\n      dup1\n      swap4\n      swap3\n      swap2\n      swap1\n      dup2\n      dup2\n      mstore\n      0x20\n      add\n      dup4\n      dup4\n      dup1\n      dup3\n      dup5\n      calldatacopy\n      0x00\n      dup2\n      dup5\n      add\n      mstore\n      not(0x1f)\n      0x1f\n      dup3\n      add\n      and\n      swap1\n      pop\n      dup1\n      dup4\n      add\n      swap3\n      pop\n      pop\n      pop\n      pop\n      pop\n      pop\n      pop\n      swap2\n      swap3\n      swap2\n      swap3\n      swap1\n      pop\n      pop\n      pop\n      tag_79\n      jump\t// in\n    tag_74:\n      stop\n        /* \".deps/github/OpenZeppelin/openzeppelin-contracts/contracts/token/ERC721/ERC721.sol\":5062:5838  function tokenURI(uint256 tokenId) public view virtual override returns (string memory) {... */\n    tag_18:\n      tag_80\n      0x04\n      dup1\n      calldatasize\n      sub\n      0x20\n      dup2\n      lt\n      iszero\n      tag_81\n      jumpi\n      0x00\n      dup1\n      revert\n    tag_81:\n      dup2\n      add\n      swap1\n      dup1\n      dup1\n      calldataload\n      swap1\n      0x20\n      add\n      swap1\n      swap3\n      swap2\n      swap1\n      pop\n      pop\n      pop\n      tag_82\n      jump\t// in\n    tag_80:\n      mload(0x40)\n      dup1\n      dup1\n      0x20\n      add\n      dup3\n      dup2\n      sub\n      dup3\n      mstore\n      dup4\n      dup2\n      dup2\n      mload\n      dup2\n      mstore\n      0x20\n      add\n      swap2\n      pop\n      dup1\n      mload\n      swap1\n      0x20\n      add\n      swap1\n      dup1\n      dup4\n      dup4\n      0x00\n    tag_83:\n      dup4\n      dup2\n      lt\n      iszero\n      tag_85\n      jumpi\n      dup1\n      dup3\n      add\n      mload\n      dup2\n      dup5\n      add\n      mstore\n      0x20\n      dup2\n      add\n      swap1\n      pop\n      jump(tag_83)\n    tag_85:\n      pop\n      pop\n      pop\n      pop\n      swap1\n      pop\n      swap1\n      dup2\n      add\n      swap1\n      0x1f\n      and\n      dup1\n      iszero\n      tag_86\n      jumpi\n      dup1\n      dup3\n      sub\n      dup1\n      mload\n      0x01\n      dup4\n      0x20\n      sub\n      0x0100\n      exp\n      sub\n      not\n      and\n      dup2\n      mstore\n      0x20\n      add\n      swap2\n      pop\n    tag_86:\n      pop\n      swap3\n      pop\n      pop\n      pop\n      mload(0x40)\n      dup1\n      swap2\n      sub\n      swap1\n      return\n        /* \".deps/github/OpenZeppelin/openzeppelin-contracts/contracts/token/ERC721/ERC721.sol\":4019:4162  function lockOrUnlock()public view virtual{... */\n    tag_19:\n      tag_87\n      tag_88\n      jump\t// in\n    tag_87:\n      stop\n        /* \".deps/github/OpenZeppelin/openzeppelin-contracts/contracts/token/ERC721/ERC721.sol\":8077:8239  function isApprovedForAll(address owner, address operator) public view virtual override returns (bool) {... */\n    tag_20:\n      tag_89\n      0x04\n      dup1\n      calldatasize\n      sub\n      0x40\n      dup2\n      lt\n      iszero\n      tag_90\n      jumpi\n      0x00\n      dup1\n      revert\n    tag_90:\n      dup2\n      add\n      swap1\n      dup1\n      dup1\n      calldataload\n      0xffffffffffffffffffffffffffffffffffffffff\n      and\n      swap1\n      0x20\n      add\n      swap1\n      swap3\n      swap2\n      swap1\n      dup1\n      calldataload\n      0xffffffffffffffffffffffffffffffffffffffff\n      and\n      swap1\n      0x20\n      add\n      swap1\n      swap3\n      swap2\n      swap1\n      pop\n      pop\n      pop\n      tag_91\n      jump\t// in\n    tag_89:\n      mload(0x40)\n      dup1\n      dup3\n      iszero\n      iszero\n      dup2\n      mstore\n      0x20\n      add\n      swap2\n      pop\n      pop\n      mload(0x40)\n      dup1\n      swap2\n      sub\n      swap1\n      return\n        /* \".deps/github/OpenZeppelin/openzeppelin-contracts/contracts/introspection/ERC165.sol\":965:1113  function supportsInterface(bytes4 interfaceId) public view virtual override returns (bool) {... */\n    tag_26:\n        /* \".deps/github/OpenZeppelin/openzeppelin-contracts/contracts/introspection/ERC165.sol\":1050:1054  bool */\n      0x00\n        /* \".deps/github/OpenZeppelin/openzeppelin-contracts/contracts/introspection/ERC165.sol\":1073:1093  _supportedInterfaces */\n      dup1\n        /* \".deps/github/OpenZeppelin/openzeppelin-contracts/contracts/introspection/ERC165.sol\":1073:1106  _supportedInterfaces[interfaceId] */\n      0x00\n        /* \".deps/github/OpenZeppelin/openzeppelin-contracts/contracts/introspection/ERC165.sol\":1094:1105  interfaceId */\n      dup4\n        /* \".deps/github/OpenZeppelin/openzeppelin-contracts/contracts/introspection/ERC165.sol\":1073:1106  _supportedInterfaces[interfaceId] */\n      not(0xffffffffffffffffffffffffffffffffffffffffffffffffffffffff)\n      and\n      not(0xffffffffffffffffffffffffffffffffffffffffffffffffffffffff)\n      and\n      dup2\n      mstore\n      0x20\n      add\n      swap1\n      dup2\n      mstore\n      0x20\n      add\n      0x00\n      keccak256\n      0x00\n      swap1\n      sload\n      swap1\n      0x0100\n      exp\n      swap1\n      div\n      0xff\n      and\n        /* \".deps/github/OpenZeppelin/openzeppelin-contracts/contracts/introspection/ERC165.sol\":1066:1106  return _supportedInterfaces[interfaceId] */\n      swap1\n      pop\n        /* \".deps/github/OpenZeppelin/openzeppelin-contracts/contracts/introspection/ERC165.sol\":965:1113  function supportsInterface(bytes4 interfaceId) public view virtual override returns (bool) {... */\n      swap2\n      swap1\n      pop\n      jump\t// out\n        /* \".deps/github/OpenZeppelin/openzeppelin-contracts/contracts/token/ERC721/ERC721.sol\":4732:4830  function name() public view virtual override returns (string memory) {... */\n    tag_28:\n        /* \".deps/github/OpenZeppelin/openzeppelin-contracts/contracts/token/ERC721/ERC721.sol\":4786:4799  string memory */\n      0x60\n        /* \".deps/github/OpenZeppelin/openzeppelin-contracts/contracts/token/ERC721/ERC721.sol\":4818:4823  _name */\n      0x06\n        /* \".deps/github/OpenZeppelin/openzeppelin-contracts/contracts/token/ERC721/ERC721.sol\":4811:4823  return _name */\n      dup1\n      sload\n      0x01\n      dup2\n      0x01\n      and\n      iszero\n      0x0100\n      mul\n      sub\n      and\n      0x02\n      swap1\n      div\n      dup1\n      0x1f\n      add\n      0x20\n      dup1\n      swap2\n      div\n      mul\n      0x20\n      add\n      mload(0x40)\n      swap1\n      dup2\n      add\n      0x40\n      mstore\n      dup1\n      swap3\n      swap2\n      swap1\n      dup2\n      dup2\n      mstore\n      0x20\n      add\n      dup3\n      dup1\n      sload\n      0x01\n      dup2\n      0x01\n      and\n      iszero\n      0x0100\n      mul\n      sub\n      and\n      0x02\n      swap1\n      div\n      dup1\n      iszero\n      tag_94\n      jumpi\n      dup1\n      0x1f\n      lt\n      tag_95\n      jumpi\n      0x0100\n      dup1\n      dup4\n      sload\n      div\n      mul\n      dup4\n      mstore\n      swap2\n      0x20\n      add\n      swap2\n      jump(tag_94)\n    tag_95:\n      dup3\n      add\n      swap2\n      swap1\n      0x00\n      mstore\n      keccak256(0x00, 0x20)\n      swap1\n    tag_96:\n      dup2\n      sload\n      dup2\n      mstore\n      swap1\n      0x01\n      add\n      swap1\n      0x20\n      add\n      dup1\n      dup4\n      gt\n      tag_96\n      jumpi\n      dup3\n      swap1\n      sub\n      0x1f\n      and\n      dup3\n      add\n      swap2\n    tag_94:\n      pop\n      pop\n      pop\n      pop\n      pop\n      swap1\n      pop\n        /* \".deps/github/OpenZeppelin/openzeppelin-contracts/contracts/token/ERC721/ERC721.sol\":4732:4830  function name() public view virtual override returns (string memory) {... */\n      swap1\n      jump\t// out\n        /* \".deps/github/OpenZeppelin/openzeppelin-contracts/contracts/token/ERC721/ERC721.sol\":7437:7654  function getApproved(uint256 tokenId) public view virtual override returns (address) {... */\n    tag_35:\n        /* \".deps/github/OpenZeppelin/openzeppelin-contracts/contracts/token/ERC721/ERC721.sol\":7513:7520  address */\n      0x00\n        /* \".deps/github/OpenZeppelin/openzeppelin-contracts/contracts/token/ERC721/ERC721.sol\":7540:7556  _exists(tokenId) */\n      tag_98\n        /* \".deps/github/OpenZeppelin/openzeppelin-contracts/contracts/token/ERC721/ERC721.sol\":7548:7555  tokenId */\n      dup3\n        /* \".deps/github/OpenZeppelin/openzeppelin-contracts/contracts/token/ERC721/ERC721.sol\":7540:7547  _exists */\n      tag_99\n        /* \".deps/github/OpenZeppelin/openzeppelin-contracts/contracts/token/ERC721/ERC721.sol\":7540:7556  _exists(tokenId) */\n      jump\t// in\n    tag_98:\n        /* \".deps/github/OpenZeppelin/openzeppelin-contracts/contracts/token/ERC721/ERC721.sol\":7532:7605  require(_exists(tokenId), \"ERC721: approved query for nonexistent token\") */\n      tag_100\n      jumpi\n      mload(0x40)\n      0x08c379a000000000000000000000000000000000000000000000000000000000\n      dup2\n      mstore\n      0x04\n      add\n      dup1\n      dup1\n      0x20\n      add\n      dup3\n      dup2\n      sub\n      dup3\n      mstore\n      0x2c\n      dup2\n      mstore\n      0x20\n      add\n      dup1\n      data_9291e0f44949204f2e9b40e6be090924979d6047b2365868f4e9f027722eb89d\n      0x2c\n      swap2\n      codecopy\n      0x40\n      add\n      swap2\n      pop\n      pop\n      mload(0x40)\n      dup1\n      swap2\n      sub\n      swap1\n      revert\n    tag_100:\n        /* \".deps/github/OpenZeppelin/openzeppelin-contracts/contracts/token/ERC721/ERC721.sol\":7623:7638  _tokenApprovals */\n      0x04\n        /* \".deps/github/OpenZeppelin/openzeppelin-contracts/contracts/token/ERC721/ERC721.sol\":7623:7647  _tokenApprovals[tokenId] */\n      0x00\n        /* \".deps/github/OpenZeppelin/openzeppelin-contracts/contracts/token/ERC721/ERC721.sol\":7639:7646  tokenId */\n      dup4\n        /* \".deps/github/OpenZeppelin/openzeppelin-contracts/contracts/token/ERC721/ERC721.sol\":7623:7647  _tokenApprovals[tokenId] */\n      dup2\n      mstore\n      0x20\n      add\n      swap1\n      dup2\n      mstore\n      0x20\n      add\n      0x00\n      keccak256\n      0x00\n      swap1\n      sload\n      swap1\n      0x0100\n      exp\n      swap1\n      div\n      0xffffffffffffffffffffffffffffffffffffffff\n      and\n        /* \".deps/github/OpenZeppelin/openzeppelin-contracts/contracts/token/ERC721/ERC721.sol\":7616:7647  return _tokenApprovals[tokenId] */\n      swap1\n      pop\n        /* \".deps/github/OpenZeppelin/openzeppelin-contracts/contracts/token/ERC721/ERC721.sol\":7437:7654  function getApproved(uint256 tokenId) public view virtual override returns (address) {... */\n      swap2\n      swap1\n      pop\n      jump\t// out\n        /* \".deps/github/OpenZeppelin/openzeppelin-contracts/contracts/token/ERC721/ERC721.sol\":6981:7376  function approve(address to, uint256 tokenId) public virtual override {... */\n    tag_38:\n        /* \".deps/github/OpenZeppelin/openzeppelin-contracts/contracts/token/ERC721/ERC721.sol\":7061:7074  address owner */\n      0x00\n        /* \".deps/github/OpenZeppelin/openzeppelin-contracts/contracts/token/ERC721/ERC721.sol\":7077:7100  ERC721.ownerOf(tokenId) */\n      tag_102\n        /* \".deps/github/OpenZeppelin/openzeppelin-contracts/contracts/token/ERC721/ERC721.sol\":7092:7099  tokenId */\n      dup3\n        /* \".deps/github/OpenZeppelin/openzeppelin-contracts/contracts/token/ERC721/ERC721.sol\":7077:7091  ERC721.ownerOf */\n      tag_55\n        /* \".deps/github/OpenZeppelin/openzeppelin-contracts/contracts/token/ERC721/ERC721.sol\":7077:7100  ERC721.ownerOf(tokenId) */\n      jump\t// in\n    tag_102:\n        /* \".deps/github/OpenZeppelin/openzeppelin-contracts/contracts/token/ERC721/ERC721.sol\":7061:7100  address owner = ERC721.ownerOf(tokenId) */\n      swap1\n      pop\n        /* \".deps/github/OpenZeppelin/openzeppelin-contracts/contracts/token/ERC721/ERC721.sol\":7124:7129  owner */\n      dup1\n        /* \".deps/github/OpenZeppelin/openzeppelin-contracts/contracts/token/ERC721/ERC721.sol\":7118:7129  to != owner */\n      0xffffffffffffffffffffffffffffffffffffffff\n      and\n        /* \".deps/github/OpenZeppelin/openzeppelin-contracts/contracts/token/ERC721/ERC721.sol\":7118:7120  to */\n      dup4\n        /* \".deps/github/OpenZeppelin/openzeppelin-contracts/contracts/token/ERC721/ERC721.sol\":7118:7129  to != owner */\n      0xffffffffffffffffffffffffffffffffffffffff\n      and\n      eq\n      iszero\n        /* \".deps/github/OpenZeppelin/openzeppelin-contracts/contracts/token/ERC721/ERC721.sol\":7110:7167  require(to != owner, \"ERC721: approval to current owner\") */\n      tag_103\n      jumpi\n      mload(0x40)\n      0x08c379a000000000000000000000000000000000000000000000000000000000\n      dup2\n      mstore\n      0x04\n      add\n      dup1\n      dup1\n      0x20\n      add\n      dup3\n      dup2\n      sub\n      dup3\n      mstore\n      0x21\n      dup2\n      mstore\n      0x20\n      add\n      dup1\n      data_b51b4875eede07862961e8f9365c6749f5fe55c6ee5d7a9e42b6912ad0b15942\n      0x21\n      swap2\n      codecopy\n      0x40\n      add\n      swap2\n      pop\n      pop\n      mload(0x40)\n      dup1\n      swap2\n      sub\n      swap1\n      revert\n    tag_103:\n        /* \".deps/github/OpenZeppelin/openzeppelin-contracts/contracts/token/ERC721/ERC721.sol\":7202:7207  owner */\n      dup1\n        /* \".deps/github/OpenZeppelin/openzeppelin-contracts/contracts/token/ERC721/ERC721.sol\":7186:7207  _msgSender() == owner */\n      0xffffffffffffffffffffffffffffffffffffffff\n      and\n        /* \".deps/github/OpenZeppelin/openzeppelin-contracts/contracts/token/ERC721/ERC721.sol\":7186:7198  _msgSender() */\n      tag_104\n        /* \".deps/github/OpenZeppelin/openzeppelin-contracts/contracts/token/ERC721/ERC721.sol\":7186:7196  _msgSender */\n      tag_105\n        /* \".deps/github/OpenZeppelin/openzeppelin-contracts/contracts/token/ERC721/ERC721.sol\":7186:7198  _msgSender() */\n      jump\t// in\n    tag_104:\n        /* \".deps/github/OpenZeppelin/openzeppelin-contracts/contracts/token/ERC721/ERC721.sol\":7186:7207  _msgSender() == owner */\n      0xffffffffffffffffffffffffffffffffffffffff\n      and\n      eq\n        /* \".deps/github/OpenZeppelin/openzeppelin-contracts/contracts/token/ERC721/ERC721.sol\":7186:7255  _msgSender() == owner || ERC721.isApprovedForAll(owner, _msgSender()) */\n      dup1\n      tag_106\n      jumpi\n      pop\n        /* \".deps/github/OpenZeppelin/openzeppelin-contracts/contracts/token/ERC721/ERC721.sol\":7211:7255  ERC721.isApprovedForAll(owner, _msgSender()) */\n      tag_107\n        /* \".deps/github/OpenZeppelin/openzeppelin-contracts/contracts/token/ERC721/ERC721.sol\":7235:7240  owner */\n      dup2\n        /* \".deps/github/OpenZeppelin/openzeppelin-contracts/contracts/token/ERC721/ERC721.sol\":7242:7254  _msgSender() */\n      tag_108\n        /* \".deps/github/OpenZeppelin/openzeppelin-contracts/contracts/token/ERC721/ERC721.sol\":7242:7252  _msgSender */\n      tag_105\n        /* \".deps/github/OpenZeppelin/openzeppelin-contracts/contracts/token/ERC721/ERC721.sol\":7242:7254  _msgSender() */\n      jump\t// in\n    tag_108:\n        /* \".deps/github/OpenZeppelin/openzeppelin-contracts/contracts/token/ERC721/ERC721.sol\":7211:7234  ERC721.isApprovedForAll */\n      tag_91\n        /* \".deps/github/OpenZeppelin/openzeppelin-contracts/contracts/token/ERC721/ERC721.sol\":7211:7255  ERC721.isApprovedForAll(owner, _msgSender()) */\n      jump\t// in\n    tag_107:\n        /* \".deps/github/OpenZeppelin/openzeppelin-contracts/contracts/token/ERC721/ERC721.sol\":7186:7255  _msgSender() == owner || ERC721.isApprovedForAll(owner, _msgSender()) */\n    tag_106:\n        /* \".deps/github/OpenZeppelin/openzeppelin-contracts/contracts/token/ERC721/ERC721.sol\":7178:7337  require(_msgSender() == owner || ERC721.isApprovedForAll(owner, _msgSender()),... */\n      tag_109\n      jumpi\n      mload(0x40)\n      0x08c379a000000000000000000000000000000000000000000000000000000000\n      dup2\n      mstore\n      0x04\n      add\n      dup1\n      dup1\n      0x20\n      add\n      dup3\n      dup2\n      sub\n      dup3\n      mstore\n      0x38\n      dup2\n      mstore\n      0x20\n      add\n      dup1\n      data_6d83cef3e0cb19b8320a9c5feb26b56bbb08f152a8e61b12eca3302d8d68b23d\n      0x38\n      swap2\n      codecopy\n      0x40\n      add\n      swap2\n      pop\n      pop\n      mload(0x40)\n      dup1\n      swap2\n      sub\n      swap1\n      revert\n    tag_109:\n        /* \".deps/github/OpenZeppelin/openzeppelin-contracts/contracts/token/ERC721/ERC721.sol\":7348:7369  _approve(to, tokenId) */\n      tag_110\n        /* \".deps/github/OpenZeppelin/openzeppelin-contracts/contracts/token/ERC721/ERC721.sol\":7357:7359  to */\n      dup4\n        /* \".deps/github/OpenZeppelin/openzeppelin-contracts/contracts/token/ERC721/ERC721.sol\":7361:7368  tokenId */\n      dup4\n        /* \".deps/github/OpenZeppelin/openzeppelin-contracts/contracts/token/ERC721/ERC721.sol\":7348:7356  _approve */\n      tag_111\n        /* \".deps/github/OpenZeppelin/openzeppelin-contracts/contracts/token/ERC721/ERC721.sol\":7348:7369  _approve(to, tokenId) */\n      jump\t// in\n    tag_110:\n        /* \".deps/github/OpenZeppelin/openzeppelin-contracts/contracts/token/ERC721/ERC721.sol\":6981:7376  function approve(address to, uint256 tokenId) public virtual override {... */\n      pop\n      pop\n      pop\n      jump\t// out\n        /* \".deps/github/OpenZeppelin/openzeppelin-contracts/contracts/token/ERC721/ERC721.sol\":6475:6683  function totalSupply() public view virtual override returns (uint256) {... */\n    tag_40:\n        /* \".deps/github/OpenZeppelin/openzeppelin-contracts/contracts/token/ERC721/ERC721.sol\":6536:6543  uint256 */\n      0x00\n        /* \".deps/github/OpenZeppelin/openzeppelin-contracts/contracts/token/ERC721/ERC721.sol\":6655:6676  _tokenOwners.length() */\n      tag_113\n        /* \".deps/github/OpenZeppelin/openzeppelin-contracts/contracts/token/ERC721/ERC721.sol\":6655:6667  _tokenOwners */\n      0x02\n        /* \".deps/github/OpenZeppelin/openzeppelin-contracts/contracts/token/ERC721/ERC721.sol\":6655:6674  _tokenOwners.length */\n      tag_114\n        /* \".deps/github/OpenZeppelin/openzeppelin-contracts/contracts/token/ERC721/ERC721.sol\":6655:6676  _tokenOwners.length() */\n      jump\t// in\n    tag_113:\n        /* \".deps/github/OpenZeppelin/openzeppelin-contracts/contracts/token/ERC721/ERC721.sol\":6648:6676  return _tokenOwners.length() */\n      swap1\n      pop\n        /* \".deps/github/OpenZeppelin/openzeppelin-contracts/contracts/token/ERC721/ERC721.sol\":6475:6683  function totalSupply() public view virtual override returns (uint256) {... */\n      swap1\n      jump\t// out\n        /* \".deps/github/OpenZeppelin/openzeppelin-contracts/contracts/token/ERC721/ERC721.sol\":8301:8655  function transferFrom(address from, address to, uint256 tokenId) public virtual override {... */\n    tag_43:\n        /* \".deps/github/OpenZeppelin/openzeppelin-contracts/contracts/token/ERC721/ERC721.sol\":8460:8501  _isApprovedOrOwner(_msgSender(), tokenId) */\n      tag_116\n        /* \".deps/github/OpenZeppelin/openzeppelin-contracts/contracts/token/ERC721/ERC721.sol\":8479:8491  _msgSender() */\n      tag_117\n        /* \".deps/github/OpenZeppelin/openzeppelin-contracts/contracts/token/ERC721/ERC721.sol\":8479:8489  _msgSender */\n      tag_105\n        /* \".deps/github/OpenZeppelin/openzeppelin-contracts/contracts/token/ERC721/ERC721.sol\":8479:8491  _msgSender() */\n      jump\t// in\n    tag_117:\n        /* \".deps/github/OpenZeppelin/openzeppelin-contracts/contracts/token/ERC721/ERC721.sol\":8493:8500  tokenId */\n      dup3\n        /* \".deps/github/OpenZeppelin/openzeppelin-contracts/contracts/token/ERC721/ERC721.sol\":8460:8478  _isApprovedOrOwner */\n      tag_118\n        /* \".deps/github/OpenZeppelin/openzeppelin-contracts/contracts/token/ERC721/ERC721.sol\":8460:8501  _isApprovedOrOwner(_msgSender(), tokenId) */\n      jump\t// in\n    tag_116:\n        /* \".deps/github/OpenZeppelin/openzeppelin-contracts/contracts/token/ERC721/ERC721.sol\":8452:8555  require(_isApprovedOrOwner(_msgSender(), tokenId), \"ERC721: transfer caller is not owner nor approved\") */\n      tag_119\n      jumpi\n      mload(0x40)\n      0x08c379a000000000000000000000000000000000000000000000000000000000\n      dup2\n      mstore\n      0x04\n      add\n      dup1\n      dup1\n      0x20\n      add\n      dup3\n      dup2\n      sub\n      dup3\n      mstore\n      0x31\n      dup2\n      mstore\n      0x20\n      add\n      dup1\n      data_c8682f3ad98807db59a6ec6bb812b72fed0a66e3150fa8239699ee83885247f2\n      0x31\n      swap2\n      codecopy\n      0x40\n      add\n      swap2\n      pop\n      pop\n      mload(0x40)\n      dup1\n      swap2\n      sub\n      swap1\n      revert\n    tag_119:\n        /* \".deps/github/OpenZeppelin/openzeppelin-contracts/contracts/token/ERC721/ERC721.sol\":8584:8589  false */\n      0x00\n        /* \".deps/github/OpenZeppelin/openzeppelin-contracts/contracts/token/ERC721/ERC721.sol\":8573:8589  _locked == false */\n      iszero\n      iszero\n        /* \".deps/github/OpenZeppelin/openzeppelin-contracts/contracts/token/ERC721/ERC721.sol\":8573:8580  _locked */\n      0x0a\n      0x00\n      swap1\n      sload\n      swap1\n      0x0100\n      exp\n      swap1\n      div\n      0xff\n      and\n        /* \".deps/github/OpenZeppelin/openzeppelin-contracts/contracts/token/ERC721/ERC721.sol\":8573:8589  _locked == false */\n      iszero\n      iszero\n      eq\n        /* \".deps/github/OpenZeppelin/openzeppelin-contracts/contracts/token/ERC721/ERC721.sol\":8565:8610  require(_locked == false, \"Token is locked!\") */\n      tag_120\n      jumpi\n      mload(0x40)\n      0x08c379a000000000000000000000000000000000000000000000000000000000\n      dup2\n      mstore\n      0x04\n      add\n      dup1\n      dup1\n      0x20\n      add\n      dup3\n      dup2\n      sub\n      dup3\n      mstore\n      0x10\n      dup2\n      mstore\n      0x20\n      add\n      dup1\n      0x546f6b656e206973206c6f636b65642100000000000000000000000000000000\n      dup2\n      mstore\n      pop\n      0x20\n      add\n      swap2\n      pop\n      pop\n      mload(0x40)\n      dup1\n      swap2\n      sub\n      swap1\n      revert\n    tag_120:\n        /* \".deps/github/OpenZeppelin/openzeppelin-contracts/contracts/token/ERC721/ERC721.sol\":8620:8648  _transfer(from, to, tokenId) */\n      tag_121\n        /* \".deps/github/OpenZeppelin/openzeppelin-contracts/contracts/token/ERC721/ERC721.sol\":8630:8634  from */\n      dup4\n        /* \".deps/github/OpenZeppelin/openzeppelin-contracts/contracts/token/ERC721/ERC721.sol\":8636:8638  to */\n      dup4\n        /* \".deps/github/OpenZeppelin/openzeppelin-contracts/contracts/token/ERC721/ERC721.sol\":8640:8647  tokenId */\n      dup4\n        /* \".deps/github/OpenZeppelin/openzeppelin-contracts/contracts/token/ERC721/ERC721.sol\":8620:8629  _transfer */\n      tag_122\n        /* \".deps/github/OpenZeppelin/openzeppelin-contracts/contracts/token/ERC721/ERC721.sol\":8620:8648  _transfer(from, to, tokenId) */\n      jump\t// in\n    tag_121:\n        /* \".deps/github/OpenZeppelin/openzeppelin-contracts/contracts/token/ERC721/ERC721.sol\":8301:8655  function transferFrom(address from, address to, uint256 tokenId) public virtual override {... */\n      pop\n      pop\n      pop\n      jump\t// out\n        /* \".deps/github/OpenZeppelin/openzeppelin-contracts/contracts/token/ERC721/ERC721.sol\":6244:6404  function tokenOfOwnerByIndex(address owner, uint256 index) public view virtual override returns (uint256) {... */\n    tag_46:\n        /* \".deps/github/OpenZeppelin/openzeppelin-contracts/contracts/token/ERC721/ERC721.sol\":6341:6348  uint256 */\n      0x00\n        /* \".deps/github/OpenZeppelin/openzeppelin-contracts/contracts/token/ERC721/ERC721.sol\":6367:6397  _holderTokens[owner].at(index) */\n      tag_124\n        /* \".deps/github/OpenZeppelin/openzeppelin-contracts/contracts/token/ERC721/ERC721.sol\":6391:6396  index */\n      dup3\n        /* \".deps/github/OpenZeppelin/openzeppelin-contracts/contracts/token/ERC721/ERC721.sol\":6367:6380  _holderTokens */\n      0x01\n        /* \".deps/github/OpenZeppelin/openzeppelin-contracts/contracts/token/ERC721/ERC721.sol\":6367:6387  _holderTokens[owner] */\n      0x00\n        /* \".deps/github/OpenZeppelin/openzeppelin-contracts/contracts/token/ERC721/ERC721.sol\":6381:6386  owner */\n      dup7\n        /* \".deps/github/OpenZeppelin/openzeppelin-contracts/contracts/token/ERC721/ERC721.sol\":6367:6387  _holderTokens[owner] */\n      0xffffffffffffffffffffffffffffffffffffffff\n      and\n      0xffffffffffffffffffffffffffffffffffffffff\n      and\n      dup2\n      mstore\n      0x20\n      add\n      swap1\n      dup2\n      mstore\n      0x20\n      add\n      0x00\n      keccak256\n        /* \".deps/github/OpenZeppelin/openzeppelin-contracts/contracts/token/ERC721/ERC721.sol\":6367:6390  _holderTokens[owner].at */\n      tag_125\n      swap1\n        /* \".deps/github/OpenZeppelin/openzeppelin-contracts/contracts/token/ERC721/ERC721.sol\":6367:6397  _holderTokens[owner].at(index) */\n      swap2\n      swap1\n      0xffffffff\n      and\n      jump\t// in\n    tag_124:\n        /* \".deps/github/OpenZeppelin/openzeppelin-contracts/contracts/token/ERC721/ERC721.sol\":6360:6397  return _holderTokens[owner].at(index) */\n      swap1\n      pop\n        /* \".deps/github/OpenZeppelin/openzeppelin-contracts/contracts/token/ERC721/ERC721.sol\":6244:6404  function tokenOfOwnerByIndex(address owner, uint256 index) public view virtual override returns (uint256) {... */\n      swap3\n      swap2\n      pop\n      pop\n      jump\t// out\n        /* \".deps/github/OpenZeppelin/openzeppelin-contracts/contracts/token/ERC721/ERC721.sol\":8721:8870  function safeTransferFrom(address from, address to, uint256 tokenId) public virtual override {... */\n    tag_49:\n        /* \".deps/github/OpenZeppelin/openzeppelin-contracts/contracts/token/ERC721/ERC721.sol\":8824:8863  safeTransferFrom(from, to, tokenId, \"\") */\n      tag_127\n        /* \".deps/github/OpenZeppelin/openzeppelin-contracts/contracts/token/ERC721/ERC721.sol\":8841:8845  from */\n      dup4\n        /* \".deps/github/OpenZeppelin/openzeppelin-contracts/contracts/token/ERC721/ERC721.sol\":8847:8849  to */\n      dup4\n        /* \".deps/github/OpenZeppelin/openzeppelin-contracts/contracts/token/ERC721/ERC721.sol\":8851:8858  tokenId */\n      dup4\n        /* \".deps/github/OpenZeppelin/openzeppelin-contracts/contracts/token/ERC721/ERC721.sol\":8824:8863  safeTransferFrom(from, to, tokenId, \"\") */\n      mload(0x40)\n      dup1\n      0x20\n      add\n      0x40\n      mstore\n      dup1\n      0x00\n      dup2\n      mstore\n      pop\n        /* \".deps/github/OpenZeppelin/openzeppelin-contracts/contracts/token/ERC721/ERC721.sol\":8824:8840  safeTransferFrom */\n      tag_79\n        /* \".deps/github/OpenZeppelin/openzeppelin-contracts/contracts/token/ERC721/ERC721.sol\":8824:8863  safeTransferFrom(from, to, tokenId, \"\") */\n      jump\t// in\n    tag_127:\n        /* \".deps/github/OpenZeppelin/openzeppelin-contracts/contracts/token/ERC721/ERC721.sol\":8721:8870  function safeTransferFrom(address from, address to, uint256 tokenId) public virtual override {... */\n      pop\n      pop\n      pop\n      jump\t// out\n        /* \".deps/github/OpenZeppelin/openzeppelin-contracts/contracts/token/ERC721/ERC721.sol\":6755:6924  function tokenByIndex(uint256 index) public view virtual override returns (uint256) {... */\n    tag_52:\n        /* \".deps/github/OpenZeppelin/openzeppelin-contracts/contracts/token/ERC721/ERC721.sol\":6830:6837  uint256 */\n      0x00\n        /* \".deps/github/OpenZeppelin/openzeppelin-contracts/contracts/token/ERC721/ERC721.sol\":6850:6865  uint256 tokenId */\n      dup1\n        /* \".deps/github/OpenZeppelin/openzeppelin-contracts/contracts/token/ERC721/ERC721.sol\":6871:6893  _tokenOwners.at(index) */\n      tag_129\n        /* \".deps/github/OpenZeppelin/openzeppelin-contracts/contracts/token/ERC721/ERC721.sol\":6887:6892  index */\n      dup4\n        /* \".deps/github/OpenZeppelin/openzeppelin-contracts/contracts/token/ERC721/ERC721.sol\":6871:6883  _tokenOwners */\n      0x02\n        /* \".deps/github/OpenZeppelin/openzeppelin-contracts/contracts/token/ERC721/ERC721.sol\":6871:6886  _tokenOwners.at */\n      tag_130\n      swap1\n        /* \".deps/github/OpenZeppelin/openzeppelin-contracts/contracts/token/ERC721/ERC721.sol\":6871:6893  _tokenOwners.at(index) */\n      swap2\n      swap1\n      0xffffffff\n      and\n      jump\t// in\n    tag_129:\n        /* \".deps/github/OpenZeppelin/openzeppelin-contracts/contracts/token/ERC721/ERC721.sol\":6849:6893  (uint256 tokenId, ) = _tokenOwners.at(index) */\n      pop\n      swap1\n      pop\n        /* \".deps/github/OpenZeppelin/openzeppelin-contracts/contracts/token/ERC721/ERC721.sol\":6910:6917  tokenId */\n      dup1\n        /* \".deps/github/OpenZeppelin/openzeppelin-contracts/contracts/token/ERC721/ERC721.sol\":6903:6917  return tokenId */\n      swap2\n      pop\n      pop\n        /* \".deps/github/OpenZeppelin/openzeppelin-contracts/contracts/token/ERC721/ERC721.sol\":6755:6924  function tokenByIndex(uint256 index) public view virtual override returns (uint256) {... */\n      swap2\n      swap1\n      pop\n      jump\t// out\n        /* \".deps/github/OpenZeppelin/openzeppelin-contracts/contracts/token/ERC721/ERC721.sol\":4495:4670  function ownerOf(uint256 tokenId) public view virtual override returns (address) {... */\n    tag_55:\n        /* \".deps/github/OpenZeppelin/openzeppelin-contracts/contracts/token/ERC721/ERC721.sol\":4567:4574  address */\n      0x00\n        /* \".deps/github/OpenZeppelin/openzeppelin-contracts/contracts/token/ERC721/ERC721.sol\":4593:4663  _tokenOwners.get(tokenId, \"ERC721: owner query for nonexistent token\") */\n      tag_132\n        /* \".deps/github/OpenZeppelin/openzeppelin-contracts/contracts/token/ERC721/ERC721.sol\":4610:4617  tokenId */\n      dup3\n        /* \".deps/github/OpenZeppelin/openzeppelin-contracts/contracts/token/ERC721/ERC721.sol\":4593:4663  _tokenOwners.get(tokenId, \"ERC721: owner query for nonexistent token\") */\n      mload(0x40)\n      dup1\n      0x60\n      add\n      0x40\n      mstore\n      dup1\n      0x29\n      dup2\n      mstore\n      0x20\n      add\n      data_7481f3df2a424c0755a1ad2356614e9a5a358d461ea2eae1f89cb21cbad00397\n      0x29\n      swap2\n      codecopy\n        /* \".deps/github/OpenZeppelin/openzeppelin-contracts/contracts/token/ERC721/ERC721.sol\":4593:4605  _tokenOwners */\n      0x02\n        /* \".deps/github/OpenZeppelin/openzeppelin-contracts/contracts/token/ERC721/ERC721.sol\":4593:4609  _tokenOwners.get */\n      tag_133\n      swap1\n        /* \".deps/github/OpenZeppelin/openzeppelin-contracts/contracts/token/ERC721/ERC721.sol\":4593:4663  _tokenOwners.get(tokenId, \"ERC721: owner query for nonexistent token\") */\n      swap3\n      swap2\n      swap1\n      0xffffffff\n      and\n      jump\t// in\n    tag_132:\n        /* \".deps/github/OpenZeppelin/openzeppelin-contracts/contracts/token/ERC721/ERC721.sol\":4586:4663  return _tokenOwners.get(tokenId, \"ERC721: owner query for nonexistent token\") */\n      swap1\n      pop\n        /* \".deps/github/OpenZeppelin/openzeppelin-contracts/contracts/token/ERC721/ERC721.sol\":4495:4670  function ownerOf(uint256 tokenId) public view virtual override returns (address) {... */\n      swap2\n      swap1\n      pop\n      jump\t// out\n        /* \".deps/github/OpenZeppelin/openzeppelin-contracts/contracts/token/ERC721/ERC721.sol\":6070:6165  function baseURI() public view virtual returns (string memory) {... */\n    tag_57:\n        /* \".deps/github/OpenZeppelin/openzeppelin-contracts/contracts/token/ERC721/ERC721.sol\":6118:6131  string memory */\n      0x60\n        /* \".deps/github/OpenZeppelin/openzeppelin-contracts/contracts/token/ERC721/ERC721.sol\":6150:6158  _baseURI */\n      0x09\n        /* \".deps/github/OpenZeppelin/openzeppelin-contracts/contracts/token/ERC721/ERC721.sol\":6143:6158  return _baseURI */\n      dup1\n      sload\n      0x01\n      dup2\n      0x01\n      and\n      iszero\n      0x0100\n      mul\n      sub\n      and\n      0x02\n      swap1\n      div\n      dup1\n      0x1f\n      add\n      0x20\n      dup1\n      swap2\n      div\n      mul\n      0x20\n      add\n      mload(0x40)\n      swap1\n      dup2\n      add\n      0x40\n      mstore\n      dup1\n      swap3\n      swap2\n      swap1\n      dup2\n      dup2\n      mstore\n      0x20\n      add\n      dup3\n      dup1\n      sload\n      0x01\n      dup2\n      0x01\n      and\n      iszero\n      0x0100\n      mul\n      sub\n      and\n      0x02\n      swap1\n      div\n      dup1\n      iszero\n      tag_135\n      jumpi\n      dup1\n      0x1f\n      lt\n      tag_136\n      jumpi\n      0x0100\n      dup1\n      dup4\n      sload\n      div\n      mul\n      dup4\n      mstore\n      swap2\n      0x20\n      add\n      swap2\n      jump(tag_135)\n    tag_136:\n      dup3\n      add\n      swap2\n      swap1\n      0x00\n      mstore\n      keccak256(0x00, 0x20)\n      swap1\n    tag_137:\n      dup2\n      sload\n      dup2\n      mstore\n      swap1\n      0x01\n      add\n      swap1\n      0x20\n      add\n      dup1\n      dup4\n      gt\n      tag_137\n      jumpi\n      dup3\n      swap1\n      sub\n      0x1f\n      and\n      dup3\n      add\n      swap2\n    tag_135:\n      pop\n      pop\n      pop\n      pop\n      pop\n      swap1\n      pop\n        /* \".deps/github/OpenZeppelin/openzeppelin-contracts/contracts/token/ERC721/ERC721.sol\":6070:6165  function baseURI() public view virtual returns (string memory) {... */\n      swap1\n      jump\t// out\n        /* \".deps/github/OpenZeppelin/openzeppelin-contracts/contracts/token/ERC721/ERC721.sol\":4220:4438  function balanceOf(address owner) public view virtual override returns (uint256) {... */\n    tag_64:\n        /* \".deps/github/OpenZeppelin/openzeppelin-contracts/contracts/token/ERC721/ERC721.sol\":4292:4299  uint256 */\n      0x00\n        /* \".deps/github/OpenZeppelin/openzeppelin-contracts/contracts/token/ERC721/ERC721.sol\":4336:4337  0 */\n      dup1\n        /* \".deps/github/OpenZeppelin/openzeppelin-contracts/contracts/token/ERC721/ERC721.sol\":4319:4338  owner != address(0) */\n      0xffffffffffffffffffffffffffffffffffffffff\n      and\n        /* \".deps/github/OpenZeppelin/openzeppelin-contracts/contracts/token/ERC721/ERC721.sol\":4319:4324  owner */\n      dup3\n        /* \".deps/github/OpenZeppelin/openzeppelin-contracts/contracts/token/ERC721/ERC721.sol\":4319:4338  owner != address(0) */\n      0xffffffffffffffffffffffffffffffffffffffff\n      and\n      eq\n      iszero\n        /* \".deps/github/OpenZeppelin/openzeppelin-contracts/contracts/token/ERC721/ERC721.sol\":4311:4385  require(owner != address(0), \"ERC721: balance query for the zero address\") */\n      tag_139\n      jumpi\n      mload(0x40)\n      0x08c379a000000000000000000000000000000000000000000000000000000000\n      dup2\n      mstore\n      0x04\n      add\n      dup1\n      dup1\n      0x20\n      add\n      dup3\n      dup2\n      sub\n      dup3\n      mstore\n      0x2a\n      dup2\n      mstore\n      0x20\n      add\n      dup1\n      data_7395d4d3901c50cdfcab223d072f9aa36241df5d883e62cbf147ee1b05a9e6ba\n      0x2a\n      swap2\n      codecopy\n      0x40\n      add\n      swap2\n      pop\n      pop\n      mload(0x40)\n      dup1\n      swap2\n      sub\n      swap1\n      revert\n    tag_139:\n        /* \".deps/github/OpenZeppelin/openzeppelin-contracts/contracts/token/ERC721/ERC721.sol\":4402:4431  _holderTokens[owner].length() */\n      tag_140\n        /* \".deps/github/OpenZeppelin/openzeppelin-contracts/contracts/token/ERC721/ERC721.sol\":4402:4415  _holderTokens */\n      0x01\n        /* \".deps/github/OpenZeppelin/openzeppelin-contracts/contracts/token/ERC721/ERC721.sol\":4402:4422  _holderTokens[owner] */\n      0x00\n        /* \".deps/github/OpenZeppelin/openzeppelin-contracts/contracts/token/ERC721/ERC721.sol\":4416:4421  owner */\n      dup5\n        /* \".deps/github/OpenZeppelin/openzeppelin-contracts/contracts/token/ERC721/ERC721.sol\":4402:4422  _holderTokens[owner] */\n      0xffffffffffffffffffffffffffffffffffffffff\n      and\n      0xffffffffffffffffffffffffffffffffffffffff\n      and\n      dup2\n      mstore\n      0x20\n      add\n      swap1\n      dup2\n      mstore\n      0x20\n      add\n      0x00\n      keccak256\n        /* \".deps/github/OpenZeppelin/openzeppelin-contracts/contracts/token/ERC721/ERC721.sol\":4402:4429  _holderTokens[owner].length */\n      tag_141\n        /* \".deps/github/OpenZeppelin/openzeppelin-contracts/contracts/token/ERC721/ERC721.sol\":4402:4431  _holderTokens[owner].length() */\n      jump\t// in\n    tag_140:\n        /* \".deps/github/OpenZeppelin/openzeppelin-contracts/contracts/token/ERC721/ERC721.sol\":4395:4431  return _holderTokens[owner].length() */\n      swap1\n      pop\n        /* \".deps/github/OpenZeppelin/openzeppelin-contracts/contracts/token/ERC721/ERC721.sol\":4220:4438  function balanceOf(address owner) public view virtual override returns (uint256) {... */\n      swap2\n      swap1\n      pop\n      jump\t// out\n        /* \".deps/github/OpenZeppelin/openzeppelin-contracts/contracts/token/ERC721/ERC721.sol\":4894:4996  function symbol() public view virtual override returns (string memory) {... */\n    tag_66:\n        /* \".deps/github/OpenZeppelin/openzeppelin-contracts/contracts/token/ERC721/ERC721.sol\":4950:4963  string memory */\n      0x60\n        /* \".deps/github/OpenZeppelin/openzeppelin-contracts/contracts/token/ERC721/ERC721.sol\":4982:4989  _symbol */\n      0x07\n        /* \".deps/github/OpenZeppelin/openzeppelin-contracts/contracts/token/ERC721/ERC721.sol\":4975:4989  return _symbol */\n      dup1\n      sload\n      0x01\n      dup2\n      0x01\n      and\n      iszero\n      0x0100\n      mul\n      sub\n      and\n      0x02\n      swap1\n      div\n      dup1\n      0x1f\n      add\n      0x20\n      dup1\n      swap2\n      div\n      mul\n      0x20\n      add\n      mload(0x40)\n      swap1\n      dup2\n      add\n      0x40\n      mstore\n      dup1\n      swap3\n      swap2\n      swap1\n      dup2\n      dup2\n      mstore\n      0x20\n      add\n      dup3\n      dup1\n      sload\n      0x01\n      dup2\n      0x01\n      and\n      iszero\n      0x0100\n      mul\n      sub\n      and\n      0x02\n      swap1\n      div\n      dup1\n      iszero\n      tag_143\n      jumpi\n      dup1\n      0x1f\n      lt\n      tag_144\n      jumpi\n      0x0100\n      dup1\n      dup4\n      sload\n      div\n      mul\n      dup4\n      mstore\n      swap2\n      0x20\n      add\n      swap2\n      jump(tag_143)\n    tag_144:\n      dup3\n      add\n      swap2\n      swap1\n      0x00\n      mstore\n      keccak256(0x00, 0x20)\n      swap1\n    tag_145:\n      dup2\n      sload\n      dup2\n      mstore\n      swap1\n      0x01\n      add\n      swap1\n      0x20\n      add\n      dup1\n      dup4\n      gt\n      tag_145\n      jumpi\n      dup3\n      swap1\n      sub\n      0x1f\n      and\n      dup3\n      add\n      swap2\n    tag_143:\n      pop\n      pop\n      pop\n      pop\n      pop\n      swap1\n      pop\n        /* \".deps/github/OpenZeppelin/openzeppelin-contracts/contracts/token/ERC721/ERC721.sol\":4894:4996  function symbol() public view virtual override returns (string memory) {... */\n      swap1\n      jump\t// out\n        /* \".deps/github/OpenZeppelin/openzeppelin-contracts/contracts/token/ERC721/ERC721.sol\":7721:8011  function setApprovalForAll(address operator, bool approved) public virtual override {... */\n    tag_73:\n        /* \".deps/github/OpenZeppelin/openzeppelin-contracts/contracts/token/ERC721/ERC721.sol\":7835:7847  _msgSender() */\n      tag_147\n        /* \".deps/github/OpenZeppelin/openzeppelin-contracts/contracts/token/ERC721/ERC721.sol\":7835:7845  _msgSender */\n      tag_105\n        /* \".deps/github/OpenZeppelin/openzeppelin-contracts/contracts/token/ERC721/ERC721.sol\":7835:7847  _msgSender() */\n      jump\t// in\n    tag_147:\n        /* \".deps/github/OpenZeppelin/openzeppelin-contracts/contracts/token/ERC721/ERC721.sol\":7823:7847  operator != _msgSender() */\n      0xffffffffffffffffffffffffffffffffffffffff\n      and\n        /* \".deps/github/OpenZeppelin/openzeppelin-contracts/contracts/token/ERC721/ERC721.sol\":7823:7831  operator */\n      dup3\n        /* \".deps/github/OpenZeppelin/openzeppelin-contracts/contracts/token/ERC721/ERC721.sol\":7823:7847  operator != _msgSender() */\n      0xffffffffffffffffffffffffffffffffffffffff\n      and\n      eq\n      iszero\n        /* \".deps/github/OpenZeppelin/openzeppelin-contracts/contracts/token/ERC721/ERC721.sol\":7815:7877  require(operator != _msgSender(), \"ERC721: approve to caller\") */\n      tag_148\n      jumpi\n      mload(0x40)\n      0x08c379a000000000000000000000000000000000000000000000000000000000\n      dup2\n      mstore\n      0x04\n      add\n      dup1\n      dup1\n      0x20\n      add\n      dup3\n      dup2\n      sub\n      dup3\n      mstore\n      0x19\n      dup2\n      mstore\n      0x20\n      add\n      dup1\n      0x4552433732313a20617070726f766520746f2063616c6c657200000000000000\n      dup2\n      mstore\n      pop\n      0x20\n      add\n      swap2\n      pop\n      pop\n      mload(0x40)\n      dup1\n      swap2\n      sub\n      swap1\n      revert\n    tag_148:\n        /* \".deps/github/OpenZeppelin/openzeppelin-contracts/contracts/token/ERC721/ERC721.sol\":7933:7941  approved */\n      dup1\n        /* \".deps/github/OpenZeppelin/openzeppelin-contracts/contracts/token/ERC721/ERC721.sol\":7888:7906  _operatorApprovals */\n      0x05\n        /* \".deps/github/OpenZeppelin/openzeppelin-contracts/contracts/token/ERC721/ERC721.sol\":7888:7920  _operatorApprovals[_msgSender()] */\n      0x00\n        /* \".deps/github/OpenZeppelin/openzeppelin-contracts/contracts/token/ERC721/ERC721.sol\":7907:7919  _msgSender() */\n      tag_149\n        /* \".deps/github/OpenZeppelin/openzeppelin-contracts/contracts/token/ERC721/ERC721.sol\":7907:7917  _msgSender */\n      tag_105\n        /* \".deps/github/OpenZeppelin/openzeppelin-contracts/contracts/token/ERC721/ERC721.sol\":7907:7919  _msgSender() */\n      jump\t// in\n    tag_149:\n        /* \".deps/github/OpenZeppelin/openzeppelin-contracts/contracts/token/ERC721/ERC721.sol\":7888:7920  _operatorApprovals[_msgSender()] */\n      0xffffffffffffffffffffffffffffffffffffffff\n      and\n      0xffffffffffffffffffffffffffffffffffffffff\n      and\n      dup2\n      mstore\n      0x20\n      add\n      swap1\n      dup2\n      mstore\n      0x20\n      add\n      0x00\n      keccak256\n        /* \".deps/github/OpenZeppelin/openzeppelin-contracts/contracts/token/ERC721/ERC721.sol\":7888:7930  _operatorApprovals[_msgSender()][operator] */\n      0x00\n        /* \".deps/github/OpenZeppelin/openzeppelin-contracts/contracts/token/ERC721/ERC721.sol\":7921:7929  operator */\n      dup5\n        /* \".deps/github/OpenZeppelin/openzeppelin-contracts/contracts/token/ERC721/ERC721.sol\":7888:7930  _operatorApprovals[_msgSender()][operator] */\n      0xffffffffffffffffffffffffffffffffffffffff\n      and\n      0xffffffffffffffffffffffffffffffffffffffff\n      and\n      dup2\n      mstore\n      0x20\n      add\n      swap1\n      dup2\n      mstore\n      0x20\n      add\n      0x00\n      keccak256\n      0x00\n        /* \".deps/github/OpenZeppelin/openzeppelin-contracts/contracts/token/ERC721/ERC721.sol\":7888:7941  _operatorApprovals[_msgSender()][operator] = approved */\n      0x0100\n      exp\n      dup2\n      sload\n      dup2\n      0xff\n      mul\n      not\n      and\n      swap1\n      dup4\n      iszero\n      iszero\n      mul\n      or\n      swap1\n      sstore\n      pop\n        /* \".deps/github/OpenZeppelin/openzeppelin-contracts/contracts/token/ERC721/ERC721.sol\":7985:7993  operator */\n      dup2\n        /* \".deps/github/OpenZeppelin/openzeppelin-contracts/contracts/token/ERC721/ERC721.sol\":7956:8004  ApprovalForAll(_msgSender(), operator, approved) */\n      0xffffffffffffffffffffffffffffffffffffffff\n      and\n        /* \".deps/github/OpenZeppelin/openzeppelin-contracts/contracts/token/ERC721/ERC721.sol\":7971:7983  _msgSender() */\n      tag_150\n        /* \".deps/github/OpenZeppelin/openzeppelin-contracts/contracts/token/ERC721/ERC721.sol\":7971:7981  _msgSender */\n      tag_105\n        /* \".deps/github/OpenZeppelin/openzeppelin-contracts/contracts/token/ERC721/ERC721.sol\":7971:7983  _msgSender() */\n      jump\t// in\n    tag_150:\n        /* \".deps/github/OpenZeppelin/openzeppelin-contracts/contracts/token/ERC721/ERC721.sol\":7956:8004  ApprovalForAll(_msgSender(), operator, approved) */\n      0xffffffffffffffffffffffffffffffffffffffff\n      and\n      0x17307eab39ab6107e8899845ad3d59bd9653f200f220920489ca2b5937696c31\n        /* \".deps/github/OpenZeppelin/openzeppelin-contracts/contracts/token/ERC721/ERC721.sol\":7995:8003  approved */\n      dup4\n        /* \".deps/github/OpenZeppelin/openzeppelin-contracts/contracts/token/ERC721/ERC721.sol\":7956:8004  ApprovalForAll(_msgSender(), operator, approved) */\n      mload(0x40)\n      dup1\n      dup3\n      iszero\n      iszero\n      dup2\n      mstore\n      0x20\n      add\n      swap2\n      pop\n      pop\n      mload(0x40)\n      dup1\n      swap2\n      sub\n      swap1\n      log3\n        /* \".deps/github/OpenZeppelin/openzeppelin-contracts/contracts/token/ERC721/ERC721.sol\":7721:8011  function setApprovalForAll(address operator, bool approved) public virtual override {... */\n      pop\n      pop\n      jump\t// out\n        /* \".deps/github/OpenZeppelin/openzeppelin-contracts/contracts/token/ERC721/ERC721.sol\":8936:9218  function safeTransferFrom(address from, address to, uint256 tokenId, bytes memory _data) public virtual override {... */\n    tag_79:\n        /* \".deps/github/OpenZeppelin/openzeppelin-contracts/contracts/token/ERC721/ERC721.sol\":9067:9108  _isApprovedOrOwner(_msgSender(), tokenId) */\n      tag_152\n        /* \".deps/github/OpenZeppelin/openzeppelin-contracts/contracts/token/ERC721/ERC721.sol\":9086:9098  _msgSender() */\n      tag_153\n        /* \".deps/github/OpenZeppelin/openzeppelin-contracts/contracts/token/ERC721/ERC721.sol\":9086:9096  _msgSender */\n      tag_105\n        /* \".deps/github/OpenZeppelin/openzeppelin-contracts/contracts/token/ERC721/ERC721.sol\":9086:9098  _msgSender() */\n      jump\t// in\n    tag_153:\n        /* \".deps/github/OpenZeppelin/openzeppelin-contracts/contracts/token/ERC721/ERC721.sol\":9100:9107  tokenId */\n      dup4\n        /* \".deps/github/OpenZeppelin/openzeppelin-contracts/contracts/token/ERC721/ERC721.sol\":9067:9085  _isApprovedOrOwner */\n      tag_118\n        /* \".deps/github/OpenZeppelin/openzeppelin-contracts/contracts/token/ERC721/ERC721.sol\":9067:9108  _isApprovedOrOwner(_msgSender(), tokenId) */\n      jump\t// in\n    tag_152:\n        /* \".deps/github/OpenZeppelin/openzeppelin-contracts/contracts/token/ERC721/ERC721.sol\":9059:9162  require(_isApprovedOrOwner(_msgSender(), tokenId), \"ERC721: transfer caller is not owner nor approved\") */\n      tag_154\n      jumpi\n      mload(0x40)\n      0x08c379a000000000000000000000000000000000000000000000000000000000\n      dup2\n      mstore\n      0x04\n      add\n      dup1\n      dup1\n      0x20\n      add\n      dup3\n      dup2\n      sub\n      dup3\n      mstore\n      0x31\n      dup2\n      mstore\n      0x20\n      add\n      dup1\n      data_c8682f3ad98807db59a6ec6bb812b72fed0a66e3150fa8239699ee83885247f2\n      0x31\n      swap2\n      codecopy\n      0x40\n      add\n      swap2\n      pop\n      pop\n      mload(0x40)\n      dup1\n      swap2\n      sub\n      swap1\n      revert\n    tag_154:\n        /* \".deps/github/OpenZeppelin/openzeppelin-contracts/contracts/token/ERC721/ERC721.sol\":9172:9211  _safeTransfer(from, to, tokenId, _data) */\n      tag_155\n        /* \".deps/github/OpenZeppelin/openzeppelin-contracts/contracts/token/ERC721/ERC721.sol\":9186:9190  from */\n      dup5\n        /* \".deps/github/OpenZeppelin/openzeppelin-contracts/contracts/token/ERC721/ERC721.sol\":9192:9194  to */\n      dup5\n        /* \".deps/github/OpenZeppelin/openzeppelin-contracts/contracts/token/ERC721/ERC721.sol\":9196:9203  tokenId */\n      dup5\n        /* \".deps/github/OpenZeppelin/openzeppelin-contracts/contracts/token/ERC721/ERC721.sol\":9205:9210  _data */\n      dup5\n        /* \".deps/github/OpenZeppelin/openzeppelin-contracts/contracts/token/ERC721/ERC721.sol\":9172:9185  _safeTransfer */\n      tag_156\n        /* \".deps/github/OpenZeppelin/openzeppelin-contracts/contracts/token/ERC721/ERC721.sol\":9172:9211  _safeTransfer(from, to, tokenId, _data) */\n      jump\t// in\n    tag_155:\n        /* \".deps/github/OpenZeppelin/openzeppelin-contracts/contracts/token/ERC721/ERC721.sol\":8936:9218  function safeTransferFrom(address from, address to, uint256 tokenId, bytes memory _data) public virtual override {... */\n      pop\n      pop\n      pop\n      pop\n      jump\t// out\n        /* \".deps/github/OpenZeppelin/openzeppelin-contracts/contracts/token/ERC721/ERC721.sol\":5062:5838  function tokenURI(uint256 tokenId) public view virtual override returns (string memory) {... */\n    tag_82:\n        /* \".deps/github/OpenZeppelin/openzeppelin-contracts/contracts/token/ERC721/ERC721.sol\":5135:5148  string memory */\n      0x60\n        /* \".deps/github/OpenZeppelin/openzeppelin-contracts/contracts/token/ERC721/ERC721.sol\":5168:5184  _exists(tokenId) */\n      tag_158\n        /* \".deps/github/OpenZeppelin/openzeppelin-contracts/contracts/token/ERC721/ERC721.sol\":5176:5183  tokenId */\n      dup3\n        /* \".deps/github/OpenZeppelin/openzeppelin-contracts/contracts/token/ERC721/ERC721.sol\":5168:5175  _exists */\n      tag_99\n        /* \".deps/github/OpenZeppelin/openzeppelin-contracts/contracts/token/ERC721/ERC721.sol\":5168:5184  _exists(tokenId) */\n      jump\t// in\n    tag_158:\n        /* \".deps/github/OpenZeppelin/openzeppelin-contracts/contracts/token/ERC721/ERC721.sol\":5160:5236  require(_exists(tokenId), \"ERC721Metadata: URI query for nonexistent token\") */\n      tag_159\n      jumpi\n      mload(0x40)\n      0x08c379a000000000000000000000000000000000000000000000000000000000\n      dup2\n      mstore\n      0x04\n      add\n      dup1\n      dup1\n      0x20\n      add\n      dup3\n      dup2\n      sub\n      dup3\n      mstore\n      0x2f\n      dup2\n      mstore\n      0x20\n      add\n      dup1\n      data_a2d45c0fba603d40d82d590051761ca952d1ab9d78cca6d0d464d7b6e961a9cb\n      0x2f\n      swap2\n      codecopy\n      0x40\n      add\n      swap2\n      pop\n      pop\n      mload(0x40)\n      dup1\n      swap2\n      sub\n      swap1\n      revert\n    tag_159:\n        /* \".deps/github/OpenZeppelin/openzeppelin-contracts/contracts/token/ERC721/ERC721.sol\":5247:5270  string memory _tokenURI */\n      0x60\n        /* \".deps/github/OpenZeppelin/openzeppelin-contracts/contracts/token/ERC721/ERC721.sol\":5273:5283  _tokenURIs */\n      0x08\n        /* \".deps/github/OpenZeppelin/openzeppelin-contracts/contracts/token/ERC721/ERC721.sol\":5273:5292  _tokenURIs[tokenId] */\n      0x00\n        /* \".deps/github/OpenZeppelin/openzeppelin-contracts/contracts/token/ERC721/ERC721.sol\":5284:5291  tokenId */\n      dup5\n        /* \".deps/github/OpenZeppelin/openzeppelin-contracts/contracts/token/ERC721/ERC721.sol\":5273:5292  _tokenURIs[tokenId] */\n      dup2\n      mstore\n      0x20\n      add\n      swap1\n      dup2\n      mstore\n      0x20\n      add\n      0x00\n      keccak256\n        /* \".deps/github/OpenZeppelin/openzeppelin-contracts/contracts/token/ERC721/ERC721.sol\":5247:5292  string memory _tokenURI = _tokenURIs[tokenId] */\n      dup1\n      sload\n      0x01\n      dup2\n      0x01\n      and\n      iszero\n      0x0100\n      mul\n      sub\n      and\n      0x02\n      swap1\n      div\n      dup1\n      0x1f\n      add\n      0x20\n      dup1\n      swap2\n      div\n      mul\n      0x20\n      add\n      mload(0x40)\n      swap1\n      dup2\n      add\n      0x40\n      mstore\n      dup1\n      swap3\n      swap2\n      swap1\n      dup2\n      dup2\n      mstore\n      0x20\n      add\n      dup3\n      dup1\n      sload\n      0x01\n      dup2\n      0x01\n      and\n      iszero\n      0x0100\n      mul\n      sub\n      and\n      0x02\n      swap1\n      div\n      dup1\n      iszero\n      tag_160\n      jumpi\n      dup1\n      0x1f\n      lt\n      tag_161\n      jumpi\n      0x0100\n      dup1\n      dup4\n      sload\n      div\n      mul\n      dup4\n      mstore\n      swap2\n      0x20\n      add\n      swap2\n      jump(tag_160)\n    tag_161:\n      dup3\n      add\n      swap2\n      swap1\n      0x00\n      mstore\n      keccak256(0x00, 0x20)\n      swap1\n    tag_162:\n      dup2\n      sload\n      dup2\n      mstore\n      swap1\n      0x01\n      add\n      swap1\n      0x20\n      add\n      dup1\n      dup4\n      gt\n      tag_162\n      jumpi\n      dup3\n      swap1\n      sub\n      0x1f\n      and\n      dup3\n      add\n      swap2\n    tag_160:\n      pop\n      pop\n      pop\n      pop\n      pop\n      swap1\n      pop\n        /* \".deps/github/OpenZeppelin/openzeppelin-contracts/contracts/token/ERC721/ERC721.sol\":5302:5320  string memory base */\n      0x60\n        /* \".deps/github/OpenZeppelin/openzeppelin-contracts/contracts/token/ERC721/ERC721.sol\":5323:5332  baseURI() */\n      tag_163\n        /* \".deps/github/OpenZeppelin/openzeppelin-contracts/contracts/token/ERC721/ERC721.sol\":5323:5330  baseURI */\n      tag_57\n        /* \".deps/github/OpenZeppelin/openzeppelin-contracts/contracts/token/ERC721/ERC721.sol\":5323:5332  baseURI() */\n      jump\t// in\n    tag_163:\n        /* \".deps/github/OpenZeppelin/openzeppelin-contracts/contracts/token/ERC721/ERC721.sol\":5302:5332  string memory base = baseURI() */\n      swap1\n      pop\n        /* \".deps/github/OpenZeppelin/openzeppelin-contracts/contracts/token/ERC721/ERC721.sol\":5427:5428  0 */\n      0x00\n        /* \".deps/github/OpenZeppelin/openzeppelin-contracts/contracts/token/ERC721/ERC721.sol\":5411:5415  base */\n      dup2\n        /* \".deps/github/OpenZeppelin/openzeppelin-contracts/contracts/token/ERC721/ERC721.sol\":5405:5423  bytes(base).length */\n      mload\n        /* \".deps/github/OpenZeppelin/openzeppelin-contracts/contracts/token/ERC721/ERC721.sol\":5405:5428  bytes(base).length == 0 */\n      eq\n        /* \".deps/github/OpenZeppelin/openzeppelin-contracts/contracts/token/ERC721/ERC721.sol\":5401:5471  if (bytes(base).length == 0) {... */\n      iszero\n      tag_164\n      jumpi\n        /* \".deps/github/OpenZeppelin/openzeppelin-contracts/contracts/token/ERC721/ERC721.sol\":5451:5460  _tokenURI */\n      dup2\n        /* \".deps/github/OpenZeppelin/openzeppelin-contracts/contracts/token/ERC721/ERC721.sol\":5444:5460  return _tokenURI */\n      swap3\n      pop\n      pop\n      pop\n      jump(tag_157)\n        /* \".deps/github/OpenZeppelin/openzeppelin-contracts/contracts/token/ERC721/ERC721.sol\":5401:5471  if (bytes(base).length == 0) {... */\n    tag_164:\n        /* \".deps/github/OpenZeppelin/openzeppelin-contracts/contracts/token/ERC721/ERC721.sol\":5599:5600  0 */\n      0x00\n        /* \".deps/github/OpenZeppelin/openzeppelin-contracts/contracts/token/ERC721/ERC721.sol\":5579:5588  _tokenURI */\n      dup3\n        /* \".deps/github/OpenZeppelin/openzeppelin-contracts/contracts/token/ERC721/ERC721.sol\":5573:5596  bytes(_tokenURI).length */\n      mload\n        /* \".deps/github/OpenZeppelin/openzeppelin-contracts/contracts/token/ERC721/ERC721.sol\":5573:5600  bytes(_tokenURI).length > 0 */\n      gt\n        /* \".deps/github/OpenZeppelin/openzeppelin-contracts/contracts/token/ERC721/ERC721.sol\":5569:5675  if (bytes(_tokenURI).length > 0) {... */\n      iszero\n      tag_165\n      jumpi\n        /* \".deps/github/OpenZeppelin/openzeppelin-contracts/contracts/token/ERC721/ERC721.sol\":5647:5651  base */\n      dup1\n        /* \".deps/github/OpenZeppelin/openzeppelin-contracts/contracts/token/ERC721/ERC721.sol\":5653:5662  _tokenURI */\n      dup3\n        /* \".deps/github/OpenZeppelin/openzeppelin-contracts/contracts/token/ERC721/ERC721.sol\":5630:5663  abi.encodePacked(base, _tokenURI) */\n      add(0x20, mload(0x40))\n      dup1\n      dup4\n      dup1\n      mload\n      swap1\n      0x20\n      add\n      swap1\n      dup1\n      dup4\n      dup4\n    tag_166:\n      0x20\n      dup4\n      lt\n      tag_168\n      jumpi\n      dup1\n      mload\n      dup3\n      mstore\n      0x20\n      dup3\n      add\n      swap2\n      pop\n      0x20\n      dup2\n      add\n      swap1\n      pop\n      0x20\n      dup4\n      sub\n      swap3\n      pop\n      jump(tag_166)\n    tag_168:\n      0x01\n      dup4\n      0x20\n      sub\n      0x0100\n      exp\n      sub\n      dup1\n      not\n      dup3\n      mload\n      and\n      dup2\n      dup5\n      mload\n      and\n      dup1\n      dup3\n      or\n      dup6\n      mstore\n      pop\n      pop\n      pop\n      pop\n      pop\n      pop\n      swap1\n      pop\n      add\n      dup3\n      dup1\n      mload\n      swap1\n      0x20\n      add\n      swap1\n      dup1\n      dup4\n      dup4\n    tag_169:\n      0x20\n      dup4\n      lt\n      tag_171\n      jumpi\n      dup1\n      mload\n      dup3\n      mstore\n      0x20\n      dup3\n      add\n      swap2\n      pop\n      0x20\n      dup2\n      add\n      swap1\n      pop\n      0x20\n      dup4\n      sub\n      swap3\n      pop\n      jump(tag_169)\n    tag_171:\n      0x01\n      dup4\n      0x20\n      sub\n      0x0100\n      exp\n      sub\n      dup1\n      not\n      dup3\n      mload\n      and\n      dup2\n      dup5\n      mload\n      and\n      dup1\n      dup3\n      or\n      dup6\n      mstore\n      pop\n      pop\n      pop\n      pop\n      pop\n      pop\n      swap1\n      pop\n      add\n      swap3\n      pop\n      pop\n      pop\n      mload(0x40)\n      0x20\n      dup2\n      dup4\n      sub\n      sub\n      dup2\n      mstore\n      swap1\n      0x40\n      mstore\n        /* \".deps/github/OpenZeppelin/openzeppelin-contracts/contracts/token/ERC721/ERC721.sol\":5616:5664  return string(abi.encodePacked(base, _tokenURI)) */\n      swap3\n      pop\n      pop\n      pop\n      jump(tag_157)\n        /* \".deps/github/OpenZeppelin/openzeppelin-contracts/contracts/token/ERC721/ERC721.sol\":5569:5675  if (bytes(_tokenURI).length > 0) {... */\n    tag_165:\n        /* \".deps/github/OpenZeppelin/openzeppelin-contracts/contracts/token/ERC721/ERC721.sol\":5805:5809  base */\n      dup1\n        /* \".deps/github/OpenZeppelin/openzeppelin-contracts/contracts/token/ERC721/ERC721.sol\":5811:5829  tokenId.toString() */\n      tag_172\n        /* \".deps/github/OpenZeppelin/openzeppelin-contracts/contracts/token/ERC721/ERC721.sol\":5811:5818  tokenId */\n      dup6\n        /* \".deps/github/OpenZeppelin/openzeppelin-contracts/contracts/token/ERC721/ERC721.sol\":5811:5827  tokenId.toString */\n      tag_173\n        /* \".deps/github/OpenZeppelin/openzeppelin-contracts/contracts/token/ERC721/ERC721.sol\":5811:5829  tokenId.toString() */\n      jump\t// in\n    tag_172:\n        /* \".deps/github/OpenZeppelin/openzeppelin-contracts/contracts/token/ERC721/ERC721.sol\":5788:5830  abi.encodePacked(base, tokenId.toString()) */\n      add(0x20, mload(0x40))\n      dup1\n      dup4\n      dup1\n      mload\n      swap1\n      0x20\n      add\n      swap1\n      dup1\n      dup4\n      dup4\n    tag_174:\n      0x20\n      dup4\n      lt\n      tag_176\n      jumpi\n      dup1\n      mload\n      dup3\n      mstore\n      0x20\n      dup3\n      add\n      swap2\n      pop\n      0x20\n      dup2\n      add\n      swap1\n      pop\n      0x20\n      dup4\n      sub\n      swap3\n      pop\n      jump(tag_174)\n    tag_176:\n      0x01\n      dup4\n      0x20\n      sub\n      0x0100\n      exp\n      sub\n      dup1\n      not\n      dup3\n      mload\n      and\n      dup2\n      dup5\n      mload\n      and\n      dup1\n      dup3\n      or\n      dup6\n      mstore\n      pop\n      pop\n      pop\n      pop\n      pop\n      pop\n      swap1\n      pop\n      add\n      dup3\n      dup1\n      mload\n      swap1\n      0x20\n      add\n      swap1\n      dup1\n      dup4\n      dup4\n    tag_177:\n      0x20\n      dup4\n      lt\n      tag_179\n      jumpi\n      dup1\n      mload\n      dup3\n      mstore\n      0x20\n      dup3\n      add\n      swap2\n      pop\n      0x20\n      dup2\n      add\n      swap1\n      pop\n      0x20\n      dup4\n      sub\n      swap3\n      pop\n      jump(tag_177)\n    tag_179:\n      0x01\n      dup4\n      0x20\n      sub\n      0x0100\n      exp\n      sub\n      dup1\n      not\n      dup3\n      mload\n      and\n      dup2\n      dup5\n      mload\n      and\n      dup1\n      dup3\n      or\n      dup6\n      mstore\n      pop\n      pop\n      pop\n      pop\n      pop\n      pop\n      swap1\n      pop\n      add\n      swap3\n      pop\n      pop\n      pop\n      mload(0x40)\n      0x20\n      dup2\n      dup4\n      sub\n      sub\n      dup2\n      mstore\n      swap1\n      0x40\n      mstore\n        /* \".deps/github/OpenZeppelin/openzeppelin-contracts/contracts/token/ERC721/ERC721.sol\":5774:5831  return string(abi.encodePacked(base, tokenId.toString())) */\n      swap3\n      pop\n      pop\n      pop\n        /* \".deps/github/OpenZeppelin/openzeppelin-contracts/contracts/token/ERC721/ERC721.sol\":5062:5838  function tokenURI(uint256 tokenId) public view virtual override returns (string memory) {... */\n    tag_157:\n      swap2\n      swap1\n      pop\n      jump\t// out\n        /* \".deps/github/OpenZeppelin/openzeppelin-contracts/contracts/token/ERC721/ERC721.sol\":4019:4162  function lockOrUnlock()public view virtual{... */\n    tag_88:\n        /* \".deps/github/OpenZeppelin/openzeppelin-contracts/contracts/token/ERC721/ERC721.sol\":4086:4090  true */\n      0x01\n        /* \".deps/github/OpenZeppelin/openzeppelin-contracts/contracts/token/ERC721/ERC721.sol\":4075:4090  _locked == true */\n      iszero\n      iszero\n        /* \".deps/github/OpenZeppelin/openzeppelin-contracts/contracts/token/ERC721/ERC721.sol\":4075:4082  _locked */\n      0x0a\n      0x00\n      swap1\n      sload\n      swap1\n      0x0100\n      exp\n      swap1\n      div\n      0xff\n      and\n        /* \".deps/github/OpenZeppelin/openzeppelin-contracts/contracts/token/ERC721/ERC721.sol\":4075:4090  _locked == true */\n      iszero\n      iszero\n      eq\n        /* \".deps/github/OpenZeppelin/openzeppelin-contracts/contracts/token/ERC721/ERC721.sol\":4071:4108  if (_locked == true) _locked == false */\n      iszero\n      tag_181\n      jumpi\n        /* \".deps/github/OpenZeppelin/openzeppelin-contracts/contracts/token/ERC721/ERC721.sol\":4103:4108  false */\n      0x00\n        /* \".deps/github/OpenZeppelin/openzeppelin-contracts/contracts/token/ERC721/ERC721.sol\":4092:4108  _locked == false */\n      iszero\n      iszero\n        /* \".deps/github/OpenZeppelin/openzeppelin-contracts/contracts/token/ERC721/ERC721.sol\":4092:4099  _locked */\n      0x0a\n      0x00\n      swap1\n      sload\n      swap1\n      0x0100\n      exp\n      swap1\n      pop\n      pop\n        /* \".deps/github/OpenZeppelin/openzeppelin-contracts/contracts/token/ERC721/ERC721.sol\":4092:4108  _locked == false */\n      pop\n        /* \".deps/github/OpenZeppelin/openzeppelin-contracts/contracts/token/ERC721/ERC721.sol\":4071:4108  if (_locked == true) _locked == false */\n    tag_181:\n        /* \".deps/github/OpenZeppelin/openzeppelin-contracts/contracts/token/ERC721/ERC721.sol\":4133:4138  false */\n      0x00\n        /* \".deps/github/OpenZeppelin/openzeppelin-contracts/contracts/token/ERC721/ERC721.sol\":4122:4138  _locked == false */\n      iszero\n      iszero\n        /* \".deps/github/OpenZeppelin/openzeppelin-contracts/contracts/token/ERC721/ERC721.sol\":4122:4129  _locked */\n      0x0a\n      0x00\n      swap1\n      sload\n      swap1\n      0x0100\n      exp\n      swap1\n      div\n      0xff\n      and\n        /* \".deps/github/OpenZeppelin/openzeppelin-contracts/contracts/token/ERC721/ERC721.sol\":4122:4138  _locked == false */\n      iszero\n      iszero\n      eq\n        /* \".deps/github/OpenZeppelin/openzeppelin-contracts/contracts/token/ERC721/ERC721.sol\":4118:4155  if (_locked == false) _locked == true */\n      iszero\n      tag_182\n      jumpi\n        /* \".deps/github/OpenZeppelin/openzeppelin-contracts/contracts/token/ERC721/ERC721.sol\":4151:4155  true */\n      0x01\n        /* \".deps/github/OpenZeppelin/openzeppelin-contracts/contracts/token/ERC721/ERC721.sol\":4140:4155  _locked == true */\n      iszero\n      iszero\n        /* \".deps/github/OpenZeppelin/openzeppelin-contracts/contracts/token/ERC721/ERC721.sol\":4140:4147  _locked */\n      0x0a\n      0x00\n      swap1\n      sload\n      swap1\n      0x0100\n      exp\n      swap1\n      pop\n      pop\n        /* \".deps/github/OpenZeppelin/openzeppelin-contracts/contracts/token/ERC721/ERC721.sol\":4140:4155  _locked == true */\n      pop\n        /* \".deps/github/OpenZeppelin/openzeppelin-contracts/contracts/token/ERC721/ERC721.sol\":4118:4155  if (_locked == false) _locked == true */\n    tag_182:\n        /* \".deps/github/OpenZeppelin/openzeppelin-contracts/contracts/token/ERC721/ERC721.sol\":4019:4162  function lockOrUnlock()public view virtual{... */\n      jump\t// out\n        /* \".deps/github/OpenZeppelin/openzeppelin-contracts/contracts/token/ERC721/ERC721.sol\":8077:8239  function isApprovedForAll(address owner, address operator) public view virtual override returns (bool) {... */\n    tag_91:\n        /* \".deps/github/OpenZeppelin/openzeppelin-contracts/contracts/token/ERC721/ERC721.sol\":8174:8178  bool */\n      0x00\n        /* \".deps/github/OpenZeppelin/openzeppelin-contracts/contracts/token/ERC721/ERC721.sol\":8197:8215  _operatorApprovals */\n      0x05\n        /* \".deps/github/OpenZeppelin/openzeppelin-contracts/contracts/token/ERC721/ERC721.sol\":8197:8222  _operatorApprovals[owner] */\n      0x00\n        /* \".deps/github/OpenZeppelin/openzeppelin-contracts/contracts/token/ERC721/ERC721.sol\":8216:8221  owner */\n      dup5\n        /* \".deps/github/OpenZeppelin/openzeppelin-contracts/contracts/token/ERC721/ERC721.sol\":8197:8222  _operatorApprovals[owner] */\n      0xffffffffffffffffffffffffffffffffffffffff\n      and\n      0xffffffffffffffffffffffffffffffffffffffff\n      and\n      dup2\n      mstore\n      0x20\n      add\n      swap1\n      dup2\n      mstore\n      0x20\n      add\n      0x00\n      keccak256\n        /* \".deps/github/OpenZeppelin/openzeppelin-contracts/contracts/token/ERC721/ERC721.sol\":8197:8232  _operatorApprovals[owner][operator] */\n      0x00\n        /* \".deps/github/OpenZeppelin/openzeppelin-contracts/contracts/token/ERC721/ERC721.sol\":8223:8231  operator */\n      dup4\n        /* \".deps/github/OpenZeppelin/openzeppelin-contracts/contracts/token/ERC721/ERC721.sol\":8197:8232  _operatorApprovals[owner][operator] */\n      0xffffffffffffffffffffffffffffffffffffffff\n      and\n      0xffffffffffffffffffffffffffffffffffffffff\n      and\n      dup2\n      mstore\n      0x20\n      add\n      swap1\n      dup2\n      mstore\n      0x20\n      add\n      0x00\n      keccak256\n      0x00\n      swap1\n      sload\n      swap1\n      0x0100\n      exp\n      swap1\n      div\n      0xff\n      and\n        /* \".deps/github/OpenZeppelin/openzeppelin-contracts/contracts/token/ERC721/ERC721.sol\":8190:8232  return _operatorApprovals[owner][operator] */\n      swap1\n      pop\n        /* \".deps/github/OpenZeppelin/openzeppelin-contracts/contracts/token/ERC721/ERC721.sol\":8077:8239  function isApprovedForAll(address owner, address operator) public view virtual override returns (bool) {... */\n      swap3\n      swap2\n      pop\n      pop\n      jump\t// out\n        /* \".deps/github/OpenZeppelin/openzeppelin-contracts/contracts/token/ERC721/ERC721.sol\":10652:10777  function _exists(uint256 tokenId) internal view virtual returns (bool) {... */\n    tag_99:\n        /* \".deps/github/OpenZeppelin/openzeppelin-contracts/contracts/token/ERC721/ERC721.sol\":10717:10721  bool */\n      0x00\n        /* \".deps/github/OpenZeppelin/openzeppelin-contracts/contracts/token/ERC721/ERC721.sol\":10740:10770  _tokenOwners.contains(tokenId) */\n      tag_185\n        /* \".deps/github/OpenZeppelin/openzeppelin-contracts/contracts/token/ERC721/ERC721.sol\":10762:10769  tokenId */\n      dup3\n        /* \".deps/github/OpenZeppelin/openzeppelin-contracts/contracts/token/ERC721/ERC721.sol\":10740:10752  _tokenOwners */\n      0x02\n        /* \".deps/github/OpenZeppelin/openzeppelin-contracts/contracts/token/ERC721/ERC721.sol\":10740:10761  _tokenOwners.contains */\n      tag_186\n      swap1\n        /* \".deps/github/OpenZeppelin/openzeppelin-contracts/contracts/token/ERC721/ERC721.sol\":10740:10770  _tokenOwners.contains(tokenId) */\n      swap2\n      swap1\n      0xffffffff\n      and\n      jump\t// in\n    tag_185:\n        /* \".deps/github/OpenZeppelin/openzeppelin-contracts/contracts/token/ERC721/ERC721.sol\":10733:10770  return _tokenOwners.contains(tokenId) */\n      swap1\n      pop\n        /* \".deps/github/OpenZeppelin/openzeppelin-contracts/contracts/token/ERC721/ERC721.sol\":10652:10777  function _exists(uint256 tokenId) internal view virtual returns (bool) {... */\n      swap2\n      swap1\n      pop\n      jump\t// out\n        /* \".deps/github/OpenZeppelin/openzeppelin-contracts/contracts/utils/Context.sol\":598:702  function _msgSender() internal view virtual returns (address payable) {... */\n    tag_105:\n        /* \".deps/github/OpenZeppelin/openzeppelin-contracts/contracts/utils/Context.sol\":651:666  address payable */\n      0x00\n        /* \".deps/github/OpenZeppelin/openzeppelin-contracts/contracts/utils/Context.sol\":685:695  msg.sender */\n      caller\n        /* \".deps/github/OpenZeppelin/openzeppelin-contracts/contracts/utils/Context.sol\":678:695  return msg.sender */\n      swap1\n      pop\n        /* \".deps/github/OpenZeppelin/openzeppelin-contracts/contracts/utils/Context.sol\":598:702  function _msgSender() internal view virtual returns (address payable) {... */\n      swap1\n      jump\t// out\n        /* \".deps/github/OpenZeppelin/openzeppelin-contracts/contracts/token/ERC721/ERC721.sol\":16388:16568  function _approve(address to, uint256 tokenId) private {... */\n    tag_111:\n        /* \".deps/github/OpenZeppelin/openzeppelin-contracts/contracts/token/ERC721/ERC721.sol\":16480:16482  to */\n      dup2\n        /* \".deps/github/OpenZeppelin/openzeppelin-contracts/contracts/token/ERC721/ERC721.sol\":16453:16468  _tokenApprovals */\n      0x04\n        /* \".deps/github/OpenZeppelin/openzeppelin-contracts/contracts/token/ERC721/ERC721.sol\":16453:16477  _tokenApprovals[tokenId] */\n      0x00\n        /* \".deps/github/OpenZeppelin/openzeppelin-contracts/contracts/token/ERC721/ERC721.sol\":16469:16476  tokenId */\n      dup4\n        /* \".deps/github/OpenZeppelin/openzeppelin-contracts/contracts/token/ERC721/ERC721.sol\":16453:16477  _tokenApprovals[tokenId] */\n      dup2\n      mstore\n      0x20\n      add\n      swap1\n      dup2\n      mstore\n      0x20\n      add\n      0x00\n      keccak256\n      0x00\n        /* \".deps/github/OpenZeppelin/openzeppelin-contracts/contracts/token/ERC721/ERC721.sol\":16453:16482  _tokenApprovals[tokenId] = to */\n      0x0100\n      exp\n      dup2\n      sload\n      dup2\n      0xffffffffffffffffffffffffffffffffffffffff\n      mul\n      not\n      and\n      swap1\n      dup4\n      0xffffffffffffffffffffffffffffffffffffffff\n      and\n      mul\n      or\n      swap1\n      sstore\n      pop\n        /* \".deps/github/OpenZeppelin/openzeppelin-contracts/contracts/token/ERC721/ERC721.sol\":16535:16542  tokenId */\n      dup1\n        /* \".deps/github/OpenZeppelin/openzeppelin-contracts/contracts/token/ERC721/ERC721.sol\":16531:16533  to */\n      dup3\n        /* \".deps/github/OpenZeppelin/openzeppelin-contracts/contracts/token/ERC721/ERC721.sol\":16497:16543  Approval(ERC721.ownerOf(tokenId), to, tokenId) */\n      0xffffffffffffffffffffffffffffffffffffffff\n      and\n        /* \".deps/github/OpenZeppelin/openzeppelin-contracts/contracts/token/ERC721/ERC721.sol\":16506:16529  ERC721.ownerOf(tokenId) */\n      tag_189\n        /* \".deps/github/OpenZeppelin/openzeppelin-contracts/contracts/token/ERC721/ERC721.sol\":16521:16528  tokenId */\n      dup4\n        /* \".deps/github/OpenZeppelin/openzeppelin-contracts/contracts/token/ERC721/ERC721.sol\":16506:16520  ERC721.ownerOf */\n      tag_55\n        /* \".deps/github/OpenZeppelin/openzeppelin-contracts/contracts/token/ERC721/ERC721.sol\":16506:16529  ERC721.ownerOf(tokenId) */\n      jump\t// in\n    tag_189:\n        /* \".deps/github/OpenZeppelin/openzeppelin-contracts/contracts/token/ERC721/ERC721.sol\":16497:16543  Approval(ERC721.ownerOf(tokenId), to, tokenId) */\n      0xffffffffffffffffffffffffffffffffffffffff\n      and\n      0x8c5be1e5ebec7d5bd14f71427d1e84f3dd0314c0f7b2291e5b200ac8c7c3b925\n      mload(0x40)\n      mload(0x40)\n      dup1\n      swap2\n      sub\n      swap1\n      log4\n        /* \".deps/github/OpenZeppelin/openzeppelin-contracts/contracts/token/ERC721/ERC721.sol\":16388:16568  function _approve(address to, uint256 tokenId) private {... */\n      pop\n      pop\n      jump\t// out\n        /* \".deps/github/OpenZeppelin/openzeppelin-contracts/contracts/utils/EnumerableMap.sol\":7820:7941  function length(UintToAddressMap storage map) internal view returns (uint256) {... */\n    tag_114:\n        /* \".deps/github/OpenZeppelin/openzeppelin-contracts/contracts/utils/EnumerableMap.sol\":7889:7896  uint256 */\n      0x00\n        /* \".deps/github/OpenZeppelin/openzeppelin-contracts/contracts/utils/EnumerableMap.sol\":7915:7934  _length(map._inner) */\n      tag_191\n        /* \".deps/github/OpenZeppelin/openzeppelin-contracts/contracts/utils/EnumerableMap.sol\":7923:7926  map */\n      dup3\n        /* \".deps/github/OpenZeppelin/openzeppelin-contracts/contracts/utils/EnumerableMap.sol\":7923:7933  map._inner */\n      0x00\n      add\n        /* \".deps/github/OpenZeppelin/openzeppelin-contracts/contracts/utils/EnumerableMap.sol\":7915:7922  _length */\n      tag_192\n        /* \".deps/github/OpenZeppelin/openzeppelin-contracts/contracts/utils/EnumerableMap.sol\":7915:7934  _length(map._inner) */\n      jump\t// in\n    tag_191:\n        /* \".deps/github/OpenZeppelin/openzeppelin-contracts/contracts/utils/EnumerableMap.sol\":7908:7934  return _length(map._inner) */\n      swap1\n      pop\n        /* \".deps/github/OpenZeppelin/openzeppelin-contracts/contracts/utils/EnumerableMap.sol\":7820:7941  function length(UintToAddressMap storage map) internal view returns (uint256) {... */\n      swap2\n      swap1\n      pop\n      jump\t// out\n        /* \".deps/github/OpenZeppelin/openzeppelin-contracts/contracts/token/ERC721/ERC721.sol\":10935:11286  function _isApprovedOrOwner(address spender, uint256 tokenId) internal view virtual returns (bool) {... */\n    tag_118:\n        /* \".deps/github/OpenZeppelin/openzeppelin-contracts/contracts/token/ERC721/ERC721.sol\":11028:11032  bool */\n      0x00\n        /* \".deps/github/OpenZeppelin/openzeppelin-contracts/contracts/token/ERC721/ERC721.sol\":11052:11068  _exists(tokenId) */\n      tag_194\n        /* \".deps/github/OpenZeppelin/openzeppelin-contracts/contracts/token/ERC721/ERC721.sol\":11060:11067  tokenId */\n      dup3\n        /* \".deps/github/OpenZeppelin/openzeppelin-contracts/contracts/token/ERC721/ERC721.sol\":11052:11059  _exists */\n      tag_99\n        /* \".deps/github/OpenZeppelin/openzeppelin-contracts/contracts/token/ERC721/ERC721.sol\":11052:11068  _exists(tokenId) */\n      jump\t// in\n    tag_194:\n        /* \".deps/github/OpenZeppelin/openzeppelin-contracts/contracts/token/ERC721/ERC721.sol\":11044:11117  require(_exists(tokenId), \"ERC721: operator query for nonexistent token\") */\n      tag_195\n      jumpi\n      mload(0x40)\n      0x08c379a000000000000000000000000000000000000000000000000000000000\n      dup2\n      mstore\n      0x04\n      add\n      dup1\n      dup1\n      0x20\n      add\n      dup3\n      dup2\n      sub\n      dup3\n      mstore\n      0x2c\n      dup2\n      mstore\n      0x20\n      add\n      dup1\n      data_5797d1ccb08b83980dd0c07ea40d8f6a64d35fff736a19bdd17522954cb0899c\n      0x2c\n      swap2\n      codecopy\n      0x40\n      add\n      swap2\n      pop\n      pop\n      mload(0x40)\n      dup1\n      swap2\n      sub\n      swap1\n      revert\n    tag_195:\n        /* \".deps/github/OpenZeppelin/openzeppelin-contracts/contracts/token/ERC721/ERC721.sol\":11127:11140  address owner */\n      0x00\n        /* \".deps/github/OpenZeppelin/openzeppelin-contracts/contracts/token/ERC721/ERC721.sol\":11143:11166  ERC721.ownerOf(tokenId) */\n      tag_196\n        /* \".deps/github/OpenZeppelin/openzeppelin-contracts/contracts/token/ERC721/ERC721.sol\":11158:11165  tokenId */\n      dup4\n        /* \".deps/github/OpenZeppelin/openzeppelin-contracts/contracts/token/ERC721/ERC721.sol\":11143:11157  ERC721.ownerOf */\n      tag_55\n        /* \".deps/github/OpenZeppelin/openzeppelin-contracts/contracts/token/ERC721/ERC721.sol\":11143:11166  ERC721.ownerOf(tokenId) */\n      jump\t// in\n    tag_196:\n        /* \".deps/github/OpenZeppelin/openzeppelin-contracts/contracts/token/ERC721/ERC721.sol\":11127:11166  address owner = ERC721.ownerOf(tokenId) */\n      swap1\n      pop\n        /* \".deps/github/OpenZeppelin/openzeppelin-contracts/contracts/token/ERC721/ERC721.sol\":11195:11200  owner */\n      dup1\n        /* \".deps/github/OpenZeppelin/openzeppelin-contracts/contracts/token/ERC721/ERC721.sol\":11184:11200  spender == owner */\n      0xffffffffffffffffffffffffffffffffffffffff\n      and\n        /* \".deps/github/OpenZeppelin/openzeppelin-contracts/contracts/token/ERC721/ERC721.sol\":11184:11191  spender */\n      dup5\n        /* \".deps/github/OpenZeppelin/openzeppelin-contracts/contracts/token/ERC721/ERC721.sol\":11184:11200  spender == owner */\n      0xffffffffffffffffffffffffffffffffffffffff\n      and\n      eq\n        /* \".deps/github/OpenZeppelin/openzeppelin-contracts/contracts/token/ERC721/ERC721.sol\":11184:11235  spender == owner || getApproved(tokenId) == spender */\n      dup1\n      tag_197\n      jumpi\n      pop\n        /* \".deps/github/OpenZeppelin/openzeppelin-contracts/contracts/token/ERC721/ERC721.sol\":11228:11235  spender */\n      dup4\n        /* \".deps/github/OpenZeppelin/openzeppelin-contracts/contracts/token/ERC721/ERC721.sol\":11204:11235  getApproved(tokenId) == spender */\n      0xffffffffffffffffffffffffffffffffffffffff\n      and\n        /* \".deps/github/OpenZeppelin/openzeppelin-contracts/contracts/token/ERC721/ERC721.sol\":11204:11224  getApproved(tokenId) */\n      tag_198\n        /* \".deps/github/OpenZeppelin/openzeppelin-contracts/contracts/token/ERC721/ERC721.sol\":11216:11223  tokenId */\n      dup5\n        /* \".deps/github/OpenZeppelin/openzeppelin-contracts/contracts/token/ERC721/ERC721.sol\":11204:11215  getApproved */\n      tag_35\n        /* \".deps/github/OpenZeppelin/openzeppelin-contracts/contracts/token/ERC721/ERC721.sol\":11204:11224  getApproved(tokenId) */\n      jump\t// in\n    tag_198:\n        /* \".deps/github/OpenZeppelin/openzeppelin-contracts/contracts/token/ERC721/ERC721.sol\":11204:11235  getApproved(tokenId) == spender */\n      0xffffffffffffffffffffffffffffffffffffffff\n      and\n      eq\n        /* \".deps/github/OpenZeppelin/openzeppelin-contracts/contracts/token/ERC721/ERC721.sol\":11184:11235  spender == owner || getApproved(tokenId) == spender */\n    tag_197:\n        /* \".deps/github/OpenZeppelin/openzeppelin-contracts/contracts/token/ERC721/ERC721.sol\":11184:11278  spender == owner || getApproved(tokenId) == spender || ERC721.isApprovedForAll(owner, spender) */\n      dup1\n      tag_199\n      jumpi\n      pop\n        /* \".deps/github/OpenZeppelin/openzeppelin-contracts/contracts/token/ERC721/ERC721.sol\":11239:11278  ERC721.isApprovedForAll(owner, spender) */\n      tag_200\n        /* \".deps/github/OpenZeppelin/openzeppelin-contracts/contracts/token/ERC721/ERC721.sol\":11263:11268  owner */\n      dup2\n        /* \".deps/github/OpenZeppelin/openzeppelin-contracts/contracts/token/ERC721/ERC721.sol\":11270:11277  spender */\n      dup6\n        /* \".deps/github/OpenZeppelin/openzeppelin-contracts/contracts/token/ERC721/ERC721.sol\":11239:11262  ERC721.isApprovedForAll */\n      tag_91\n        /* \".deps/github/OpenZeppelin/openzeppelin-contracts/contracts/token/ERC721/ERC721.sol\":11239:11278  ERC721.isApprovedForAll(owner, spender) */\n      jump\t// in\n    tag_200:\n        /* \".deps/github/OpenZeppelin/openzeppelin-contracts/contracts/token/ERC721/ERC721.sol\":11184:11278  spender == owner || getApproved(tokenId) == spender || ERC721.isApprovedForAll(owner, spender) */\n    tag_199:\n        /* \".deps/github/OpenZeppelin/openzeppelin-contracts/contracts/token/ERC721/ERC721.sol\":11176:11279  return (spender == owner || getApproved(tokenId) == spender || ERC721.isApprovedForAll(owner, spender)) */\n      swap2\n      pop\n      pop\n        /* \".deps/github/OpenZeppelin/openzeppelin-contracts/contracts/token/ERC721/ERC721.sol\":10935:11286  function _isApprovedOrOwner(address spender, uint256 tokenId) internal view virtual returns (bool) {... */\n      swap3\n      swap2\n      pop\n      pop\n      jump\t// out\n        /* \".deps/github/OpenZeppelin/openzeppelin-contracts/contracts/token/ERC721/ERC721.sol\":13976:14560  function _transfer(address from, address to, uint256 tokenId) internal virtual {... */\n    tag_122:\n        /* \".deps/github/OpenZeppelin/openzeppelin-contracts/contracts/token/ERC721/ERC721.sol\":14100:14104  from */\n      dup3\n        /* \".deps/github/OpenZeppelin/openzeppelin-contracts/contracts/token/ERC721/ERC721.sol\":14073:14104  ERC721.ownerOf(tokenId) == from */\n      0xffffffffffffffffffffffffffffffffffffffff\n      and\n        /* \".deps/github/OpenZeppelin/openzeppelin-contracts/contracts/token/ERC721/ERC721.sol\":14073:14096  ERC721.ownerOf(tokenId) */\n      tag_202\n        /* \".deps/github/OpenZeppelin/openzeppelin-contracts/contracts/token/ERC721/ERC721.sol\":14088:14095  tokenId */\n      dup3\n        /* \".deps/github/OpenZeppelin/openzeppelin-contracts/contracts/token/ERC721/ERC721.sol\":14073:14087  ERC721.ownerOf */\n      tag_55\n        /* \".deps/github/OpenZeppelin/openzeppelin-contracts/contracts/token/ERC721/ERC721.sol\":14073:14096  ERC721.ownerOf(tokenId) */\n      jump\t// in\n    tag_202:\n        /* \".deps/github/OpenZeppelin/openzeppelin-contracts/contracts/token/ERC721/ERC721.sol\":14073:14104  ERC721.ownerOf(tokenId) == from */\n      0xffffffffffffffffffffffffffffffffffffffff\n      and\n      eq\n        /* \".deps/github/OpenZeppelin/openzeppelin-contracts/contracts/token/ERC721/ERC721.sol\":14065:14150  require(ERC721.ownerOf(tokenId) == from, \"ERC721: transfer of token that is not own\") */\n      tag_203\n      jumpi\n      mload(0x40)\n      0x08c379a000000000000000000000000000000000000000000000000000000000\n      dup2\n      mstore\n      0x04\n      add\n      dup1\n      dup1\n      0x20\n      add\n      dup3\n      dup2\n      sub\n      dup3\n      mstore\n      0x29\n      dup2\n      mstore\n      0x20\n      add\n      dup1\n      data_a01073130a885d6c1c1af6ac75fc3b1c4f9403c235362962bbf528e2bd87d950\n      0x29\n      swap2\n      codecopy\n      0x40\n      add\n      swap2\n      pop\n      pop\n      mload(0x40)\n      dup1\n      swap2\n      sub\n      swap1\n      revert\n    tag_203:\n        /* \".deps/github/OpenZeppelin/openzeppelin-contracts/contracts/token/ERC721/ERC721.sol\":14200:14201  0 */\n      0x00\n        /* \".deps/github/OpenZeppelin/openzeppelin-contracts/contracts/token/ERC721/ERC721.sol\":14186:14202  to != address(0) */\n      0xffffffffffffffffffffffffffffffffffffffff\n      and\n        /* \".deps/github/OpenZeppelin/openzeppelin-contracts/contracts/token/ERC721/ERC721.sol\":14186:14188  to */\n      dup3\n        /* \".deps/github/OpenZeppelin/openzeppelin-contracts/contracts/token/ERC721/ERC721.sol\":14186:14202  to != address(0) */\n      0xffffffffffffffffffffffffffffffffffffffff\n      and\n      eq\n      iszero\n        /* \".deps/github/OpenZeppelin/openzeppelin-contracts/contracts/token/ERC721/ERC721.sol\":14178:14243  require(to != address(0), \"ERC721: transfer to the zero address\") */\n      tag_204\n      jumpi\n      mload(0x40)\n      0x08c379a000000000000000000000000000000000000000000000000000000000\n      dup2\n      mstore\n      0x04\n      add\n      dup1\n      dup1\n      0x20\n      add\n      dup3\n      dup2\n      sub\n      dup3\n      mstore\n      0x24\n      dup2\n      mstore\n      0x20\n      add\n      dup1\n      data_455fea98ea03c32d7dd1a6f1426917d80529bf47b3ccbde74e7206e889e709f4\n      0x24\n      swap2\n      codecopy\n      0x40\n      add\n      swap2\n      pop\n      pop\n      mload(0x40)\n      dup1\n      swap2\n      sub\n      swap1\n      revert\n    tag_204:\n        /* \".deps/github/OpenZeppelin/openzeppelin-contracts/contracts/token/ERC721/ERC721.sol\":14254:14293  _beforeTokenTransfer(from, to, tokenId) */\n      tag_205\n        /* \".deps/github/OpenZeppelin/openzeppelin-contracts/contracts/token/ERC721/ERC721.sol\":14275:14279  from */\n      dup4\n        /* \".deps/github/OpenZeppelin/openzeppelin-contracts/contracts/token/ERC721/ERC721.sol\":14281:14283  to */\n      dup4\n        /* \".deps/github/OpenZeppelin/openzeppelin-contracts/contracts/token/ERC721/ERC721.sol\":14285:14292  tokenId */\n      dup4\n        /* \".deps/github/OpenZeppelin/openzeppelin-contracts/contracts/token/ERC721/ERC721.sol\":14254:14274  _beforeTokenTransfer */\n      tag_206\n        /* \".deps/github/OpenZeppelin/openzeppelin-contracts/contracts/token/ERC721/ERC721.sol\":14254:14293  _beforeTokenTransfer(from, to, tokenId) */\n      jump\t// in\n    tag_205:\n        /* \".deps/github/OpenZeppelin/openzeppelin-contracts/contracts/token/ERC721/ERC721.sol\":14355:14384  _approve(address(0), tokenId) */\n      tag_207\n        /* \".deps/github/OpenZeppelin/openzeppelin-contracts/contracts/token/ERC721/ERC721.sol\":14372:14373  0 */\n      0x00\n        /* \".deps/github/OpenZeppelin/openzeppelin-contracts/contracts/token/ERC721/ERC721.sol\":14376:14383  tokenId */\n      dup3\n        /* \".deps/github/OpenZeppelin/openzeppelin-contracts/contracts/token/ERC721/ERC721.sol\":14355:14363  _approve */\n      tag_111\n        /* \".deps/github/OpenZeppelin/openzeppelin-contracts/contracts/token/ERC721/ERC721.sol\":14355:14384  _approve(address(0), tokenId) */\n      jump\t// in\n    tag_207:\n        /* \".deps/github/OpenZeppelin/openzeppelin-contracts/contracts/token/ERC721/ERC721.sol\":14395:14430  _holderTokens[from].remove(tokenId) */\n      tag_208\n        /* \".deps/github/OpenZeppelin/openzeppelin-contracts/contracts/token/ERC721/ERC721.sol\":14422:14429  tokenId */\n      dup2\n        /* \".deps/github/OpenZeppelin/openzeppelin-contracts/contracts/token/ERC721/ERC721.sol\":14395:14408  _holderTokens */\n      0x01\n        /* \".deps/github/OpenZeppelin/openzeppelin-contracts/contracts/token/ERC721/ERC721.sol\":14395:14414  _holderTokens[from] */\n      0x00\n        /* \".deps/github/OpenZeppelin/openzeppelin-contracts/contracts/token/ERC721/ERC721.sol\":14409:14413  from */\n      dup7\n        /* \".deps/github/OpenZeppelin/openzeppelin-contracts/contracts/token/ERC721/ERC721.sol\":14395:14414  _holderTokens[from] */\n      0xffffffffffffffffffffffffffffffffffffffff\n      and\n      0xffffffffffffffffffffffffffffffffffffffff\n      and\n      dup2\n      mstore\n      0x20\n      add\n      swap1\n      dup2\n      mstore\n      0x20\n      add\n      0x00\n      keccak256\n        /* \".deps/github/OpenZeppelin/openzeppelin-contracts/contracts/token/ERC721/ERC721.sol\":14395:14421  _holderTokens[from].remove */\n      tag_209\n      swap1\n        /* \".deps/github/OpenZeppelin/openzeppelin-contracts/contracts/token/ERC721/ERC721.sol\":14395:14430  _holderTokens[from].remove(tokenId) */\n      swap2\n      swap1\n      0xffffffff\n      and\n      jump\t// in\n    tag_208:\n      pop\n        /* \".deps/github/OpenZeppelin/openzeppelin-contracts/contracts/token/ERC721/ERC721.sol\":14440:14470  _holderTokens[to].add(tokenId) */\n      tag_210\n        /* \".deps/github/OpenZeppelin/openzeppelin-contracts/contracts/token/ERC721/ERC721.sol\":14462:14469  tokenId */\n      dup2\n        /* \".deps/github/OpenZeppelin/openzeppelin-contracts/contracts/token/ERC721/ERC721.sol\":14440:14453  _holderTokens */\n      0x01\n        /* \".deps/github/OpenZeppelin/openzeppelin-contracts/contracts/token/ERC721/ERC721.sol\":14440:14457  _holderTokens[to] */\n      0x00\n        /* \".deps/github/OpenZeppelin/openzeppelin-contracts/contracts/token/ERC721/ERC721.sol\":14454:14456  to */\n      dup6\n        /* \".deps/github/OpenZeppelin/openzeppelin-contracts/contracts/token/ERC721/ERC721.sol\":14440:14457  _holderTokens[to] */\n      0xffffffffffffffffffffffffffffffffffffffff\n      and\n      0xffffffffffffffffffffffffffffffffffffffff\n      and\n      dup2\n      mstore\n      0x20\n      add\n      swap1\n      dup2\n      mstore\n      0x20\n      add\n      0x00\n      keccak256\n        /* \".deps/github/OpenZeppelin/openzeppelin-contracts/contracts/token/ERC721/ERC721.sol\":14440:14461  _holderTokens[to].add */\n      tag_211\n      swap1\n        /* \".deps/github/OpenZeppelin/openzeppelin-contracts/contracts/token/ERC721/ERC721.sol\":14440:14470  _holderTokens[to].add(tokenId) */\n      swap2\n      swap1\n      0xffffffff\n      and\n      jump\t// in\n    tag_210:\n      pop\n        /* \".deps/github/OpenZeppelin/openzeppelin-contracts/contracts/token/ERC721/ERC721.sol\":14481:14510  _tokenOwners.set(tokenId, to) */\n      tag_212\n        /* \".deps/github/OpenZeppelin/openzeppelin-contracts/contracts/token/ERC721/ERC721.sol\":14498:14505  tokenId */\n      dup2\n        /* \".deps/github/OpenZeppelin/openzeppelin-contracts/contracts/token/ERC721/ERC721.sol\":14507:14509  to */\n      dup4\n        /* \".deps/github/OpenZeppelin/openzeppelin-contracts/contracts/token/ERC721/ERC721.sol\":14481:14493  _tokenOwners */\n      0x02\n        /* \".deps/github/OpenZeppelin/openzeppelin-contracts/contracts/token/ERC721/ERC721.sol\":14481:14497  _tokenOwners.set */\n      tag_213\n      swap1\n        /* \".deps/github/OpenZeppelin/openzeppelin-contracts/contracts/token/ERC721/ERC721.sol\":14481:14510  _tokenOwners.set(tokenId, to) */\n      swap3\n      swap2\n      swap1\n      0xffffffff\n      and\n      jump\t// in\n    tag_212:\n      pop\n        /* \".deps/github/OpenZeppelin/openzeppelin-contracts/contracts/token/ERC721/ERC721.sol\":14545:14552  tokenId */\n      dup1\n        /* \".deps/github/OpenZeppelin/openzeppelin-contracts/contracts/token/ERC721/ERC721.sol\":14541:14543  to */\n      dup3\n        /* \".deps/github/OpenZeppelin/openzeppelin-contracts/contracts/token/ERC721/ERC721.sol\":14526:14553  Transfer(from, to, tokenId) */\n      0xffffffffffffffffffffffffffffffffffffffff\n      and\n        /* \".deps/github/OpenZeppelin/openzeppelin-contracts/contracts/token/ERC721/ERC721.sol\":14535:14539  from */\n      dup5\n        /* \".deps/github/OpenZeppelin/openzeppelin-contracts/contracts/token/ERC721/ERC721.sol\":14526:14553  Transfer(from, to, tokenId) */\n      0xffffffffffffffffffffffffffffffffffffffff\n      and\n      0xddf252ad1be2c89b69c2b068fc378daa952ba7f163c4a11628f55a4df523b3ef\n      mload(0x40)\n      mload(0x40)\n      dup1\n      swap2\n      sub\n      swap1\n      log4\n        /* \".deps/github/OpenZeppelin/openzeppelin-contracts/contracts/token/ERC721/ERC721.sol\":13976:14560  function _transfer(address from, address to, uint256 tokenId) internal virtual {... */\n      pop\n      pop\n      pop\n      jump\t// out\n        /* \".deps/github/OpenZeppelin/openzeppelin-contracts/contracts/utils/EnumerableSet.sol\":9250:9385  function at(UintSet storage set, uint256 index) internal view returns (uint256) {... */\n    tag_125:\n        /* \".deps/github/OpenZeppelin/openzeppelin-contracts/contracts/utils/EnumerableSet.sol\":9321:9328  uint256 */\n      0x00\n        /* \".deps/github/OpenZeppelin/openzeppelin-contracts/contracts/utils/EnumerableSet.sol\":9355:9377  _at(set._inner, index) */\n      tag_215\n        /* \".deps/github/OpenZeppelin/openzeppelin-contracts/contracts/utils/EnumerableSet.sol\":9359:9362  set */\n      dup4\n        /* \".deps/github/OpenZeppelin/openzeppelin-contracts/contracts/utils/EnumerableSet.sol\":9359:9369  set._inner */\n      0x00\n      add\n        /* \".deps/github/OpenZeppelin/openzeppelin-contracts/contracts/utils/EnumerableSet.sol\":9371:9376  index */\n      dup4\n        /* \".deps/github/OpenZeppelin/openzeppelin-contracts/contracts/utils/EnumerableSet.sol\":9355:9358  _at */\n      tag_216\n        /* \".deps/github/OpenZeppelin/openzeppelin-contracts/contracts/utils/EnumerableSet.sol\":9355:9377  _at(set._inner, index) */\n      jump\t// in\n    tag_215:\n        /* \".deps/github/OpenZeppelin/openzeppelin-contracts/contracts/utils/EnumerableSet.sol\":9347:9378  uint256(_at(set._inner, index)) */\n      0x00\n      shr\n        /* \".deps/github/OpenZeppelin/openzeppelin-contracts/contracts/utils/EnumerableSet.sol\":9340:9378  return uint256(_at(set._inner, index)) */\n      swap1\n      pop\n        /* \".deps/github/OpenZeppelin/openzeppelin-contracts/contracts/utils/EnumerableSet.sol\":9250:9385  function at(UintSet storage set, uint256 index) internal view returns (uint256) {... */\n      swap3\n      swap2\n      pop\n      pop\n      jump\t// out\n        /* \".deps/github/OpenZeppelin/openzeppelin-contracts/contracts/utils/EnumerableMap.sol\":8269:8502  function at(UintToAddressMap storage map, uint256 index) internal view returns (uint256, address) {... */\n    tag_130:\n        /* \".deps/github/OpenZeppelin/openzeppelin-contracts/contracts/utils/EnumerableMap.sol\":8349:8356  uint256 */\n      0x00\n        /* \".deps/github/OpenZeppelin/openzeppelin-contracts/contracts/utils/EnumerableMap.sol\":8358:8365  address */\n      dup1\n        /* \".deps/github/OpenZeppelin/openzeppelin-contracts/contracts/utils/EnumerableMap.sol\":8378:8389  bytes32 key */\n      0x00\n        /* \".deps/github/OpenZeppelin/openzeppelin-contracts/contracts/utils/EnumerableMap.sol\":8391:8404  bytes32 value */\n      dup1\n        /* \".deps/github/OpenZeppelin/openzeppelin-contracts/contracts/utils/EnumerableMap.sol\":8408:8430  _at(map._inner, index) */\n      tag_218\n        /* \".deps/github/OpenZeppelin/openzeppelin-contracts/contracts/utils/EnumerableMap.sol\":8412:8415  map */\n      dup7\n        /* \".deps/github/OpenZeppelin/openzeppelin-contracts/contracts/utils/EnumerableMap.sol\":8412:8422  map._inner */\n      0x00\n      add\n        /* \".deps/github/OpenZeppelin/openzeppelin-contracts/contracts/utils/EnumerableMap.sol\":8424:8429  index */\n      dup7\n        /* \".deps/github/OpenZeppelin/openzeppelin-contracts/contracts/utils/EnumerableMap.sol\":8408:8411  _at */\n      tag_219\n        /* \".deps/github/OpenZeppelin/openzeppelin-contracts/contracts/utils/EnumerableMap.sol\":8408:8430  _at(map._inner, index) */\n      jump\t// in\n    tag_218:\n        /* \".deps/github/OpenZeppelin/openzeppelin-contracts/contracts/utils/EnumerableMap.sol\":8377:8430  (bytes32 key, bytes32 value) = _at(map._inner, index) */\n      swap2\n      pop\n      swap2\n      pop\n        /* \".deps/github/OpenZeppelin/openzeppelin-contracts/contracts/utils/EnumerableMap.sol\":8456:8459  key */\n      dup2\n        /* \".deps/github/OpenZeppelin/openzeppelin-contracts/contracts/utils/EnumerableMap.sol\":8448:8460  uint256(key) */\n      0x00\n      shr\n        /* \".deps/github/OpenZeppelin/openzeppelin-contracts/contracts/utils/EnumerableMap.sol\":8486:8491  value */\n      dup2\n        /* \".deps/github/OpenZeppelin/openzeppelin-contracts/contracts/utils/EnumerableMap.sol\":8478:8492  uint256(value) */\n      0x00\n      shr\n        /* \".deps/github/OpenZeppelin/openzeppelin-contracts/contracts/utils/EnumerableMap.sol\":8440:8495  return (uint256(key), address(uint160(uint256(value)))) */\n      swap4\n      pop\n      swap4\n      pop\n      pop\n      pop\n        /* \".deps/github/OpenZeppelin/openzeppelin-contracts/contracts/utils/EnumerableMap.sol\":8269:8502  function at(UintToAddressMap storage map, uint256 index) internal view returns (uint256, address) {... */\n      swap3\n      pop\n      swap3\n      swap1\n      pop\n      jump\t// out\n        /* \".deps/github/OpenZeppelin/openzeppelin-contracts/contracts/utils/EnumerableMap.sol\":9522:9733  function get(UintToAddressMap storage map, uint256 key, string memory errorMessage) internal view returns (address) {... */\n    tag_133:\n        /* \".deps/github/OpenZeppelin/openzeppelin-contracts/contracts/utils/EnumerableMap.sol\":9629:9636  address */\n      0x00\n        /* \".deps/github/OpenZeppelin/openzeppelin-contracts/contracts/utils/EnumerableMap.sol\":9679:9723  _get(map._inner, bytes32(key), errorMessage) */\n      tag_221\n        /* \".deps/github/OpenZeppelin/openzeppelin-contracts/contracts/utils/EnumerableMap.sol\":9684:9687  map */\n      dup5\n        /* \".deps/github/OpenZeppelin/openzeppelin-contracts/contracts/utils/EnumerableMap.sol\":9684:9694  map._inner */\n      0x00\n      add\n        /* \".deps/github/OpenZeppelin/openzeppelin-contracts/contracts/utils/EnumerableMap.sol\":9704:9707  key */\n      dup5\n        /* \".deps/github/OpenZeppelin/openzeppelin-contracts/contracts/utils/EnumerableMap.sol\":9696:9708  bytes32(key) */\n      0x00\n      shl\n        /* \".deps/github/OpenZeppelin/openzeppelin-contracts/contracts/utils/EnumerableMap.sol\":9710:9722  errorMessage */\n      dup5\n        /* \".deps/github/OpenZeppelin/openzeppelin-contracts/contracts/utils/EnumerableMap.sol\":9679:9683  _get */\n      tag_222\n        /* \".deps/github/OpenZeppelin/openzeppelin-contracts/contracts/utils/EnumerableMap.sol\":9679:9723  _get(map._inner, bytes32(key), errorMessage) */\n      jump\t// in\n    tag_221:\n        /* \".deps/github/OpenZeppelin/openzeppelin-contracts/contracts/utils/EnumerableMap.sol\":9671:9724  uint256(_get(map._inner, bytes32(key), errorMessage)) */\n      0x00\n      shr\n        /* \".deps/github/OpenZeppelin/openzeppelin-contracts/contracts/utils/EnumerableMap.sol\":9648:9726  return address(uint160(uint256(_get(map._inner, bytes32(key), errorMessage)))) */\n      swap1\n      pop\n        /* \".deps/github/OpenZeppelin/openzeppelin-contracts/contracts/utils/EnumerableMap.sol\":9522:9733  function get(UintToAddressMap storage map, uint256 key, string memory errorMessage) internal view returns (address) {... */\n      swap4\n      swap3\n      pop\n      pop\n      pop\n      jump\t// out\n        /* \".deps/github/OpenZeppelin/openzeppelin-contracts/contracts/utils/EnumerableSet.sol\":8806:8918  function length(UintSet storage set) internal view returns (uint256) {... */\n    tag_141:\n        /* \".deps/github/OpenZeppelin/openzeppelin-contracts/contracts/utils/EnumerableSet.sol\":8866:8873  uint256 */\n      0x00\n        /* \".deps/github/OpenZeppelin/openzeppelin-contracts/contracts/utils/EnumerableSet.sol\":8892:8911  _length(set._inner) */\n      tag_224\n        /* \".deps/github/OpenZeppelin/openzeppelin-contracts/contracts/utils/EnumerableSet.sol\":8900:8903  set */\n      dup3\n        /* \".deps/github/OpenZeppelin/openzeppelin-contracts/contracts/utils/EnumerableSet.sol\":8900:8910  set._inner */\n      0x00\n      add\n        /* \".deps/github/OpenZeppelin/openzeppelin-contracts/contracts/utils/EnumerableSet.sol\":8892:8899  _length */\n      tag_225\n        /* \".deps/github/OpenZeppelin/openzeppelin-contracts/contracts/utils/EnumerableSet.sol\":8892:8911  _length(set._inner) */\n      jump\t// in\n    tag_224:\n        /* \".deps/github/OpenZeppelin/openzeppelin-contracts/contracts/utils/EnumerableSet.sol\":8885:8911  return _length(set._inner) */\n      swap1\n      pop\n        /* \".deps/github/OpenZeppelin/openzeppelin-contracts/contracts/utils/EnumerableSet.sol\":8806:8918  function length(UintSet storage set) internal view returns (uint256) {... */\n      swap2\n      swap1\n      pop\n      jump\t// out\n        /* \".deps/github/OpenZeppelin/openzeppelin-contracts/contracts/token/ERC721/ERC721.sol\":10080:10349  function _safeTransfer(address from, address to, uint256 tokenId, bytes memory _data) internal virtual {... */\n    tag_156:\n        /* \".deps/github/OpenZeppelin/openzeppelin-contracts/contracts/token/ERC721/ERC721.sol\":10193:10221  _transfer(from, to, tokenId) */\n      tag_227\n        /* \".deps/github/OpenZeppelin/openzeppelin-contracts/contracts/token/ERC721/ERC721.sol\":10203:10207  from */\n      dup5\n        /* \".deps/github/OpenZeppelin/openzeppelin-contracts/contracts/token/ERC721/ERC721.sol\":10209:10211  to */\n      dup5\n        /* \".deps/github/OpenZeppelin/openzeppelin-contracts/contracts/token/ERC721/ERC721.sol\":10213:10220  tokenId */\n      dup5\n        /* \".deps/github/OpenZeppelin/openzeppelin-contracts/contracts/token/ERC721/ERC721.sol\":10193:10202  _transfer */\n      tag_122\n        /* \".deps/github/OpenZeppelin/openzeppelin-contracts/contracts/token/ERC721/ERC721.sol\":10193:10221  _transfer(from, to, tokenId) */\n      jump\t// in\n    tag_227:\n        /* \".deps/github/OpenZeppelin/openzeppelin-contracts/contracts/token/ERC721/ERC721.sol\":10239:10287  _checkOnERC721Received(from, to, tokenId, _data) */\n      tag_228\n        /* \".deps/github/OpenZeppelin/openzeppelin-contracts/contracts/token/ERC721/ERC721.sol\":10262:10266  from */\n      dup5\n        /* \".deps/github/OpenZeppelin/openzeppelin-contracts/contracts/token/ERC721/ERC721.sol\":10268:10270  to */\n      dup5\n        /* \".deps/github/OpenZeppelin/openzeppelin-contracts/contracts/token/ERC721/ERC721.sol\":10272:10279  tokenId */\n      dup5\n        /* \".deps/github/OpenZeppelin/openzeppelin-contracts/contracts/token/ERC721/ERC721.sol\":10281:10286  _data */\n      dup5\n        /* \".deps/github/OpenZeppelin/openzeppelin-contracts/contracts/token/ERC721/ERC721.sol\":10239:10261  _checkOnERC721Received */\n      tag_229\n        /* \".deps/github/OpenZeppelin/openzeppelin-contracts/contracts/token/ERC721/ERC721.sol\":10239:10287  _checkOnERC721Received(from, to, tokenId, _data) */\n      jump\t// in\n    tag_228:\n        /* \".deps/github/OpenZeppelin/openzeppelin-contracts/contracts/token/ERC721/ERC721.sol\":10231:10342  require(_checkOnERC721Received(from, to, tokenId, _data), \"ERC721: transfer to non ERC721Receiver implementer\") */\n      tag_230\n      jumpi\n      mload(0x40)\n      0x08c379a000000000000000000000000000000000000000000000000000000000\n      dup2\n      mstore\n      0x04\n      add\n      dup1\n      dup1\n      0x20\n      add\n      dup3\n      dup2\n      sub\n      dup3\n      mstore\n      0x32\n      dup2\n      mstore\n      0x20\n      add\n      dup1\n      data_1e766a06da43a53d0f4c380e06e5a342e14d5af1bf8501996c844905530ca84e\n      0x32\n      swap2\n      codecopy\n      0x40\n      add\n      swap2\n      pop\n      pop\n      mload(0x40)\n      dup1\n      swap2\n      sub\n      swap1\n      revert\n    tag_230:\n        /* \".deps/github/OpenZeppelin/openzeppelin-contracts/contracts/token/ERC721/ERC721.sol\":10080:10349  function _safeTransfer(address from, address to, uint256 tokenId, bytes memory _data) internal virtual {... */\n      pop\n      pop\n      pop\n      pop\n      jump\t// out\n        /* \".deps/github/OpenZeppelin/openzeppelin-contracts/contracts/utils/Strings.sol\":210:935  function toString(uint256 value) internal pure returns (string memory) {... */\n    tag_173:\n        /* \".deps/github/OpenZeppelin/openzeppelin-contracts/contracts/utils/Strings.sol\":266:279  string memory */\n      0x60\n        /* \".deps/github/OpenZeppelin/openzeppelin-contracts/contracts/utils/Strings.sol\":492:493  0 */\n      0x00\n        /* \".deps/github/OpenZeppelin/openzeppelin-contracts/contracts/utils/Strings.sol\":483:488  value */\n      dup3\n        /* \".deps/github/OpenZeppelin/openzeppelin-contracts/contracts/utils/Strings.sol\":483:493  value == 0 */\n      eq\n        /* \".deps/github/OpenZeppelin/openzeppelin-contracts/contracts/utils/Strings.sol\":479:530  if (value == 0) {... */\n      iszero\n      tag_232\n      jumpi\n        /* \".deps/github/OpenZeppelin/openzeppelin-contracts/contracts/utils/Strings.sol\":509:519  return \"0\" */\n      mload(0x40)\n      dup1\n      0x40\n      add\n      0x40\n      mstore\n      dup1\n      0x01\n      dup2\n      mstore\n      0x20\n      add\n      0x3000000000000000000000000000000000000000000000000000000000000000\n      dup2\n      mstore\n      pop\n      swap1\n      pop\n      jump(tag_231)\n        /* \".deps/github/OpenZeppelin/openzeppelin-contracts/contracts/utils/Strings.sol\":479:530  if (value == 0) {... */\n    tag_232:\n        /* \".deps/github/OpenZeppelin/openzeppelin-contracts/contracts/utils/Strings.sol\":539:551  uint256 temp */\n      0x00\n        /* \".deps/github/OpenZeppelin/openzeppelin-contracts/contracts/utils/Strings.sol\":554:559  value */\n      dup3\n        /* \".deps/github/OpenZeppelin/openzeppelin-contracts/contracts/utils/Strings.sol\":539:559  uint256 temp = value */\n      swap1\n      pop\n        /* \".deps/github/OpenZeppelin/openzeppelin-contracts/contracts/utils/Strings.sol\":569:583  uint256 digits */\n      0x00\n        /* \".deps/github/OpenZeppelin/openzeppelin-contracts/contracts/utils/Strings.sol\":593:668  while (temp != 0) {... */\n    tag_233:\n        /* \".deps/github/OpenZeppelin/openzeppelin-contracts/contracts/utils/Strings.sol\":608:609  0 */\n      0x00\n        /* \".deps/github/OpenZeppelin/openzeppelin-contracts/contracts/utils/Strings.sol\":600:604  temp */\n      dup3\n        /* \".deps/github/OpenZeppelin/openzeppelin-contracts/contracts/utils/Strings.sol\":600:609  temp != 0 */\n      eq\n        /* \".deps/github/OpenZeppelin/openzeppelin-contracts/contracts/utils/Strings.sol\":593:668  while (temp != 0) {... */\n      tag_234\n      jumpi\n        /* \".deps/github/OpenZeppelin/openzeppelin-contracts/contracts/utils/Strings.sol\":625:633  digits++ */\n      dup1\n      dup1\n      0x01\n      add\n      swap2\n      pop\n      pop\n        /* \".deps/github/OpenZeppelin/openzeppelin-contracts/contracts/utils/Strings.sol\":655:657  10 */\n      0x0a\n        /* \".deps/github/OpenZeppelin/openzeppelin-contracts/contracts/utils/Strings.sol\":647:657  temp /= 10 */\n      dup3\n      dup2\n      tag_235\n      jumpi\n      invalid\n    tag_235:\n      div\n      swap2\n      pop\n        /* \".deps/github/OpenZeppelin/openzeppelin-contracts/contracts/utils/Strings.sol\":593:668  while (temp != 0) {... */\n      jump(tag_233)\n    tag_234:\n        /* \".deps/github/OpenZeppelin/openzeppelin-contracts/contracts/utils/Strings.sol\":677:696  bytes memory buffer */\n      0x60\n        /* \".deps/github/OpenZeppelin/openzeppelin-contracts/contracts/utils/Strings.sol\":709:715  digits */\n      dup2\n        /* \".deps/github/OpenZeppelin/openzeppelin-contracts/contracts/utils/Strings.sol\":699:716  new bytes(digits) */\n      0xffffffffffffffff\n      dup2\n      gt\n      dup1\n      iszero\n      tag_236\n      jumpi\n      0x00\n      dup1\n      revert\n    tag_236:\n      pop\n      mload(0x40)\n      swap1\n      dup1\n      dup3\n      mstore\n      dup1\n      0x1f\n      add\n      not(0x1f)\n      and\n      0x20\n      add\n      dup3\n      add\n      0x40\n      mstore\n      dup1\n      iszero\n      tag_237\n      jumpi\n      dup2\n      0x20\n      add\n      0x01\n      dup3\n      mul\n      dup1\n      calldatasize\n      dup4\n      calldatacopy\n      dup1\n      dup3\n      add\n      swap2\n      pop\n      pop\n      swap1\n      pop\n    tag_237:\n      pop\n        /* \".deps/github/OpenZeppelin/openzeppelin-contracts/contracts/utils/Strings.sol\":677:716  bytes memory buffer = new bytes(digits) */\n      swap1\n      pop\n        /* \".deps/github/OpenZeppelin/openzeppelin-contracts/contracts/utils/Strings.sol\":726:739  uint256 index */\n      0x00\n        /* \".deps/github/OpenZeppelin/openzeppelin-contracts/contracts/utils/Strings.sol\":751:752  1 */\n      0x01\n        /* \".deps/github/OpenZeppelin/openzeppelin-contracts/contracts/utils/Strings.sol\":742:748  digits */\n      dup4\n        /* \".deps/github/OpenZeppelin/openzeppelin-contracts/contracts/utils/Strings.sol\":742:752  digits - 1 */\n      sub\n        /* \".deps/github/OpenZeppelin/openzeppelin-contracts/contracts/utils/Strings.sol\":726:752  uint256 index = digits - 1 */\n      swap1\n      pop\n        /* \".deps/github/OpenZeppelin/openzeppelin-contracts/contracts/utils/Strings.sol\":769:774  value */\n      dup6\n        /* \".deps/github/OpenZeppelin/openzeppelin-contracts/contracts/utils/Strings.sol\":762:774  temp = value */\n      swap4\n      pop\n        /* \".deps/github/OpenZeppelin/openzeppelin-contracts/contracts/utils/Strings.sol\":784:898  while (temp != 0) {... */\n    tag_238:\n        /* \".deps/github/OpenZeppelin/openzeppelin-contracts/contracts/utils/Strings.sol\":799:800  0 */\n      0x00\n        /* \".deps/github/OpenZeppelin/openzeppelin-contracts/contracts/utils/Strings.sol\":791:795  temp */\n      dup5\n        /* \".deps/github/OpenZeppelin/openzeppelin-contracts/contracts/utils/Strings.sol\":791:800  temp != 0 */\n      eq\n        /* \".deps/github/OpenZeppelin/openzeppelin-contracts/contracts/utils/Strings.sol\":784:898  while (temp != 0) {... */\n      tag_239\n      jumpi\n        /* \".deps/github/OpenZeppelin/openzeppelin-contracts/contracts/utils/Strings.sol\":859:861  10 */\n      0x0a\n        /* \".deps/github/OpenZeppelin/openzeppelin-contracts/contracts/utils/Strings.sol\":852:856  temp */\n      dup5\n        /* \".deps/github/OpenZeppelin/openzeppelin-contracts/contracts/utils/Strings.sol\":852:861  temp % 10 */\n      dup2\n      tag_240\n      jumpi\n      invalid\n    tag_240:\n      mod\n        /* \".deps/github/OpenZeppelin/openzeppelin-contracts/contracts/utils/Strings.sol\":847:849  48 */\n      0x30\n        /* \".deps/github/OpenZeppelin/openzeppelin-contracts/contracts/utils/Strings.sol\":847:861  48 + temp % 10 */\n      add\n        /* \".deps/github/OpenZeppelin/openzeppelin-contracts/contracts/utils/Strings.sol\":834:863  bytes1(uint8(48 + temp % 10)) */\n      0xf8\n      shl\n        /* \".deps/github/OpenZeppelin/openzeppelin-contracts/contracts/utils/Strings.sol\":816:822  buffer */\n      dup3\n        /* \".deps/github/OpenZeppelin/openzeppelin-contracts/contracts/utils/Strings.sol\":823:830  index-- */\n      dup3\n      dup1\n      0x01\n      swap1\n      sub\n      swap4\n      pop\n        /* \".deps/github/OpenZeppelin/openzeppelin-contracts/contracts/utils/Strings.sol\":816:831  buffer[index--] */\n      dup2\n      mload\n      dup2\n      lt\n      tag_241\n      jumpi\n      invalid\n    tag_241:\n      0x20\n      add\n      add\n        /* \".deps/github/OpenZeppelin/openzeppelin-contracts/contracts/utils/Strings.sol\":816:863  buffer[index--] = bytes1(uint8(48 + temp % 10)) */\n      swap1\n      not(0xffffffffffffffffffffffffffffffffffffffffffffffffffffffffffffff)\n      and\n      swap1\n      dup2\n      0x00\n      byte\n      swap1\n      mstore8\n      pop\n        /* \".deps/github/OpenZeppelin/openzeppelin-contracts/contracts/utils/Strings.sol\":885:887  10 */\n      0x0a\n        /* \".deps/github/OpenZeppelin/openzeppelin-contracts/contracts/utils/Strings.sol\":877:887  temp /= 10 */\n      dup5\n      dup2\n      tag_242\n      jumpi\n      invalid\n    tag_242:\n      div\n      swap4\n      pop\n        /* \".deps/github/OpenZeppelin/openzeppelin-contracts/contracts/utils/Strings.sol\":784:898  while (temp != 0) {... */\n      jump(tag_238)\n    tag_239:\n        /* \".deps/github/OpenZeppelin/openzeppelin-contracts/contracts/utils/Strings.sol\":921:927  buffer */\n      dup2\n        /* \".deps/github/OpenZeppelin/openzeppelin-contracts/contracts/utils/Strings.sol\":907:928  return string(buffer) */\n      swap5\n      pop\n      pop\n      pop\n      pop\n      pop\n        /* \".deps/github/OpenZeppelin/openzeppelin-contracts/contracts/utils/Strings.sol\":210:935  function toString(uint256 value) internal pure returns (string memory) {... */\n    tag_231:\n      swap2\n      swap1\n      pop\n      jump\t// out\n        /* \".deps/github/OpenZeppelin/openzeppelin-contracts/contracts/utils/EnumerableMap.sol\":7588:7737  function contains(UintToAddressMap storage map, uint256 key) internal view returns (bool) {... */\n    tag_186:\n        /* \".deps/github/OpenZeppelin/openzeppelin-contracts/contracts/utils/EnumerableMap.sol\":7672:7676  bool */\n      0x00\n        /* \".deps/github/OpenZeppelin/openzeppelin-contracts/contracts/utils/EnumerableMap.sol\":7695:7730  _contains(map._inner, bytes32(key)) */\n      tag_244\n        /* \".deps/github/OpenZeppelin/openzeppelin-contracts/contracts/utils/EnumerableMap.sol\":7705:7708  map */\n      dup4\n        /* \".deps/github/OpenZeppelin/openzeppelin-contracts/contracts/utils/EnumerableMap.sol\":7705:7715  map._inner */\n      0x00\n      add\n        /* \".deps/github/OpenZeppelin/openzeppelin-contracts/contracts/utils/EnumerableMap.sol\":7725:7728  key */\n      dup4\n        /* \".deps/github/OpenZeppelin/openzeppelin-contracts/contracts/utils/EnumerableMap.sol\":7717:7729  bytes32(key) */\n      0x00\n      shl\n        /* \".deps/github/OpenZeppelin/openzeppelin-contracts/contracts/utils/EnumerableMap.sol\":7695:7704  _contains */\n      tag_245\n        /* \".deps/github/OpenZeppelin/openzeppelin-contracts/contracts/utils/EnumerableMap.sol\":7695:7730  _contains(map._inner, bytes32(key)) */\n      jump\t// in\n    tag_244:\n        /* \".deps/github/OpenZeppelin/openzeppelin-contracts/contracts/utils/EnumerableMap.sol\":7688:7730  return _contains(map._inner, bytes32(key)) */\n      swap1\n      pop\n        /* \".deps/github/OpenZeppelin/openzeppelin-contracts/contracts/utils/EnumerableMap.sol\":7588:7737  function contains(UintToAddressMap storage map, uint256 key) internal view returns (bool) {... */\n      swap3\n      swap2\n      pop\n      pop\n      jump\t// out\n        /* \".deps/github/OpenZeppelin/openzeppelin-contracts/contracts/utils/EnumerableMap.sol\":4491:4599  function _length(Map storage map) private view returns (uint256) {... */\n    tag_192:\n        /* \".deps/github/OpenZeppelin/openzeppelin-contracts/contracts/utils/EnumerableMap.sol\":4547:4554  uint256 */\n      0x00\n        /* \".deps/github/OpenZeppelin/openzeppelin-contracts/contracts/utils/EnumerableMap.sol\":4573:4576  map */\n      dup2\n        /* \".deps/github/OpenZeppelin/openzeppelin-contracts/contracts/utils/EnumerableMap.sol\":4573:4585  map._entries */\n      0x00\n      add\n        /* \".deps/github/OpenZeppelin/openzeppelin-contracts/contracts/utils/EnumerableMap.sol\":4573:4592  map._entries.length */\n      dup1\n      sload\n      swap1\n      pop\n        /* \".deps/github/OpenZeppelin/openzeppelin-contracts/contracts/utils/EnumerableMap.sol\":4566:4592  return map._entries.length */\n      swap1\n      pop\n        /* \".deps/github/OpenZeppelin/openzeppelin-contracts/contracts/utils/EnumerableMap.sol\":4491:4599  function _length(Map storage map) private view returns (uint256) {... */\n      swap2\n      swap1\n      pop\n      jump\t// out\n        /* \".deps/github/OpenZeppelin/openzeppelin-contracts/contracts/token/ERC721/ERC721.sol\":17164:17257  function _beforeTokenTransfer(address from, address to, uint256 tokenId) internal virtual { } */\n    tag_206:\n      pop\n      pop\n      pop\n      jump\t// out\n        /* \".deps/github/OpenZeppelin/openzeppelin-contracts/contracts/utils/EnumerableSet.sol\":8365:8500  function remove(UintSet storage set, uint256 value) internal returns (bool) {... */\n    tag_209:\n        /* \".deps/github/OpenZeppelin/openzeppelin-contracts/contracts/utils/EnumerableSet.sol\":8435:8439  bool */\n      0x00\n        /* \".deps/github/OpenZeppelin/openzeppelin-contracts/contracts/utils/EnumerableSet.sol\":8458:8493  _remove(set._inner, bytes32(value)) */\n      tag_249\n        /* \".deps/github/OpenZeppelin/openzeppelin-contracts/contracts/utils/EnumerableSet.sol\":8466:8469  set */\n      dup4\n        /* \".deps/github/OpenZeppelin/openzeppelin-contracts/contracts/utils/EnumerableSet.sol\":8466:8476  set._inner */\n      0x00\n      add\n        /* \".deps/github/OpenZeppelin/openzeppelin-contracts/contracts/utils/EnumerableSet.sol\":8486:8491  value */\n      dup4\n        /* \".deps/github/OpenZeppelin/openzeppelin-contracts/contracts/utils/EnumerableSet.sol\":8478:8492  bytes32(value) */\n      0x00\n      shl\n        /* \".deps/github/OpenZeppelin/openzeppelin-contracts/contracts/utils/EnumerableSet.sol\":8458:8465  _remove */\n      tag_250\n        /* \".deps/github/OpenZeppelin/openzeppelin-contracts/contracts/utils/EnumerableSet.sol\":8458:8493  _remove(set._inner, bytes32(value)) */\n      jump\t// in\n    tag_249:\n        /* \".deps/github/OpenZeppelin/openzeppelin-contracts/contracts/utils/EnumerableSet.sol\":8451:8493  return _remove(set._inner, bytes32(value)) */\n      swap1\n      pop\n        /* \".deps/github/OpenZeppelin/openzeppelin-contracts/contracts/utils/EnumerableSet.sol\":8365:8500  function remove(UintSet storage set, uint256 value) internal returns (bool) {... */\n      swap3\n      swap2\n      pop\n      pop\n      jump\t// out\n        /* \".deps/github/OpenZeppelin/openzeppelin-contracts/contracts/utils/EnumerableSet.sol\":8068:8197  function add(UintSet storage set, uint256 value) internal returns (bool) {... */\n    tag_211:\n        /* \".deps/github/OpenZeppelin/openzeppelin-contracts/contracts/utils/EnumerableSet.sol\":8135:8139  bool */\n      0x00\n        /* \".deps/github/OpenZeppelin/openzeppelin-contracts/contracts/utils/EnumerableSet.sol\":8158:8190  _add(set._inner, bytes32(value)) */\n      tag_252\n        /* \".deps/github/OpenZeppelin/openzeppelin-contracts/contracts/utils/EnumerableSet.sol\":8163:8166  set */\n      dup4\n        /* \".deps/github/OpenZeppelin/openzeppelin-contracts/contracts/utils/EnumerableSet.sol\":8163:8173  set._inner */\n      0x00\n      add\n        /* \".deps/github/OpenZeppelin/openzeppelin-contracts/contracts/utils/EnumerableSet.sol\":8183:8188  value */\n      dup4\n        /* \".deps/github/OpenZeppelin/openzeppelin-contracts/contracts/utils/EnumerableSet.sol\":8175:8189  bytes32(value) */\n      0x00\n      shl\n        /* \".deps/github/OpenZeppelin/openzeppelin-contracts/contracts/utils/EnumerableSet.sol\":8158:8162  _add */\n      tag_253\n        /* \".deps/github/OpenZeppelin/openzeppelin-contracts/contracts/utils/EnumerableSet.sol\":8158:8190  _add(set._inner, bytes32(value)) */\n      jump\t// in\n    tag_252:\n        /* \".deps/github/OpenZeppelin/openzeppelin-contracts/contracts/utils/EnumerableSet.sol\":8151:8190  return _add(set._inner, bytes32(value)) */\n      swap1\n      pop\n        /* \".deps/github/OpenZeppelin/openzeppelin-contracts/contracts/utils/EnumerableSet.sol\":8068:8197  function add(UintSet storage set, uint256 value) internal returns (bool) {... */\n      swap3\n      swap2\n      pop\n      pop\n      jump\t// out\n        /* \".deps/github/OpenZeppelin/openzeppelin-contracts/contracts/utils/EnumerableMap.sol\":7027:7210  function set(UintToAddressMap storage map, uint256 key, address value) internal returns (bool) {... */\n    tag_213:\n        /* \".deps/github/OpenZeppelin/openzeppelin-contracts/contracts/utils/EnumerableMap.sol\":7116:7120  bool */\n      0x00\n        /* \".deps/github/OpenZeppelin/openzeppelin-contracts/contracts/utils/EnumerableMap.sol\":7139:7203  _set(map._inner, bytes32(key), bytes32(uint256(uint160(value)))) */\n      tag_255\n        /* \".deps/github/OpenZeppelin/openzeppelin-contracts/contracts/utils/EnumerableMap.sol\":7144:7147  map */\n      dup5\n        /* \".deps/github/OpenZeppelin/openzeppelin-contracts/contracts/utils/EnumerableMap.sol\":7144:7154  map._inner */\n      0x00\n      add\n        /* \".deps/github/OpenZeppelin/openzeppelin-contracts/contracts/utils/EnumerableMap.sol\":7164:7167  key */\n      dup5\n        /* \".deps/github/OpenZeppelin/openzeppelin-contracts/contracts/utils/EnumerableMap.sol\":7156:7168  bytes32(key) */\n      0x00\n      shl\n        /* \".deps/github/OpenZeppelin/openzeppelin-contracts/contracts/utils/EnumerableMap.sol\":7194:7199  value */\n      dup5\n        /* \".deps/github/OpenZeppelin/openzeppelin-contracts/contracts/utils/EnumerableMap.sol\":7178:7201  uint256(uint160(value)) */\n      0xffffffffffffffffffffffffffffffffffffffff\n      and\n        /* \".deps/github/OpenZeppelin/openzeppelin-contracts/contracts/utils/EnumerableMap.sol\":7170:7202  bytes32(uint256(uint160(value))) */\n      0x00\n      shl\n        /* \".deps/github/OpenZeppelin/openzeppelin-contracts/contracts/utils/EnumerableMap.sol\":7139:7143  _set */\n      tag_256\n        /* \".deps/github/OpenZeppelin/openzeppelin-contracts/contracts/utils/EnumerableMap.sol\":7139:7203  _set(map._inner, bytes32(key), bytes32(uint256(uint160(value)))) */\n      jump\t// in\n    tag_255:\n        /* \".deps/github/OpenZeppelin/openzeppelin-contracts/contracts/utils/EnumerableMap.sol\":7132:7203  return _set(map._inner, bytes32(key), bytes32(uint256(uint160(value)))) */\n      swap1\n      pop\n        /* \".deps/github/OpenZeppelin/openzeppelin-contracts/contracts/utils/EnumerableMap.sol\":7027:7210  function set(UintToAddressMap storage map, uint256 key, address value) internal returns (bool) {... */\n      swap4\n      swap3\n      pop\n      pop\n      pop\n      jump\t// out\n        /* \".deps/github/OpenZeppelin/openzeppelin-contracts/contracts/utils/EnumerableSet.sol\":4452:4653  function _at(Set storage set, uint256 index) private view returns (bytes32) {... */\n    tag_216:\n        /* \".deps/github/OpenZeppelin/openzeppelin-contracts/contracts/utils/EnumerableSet.sol\":4519:4526  bytes32 */\n      0x00\n        /* \".deps/github/OpenZeppelin/openzeppelin-contracts/contracts/utils/EnumerableSet.sol\":4567:4572  index */\n      dup2\n        /* \".deps/github/OpenZeppelin/openzeppelin-contracts/contracts/utils/EnumerableSet.sol\":4546:4549  set */\n      dup4\n        /* \".deps/github/OpenZeppelin/openzeppelin-contracts/contracts/utils/EnumerableSet.sol\":4546:4557  set._values */\n      0x00\n      add\n        /* \".deps/github/OpenZeppelin/openzeppelin-contracts/contracts/utils/EnumerableSet.sol\":4546:4564  set._values.length */\n      dup1\n      sload\n      swap1\n      pop\n        /* \".deps/github/OpenZeppelin/openzeppelin-contracts/contracts/utils/EnumerableSet.sol\":4546:4572  set._values.length > index */\n      gt\n        /* \".deps/github/OpenZeppelin/openzeppelin-contracts/contracts/utils/EnumerableSet.sol\":4538:4611  require(set._values.length > index, \"EnumerableSet: index out of bounds\") */\n      tag_258\n      jumpi\n      mload(0x40)\n      0x08c379a000000000000000000000000000000000000000000000000000000000\n      dup2\n      mstore\n      0x04\n      add\n      dup1\n      dup1\n      0x20\n      add\n      dup3\n      dup2\n      sub\n      dup3\n      mstore\n      0x22\n      dup2\n      mstore\n      0x20\n      add\n      dup1\n      data_045d6834e6193a687012a3ad777f612279e549b6945364d9d2324f48610d3cbb\n      0x22\n      swap2\n      codecopy\n      0x40\n      add\n      swap2\n      pop\n      pop\n      mload(0x40)\n      dup1\n      swap2\n      sub\n      swap1\n      revert\n    tag_258:\n        /* \".deps/github/OpenZeppelin/openzeppelin-contracts/contracts/utils/EnumerableSet.sol\":4628:4631  set */\n      dup3\n        /* \".deps/github/OpenZeppelin/openzeppelin-contracts/contracts/utils/EnumerableSet.sol\":4628:4639  set._values */\n      0x00\n      add\n        /* \".deps/github/OpenZeppelin/openzeppelin-contracts/contracts/utils/EnumerableSet.sol\":4640:4645  index */\n      dup3\n        /* \".deps/github/OpenZeppelin/openzeppelin-contracts/contracts/utils/EnumerableSet.sol\":4628:4646  set._values[index] */\n      dup2\n      sload\n      dup2\n      lt\n      tag_259\n      jumpi\n      invalid\n    tag_259:\n      swap1\n      0x00\n      mstore\n      keccak256(0x00, 0x20)\n      add\n      sload\n        /* \".deps/github/OpenZeppelin/openzeppelin-contracts/contracts/utils/EnumerableSet.sol\":4621:4646  return set._values[index] */\n      swap1\n      pop\n        /* \".deps/github/OpenZeppelin/openzeppelin-contracts/contracts/utils/EnumerableSet.sol\":4452:4653  function _at(Set storage set, uint256 index) private view returns (bytes32) {... */\n      swap3\n      swap2\n      pop\n      pop\n      jump\t// out\n        /* \".deps/github/OpenZeppelin/openzeppelin-contracts/contracts/utils/EnumerableMap.sol\":4942:5216  function _at(Map storage map, uint256 index) private view returns (bytes32, bytes32) {... */\n    tag_219:\n        /* \".deps/github/OpenZeppelin/openzeppelin-contracts/contracts/utils/EnumerableMap.sol\":5009:5016  bytes32 */\n      0x00\n        /* \".deps/github/OpenZeppelin/openzeppelin-contracts/contracts/utils/EnumerableMap.sol\":5018:5025  bytes32 */\n      dup1\n        /* \".deps/github/OpenZeppelin/openzeppelin-contracts/contracts/utils/EnumerableMap.sol\":5067:5072  index */\n      dup3\n        /* \".deps/github/OpenZeppelin/openzeppelin-contracts/contracts/utils/EnumerableMap.sol\":5045:5048  map */\n      dup5\n        /* \".deps/github/OpenZeppelin/openzeppelin-contracts/contracts/utils/EnumerableMap.sol\":5045:5057  map._entries */\n      0x00\n      add\n        /* \".deps/github/OpenZeppelin/openzeppelin-contracts/contracts/utils/EnumerableMap.sol\":5045:5064  map._entries.length */\n      dup1\n      sload\n      swap1\n      pop\n        /* \".deps/github/OpenZeppelin/openzeppelin-contracts/contracts/utils/EnumerableMap.sol\":5045:5072  map._entries.length > index */\n      gt\n        /* \".deps/github/OpenZeppelin/openzeppelin-contracts/contracts/utils/EnumerableMap.sol\":5037:5111  require(map._entries.length > index, \"EnumerableMap: index out of bounds\") */\n      tag_262\n      jumpi\n      mload(0x40)\n      0x08c379a000000000000000000000000000000000000000000000000000000000\n      dup2\n      mstore\n      0x04\n      add\n      dup1\n      dup1\n      0x20\n      add\n      dup3\n      dup2\n      sub\n      dup3\n      mstore\n      0x22\n      dup2\n      mstore\n      0x20\n      add\n      dup1\n      data_86631030b9066a18616a068fc09fce83d18af4765cb1d2166fa475228f4db155\n      0x22\n      swap2\n      codecopy\n      0x40\n      add\n      swap2\n      pop\n      pop\n      mload(0x40)\n      dup1\n      swap2\n      sub\n      swap1\n      revert\n    tag_262:\n        /* \".deps/github/OpenZeppelin/openzeppelin-contracts/contracts/utils/EnumerableMap.sol\":5122:5144  MapEntry storage entry */\n      0x00\n        /* \".deps/github/OpenZeppelin/openzeppelin-contracts/contracts/utils/EnumerableMap.sol\":5147:5150  map */\n      dup5\n        /* \".deps/github/OpenZeppelin/openzeppelin-contracts/contracts/utils/EnumerableMap.sol\":5147:5159  map._entries */\n      0x00\n      add\n        /* \".deps/github/OpenZeppelin/openzeppelin-contracts/contracts/utils/EnumerableMap.sol\":5160:5165  index */\n      dup5\n        /* \".deps/github/OpenZeppelin/openzeppelin-contracts/contracts/utils/EnumerableMap.sol\":5147:5166  map._entries[index] */\n      dup2\n      sload\n      dup2\n      lt\n      tag_263\n      jumpi\n      invalid\n    tag_263:\n      swap1\n      0x00\n      mstore\n      keccak256(0x00, 0x20)\n      swap1\n      0x02\n      mul\n      add\n        /* \".deps/github/OpenZeppelin/openzeppelin-contracts/contracts/utils/EnumerableMap.sol\":5122:5166  MapEntry storage entry = map._entries[index] */\n      swap1\n      pop\n        /* \".deps/github/OpenZeppelin/openzeppelin-contracts/contracts/utils/EnumerableMap.sol\":5184:5189  entry */\n      dup1\n        /* \".deps/github/OpenZeppelin/openzeppelin-contracts/contracts/utils/EnumerableMap.sol\":5184:5194  entry._key */\n      0x00\n      add\n      sload\n        /* \".deps/github/OpenZeppelin/openzeppelin-contracts/contracts/utils/EnumerableMap.sol\":5196:5201  entry */\n      dup2\n        /* \".deps/github/OpenZeppelin/openzeppelin-contracts/contracts/utils/EnumerableMap.sol\":5196:5208  entry._value */\n      0x01\n      add\n      sload\n        /* \".deps/github/OpenZeppelin/openzeppelin-contracts/contracts/utils/EnumerableMap.sol\":5176:5209  return (entry._key, entry._value) */\n      swap3\n      pop\n      swap3\n      pop\n      pop\n        /* \".deps/github/OpenZeppelin/openzeppelin-contracts/contracts/utils/EnumerableMap.sol\":4942:5216  function _at(Map storage map, uint256 index) private view returns (bytes32, bytes32) {... */\n      swap3\n      pop\n      swap3\n      swap1\n      pop\n      jump\t// out\n        /* \".deps/github/OpenZeppelin/openzeppelin-contracts/contracts/utils/EnumerableMap.sol\":6403:6718  function _get(Map storage map, bytes32 key, string memory errorMessage) private view returns (bytes32) {... */\n    tag_222:\n        /* \".deps/github/OpenZeppelin/openzeppelin-contracts/contracts/utils/EnumerableMap.sol\":6497:6504  bytes32 */\n      0x00\n        /* \".deps/github/OpenZeppelin/openzeppelin-contracts/contracts/utils/EnumerableMap.sol\":6516:6532  uint256 keyIndex */\n      dup1\n        /* \".deps/github/OpenZeppelin/openzeppelin-contracts/contracts/utils/EnumerableMap.sol\":6535:6538  map */\n      dup5\n        /* \".deps/github/OpenZeppelin/openzeppelin-contracts/contracts/utils/EnumerableMap.sol\":6535:6547  map._indexes */\n      0x01\n      add\n        /* \".deps/github/OpenZeppelin/openzeppelin-contracts/contracts/utils/EnumerableMap.sol\":6535:6552  map._indexes[key] */\n      0x00\n        /* \".deps/github/OpenZeppelin/openzeppelin-contracts/contracts/utils/EnumerableMap.sol\":6548:6551  key */\n      dup6\n        /* \".deps/github/OpenZeppelin/openzeppelin-contracts/contracts/utils/EnumerableMap.sol\":6535:6552  map._indexes[key] */\n      dup2\n      mstore\n      0x20\n      add\n      swap1\n      dup2\n      mstore\n      0x20\n      add\n      0x00\n      keccak256\n      sload\n        /* \".deps/github/OpenZeppelin/openzeppelin-contracts/contracts/utils/EnumerableMap.sol\":6516:6552  uint256 keyIndex = map._indexes[key] */\n      swap1\n      pop\n        /* \".deps/github/OpenZeppelin/openzeppelin-contracts/contracts/utils/EnumerableMap.sol\":6582:6583  0 */\n      0x00\n        /* \".deps/github/OpenZeppelin/openzeppelin-contracts/contracts/utils/EnumerableMap.sol\":6570:6578  keyIndex */\n      dup2\n        /* \".deps/github/OpenZeppelin/openzeppelin-contracts/contracts/utils/EnumerableMap.sol\":6570:6583  keyIndex != 0 */\n      eq\n      iszero\n        /* \".deps/github/OpenZeppelin/openzeppelin-contracts/contracts/utils/EnumerableMap.sol\":6585:6597  errorMessage */\n      dup4\n        /* \".deps/github/OpenZeppelin/openzeppelin-contracts/contracts/utils/EnumerableMap.sol\":6562:6598  require(keyIndex != 0, errorMessage) */\n      swap1\n      tag_266\n      jumpi\n      mload(0x40)\n      0x08c379a000000000000000000000000000000000000000000000000000000000\n      dup2\n      mstore\n      0x04\n      add\n      dup1\n      dup1\n      0x20\n      add\n      dup3\n      dup2\n      sub\n      dup3\n      mstore\n      dup4\n      dup2\n      dup2\n      mload\n      dup2\n      mstore\n      0x20\n      add\n      swap2\n      pop\n      dup1\n      mload\n      swap1\n      0x20\n      add\n      swap1\n      dup1\n      dup4\n      dup4\n      0x00\n    tag_267:\n      dup4\n      dup2\n      lt\n      iszero\n      tag_269\n      jumpi\n      dup1\n      dup3\n      add\n      mload\n      dup2\n      dup5\n      add\n      mstore\n      0x20\n      dup2\n      add\n      swap1\n      pop\n      jump(tag_267)\n    tag_269:\n      pop\n      pop\n      pop\n      pop\n      swap1\n      pop\n      swap1\n      dup2\n      add\n      swap1\n      0x1f\n      and\n      dup1\n      iszero\n      tag_270\n      jumpi\n      dup1\n      dup3\n      sub\n      dup1\n      mload\n      0x01\n      dup4\n      0x20\n      sub\n      0x0100\n      exp\n      sub\n      not\n      and\n      dup2\n      mstore\n      0x20\n      add\n      swap2\n      pop\n    tag_270:\n      pop\n      swap3\n      pop\n      pop\n      pop\n      mload(0x40)\n      dup1\n      swap2\n      sub\n      swap1\n      revert\n    tag_266:\n      pop\n        /* \".deps/github/OpenZeppelin/openzeppelin-contracts/contracts/utils/EnumerableMap.sol\":6651:6654  map */\n      dup5\n        /* \".deps/github/OpenZeppelin/openzeppelin-contracts/contracts/utils/EnumerableMap.sol\":6651:6663  map._entries */\n      0x00\n      add\n        /* \".deps/github/OpenZeppelin/openzeppelin-contracts/contracts/utils/EnumerableMap.sol\":6675:6676  1 */\n      0x01\n        /* \".deps/github/OpenZeppelin/openzeppelin-contracts/contracts/utils/EnumerableMap.sol\":6664:6672  keyIndex */\n      dup3\n        /* \".deps/github/OpenZeppelin/openzeppelin-contracts/contracts/utils/EnumerableMap.sol\":6664:6676  keyIndex - 1 */\n      sub\n        /* \".deps/github/OpenZeppelin/openzeppelin-contracts/contracts/utils/EnumerableMap.sol\":6651:6677  map._entries[keyIndex - 1] */\n      dup2\n      sload\n      dup2\n      lt\n      tag_271\n      jumpi\n      invalid\n    tag_271:\n      swap1\n      0x00\n      mstore\n      keccak256(0x00, 0x20)\n      swap1\n      0x02\n      mul\n      add\n        /* \".deps/github/OpenZeppelin/openzeppelin-contracts/contracts/utils/EnumerableMap.sol\":6651:6684  map._entries[keyIndex - 1]._value */\n      0x01\n      add\n      sload\n        /* \".deps/github/OpenZeppelin/openzeppelin-contracts/contracts/utils/EnumerableMap.sol\":6644:6684  return map._entries[keyIndex - 1]._value */\n      swap2\n      pop\n      pop\n        /* \".deps/github/OpenZeppelin/openzeppelin-contracts/contracts/utils/EnumerableMap.sol\":6403:6718  function _get(Map storage map, bytes32 key, string memory errorMessage) private view returns (bytes32) {... */\n      swap4\n      swap3\n      pop\n      pop\n      pop\n      jump\t// out\n        /* \".deps/github/OpenZeppelin/openzeppelin-contracts/contracts/utils/EnumerableSet.sol\":4013:4120  function _length(Set storage set) private view returns (uint256) {... */\n    tag_225:\n        /* \".deps/github/OpenZeppelin/openzeppelin-contracts/contracts/utils/EnumerableSet.sol\":4069:4076  uint256 */\n      0x00\n        /* \".deps/github/OpenZeppelin/openzeppelin-contracts/contracts/utils/EnumerableSet.sol\":4095:4098  set */\n      dup2\n        /* \".deps/github/OpenZeppelin/openzeppelin-contracts/contracts/utils/EnumerableSet.sol\":4095:4106  set._values */\n      0x00\n      add\n        /* \".deps/github/OpenZeppelin/openzeppelin-contracts/contracts/utils/EnumerableSet.sol\":4095:4113  set._values.length */\n      dup1\n      sload\n      swap1\n      pop\n        /* \".deps/github/OpenZeppelin/openzeppelin-contracts/contracts/utils/EnumerableSet.sol\":4088:4113  return set._values.length */\n      swap1\n      pop\n        /* \".deps/github/OpenZeppelin/openzeppelin-contracts/contracts/utils/EnumerableSet.sol\":4013:4120  function _length(Set storage set) private view returns (uint256) {... */\n      swap2\n      swap1\n      pop\n      jump\t// out\n        /* \".deps/github/OpenZeppelin/openzeppelin-contracts/contracts/token/ERC721/ERC721.sol\":15793:16382  function _checkOnERC721Received(address from, address to, uint256 tokenId, bytes memory _data)... */\n    tag_229:\n        /* \".deps/github/OpenZeppelin/openzeppelin-contracts/contracts/token/ERC721/ERC721.sol\":15913:15917  bool */\n      0x00\n        /* \".deps/github/OpenZeppelin/openzeppelin-contracts/contracts/token/ERC721/ERC721.sol\":15938:15953  to.isContract() */\n      tag_275\n        /* \".deps/github/OpenZeppelin/openzeppelin-contracts/contracts/token/ERC721/ERC721.sol\":15938:15940  to */\n      dup5\n        /* \".deps/github/OpenZeppelin/openzeppelin-contracts/contracts/token/ERC721/ERC721.sol\":15938:15951  to.isContract */\n      0xffffffffffffffffffffffffffffffffffffffff\n      and\n      tag_276\n        /* \".deps/github/OpenZeppelin/openzeppelin-contracts/contracts/token/ERC721/ERC721.sol\":15938:15953  to.isContract() */\n      jump\t// in\n    tag_275:\n        /* \".deps/github/OpenZeppelin/openzeppelin-contracts/contracts/token/ERC721/ERC721.sol\":15933:15991  if (!to.isContract()) {... */\n      tag_277\n      jumpi\n        /* \".deps/github/OpenZeppelin/openzeppelin-contracts/contracts/token/ERC721/ERC721.sol\":15976:15980  true */\n      0x01\n        /* \".deps/github/OpenZeppelin/openzeppelin-contracts/contracts/token/ERC721/ERC721.sol\":15969:15980  return true */\n      swap1\n      pop\n      jump(tag_274)\n        /* \".deps/github/OpenZeppelin/openzeppelin-contracts/contracts/token/ERC721/ERC721.sol\":15933:15991  if (!to.isContract()) {... */\n    tag_277:\n        /* \".deps/github/OpenZeppelin/openzeppelin-contracts/contracts/token/ERC721/ERC721.sol\":16000:16023  bytes memory returndata */\n      0x60\n        /* \".deps/github/OpenZeppelin/openzeppelin-contracts/contracts/token/ERC721/ERC721.sol\":16026:16272  to.functionCall(abi.encodeWithSelector(... */\n      tag_278\n        /* \".deps/github/OpenZeppelin/openzeppelin-contracts/contracts/token/ERC721/ERC721.sol\":16078:16123  IERC721Receiver(to).onERC721Received.selector */\n      shl(0xe0, 0x150b7a02)\n        /* \".deps/github/OpenZeppelin/openzeppelin-contracts/contracts/token/ERC721/ERC721.sol\":16137:16149  _msgSender() */\n      tag_279\n        /* \".deps/github/OpenZeppelin/openzeppelin-contracts/contracts/token/ERC721/ERC721.sol\":16137:16147  _msgSender */\n      tag_105\n        /* \".deps/github/OpenZeppelin/openzeppelin-contracts/contracts/token/ERC721/ERC721.sol\":16137:16149  _msgSender() */\n      jump\t// in\n    tag_279:\n        /* \".deps/github/OpenZeppelin/openzeppelin-contracts/contracts/token/ERC721/ERC721.sol\":16163:16167  from */\n      dup9\n        /* \".deps/github/OpenZeppelin/openzeppelin-contracts/contracts/token/ERC721/ERC721.sol\":16181:16188  tokenId */\n      dup8\n        /* \".deps/github/OpenZeppelin/openzeppelin-contracts/contracts/token/ERC721/ERC721.sol\":16202:16207  _data */\n      dup8\n        /* \".deps/github/OpenZeppelin/openzeppelin-contracts/contracts/token/ERC721/ERC721.sol\":16042:16217  abi.encodeWithSelector(... */\n      add(0x24, mload(0x40))\n      dup1\n      dup6\n      0xffffffffffffffffffffffffffffffffffffffff\n      and\n      dup2\n      mstore\n      0x20\n      add\n      dup5\n      0xffffffffffffffffffffffffffffffffffffffff\n      and\n      dup2\n      mstore\n      0x20\n      add\n      dup4\n      dup2\n      mstore\n      0x20\n      add\n      dup1\n      0x20\n      add\n      dup3\n      dup2\n      sub\n      dup3\n      mstore\n      dup4\n      dup2\n      dup2\n      mload\n      dup2\n      mstore\n      0x20\n      add\n      swap2\n      pop\n      dup1\n      mload\n      swap1\n      0x20\n      add\n      swap1\n      dup1\n      dup4\n      dup4\n      0x00\n    tag_280:\n      dup4\n      dup2\n      lt\n      iszero\n      tag_282\n      jumpi\n      dup1\n      dup3\n      add\n      mload\n      dup2\n      dup5\n      add\n      mstore\n      0x20\n      dup2\n      add\n      swap1\n      pop\n      jump(tag_280)\n    tag_282:\n      pop\n      pop\n      pop\n      pop\n      swap1\n      pop\n      swap1\n      dup2\n      add\n      swap1\n      0x1f\n      and\n      dup1\n      iszero\n      tag_283\n      jumpi\n      dup1\n      dup3\n      sub\n      dup1\n      mload\n      0x01\n      dup4\n      0x20\n      sub\n      0x0100\n      exp\n      sub\n      not\n      and\n      dup2\n      mstore\n      0x20\n      add\n      swap2\n      pop\n    tag_283:\n      pop\n      swap6\n      pop\n      pop\n      pop\n      pop\n      pop\n      pop\n      mload(0x40)\n      0x20\n      dup2\n      dup4\n      sub\n      sub\n      dup2\n      mstore\n      swap1\n      0x40\n      mstore\n      swap1\n      not(0xffffffffffffffffffffffffffffffffffffffffffffffffffffffff)\n      and\n      0x20\n      dup3\n      add\n      dup1\n      mload\n      0xffffffffffffffffffffffffffffffffffffffffffffffffffffffff\n      dup4\n      dup2\n      dup4\n      and\n      or\n      dup4\n      mstore\n      pop\n      pop\n      pop\n      pop\n        /* \".deps/github/OpenZeppelin/openzeppelin-contracts/contracts/token/ERC721/ERC721.sol\":16026:16272  to.functionCall(abi.encodeWithSelector(... */\n      mload(0x40)\n      dup1\n      0x60\n      add\n      0x40\n      mstore\n      dup1\n      0x32\n      dup2\n      mstore\n      0x20\n      add\n      data_1e766a06da43a53d0f4c380e06e5a342e14d5af1bf8501996c844905530ca84e\n      0x32\n      swap2\n      codecopy\n        /* \".deps/github/OpenZeppelin/openzeppelin-contracts/contracts/token/ERC721/ERC721.sol\":16026:16028  to */\n      dup8\n        /* \".deps/github/OpenZeppelin/openzeppelin-contracts/contracts/token/ERC721/ERC721.sol\":16026:16041  to.functionCall */\n      0xffffffffffffffffffffffffffffffffffffffff\n      and\n      tag_284\n      swap1\n        /* \".deps/github/OpenZeppelin/openzeppelin-contracts/contracts/token/ERC721/ERC721.sol\":16026:16272  to.functionCall(abi.encodeWithSelector(... */\n      swap3\n      swap2\n      swap1\n      0xffffffff\n      and\n      jump\t// in\n    tag_278:\n        /* \".deps/github/OpenZeppelin/openzeppelin-contracts/contracts/token/ERC721/ERC721.sol\":16000:16272  bytes memory returndata = to.functionCall(abi.encodeWithSelector(... */\n      swap1\n      pop\n        /* \".deps/github/OpenZeppelin/openzeppelin-contracts/contracts/token/ERC721/ERC721.sol\":16282:16295  bytes4 retval */\n      0x00\n        /* \".deps/github/OpenZeppelin/openzeppelin-contracts/contracts/token/ERC721/ERC721.sol\":16309:16319  returndata */\n      dup2\n        /* \".deps/github/OpenZeppelin/openzeppelin-contracts/contracts/token/ERC721/ERC721.sol\":16298:16330  abi.decode(returndata, (bytes4)) */\n      dup1\n      0x20\n      add\n      swap1\n      mload\n      0x20\n      dup2\n      lt\n      iszero\n      tag_285\n      jumpi\n      0x00\n      dup1\n      revert\n    tag_285:\n      dup2\n      add\n      swap1\n      dup1\n      dup1\n      mload\n      swap1\n      0x20\n      add\n      swap1\n      swap3\n      swap2\n      swap1\n      pop\n      pop\n      pop\n        /* \".deps/github/OpenZeppelin/openzeppelin-contracts/contracts/token/ERC721/ERC721.sol\":16282:16330  bytes4 retval = abi.decode(returndata, (bytes4)) */\n      swap1\n      pop\n        /* \".deps/github/OpenZeppelin/openzeppelin-contracts/contracts/token/ERC721/ERC721.sol\":1078:1088  0x150b7a02 */\n      0x150b7a02\n        /* \".deps/github/OpenZeppelin/openzeppelin-contracts/contracts/token/ERC721/ERC721.sol\":16358:16374  _ERC721_RECEIVED */\n      0xe0\n      shl\n        /* \".deps/github/OpenZeppelin/openzeppelin-contracts/contracts/token/ERC721/ERC721.sol\":16348:16374  retval == _ERC721_RECEIVED */\n      not(0xffffffffffffffffffffffffffffffffffffffffffffffffffffffff)\n      and\n        /* \".deps/github/OpenZeppelin/openzeppelin-contracts/contracts/token/ERC721/ERC721.sol\":16348:16354  retval */\n      dup2\n        /* \".deps/github/OpenZeppelin/openzeppelin-contracts/contracts/token/ERC721/ERC721.sol\":16348:16374  retval == _ERC721_RECEIVED */\n      not(0xffffffffffffffffffffffffffffffffffffffffffffffffffffffff)\n      and\n      eq\n        /* \".deps/github/OpenZeppelin/openzeppelin-contracts/contracts/token/ERC721/ERC721.sol\":16340:16375  return (retval == _ERC721_RECEIVED) */\n      swap3\n      pop\n      pop\n      pop\n        /* \".deps/github/OpenZeppelin/openzeppelin-contracts/contracts/token/ERC721/ERC721.sol\":15793:16382  function _checkOnERC721Received(address from, address to, uint256 tokenId, bytes memory _data)... */\n    tag_274:\n      swap5\n      swap4\n      pop\n      pop\n      pop\n      pop\n      jump\t// out\n        /* \".deps/github/OpenZeppelin/openzeppelin-contracts/contracts/utils/EnumerableMap.sol\":4278:4401  function _contains(Map storage map, bytes32 key) private view returns (bool) {... */\n    tag_245:\n        /* \".deps/github/OpenZeppelin/openzeppelin-contracts/contracts/utils/EnumerableMap.sol\":4349:4353  bool */\n      0x00\n        /* \".deps/github/OpenZeppelin/openzeppelin-contracts/contracts/utils/EnumerableMap.sol\":4393:4394  0 */\n      dup1\n        /* \".deps/github/OpenZeppelin/openzeppelin-contracts/contracts/utils/EnumerableMap.sol\":4372:4375  map */\n      dup4\n        /* \".deps/github/OpenZeppelin/openzeppelin-contracts/contracts/utils/EnumerableMap.sol\":4372:4384  map._indexes */\n      0x01\n      add\n        /* \".deps/github/OpenZeppelin/openzeppelin-contracts/contracts/utils/EnumerableMap.sol\":4372:4389  map._indexes[key] */\n      0x00\n        /* \".deps/github/OpenZeppelin/openzeppelin-contracts/contracts/utils/EnumerableMap.sol\":4385:4388  key */\n      dup5\n        /* \".deps/github/OpenZeppelin/openzeppelin-contracts/contracts/utils/EnumerableMap.sol\":4372:4389  map._indexes[key] */\n      dup2\n      mstore\n      0x20\n      add\n      swap1\n      dup2\n      mstore\n      0x20\n      add\n      0x00\n      keccak256\n      sload\n        /* \".deps/github/OpenZeppelin/openzeppelin-contracts/contracts/utils/EnumerableMap.sol\":4372:4394  map._indexes[key] != 0 */\n      eq\n      iszero\n        /* \".deps/github/OpenZeppelin/openzeppelin-contracts/contracts/utils/EnumerableMap.sol\":4365:4394  return map._indexes[key] != 0 */\n      swap1\n      pop\n        /* \".deps/github/OpenZeppelin/openzeppelin-contracts/contracts/utils/EnumerableMap.sol\":4278:4401  function _contains(Map storage map, bytes32 key) private view returns (bool) {... */\n      swap3\n      swap2\n      pop\n      pop\n      jump\t// out\n        /* \".deps/github/OpenZeppelin/openzeppelin-contracts/contracts/utils/EnumerableSet.sol\":2212:3724  function _remove(Set storage set, bytes32 value) private returns (bool) {... */\n    tag_250:\n        /* \".deps/github/OpenZeppelin/openzeppelin-contracts/contracts/utils/EnumerableSet.sol\":2278:2282  bool */\n      0x00\n        /* \".deps/github/OpenZeppelin/openzeppelin-contracts/contracts/utils/EnumerableSet.sol\":2394:2412  uint256 valueIndex */\n      dup1\n        /* \".deps/github/OpenZeppelin/openzeppelin-contracts/contracts/utils/EnumerableSet.sol\":2415:2418  set */\n      dup4\n        /* \".deps/github/OpenZeppelin/openzeppelin-contracts/contracts/utils/EnumerableSet.sol\":2415:2427  set._indexes */\n      0x01\n      add\n        /* \".deps/github/OpenZeppelin/openzeppelin-contracts/contracts/utils/EnumerableSet.sol\":2415:2434  set._indexes[value] */\n      0x00\n        /* \".deps/github/OpenZeppelin/openzeppelin-contracts/contracts/utils/EnumerableSet.sol\":2428:2433  value */\n      dup5\n        /* \".deps/github/OpenZeppelin/openzeppelin-contracts/contracts/utils/EnumerableSet.sol\":2415:2434  set._indexes[value] */\n      dup2\n      mstore\n      0x20\n      add\n      swap1\n      dup2\n      mstore\n      0x20\n      add\n      0x00\n      keccak256\n      sload\n        /* \".deps/github/OpenZeppelin/openzeppelin-contracts/contracts/utils/EnumerableSet.sol\":2394:2434  uint256 valueIndex = set._indexes[value] */\n      swap1\n      pop\n        /* \".deps/github/OpenZeppelin/openzeppelin-contracts/contracts/utils/EnumerableSet.sol\":2463:2464  0 */\n      0x00\n        /* \".deps/github/OpenZeppelin/openzeppelin-contracts/contracts/utils/EnumerableSet.sol\":2449:2459  valueIndex */\n      dup2\n        /* \".deps/github/OpenZeppelin/openzeppelin-contracts/contracts/utils/EnumerableSet.sol\":2449:2464  valueIndex != 0 */\n      eq\n        /* \".deps/github/OpenZeppelin/openzeppelin-contracts/contracts/utils/EnumerableSet.sol\":2445:3718  if (valueIndex != 0) { // Equivalent to contains(set, value)... */\n      tag_288\n      jumpi\n        /* \".deps/github/OpenZeppelin/openzeppelin-contracts/contracts/utils/EnumerableSet.sol\":2806:2827  uint256 toDeleteIndex */\n      0x00\n        /* \".deps/github/OpenZeppelin/openzeppelin-contracts/contracts/utils/EnumerableSet.sol\":2843:2844  1 */\n      0x01\n        /* \".deps/github/OpenZeppelin/openzeppelin-contracts/contracts/utils/EnumerableSet.sol\":2830:2840  valueIndex */\n      dup3\n        /* \".deps/github/OpenZeppelin/openzeppelin-contracts/contracts/utils/EnumerableSet.sol\":2830:2844  valueIndex - 1 */\n      sub\n        /* \".deps/github/OpenZeppelin/openzeppelin-contracts/contracts/utils/EnumerableSet.sol\":2806:2844  uint256 toDeleteIndex = valueIndex - 1 */\n      swap1\n      pop\n        /* \".deps/github/OpenZeppelin/openzeppelin-contracts/contracts/utils/EnumerableSet.sol\":2858:2875  uint256 lastIndex */\n      0x00\n        /* \".deps/github/OpenZeppelin/openzeppelin-contracts/contracts/utils/EnumerableSet.sol\":2899:2900  1 */\n      0x01\n        /* \".deps/github/OpenZeppelin/openzeppelin-contracts/contracts/utils/EnumerableSet.sol\":2878:2881  set */\n      dup7\n        /* \".deps/github/OpenZeppelin/openzeppelin-contracts/contracts/utils/EnumerableSet.sol\":2878:2889  set._values */\n      0x00\n      add\n        /* \".deps/github/OpenZeppelin/openzeppelin-contracts/contracts/utils/EnumerableSet.sol\":2878:2896  set._values.length */\n      dup1\n      sload\n      swap1\n      pop\n        /* \".deps/github/OpenZeppelin/openzeppelin-contracts/contracts/utils/EnumerableSet.sol\":2878:2900  set._values.length - 1 */\n      sub\n        /* \".deps/github/OpenZeppelin/openzeppelin-contracts/contracts/utils/EnumerableSet.sol\":2858:2900  uint256 lastIndex = set._values.length - 1 */\n      swap1\n      pop\n        /* \".deps/github/OpenZeppelin/openzeppelin-contracts/contracts/utils/EnumerableSet.sol\":3140:3157  bytes32 lastvalue */\n      0x00\n        /* \".deps/github/OpenZeppelin/openzeppelin-contracts/contracts/utils/EnumerableSet.sol\":3160:3163  set */\n      dup7\n        /* \".deps/github/OpenZeppelin/openzeppelin-contracts/contracts/utils/EnumerableSet.sol\":3160:3171  set._values */\n      0x00\n      add\n        /* \".deps/github/OpenZeppelin/openzeppelin-contracts/contracts/utils/EnumerableSet.sol\":3172:3181  lastIndex */\n      dup3\n        /* \".deps/github/OpenZeppelin/openzeppelin-contracts/contracts/utils/EnumerableSet.sol\":3160:3182  set._values[lastIndex] */\n      dup2\n      sload\n      dup2\n      lt\n      tag_289\n      jumpi\n      invalid\n    tag_289:\n      swap1\n      0x00\n      mstore\n      keccak256(0x00, 0x20)\n      add\n      sload\n        /* \".deps/github/OpenZeppelin/openzeppelin-contracts/contracts/utils/EnumerableSet.sol\":3140:3182  bytes32 lastvalue = set._values[lastIndex] */\n      swap1\n      pop\n        /* \".deps/github/OpenZeppelin/openzeppelin-contracts/contracts/utils/EnumerableSet.sol\":3303:3312  lastvalue */\n      dup1\n        /* \".deps/github/OpenZeppelin/openzeppelin-contracts/contracts/utils/EnumerableSet.sol\":3274:3277  set */\n      dup8\n        /* \".deps/github/OpenZeppelin/openzeppelin-contracts/contracts/utils/EnumerableSet.sol\":3274:3285  set._values */\n      0x00\n      add\n        /* \".deps/github/OpenZeppelin/openzeppelin-contracts/contracts/utils/EnumerableSet.sol\":3286:3299  toDeleteIndex */\n      dup5\n        /* \".deps/github/OpenZeppelin/openzeppelin-contracts/contracts/utils/EnumerableSet.sol\":3274:3300  set._values[toDeleteIndex] */\n      dup2\n      sload\n      dup2\n      lt\n      tag_291\n      jumpi\n      invalid\n    tag_291:\n      swap1\n      0x00\n      mstore\n      keccak256(0x00, 0x20)\n      add\n        /* \".deps/github/OpenZeppelin/openzeppelin-contracts/contracts/utils/EnumerableSet.sol\":3274:3312  set._values[toDeleteIndex] = lastvalue */\n      dup2\n      swap1\n      sstore\n      pop\n        /* \".deps/github/OpenZeppelin/openzeppelin-contracts/contracts/utils/EnumerableSet.sol\":3420:3421  1 */\n      0x01\n        /* \".deps/github/OpenZeppelin/openzeppelin-contracts/contracts/utils/EnumerableSet.sol\":3404:3417  toDeleteIndex */\n      dup4\n        /* \".deps/github/OpenZeppelin/openzeppelin-contracts/contracts/utils/EnumerableSet.sol\":3404:3421  toDeleteIndex + 1 */\n      add\n        /* \".deps/github/OpenZeppelin/openzeppelin-contracts/contracts/utils/EnumerableSet.sol\":3378:3381  set */\n      dup8\n        /* \".deps/github/OpenZeppelin/openzeppelin-contracts/contracts/utils/EnumerableSet.sol\":3378:3390  set._indexes */\n      0x01\n      add\n        /* \".deps/github/OpenZeppelin/openzeppelin-contracts/contracts/utils/EnumerableSet.sol\":3378:3401  set._indexes[lastvalue] */\n      0x00\n        /* \".deps/github/OpenZeppelin/openzeppelin-contracts/contracts/utils/EnumerableSet.sol\":3391:3400  lastvalue */\n      dup4\n        /* \".deps/github/OpenZeppelin/openzeppelin-contracts/contracts/utils/EnumerableSet.sol\":3378:3401  set._indexes[lastvalue] */\n      dup2\n      mstore\n      0x20\n      add\n      swap1\n      dup2\n      mstore\n      0x20\n      add\n      0x00\n      keccak256\n        /* \".deps/github/OpenZeppelin/openzeppelin-contracts/contracts/utils/EnumerableSet.sol\":3378:3421  set._indexes[lastvalue] = toDeleteIndex + 1 */\n      dup2\n      swap1\n      sstore\n      pop\n        /* \".deps/github/OpenZeppelin/openzeppelin-contracts/contracts/utils/EnumerableSet.sol\":3527:3530  set */\n      dup7\n        /* \".deps/github/OpenZeppelin/openzeppelin-contracts/contracts/utils/EnumerableSet.sol\":3527:3538  set._values */\n      0x00\n      add\n        /* \".deps/github/OpenZeppelin/openzeppelin-contracts/contracts/utils/EnumerableSet.sol\":3527:3544  set._values.pop() */\n      dup1\n      sload\n      dup1\n      tag_293\n      jumpi\n      invalid\n    tag_293:\n      0x01\n      swap1\n      sub\n      dup2\n      dup2\n      swap1\n      0x00\n      mstore\n      keccak256(0x00, 0x20)\n      add\n      0x00\n      swap1\n      sstore\n      swap1\n      sstore\n        /* \".deps/github/OpenZeppelin/openzeppelin-contracts/contracts/utils/EnumerableSet.sol\":3619:3622  set */\n      dup7\n        /* \".deps/github/OpenZeppelin/openzeppelin-contracts/contracts/utils/EnumerableSet.sol\":3619:3631  set._indexes */\n      0x01\n      add\n        /* \".deps/github/OpenZeppelin/openzeppelin-contracts/contracts/utils/EnumerableSet.sol\":3619:3638  set._indexes[value] */\n      0x00\n        /* \".deps/github/OpenZeppelin/openzeppelin-contracts/contracts/utils/EnumerableSet.sol\":3632:3637  value */\n      dup8\n        /* \".deps/github/OpenZeppelin/openzeppelin-contracts/contracts/utils/EnumerableSet.sol\":3619:3638  set._indexes[value] */\n      dup2\n      mstore\n      0x20\n      add\n      swap1\n      dup2\n      mstore\n      0x20\n      add\n      0x00\n      keccak256\n        /* \".deps/github/OpenZeppelin/openzeppelin-contracts/contracts/utils/EnumerableSet.sol\":3612:3638  delete set._indexes[value] */\n      0x00\n      swap1\n      sstore\n        /* \".deps/github/OpenZeppelin/openzeppelin-contracts/contracts/utils/EnumerableSet.sol\":3660:3664  true */\n      0x01\n        /* \".deps/github/OpenZeppelin/openzeppelin-contracts/contracts/utils/EnumerableSet.sol\":3653:3664  return true */\n      swap5\n      pop\n      pop\n      pop\n      pop\n      pop\n      jump(tag_287)\n        /* \".deps/github/OpenZeppelin/openzeppelin-contracts/contracts/utils/EnumerableSet.sol\":2445:3718  if (valueIndex != 0) { // Equivalent to contains(set, value)... */\n    tag_288:\n        /* \".deps/github/OpenZeppelin/openzeppelin-contracts/contracts/utils/EnumerableSet.sol\":3702:3707  false */\n      0x00\n        /* \".deps/github/OpenZeppelin/openzeppelin-contracts/contracts/utils/EnumerableSet.sol\":3695:3707  return false */\n      swap2\n      pop\n      pop\n        /* \".deps/github/OpenZeppelin/openzeppelin-contracts/contracts/utils/EnumerableSet.sol\":2212:3724  function _remove(Set storage set, bytes32 value) private returns (bool) {... */\n    tag_287:\n      swap3\n      swap2\n      pop\n      pop\n      jump\t// out\n        /* \".deps/github/OpenZeppelin/openzeppelin-contracts/contracts/utils/EnumerableSet.sol\":1640:2044  function _add(Set storage set, bytes32 value) private returns (bool) {... */\n    tag_253:\n        /* \".deps/github/OpenZeppelin/openzeppelin-contracts/contracts/utils/EnumerableSet.sol\":1703:1707  bool */\n      0x00\n        /* \".deps/github/OpenZeppelin/openzeppelin-contracts/contracts/utils/EnumerableSet.sol\":1724:1745  _contains(set, value) */\n      tag_297\n        /* \".deps/github/OpenZeppelin/openzeppelin-contracts/contracts/utils/EnumerableSet.sol\":1734:1737  set */\n      dup4\n        /* \".deps/github/OpenZeppelin/openzeppelin-contracts/contracts/utils/EnumerableSet.sol\":1739:1744  value */\n      dup4\n        /* \".deps/github/OpenZeppelin/openzeppelin-contracts/contracts/utils/EnumerableSet.sol\":1724:1733  _contains */\n      tag_298\n        /* \".deps/github/OpenZeppelin/openzeppelin-contracts/contracts/utils/EnumerableSet.sol\":1724:1745  _contains(set, value) */\n      jump\t// in\n    tag_297:\n        /* \".deps/github/OpenZeppelin/openzeppelin-contracts/contracts/utils/EnumerableSet.sol\":1719:2038  if (!_contains(set, value)) {... */\n      tag_299\n      jumpi\n        /* \".deps/github/OpenZeppelin/openzeppelin-contracts/contracts/utils/EnumerableSet.sol\":1761:1764  set */\n      dup3\n        /* \".deps/github/OpenZeppelin/openzeppelin-contracts/contracts/utils/EnumerableSet.sol\":1761:1772  set._values */\n      0x00\n      add\n        /* \".deps/github/OpenZeppelin/openzeppelin-contracts/contracts/utils/EnumerableSet.sol\":1778:1783  value */\n      dup3\n        /* \".deps/github/OpenZeppelin/openzeppelin-contracts/contracts/utils/EnumerableSet.sol\":1761:1784  set._values.push(value) */\n      swap1\n      dup1\n      0x01\n      dup2\n      sload\n      add\n      dup1\n      dup3\n      sstore\n      dup1\n      swap2\n      pop\n      pop\n      0x01\n      swap1\n      sub\n      swap1\n      0x00\n      mstore\n      keccak256(0x00, 0x20)\n      add\n      0x00\n      swap1\n      swap2\n      swap1\n      swap2\n      swap1\n      swap2\n      pop\n      sstore\n        /* \".deps/github/OpenZeppelin/openzeppelin-contracts/contracts/utils/EnumerableSet.sol\":1941:1944  set */\n      dup3\n        /* \".deps/github/OpenZeppelin/openzeppelin-contracts/contracts/utils/EnumerableSet.sol\":1941:1952  set._values */\n      0x00\n      add\n        /* \".deps/github/OpenZeppelin/openzeppelin-contracts/contracts/utils/EnumerableSet.sol\":1941:1959  set._values.length */\n      dup1\n      sload\n      swap1\n      pop\n        /* \".deps/github/OpenZeppelin/openzeppelin-contracts/contracts/utils/EnumerableSet.sol\":1919:1922  set */\n      dup4\n        /* \".deps/github/OpenZeppelin/openzeppelin-contracts/contracts/utils/EnumerableSet.sol\":1919:1931  set._indexes */\n      0x01\n      add\n        /* \".deps/github/OpenZeppelin/openzeppelin-contracts/contracts/utils/EnumerableSet.sol\":1919:1938  set._indexes[value] */\n      0x00\n        /* \".deps/github/OpenZeppelin/openzeppelin-contracts/contracts/utils/EnumerableSet.sol\":1932:1937  value */\n      dup5\n        /* \".deps/github/OpenZeppelin/openzeppelin-contracts/contracts/utils/EnumerableSet.sol\":1919:1938  set._indexes[value] */\n      dup2\n      mstore\n      0x20\n      add\n      swap1\n      dup2\n      mstore\n      0x20\n      add\n      0x00\n      keccak256\n        /* \".deps/github/OpenZeppelin/openzeppelin-contracts/contracts/utils/EnumerableSet.sol\":1919:1959  set._indexes[value] = set._values.length */\n      dup2\n      swap1\n      sstore\n      pop\n        /* \".deps/github/OpenZeppelin/openzeppelin-contracts/contracts/utils/EnumerableSet.sol\":1980:1984  true */\n      0x01\n        /* \".deps/github/OpenZeppelin/openzeppelin-contracts/contracts/utils/EnumerableSet.sol\":1973:1984  return true */\n      swap1\n      pop\n      jump(tag_296)\n        /* \".deps/github/OpenZeppelin/openzeppelin-contracts/contracts/utils/EnumerableSet.sol\":1719:2038  if (!_contains(set, value)) {... */\n    tag_299:\n        /* \".deps/github/OpenZeppelin/openzeppelin-contracts/contracts/utils/EnumerableSet.sol\":2022:2027  false */\n      0x00\n        /* \".deps/github/OpenZeppelin/openzeppelin-contracts/contracts/utils/EnumerableSet.sol\":2015:2027  return false */\n      swap1\n      pop\n        /* \".deps/github/OpenZeppelin/openzeppelin-contracts/contracts/utils/EnumerableSet.sol\":1640:2044  function _add(Set storage set, bytes32 value) private returns (bool) {... */\n    tag_296:\n      swap3\n      swap2\n      pop\n      pop\n      jump\t// out\n        /* \".deps/github/OpenZeppelin/openzeppelin-contracts/contracts/utils/EnumerableMap.sol\":1836:2514  function _set(Map storage map, bytes32 key, bytes32 value) private returns (bool) {... */\n    tag_256:\n        /* \".deps/github/OpenZeppelin/openzeppelin-contracts/contracts/utils/EnumerableMap.sol\":1912:1916  bool */\n      0x00\n        /* \".deps/github/OpenZeppelin/openzeppelin-contracts/contracts/utils/EnumerableMap.sol\":2026:2042  uint256 keyIndex */\n      dup1\n        /* \".deps/github/OpenZeppelin/openzeppelin-contracts/contracts/utils/EnumerableMap.sol\":2045:2048  map */\n      dup5\n        /* \".deps/github/OpenZeppelin/openzeppelin-contracts/contracts/utils/EnumerableMap.sol\":2045:2057  map._indexes */\n      0x01\n      add\n        /* \".deps/github/OpenZeppelin/openzeppelin-contracts/contracts/utils/EnumerableMap.sol\":2045:2062  map._indexes[key] */\n      0x00\n        /* \".deps/github/OpenZeppelin/openzeppelin-contracts/contracts/utils/EnumerableMap.sol\":2058:2061  key */\n      dup6\n        /* \".deps/github/OpenZeppelin/openzeppelin-contracts/contracts/utils/EnumerableMap.sol\":2045:2062  map._indexes[key] */\n      dup2\n      mstore\n      0x20\n      add\n      swap1\n      dup2\n      mstore\n      0x20\n      add\n      0x00\n      keccak256\n      sload\n        /* \".deps/github/OpenZeppelin/openzeppelin-contracts/contracts/utils/EnumerableMap.sol\":2026:2062  uint256 keyIndex = map._indexes[key] */\n      swap1\n      pop\n        /* \".deps/github/OpenZeppelin/openzeppelin-contracts/contracts/utils/EnumerableMap.sol\":2089:2090  0 */\n      0x00\n        /* \".deps/github/OpenZeppelin/openzeppelin-contracts/contracts/utils/EnumerableMap.sol\":2077:2085  keyIndex */\n      dup2\n        /* \".deps/github/OpenZeppelin/openzeppelin-contracts/contracts/utils/EnumerableMap.sol\":2077:2090  keyIndex == 0 */\n      eq\n        /* \".deps/github/OpenZeppelin/openzeppelin-contracts/contracts/utils/EnumerableMap.sol\":2073:2508  if (keyIndex == 0) { // Equivalent to !contains(map, key)... */\n      iszero\n      tag_303\n      jumpi\n        /* \".deps/github/OpenZeppelin/openzeppelin-contracts/contracts/utils/EnumerableMap.sol\":2143:2146  map */\n      dup5\n        /* \".deps/github/OpenZeppelin/openzeppelin-contracts/contracts/utils/EnumerableMap.sol\":2143:2155  map._entries */\n      0x00\n      add\n        /* \".deps/github/OpenZeppelin/openzeppelin-contracts/contracts/utils/EnumerableMap.sol\":2161:2199  MapEntry({ _key: key, _value: value }) */\n      mload(0x40)\n      dup1\n      0x40\n      add\n      0x40\n      mstore\n      dup1\n        /* \".deps/github/OpenZeppelin/openzeppelin-contracts/contracts/utils/EnumerableMap.sol\":2178:2181  key */\n      dup7\n        /* \".deps/github/OpenZeppelin/openzeppelin-contracts/contracts/utils/EnumerableMap.sol\":2161:2199  MapEntry({ _key: key, _value: value }) */\n      dup2\n      mstore\n      0x20\n      add\n        /* \".deps/github/OpenZeppelin/openzeppelin-contracts/contracts/utils/EnumerableMap.sol\":2191:2196  value */\n      dup6\n        /* \".deps/github/OpenZeppelin/openzeppelin-contracts/contracts/utils/EnumerableMap.sol\":2161:2199  MapEntry({ _key: key, _value: value }) */\n      dup2\n      mstore\n      pop\n        /* \".deps/github/OpenZeppelin/openzeppelin-contracts/contracts/utils/EnumerableMap.sol\":2143:2200  map._entries.push(MapEntry({ _key: key, _value: value })) */\n      swap1\n      dup1\n      0x01\n      dup2\n      sload\n      add\n      dup1\n      dup3\n      sstore\n      dup1\n      swap2\n      pop\n      pop\n      0x01\n      swap1\n      sub\n      swap1\n      0x00\n      mstore\n      keccak256(0x00, 0x20)\n      swap1\n      0x02\n      mul\n      add\n      0x00\n      swap1\n      swap2\n      swap1\n      swap2\n      swap1\n      swap2\n      pop\n      0x00\n      dup3\n      add\n      mload\n      dup2\n      0x00\n      add\n      sstore\n      0x20\n      dup3\n      add\n      mload\n      dup2\n      0x01\n      add\n      sstore\n      pop\n      pop\n        /* \".deps/github/OpenZeppelin/openzeppelin-contracts/contracts/utils/EnumerableMap.sol\":2355:2358  map */\n      dup5\n        /* \".deps/github/OpenZeppelin/openzeppelin-contracts/contracts/utils/EnumerableMap.sol\":2355:2367  map._entries */\n      0x00\n      add\n        /* \".deps/github/OpenZeppelin/openzeppelin-contracts/contracts/utils/EnumerableMap.sol\":2355:2374  map._entries.length */\n      dup1\n      sload\n      swap1\n      pop\n        /* \".deps/github/OpenZeppelin/openzeppelin-contracts/contracts/utils/EnumerableMap.sol\":2335:2338  map */\n      dup6\n        /* \".deps/github/OpenZeppelin/openzeppelin-contracts/contracts/utils/EnumerableMap.sol\":2335:2347  map._indexes */\n      0x01\n      add\n        /* \".deps/github/OpenZeppelin/openzeppelin-contracts/contracts/utils/EnumerableMap.sol\":2335:2352  map._indexes[key] */\n      0x00\n        /* \".deps/github/OpenZeppelin/openzeppelin-contracts/contracts/utils/EnumerableMap.sol\":2348:2351  key */\n      dup7\n        /* \".deps/github/OpenZeppelin/openzeppelin-contracts/contracts/utils/EnumerableMap.sol\":2335:2352  map._indexes[key] */\n      dup2\n      mstore\n      0x20\n      add\n      swap1\n      dup2\n      mstore\n      0x20\n      add\n      0x00\n      keccak256\n        /* \".deps/github/OpenZeppelin/openzeppelin-contracts/contracts/utils/EnumerableMap.sol\":2335:2374  map._indexes[key] = map._entries.length */\n      dup2\n      swap1\n      sstore\n      pop\n        /* \".deps/github/OpenZeppelin/openzeppelin-contracts/contracts/utils/EnumerableMap.sol\":2395:2399  true */\n      0x01\n        /* \".deps/github/OpenZeppelin/openzeppelin-contracts/contracts/utils/EnumerableMap.sol\":2388:2399  return true */\n      swap2\n      pop\n      pop\n      jump(tag_302)\n        /* \".deps/github/OpenZeppelin/openzeppelin-contracts/contracts/utils/EnumerableMap.sol\":2073:2508  if (keyIndex == 0) { // Equivalent to !contains(map, key)... */\n    tag_303:\n        /* \".deps/github/OpenZeppelin/openzeppelin-contracts/contracts/utils/EnumerableMap.sol\":2466:2471  value */\n      dup3\n        /* \".deps/github/OpenZeppelin/openzeppelin-contracts/contracts/utils/EnumerableMap.sol\":2430:2433  map */\n      dup6\n        /* \".deps/github/OpenZeppelin/openzeppelin-contracts/contracts/utils/EnumerableMap.sol\":2430:2442  map._entries */\n      0x00\n      add\n        /* \".deps/github/OpenZeppelin/openzeppelin-contracts/contracts/utils/EnumerableMap.sol\":2454:2455  1 */\n      0x01\n        /* \".deps/github/OpenZeppelin/openzeppelin-contracts/contracts/utils/EnumerableMap.sol\":2443:2451  keyIndex */\n      dup4\n        /* \".deps/github/OpenZeppelin/openzeppelin-contracts/contracts/utils/EnumerableMap.sol\":2443:2455  keyIndex - 1 */\n      sub\n        /* \".deps/github/OpenZeppelin/openzeppelin-contracts/contracts/utils/EnumerableMap.sol\":2430:2456  map._entries[keyIndex - 1] */\n      dup2\n      sload\n      dup2\n      lt\n      tag_306\n      jumpi\n      invalid\n    tag_306:\n      swap1\n      0x00\n      mstore\n      keccak256(0x00, 0x20)\n      swap1\n      0x02\n      mul\n      add\n        /* \".deps/github/OpenZeppelin/openzeppelin-contracts/contracts/utils/EnumerableMap.sol\":2430:2463  map._entries[keyIndex - 1]._value */\n      0x01\n      add\n        /* \".deps/github/OpenZeppelin/openzeppelin-contracts/contracts/utils/EnumerableMap.sol\":2430:2471  map._entries[keyIndex - 1]._value = value */\n      dup2\n      swap1\n      sstore\n      pop\n        /* \".deps/github/OpenZeppelin/openzeppelin-contracts/contracts/utils/EnumerableMap.sol\":2492:2497  false */\n      0x00\n        /* \".deps/github/OpenZeppelin/openzeppelin-contracts/contracts/utils/EnumerableMap.sol\":2485:2497  return false */\n      swap2\n      pop\n      pop\n        /* \".deps/github/OpenZeppelin/openzeppelin-contracts/contracts/utils/EnumerableMap.sol\":1836:2514  function _set(Map storage map, bytes32 key, bytes32 value) private returns (bool) {... */\n    tag_302:\n      swap4\n      swap3\n      pop\n      pop\n      pop\n      jump\t// out\n        /* \".deps/github/OpenZeppelin/openzeppelin-contracts/contracts/utils/Address.sol\":726:1139  function isContract(address account) internal view returns (bool) {... */\n    tag_276:\n        /* \".deps/github/OpenZeppelin/openzeppelin-contracts/contracts/utils/Address.sol\":786:790  bool */\n      0x00\n        /* \".deps/github/OpenZeppelin/openzeppelin-contracts/contracts/utils/Address.sol\":989:1001  uint256 size */\n      dup1\n        /* \".deps/github/OpenZeppelin/openzeppelin-contracts/contracts/utils/Address.sol\":1098:1105  account */\n      dup3\n        /* \".deps/github/OpenZeppelin/openzeppelin-contracts/contracts/utils/Address.sol\":1086:1106  extcodesize(account) */\n      extcodesize\n        /* \".deps/github/OpenZeppelin/openzeppelin-contracts/contracts/utils/Address.sol\":1078:1106  size := extcodesize(account) */\n      swap1\n      pop\n        /* \".deps/github/OpenZeppelin/openzeppelin-contracts/contracts/utils/Address.sol\":1131:1132  0 */\n      0x00\n        /* \".deps/github/OpenZeppelin/openzeppelin-contracts/contracts/utils/Address.sol\":1124:1128  size */\n      dup2\n        /* \".deps/github/OpenZeppelin/openzeppelin-contracts/contracts/utils/Address.sol\":1124:1132  size > 0 */\n      gt\n        /* \".deps/github/OpenZeppelin/openzeppelin-contracts/contracts/utils/Address.sol\":1117:1132  return size > 0 */\n      swap2\n      pop\n      pop\n        /* \".deps/github/OpenZeppelin/openzeppelin-contracts/contracts/utils/Address.sol\":726:1139  function isContract(address account) internal view returns (bool) {... */\n      swap2\n      swap1\n      pop\n      jump\t// out\n        /* \".deps/github/OpenZeppelin/openzeppelin-contracts/contracts/utils/Address.sol\":3581:3774  function functionCall(address target, bytes memory data, string memory errorMessage) internal returns (bytes memory) {... */\n    tag_284:\n        /* \".deps/github/OpenZeppelin/openzeppelin-contracts/contracts/utils/Address.sol\":3684:3696  bytes memory */\n      0x60\n        /* \".deps/github/OpenZeppelin/openzeppelin-contracts/contracts/utils/Address.sol\":3715:3767  functionCallWithValue(target, data, 0, errorMessage) */\n      tag_310\n        /* \".deps/github/OpenZeppelin/openzeppelin-contracts/contracts/utils/Address.sol\":3737:3743  target */\n      dup5\n        /* \".deps/github/OpenZeppelin/openzeppelin-contracts/contracts/utils/Address.sol\":3745:3749  data */\n      dup5\n        /* \".deps/github/OpenZeppelin/openzeppelin-contracts/contracts/utils/Address.sol\":3751:3752  0 */\n      0x00\n        /* \".deps/github/OpenZeppelin/openzeppelin-contracts/contracts/utils/Address.sol\":3754:3766  errorMessage */\n      dup6\n        /* \".deps/github/OpenZeppelin/openzeppelin-contracts/contracts/utils/Address.sol\":3715:3736  functionCallWithValue */\n      tag_311\n        /* \".deps/github/OpenZeppelin/openzeppelin-contracts/contracts/utils/Address.sol\":3715:3767  functionCallWithValue(target, data, 0, errorMessage) */\n      jump\t// in\n    tag_310:\n        /* \".deps/github/OpenZeppelin/openzeppelin-contracts/contracts/utils/Address.sol\":3708:3767  return functionCallWithValue(target, data, 0, errorMessage) */\n      swap1\n      pop\n        /* \".deps/github/OpenZeppelin/openzeppelin-contracts/contracts/utils/Address.sol\":3581:3774  function functionCall(address target, bytes memory data, string memory errorMessage) internal returns (bytes memory) {... */\n      swap4\n      swap3\n      pop\n      pop\n      pop\n      jump\t// out\n        /* \".deps/github/OpenZeppelin/openzeppelin-contracts/contracts/utils/EnumerableSet.sol\":3805:3932  function _contains(Set storage set, bytes32 value) private view returns (bool) {... */\n    tag_298:\n        /* \".deps/github/OpenZeppelin/openzeppelin-contracts/contracts/utils/EnumerableSet.sol\":3878:3882  bool */\n      0x00\n        /* \".deps/github/OpenZeppelin/openzeppelin-contracts/contracts/utils/EnumerableSet.sol\":3924:3925  0 */\n      dup1\n        /* \".deps/github/OpenZeppelin/openzeppelin-contracts/contracts/utils/EnumerableSet.sol\":3901:3904  set */\n      dup4\n        /* \".deps/github/OpenZeppelin/openzeppelin-contracts/contracts/utils/EnumerableSet.sol\":3901:3913  set._indexes */\n      0x01\n      add\n        /* \".deps/github/OpenZeppelin/openzeppelin-contracts/contracts/utils/EnumerableSet.sol\":3901:3920  set._indexes[value] */\n      0x00\n        /* \".deps/github/OpenZeppelin/openzeppelin-contracts/contracts/utils/EnumerableSet.sol\":3914:3919  value */\n      dup5\n        /* \".deps/github/OpenZeppelin/openzeppelin-contracts/contracts/utils/EnumerableSet.sol\":3901:3920  set._indexes[value] */\n      dup2\n      mstore\n      0x20\n      add\n      swap1\n      dup2\n      mstore\n      0x20\n      add\n      0x00\n      keccak256\n      sload\n        /* \".deps/github/OpenZeppelin/openzeppelin-contracts/contracts/utils/EnumerableSet.sol\":3901:3925  set._indexes[value] != 0 */\n      eq\n      iszero\n        /* \".deps/github/OpenZeppelin/openzeppelin-contracts/contracts/utils/EnumerableSet.sol\":3894:3925  return set._indexes[value] != 0 */\n      swap1\n      pop\n        /* \".deps/github/OpenZeppelin/openzeppelin-contracts/contracts/utils/EnumerableSet.sol\":3805:3932  function _contains(Set storage set, bytes32 value) private view returns (bool) {... */\n      swap3\n      swap2\n      pop\n      pop\n      jump\t// out\n        /* \".deps/github/OpenZeppelin/openzeppelin-contracts/contracts/utils/Address.sol\":4608:5131  function functionCallWithValue(address target, bytes memory data, uint256 value, string memory errorMessage) internal returns (bytes memory) {... */\n    tag_311:\n        /* \".deps/github/OpenZeppelin/openzeppelin-contracts/contracts/utils/Address.sol\":4735:4747  bytes memory */\n      0x60\n        /* \".deps/github/OpenZeppelin/openzeppelin-contracts/contracts/utils/Address.sol\":4792:4797  value */\n      dup3\n        /* \".deps/github/OpenZeppelin/openzeppelin-contracts/contracts/utils/Address.sol\":4767:4788  address(this).balance */\n      selfbalance\n        /* \".deps/github/OpenZeppelin/openzeppelin-contracts/contracts/utils/Address.sol\":4767:4797  address(this).balance >= value */\n      lt\n      iszero\n        /* \".deps/github/OpenZeppelin/openzeppelin-contracts/contracts/utils/Address.sol\":4759:4840  require(address(this).balance >= value, \"Address: insufficient balance for call\") */\n      tag_314\n      jumpi\n      mload(0x40)\n      0x08c379a000000000000000000000000000000000000000000000000000000000\n      dup2\n      mstore\n      0x04\n      add\n      dup1\n      dup1\n      0x20\n      add\n      dup3\n      dup2\n      sub\n      dup3\n      mstore\n      0x26\n      dup2\n      mstore\n      0x20\n      add\n      dup1\n      data_565f1a77334fc4792800921178c71e4521acffab18ff9e7885b49377ee80ab4c\n      0x26\n      swap2\n      codecopy\n      0x40\n      add\n      swap2\n      pop\n      pop\n      mload(0x40)\n      dup1\n      swap2\n      sub\n      swap1\n      revert\n    tag_314:\n        /* \".deps/github/OpenZeppelin/openzeppelin-contracts/contracts/utils/Address.sol\":4858:4876  isContract(target) */\n      tag_315\n        /* \".deps/github/OpenZeppelin/openzeppelin-contracts/contracts/utils/Address.sol\":4869:4875  target */\n      dup6\n        /* \".deps/github/OpenZeppelin/openzeppelin-contracts/contracts/utils/Address.sol\":4858:4868  isContract */\n      tag_276\n        /* \".deps/github/OpenZeppelin/openzeppelin-contracts/contracts/utils/Address.sol\":4858:4876  isContract(target) */\n      jump\t// in\n    tag_315:\n        /* \".deps/github/OpenZeppelin/openzeppelin-contracts/contracts/utils/Address.sol\":4850:4910  require(isContract(target), \"Address: call to non-contract\") */\n      tag_316\n      jumpi\n      mload(0x40)\n      0x08c379a000000000000000000000000000000000000000000000000000000000\n      dup2\n      mstore\n      0x04\n      add\n      dup1\n      dup1\n      0x20\n      add\n      dup3\n      dup2\n      sub\n      dup3\n      mstore\n      0x1d\n      dup2\n      mstore\n      0x20\n      add\n      dup1\n      0x416464726573733a2063616c6c20746f206e6f6e2d636f6e7472616374000000\n      dup2\n      mstore\n      pop\n      0x20\n      add\n      swap2\n      pop\n      pop\n      mload(0x40)\n      dup1\n      swap2\n      sub\n      swap1\n      revert\n    tag_316:\n        /* \".deps/github/OpenZeppelin/openzeppelin-contracts/contracts/utils/Address.sol\":4981:4993  bool success */\n      0x00\n        /* \".deps/github/OpenZeppelin/openzeppelin-contracts/contracts/utils/Address.sol\":4995:5018  bytes memory returndata */\n      0x60\n        /* \".deps/github/OpenZeppelin/openzeppelin-contracts/contracts/utils/Address.sol\":5022:5028  target */\n      dup7\n        /* \".deps/github/OpenZeppelin/openzeppelin-contracts/contracts/utils/Address.sol\":5022:5033  target.call */\n      0xffffffffffffffffffffffffffffffffffffffff\n      and\n        /* \".deps/github/OpenZeppelin/openzeppelin-contracts/contracts/utils/Address.sol\":5042:5047  value */\n      dup6\n        /* \".deps/github/OpenZeppelin/openzeppelin-contracts/contracts/utils/Address.sol\":5050:5054  data */\n      dup8\n        /* \".deps/github/OpenZeppelin/openzeppelin-contracts/contracts/utils/Address.sol\":5022:5055  target.call{ value: value }(data) */\n      mload(0x40)\n      dup1\n      dup3\n      dup1\n      mload\n      swap1\n      0x20\n      add\n      swap1\n      dup1\n      dup4\n      dup4\n    tag_317:\n      0x20\n      dup4\n      lt\n      tag_319\n      jumpi\n      dup1\n      mload\n      dup3\n      mstore\n      0x20\n      dup3\n      add\n      swap2\n      pop\n      0x20\n      dup2\n      add\n      swap1\n      pop\n      0x20\n      dup4\n      sub\n      swap3\n      pop\n      jump(tag_317)\n    tag_319:\n      0x01\n      dup4\n      0x20\n      sub\n      0x0100\n      exp\n      sub\n      dup1\n      not\n      dup3\n      mload\n      and\n      dup2\n      dup5\n      mload\n      and\n      dup1\n      dup3\n      or\n      dup6\n      mstore\n      pop\n      pop\n      pop\n      pop\n      pop\n      pop\n      swap1\n      pop\n      add\n      swap2\n      pop\n      pop\n      0x00\n      mload(0x40)\n      dup1\n      dup4\n      sub\n      dup2\n      dup6\n      dup8\n      gas\n      call\n      swap3\n      pop\n      pop\n      pop\n      returndatasize\n      dup1\n      0x00\n      dup2\n      eq\n      tag_322\n      jumpi\n      mload(0x40)\n      swap2\n      pop\n      and(add(returndatasize, 0x3f), not(0x1f))\n      dup3\n      add\n      0x40\n      mstore\n      returndatasize\n      dup3\n      mstore\n      returndatasize\n      0x00\n      0x20\n      dup5\n      add\n      returndatacopy\n      jump(tag_321)\n    tag_322:\n      0x60\n      swap2\n      pop\n    tag_321:\n      pop\n        /* \".deps/github/OpenZeppelin/openzeppelin-contracts/contracts/utils/Address.sol\":4980:5055  (bool success, bytes memory returndata) = target.call{ value: value }(data) */\n      swap2\n      pop\n      swap2\n      pop\n        /* \".deps/github/OpenZeppelin/openzeppelin-contracts/contracts/utils/Address.sol\":5072:5124  _verifyCallResult(success, returndata, errorMessage) */\n      tag_323\n        /* \".deps/github/OpenZeppelin/openzeppelin-contracts/contracts/utils/Address.sol\":5090:5097  success */\n      dup3\n        /* \".deps/github/OpenZeppelin/openzeppelin-contracts/contracts/utils/Address.sol\":5099:5109  returndata */\n      dup3\n        /* \".deps/github/OpenZeppelin/openzeppelin-contracts/contracts/utils/Address.sol\":5111:5123  errorMessage */\n      dup7\n        /* \".deps/github/OpenZeppelin/openzeppelin-contracts/contracts/utils/Address.sol\":5072:5089  _verifyCallResult */\n      tag_324\n        /* \".deps/github/OpenZeppelin/openzeppelin-contracts/contracts/utils/Address.sol\":5072:5124  _verifyCallResult(success, returndata, errorMessage) */\n      jump\t// in\n    tag_323:\n        /* \".deps/github/OpenZeppelin/openzeppelin-contracts/contracts/utils/Address.sol\":5065:5124  return _verifyCallResult(success, returndata, errorMessage) */\n      swap3\n      pop\n      pop\n      pop\n        /* \".deps/github/OpenZeppelin/openzeppelin-contracts/contracts/utils/Address.sol\":4608:5131  function functionCallWithValue(address target, bytes memory data, uint256 value, string memory errorMessage) internal returns (bytes memory) {... */\n      swap5\n      swap4\n      pop\n      pop\n      pop\n      pop\n      jump\t// out\n        /* \".deps/github/OpenZeppelin/openzeppelin-contracts/contracts/utils/Address.sol\":7091:7816  function _verifyCallResult(bool success, bytes memory returndata, string memory errorMessage) private pure returns(bytes memory) {... */\n    tag_324:\n        /* \".deps/github/OpenZeppelin/openzeppelin-contracts/contracts/utils/Address.sol\":7206:7218  bytes memory */\n      0x60\n        /* \".deps/github/OpenZeppelin/openzeppelin-contracts/contracts/utils/Address.sol\":7234:7241  success */\n      dup4\n        /* \".deps/github/OpenZeppelin/openzeppelin-contracts/contracts/utils/Address.sol\":7230:7810  if (success) {... */\n      iszero\n      tag_326\n      jumpi\n        /* \".deps/github/OpenZeppelin/openzeppelin-contracts/contracts/utils/Address.sol\":7264:7274  returndata */\n      dup3\n        /* \".deps/github/OpenZeppelin/openzeppelin-contracts/contracts/utils/Address.sol\":7257:7274  return returndata */\n      swap1\n      pop\n      jump(tag_325)\n        /* \".deps/github/OpenZeppelin/openzeppelin-contracts/contracts/utils/Address.sol\":7230:7810  if (success) {... */\n    tag_326:\n        /* \".deps/github/OpenZeppelin/openzeppelin-contracts/contracts/utils/Address.sol\":7395:7396  0 */\n      0x00\n        /* \".deps/github/OpenZeppelin/openzeppelin-contracts/contracts/utils/Address.sol\":7375:7385  returndata */\n      dup4\n        /* \".deps/github/OpenZeppelin/openzeppelin-contracts/contracts/utils/Address.sol\":7375:7392  returndata.length */\n      mload\n        /* \".deps/github/OpenZeppelin/openzeppelin-contracts/contracts/utils/Address.sol\":7375:7396  returndata.length > 0 */\n      gt\n        /* \".deps/github/OpenZeppelin/openzeppelin-contracts/contracts/utils/Address.sol\":7371:7800  if (returndata.length > 0) {... */\n      iszero\n      tag_328\n      jumpi\n        /* \".deps/github/OpenZeppelin/openzeppelin-contracts/contracts/utils/Address.sol\":7633:7643  returndata */\n      dup3\n        /* \".deps/github/OpenZeppelin/openzeppelin-contracts/contracts/utils/Address.sol\":7627:7644  mload(returndata) */\n      mload\n        /* \".deps/github/OpenZeppelin/openzeppelin-contracts/contracts/utils/Address.sol\":7693:7708  returndata_size */\n      dup1\n        /* \".deps/github/OpenZeppelin/openzeppelin-contracts/contracts/utils/Address.sol\":7680:7690  returndata */\n      dup5\n        /* \".deps/github/OpenZeppelin/openzeppelin-contracts/contracts/utils/Address.sol\":7676:7678  32 */\n      0x20\n        /* \".deps/github/OpenZeppelin/openzeppelin-contracts/contracts/utils/Address.sol\":7672:7691  add(32, returndata) */\n      add\n        /* \".deps/github/OpenZeppelin/openzeppelin-contracts/contracts/utils/Address.sol\":7665:7709  revert(add(32, returndata), returndata_size) */\n      revert\n        /* \".deps/github/OpenZeppelin/openzeppelin-contracts/contracts/utils/Address.sol\":7582:7727  {... */\n    tag_328:\n        /* \".deps/github/OpenZeppelin/openzeppelin-contracts/contracts/utils/Address.sol\":7772:7784  errorMessage */\n      dup2\n        /* \".deps/github/OpenZeppelin/openzeppelin-contracts/contracts/utils/Address.sol\":7765:7785  revert(errorMessage) */\n      mload(0x40)\n      0x08c379a000000000000000000000000000000000000000000000000000000000\n      dup2\n      mstore\n      0x04\n      add\n      dup1\n      dup1\n      0x20\n      add\n      dup3\n      dup2\n      sub\n      dup3\n      mstore\n      dup4\n      dup2\n      dup2\n      mload\n      dup2\n      mstore\n      0x20\n      add\n      swap2\n      pop\n      dup1\n      mload\n      swap1\n      0x20\n      add\n      swap1\n      dup1\n      dup4\n      dup4\n      0x00\n    tag_330:\n      dup4\n      dup2\n      lt\n      iszero\n      tag_332\n      jumpi\n      dup1\n      dup3\n      add\n      mload\n      dup2\n      dup5\n      add\n      mstore\n      0x20\n      dup2\n      add\n      swap1\n      pop\n      jump(tag_330)\n    tag_332:\n      pop\n      pop\n      pop\n      pop\n      swap1\n      pop\n      swap1\n      dup2\n      add\n      swap1\n      0x1f\n      and\n      dup1\n      iszero\n      tag_333\n      jumpi\n      dup1\n      dup3\n      sub\n      dup1\n      mload\n      0x01\n      dup4\n      0x20\n      sub\n      0x0100\n      exp\n      sub\n      not\n      and\n      dup2\n      mstore\n      0x20\n      add\n      swap2\n      pop\n    tag_333:\n      pop\n      swap3\n      pop\n      pop\n      pop\n      mload(0x40)\n      dup1\n      swap2\n      sub\n      swap1\n      revert\n        /* \".deps/github/OpenZeppelin/openzeppelin-contracts/contracts/utils/Address.sol\":7091:7816  function _verifyCallResult(bool success, bytes memory returndata, string memory errorMessage) private pure returns(bytes memory) {... */\n    tag_325:\n      swap4\n      swap3\n      pop\n      pop\n      pop\n      jump\t// out\n    stop\n    data_045d6834e6193a687012a3ad777f612279e549b6945364d9d2324f48610d3cbb 456e756d657261626c655365743a20696e646578206f7574206f6620626f756e6473\n    data_1e766a06da43a53d0f4c380e06e5a342e14d5af1bf8501996c844905530ca84e 4552433732313a207472616e7366657220746f206e6f6e20455243373231526563656976657220696d706c656d656e746572\n    data_455fea98ea03c32d7dd1a6f1426917d80529bf47b3ccbde74e7206e889e709f4 4552433732313a207472616e7366657220746f20746865207a65726f2061646472657373\n    data_565f1a77334fc4792800921178c71e4521acffab18ff9e7885b49377ee80ab4c 416464726573733a20696e73756666696369656e742062616c616e636520666f722063616c6c\n    data_5797d1ccb08b83980dd0c07ea40d8f6a64d35fff736a19bdd17522954cb0899c 4552433732313a206f70657261746f7220717565727920666f72206e6f6e6578697374656e7420746f6b656e\n    data_6d83cef3e0cb19b8320a9c5feb26b56bbb08f152a8e61b12eca3302d8d68b23d 4552433732313a20617070726f76652063616c6c6572206973206e6f74206f776e6572206e6f7220617070726f76656420666f7220616c6c\n    data_7395d4d3901c50cdfcab223d072f9aa36241df5d883e62cbf147ee1b05a9e6ba 4552433732313a2062616c616e636520717565727920666f7220746865207a65726f2061646472657373\n    data_7481f3df2a424c0755a1ad2356614e9a5a358d461ea2eae1f89cb21cbad00397 4552433732313a206f776e657220717565727920666f72206e6f6e6578697374656e7420746f6b656e\n    data_86631030b9066a18616a068fc09fce83d18af4765cb1d2166fa475228f4db155 456e756d657261626c654d61703a20696e646578206f7574206f6620626f756e6473\n    data_9291e0f44949204f2e9b40e6be090924979d6047b2365868f4e9f027722eb89d 4552433732313a20617070726f76656420717565727920666f72206e6f6e6578697374656e7420746f6b656e\n    data_a01073130a885d6c1c1af6ac75fc3b1c4f9403c235362962bbf528e2bd87d950 4552433732313a207472616e73666572206f6620746f6b656e2074686174206973206e6f74206f776e\n    data_a2d45c0fba603d40d82d590051761ca952d1ab9d78cca6d0d464d7b6e961a9cb 4552433732314d657461646174613a2055524920717565727920666f72206e6f6e6578697374656e7420746f6b656e\n    data_b51b4875eede07862961e8f9365c6749f5fe55c6ee5d7a9e42b6912ad0b15942 4552433732313a20617070726f76616c20746f2063757272656e74206f776e6572\n    data_c8682f3ad98807db59a6ec6bb812b72fed0a66e3150fa8239699ee83885247f2 4552433732313a207472616e736665722063616c6c6572206973206e6f74206f776e6572206e6f7220617070726f766564\n\n    auxdata: 0xa2646970667358221220162e58a3476886dcf5b4acbb85c6564dae11b23773b4bdd88788e21c94d8363d64736f6c634300060c0033\n}\n",
				"bytecode": {
					"linkReferences": {},
					"object": "60806040526001600a60006101000a81548160ff0219169083151502179055503480156200002c57600080fd5b5060405162002c4e38038062002c4e833981810160405260408110156200005257600080fd5b81019080805160405193929190846401000000008211156200007357600080fd5b838201915060208201858111156200008a57600080fd5b8251866001820283011164010000000082111715620000a857600080fd5b8083526020830192505050908051906020019080838360005b83811015620000de578082015181840152602081019050620000c1565b50505050905090810190601f1680156200010c5780820380516001836020036101000a031916815260200191505b50604052602001805160405193929190846401000000008211156200013057600080fd5b838201915060208201858111156200014757600080fd5b82518660018202830111640100000000821117156200016557600080fd5b8083526020830192505050908051906020019080838360005b838110156200019b5780820151818401526020810190506200017e565b50505050905090810190601f168015620001c95780820380516001836020036101000a031916815260200191505b50604052505050620001e86301ffc9a760e01b6200026a60201b60201c565b81600690805190602001906200020092919062000373565b5080600790805190602001906200021992919062000373565b50620002326380ac58cd60e01b6200026a60201b60201c565b6200024a635b5e139f60e01b6200026a60201b60201c565b6200026263780e9d6360e01b6200026a60201b60201c565b505062000419565b63ffffffff60e01b817bffffffffffffffffffffffffffffffffffffffffffffffffffffffff1916141562000307576040517f08c379a000000000000000000000000000000000000000000000000000000000815260040180806020018281038252601c8152602001807f4552433136353a20696e76616c696420696e746572666163652069640000000081525060200191505060405180910390fd5b6001600080837bffffffffffffffffffffffffffffffffffffffffffffffffffffffff19167bffffffffffffffffffffffffffffffffffffffffffffffffffffffff1916815260200190815260200160002060006101000a81548160ff02191690831515021790555050565b828054600181600116156101000203166002900490600052602060002090601f016020900481019282601f10620003b657805160ff1916838001178555620003e7565b82800160010185558215620003e7579182015b82811115620003e6578251825591602001919060010190620003c9565b5b509050620003f69190620003fa565b5090565b5b8082111562000415576000816000905550600101620003fb565b5090565b61282580620004296000396000f3fe608060405234801561001057600080fd5b50600436106101165760003560e01c80636352211e116100a2578063a22cb46511610071578063a22cb465146105fb578063b88d4fde1461064b578063c87b56dd14610750578063c8f02558146107f7578063e985e9c51461080157610116565b80636352211e146104455780636c0360eb1461049d57806370a082311461052057806395d89b411461057857610116565b806318160ddd116100e957806318160ddd146102a757806323b872dd146102c55780632f745c591461033357806342842e0e146103955780634f6ccce71461040357610116565b806301ffc9a71461011b57806306fdde031461017e578063081812fc14610201578063095ea7b314610259575b600080fd5b6101666004803603602081101561013157600080fd5b8101908080357bffffffffffffffffffffffffffffffffffffffffffffffffffffffff1916906020019092919050505061087b565b60405180821515815260200191505060405180910390f35b6101866108e2565b6040518080602001828103825283818151815260200191508051906020019080838360005b838110156101c65780820151818401526020810190506101ab565b50505050905090810190601f1680156101f35780820380516001836020036101000a031916815260200191505b509250505060405180910390f35b61022d6004803603602081101561021757600080fd5b8101908080359060200190929190505050610984565b604051808273ffffffffffffffffffffffffffffffffffffffff16815260200191505060405180910390f35b6102a56004803603604081101561026f57600080fd5b81019080803573ffffffffffffffffffffffffffffffffffffffff16906020019092919080359060200190929190505050610a1f565b005b6102af610b63565b6040518082815260200191505060405180910390f35b610331600480360360608110156102db57600080fd5b81019080803573ffffffffffffffffffffffffffffffffffffffff169060200190929190803573ffffffffffffffffffffffffffffffffffffffff16906020019092919080359060200190929190505050610b74565b005b61037f6004803603604081101561034957600080fd5b81019080803573ffffffffffffffffffffffffffffffffffffffff16906020019092919080359060200190929190505050610c73565b6040518082815260200191505060405180910390f35b610401600480360360608110156103ab57600080fd5b81019080803573ffffffffffffffffffffffffffffffffffffffff169060200190929190803573ffffffffffffffffffffffffffffffffffffffff16906020019092919080359060200190929190505050610cce565b005b61042f6004803603602081101561041957600080fd5b8101908080359060200190929190505050610cee565b6040518082815260200191505060405180910390f35b6104716004803603602081101561045b57600080fd5b8101908080359060200190929190505050610d11565b604051808273ffffffffffffffffffffffffffffffffffffffff16815260200191505060405180910390f35b6104a5610d48565b6040518080602001828103825283818151815260200191508051906020019080838360005b838110156104e55780820151818401526020810190506104ca565b50505050905090810190601f1680156105125780820380516001836020036101000a031916815260200191505b509250505060405180910390f35b6105626004803603602081101561053657600080fd5b81019080803573ffffffffffffffffffffffffffffffffffffffff169060200190929190505050610dea565b6040518082815260200191505060405180910390f35b610580610ebf565b6040518080602001828103825283818151815260200191508051906020019080838360005b838110156105c05780820151818401526020810190506105a5565b50505050905090810190601f1680156105ed5780820380516001836020036101000a031916815260200191505b509250505060405180910390f35b6106496004803603604081101561061157600080fd5b81019080803573ffffffffffffffffffffffffffffffffffffffff169060200190929190803515159060200190929190505050610f61565b005b61074e6004803603608081101561066157600080fd5b81019080803573ffffffffffffffffffffffffffffffffffffffff169060200190929190803573ffffffffffffffffffffffffffffffffffffffff16906020019092919080359060200190929190803590602001906401000000008111156106c857600080fd5b8201836020820111156106da57600080fd5b803590602001918460018302840111640100000000831117156106fc57600080fd5b91908080601f016020809104026020016040519081016040528093929190818152602001838380828437600081840152601f19601f820116905080830192505050505050509192919290505050611117565b005b61077c6004803603602081101561076657600080fd5b810190808035906020019092919050505061118f565b6040518080602001828103825283818151815260200191508051906020019080838360005b838110156107bc5780820151818401526020810190506107a1565b50505050905090810190601f1680156107e95780820380516001836020036101000a031916815260200191505b509250505060405180910390f35b6107ff611460565b005b6108636004803603604081101561081757600080fd5b81019080803573ffffffffffffffffffffffffffffffffffffffff169060200190929190803573ffffffffffffffffffffffffffffffffffffffff1690602001909291905050506114c2565b60405180821515815260200191505060405180910390f35b6000806000837bffffffffffffffffffffffffffffffffffffffffffffffffffffffff19167bffffffffffffffffffffffffffffffffffffffffffffffffffffffff1916815260200190815260200160002060009054906101000a900460ff169050919050565b606060068054600181600116156101000203166002900480601f01602080910402602001604051908101604052809291908181526020018280546001816001161561010002031660029004801561097a5780601f1061094f5761010080835404028352916020019161097a565b820191906000526020600020905b81548152906001019060200180831161095d57829003601f168201915b5050505050905090565b600061098f82611556565b6109e4576040517f08c379a000000000000000000000000000000000000000000000000000000000815260040180806020018281038252602c81526020018061271a602c913960400191505060405180910390fd5b6004600083815260200190815260200160002060009054906101000a900473ffffffffffffffffffffffffffffffffffffffff169050919050565b6000610a2a82610d11565b90508073ffffffffffffffffffffffffffffffffffffffff168373ffffffffffffffffffffffffffffffffffffffff161415610ab1576040517f08c379a000000000000000000000000000000000000000000000000000000000815260040180806020018281038252602181526020018061279e6021913960400191505060405180910390fd5b8073ffffffffffffffffffffffffffffffffffffffff16610ad0611573565b73ffffffffffffffffffffffffffffffffffffffff161480610aff5750610afe81610af9611573565b6114c2565b5b610b54576040517f08c379a000000000000000000000000000000000000000000000000000000000815260040180806020018281038252603881526020018061266d6038913960400191505060405180910390fd5b610b5e838361157b565b505050565b6000610b6f6002611634565b905090565b610b85610b7f611573565b82611649565b610bda576040517f08c379a00000000000000000000000000000000000000000000000000000000081526004018080602001828103825260318152602001806127bf6031913960400191505060405180910390fd5b60001515600a60009054906101000a900460ff16151514610c63576040517f08c379a00000000000000000000000000000000000000000000000000000000081526004018080602001828103825260108152602001807f546f6b656e206973206c6f636b6564210000000000000000000000000000000081525060200191505060405180910390fd5b610c6e83838361173d565b505050565b6000610cc682600160008673ffffffffffffffffffffffffffffffffffffffff1673ffffffffffffffffffffffffffffffffffffffff16815260200190815260200160002061198090919063ffffffff16565b905092915050565b610ce983838360405180602001604052806000815250611117565b505050565b600080610d0583600261199a90919063ffffffff16565b50905080915050919050565b6000610d41826040518060600160405280602981526020016126cf6029913960026119c69092919063ffffffff16565b9050919050565b606060098054600181600116156101000203166002900480601f016020809104026020016040519081016040528092919081815260200182805460018160011615610100020316600290048015610de05780601f10610db557610100808354040283529160200191610de0565b820191906000526020600020905b815481529060010190602001808311610dc357829003601f168201915b5050505050905090565b60008073ffffffffffffffffffffffffffffffffffffffff168273ffffffffffffffffffffffffffffffffffffffff161415610e71576040517f08c379a000000000000000000000000000000000000000000000000000000000815260040180806020018281038252602a8152602001806126a5602a913960400191505060405180910390fd5b610eb8600160008473ffffffffffffffffffffffffffffffffffffffff1673ffffffffffffffffffffffffffffffffffffffff1681526020019081526020016000206119e5565b9050919050565b606060078054600181600116156101000203166002900480601f016020809104026020016040519081016040528092919081815260200182805460018160011615610100020316600290048015610f575780601f10610f2c57610100808354040283529160200191610f57565b820191906000526020600020905b815481529060010190602001808311610f3a57829003601f168201915b5050505050905090565b610f69611573565b73ffffffffffffffffffffffffffffffffffffffff168273ffffffffffffffffffffffffffffffffffffffff16141561100a576040517f08c379a00000000000000000000000000000000000000000000000000000000081526004018080602001828103825260198152602001807f4552433732313a20617070726f766520746f2063616c6c65720000000000000081525060200191505060405180910390fd5b8060056000611017611573565b73ffffffffffffffffffffffffffffffffffffffff1673ffffffffffffffffffffffffffffffffffffffff16815260200190815260200160002060008473ffffffffffffffffffffffffffffffffffffffff1673ffffffffffffffffffffffffffffffffffffffff16815260200190815260200160002060006101000a81548160ff0219169083151502179055508173ffffffffffffffffffffffffffffffffffffffff166110c4611573565b73ffffffffffffffffffffffffffffffffffffffff167f17307eab39ab6107e8899845ad3d59bd9653f200f220920489ca2b5937696c318360405180821515815260200191505060405180910390a35050565b611128611122611573565b83611649565b61117d576040517f08c379a00000000000000000000000000000000000000000000000000000000081526004018080602001828103825260318152602001806127bf6031913960400191505060405180910390fd5b611189848484846119fa565b50505050565b606061119a82611556565b6111ef576040517f08c379a000000000000000000000000000000000000000000000000000000000815260040180806020018281038252602f81526020018061276f602f913960400191505060405180910390fd5b6060600860008481526020019081526020016000208054600181600116156101000203166002900480601f0160208091040260200160405190810160405280929190818152602001828054600181600116156101000203166002900480156112985780601f1061126d57610100808354040283529160200191611298565b820191906000526020600020905b81548152906001019060200180831161127b57829003601f168201915b5050505050905060606112a9610d48565b90506000815114156112bf57819250505061145b565b6000825111156113905780826040516020018083805190602001908083835b6020831061130157805182526020820191506020810190506020830392506112de565b6001836020036101000a03801982511681845116808217855250505050505090500182805190602001908083835b60208310611352578051825260208201915060208101905060208303925061132f565b6001836020036101000a038019825116818451168082178552505050505050905001925050506040516020818303038152906040529250505061145b565b8061139a85611a6c565b6040516020018083805190602001908083835b602083106113d057805182526020820191506020810190506020830392506113ad565b6001836020036101000a03801982511681845116808217855250505050505090500182805190602001908083835b6020831061142157805182526020820191506020810190506020830392506113fe565b6001836020036101000a03801982511681845116808217855250505050505090500192505050604051602081830303815290604052925050505b919050565b60011515600a60009054906101000a900460ff16151514156114905760001515600a60009054906101000a905050505b60001515600a60009054906101000a900460ff16151514156114c05760011515600a60009054906101000a905050505b565b6000600560008473ffffffffffffffffffffffffffffffffffffffff1673ffffffffffffffffffffffffffffffffffffffff16815260200190815260200160002060008373ffffffffffffffffffffffffffffffffffffffff1673ffffffffffffffffffffffffffffffffffffffff16815260200190815260200160002060009054906101000a900460ff16905092915050565b600061156c826002611bb390919063ffffffff16565b9050919050565b600033905090565b816004600083815260200190815260200160002060006101000a81548173ffffffffffffffffffffffffffffffffffffffff021916908373ffffffffffffffffffffffffffffffffffffffff160217905550808273ffffffffffffffffffffffffffffffffffffffff166115ee83610d11565b73ffffffffffffffffffffffffffffffffffffffff167f8c5be1e5ebec7d5bd14f71427d1e84f3dd0314c0f7b2291e5b200ac8c7c3b92560405160405180910390a45050565b600061164282600001611bcd565b9050919050565b600061165482611556565b6116a9576040517f08c379a000000000000000000000000000000000000000000000000000000000815260040180806020018281038252602c815260200180612641602c913960400191505060405180910390fd5b60006116b483610d11565b90508073ffffffffffffffffffffffffffffffffffffffff168473ffffffffffffffffffffffffffffffffffffffff16148061172357508373ffffffffffffffffffffffffffffffffffffffff1661170b84610984565b73ffffffffffffffffffffffffffffffffffffffff16145b80611734575061173381856114c2565b5b91505092915050565b8273ffffffffffffffffffffffffffffffffffffffff1661175d82610d11565b73ffffffffffffffffffffffffffffffffffffffff16146117c9576040517f08c379a00000000000000000000000000000000000000000000000000000000081526004018080602001828103825260298152602001806127466029913960400191505060405180910390fd5b600073ffffffffffffffffffffffffffffffffffffffff168273ffffffffffffffffffffffffffffffffffffffff16141561184f576040517f08c379a00000000000000000000000000000000000000000000000000000000081526004018080602001828103825260248152602001806125f76024913960400191505060405180910390fd5b61185a838383611bde565b61186560008261157b565b6118b681600160008673ffffffffffffffffffffffffffffffffffffffff1673ffffffffffffffffffffffffffffffffffffffff168152602001908152602001600020611be390919063ffffffff16565b5061190881600160008573ffffffffffffffffffffffffffffffffffffffff1673ffffffffffffffffffffffffffffffffffffffff168152602001908152602001600020611bfd90919063ffffffff16565b5061191f81836002611c179092919063ffffffff16565b50808273ffffffffffffffffffffffffffffffffffffffff168473ffffffffffffffffffffffffffffffffffffffff167fddf252ad1be2c89b69c2b068fc378daa952ba7f163c4a11628f55a4df523b3ef60405160405180910390a4505050565b600061198f8360000183611c4c565b60001c905092915050565b6000806000806119ad8660000186611ccf565b915091508160001c8160001c9350935050509250929050565b60006119d9846000018460001b84611d68565b60001c90509392505050565b60006119f382600001611e5e565b9050919050565b611a0584848461173d565b611a1184848484611e6f565b611a66576040517f08c379a00000000000000000000000000000000000000000000000000000000081526004018080602001828103825260328152602001806125c56032913960400191505060405180910390fd5b50505050565b60606000821415611ab4576040518060400160405280600181526020017f30000000000000000000000000000000000000000000000000000000000000008152509050611bae565b600082905060005b60008214611ade578080600101915050600a8281611ad657fe5b049150611abc565b60608167ffffffffffffffff81118015611af757600080fd5b506040519080825280601f01601f191660200182016040528015611b2a5781602001600182028036833780820191505090505b50905060006001830390508593505b60008414611ba657600a8481611b4b57fe5b0660300160f81b82828060019003935081518110611b6557fe5b60200101907effffffffffffffffffffffffffffffffffffffffffffffffffffffffffffff1916908160001a905350600a8481611b9e57fe5b049350611b39565b819450505050505b919050565b6000611bc5836000018360001b612088565b905092915050565b600081600001805490509050919050565b505050565b6000611bf5836000018360001b6120ab565b905092915050565b6000611c0f836000018360001b612193565b905092915050565b6000611c43846000018460001b8473ffffffffffffffffffffffffffffffffffffffff1660001b612203565b90509392505050565b600081836000018054905011611cad576040517f08c379a00000000000000000000000000000000000000000000000000000000081526004018080602001828103825260228152602001806125a36022913960400191505060405180910390fd5b826000018281548110611cbc57fe5b9060005260206000200154905092915050565b60008082846000018054905011611d31576040517f08c379a00000000000000000000000000000000000000000000000000000000081526004018080602001828103825260228152602001806126f86022913960400191505060405180910390fd5b6000846000018481548110611d4257fe5b906000526020600020906002020190508060000154816001015492509250509250929050565b60008084600101600085815260200190815260200160002054905060008114158390611e2f576040517f08c379a00000000000000000000000000000000000000000000000000000000081526004018080602001828103825283818151815260200191508051906020019080838360005b83811015611df4578082015181840152602081019050611dd9565b50505050905090810190601f168015611e215780820380516001836020036101000a031916815260200191505b509250505060405180910390fd5b50846000016001820381548110611e4257fe5b9060005260206000209060020201600101549150509392505050565b600081600001805490509050919050565b6000611e908473ffffffffffffffffffffffffffffffffffffffff166122df565b611e9d5760019050612080565b606061200763150b7a0260e01b611eb2611573565b888787604051602401808573ffffffffffffffffffffffffffffffffffffffff1681526020018473ffffffffffffffffffffffffffffffffffffffff16815260200183815260200180602001828103825283818151815260200191508051906020019080838360005b83811015611f36578082015181840152602081019050611f1b565b50505050905090810190601f168015611f635780820380516001836020036101000a031916815260200191505b5095505050505050604051602081830303815290604052907bffffffffffffffffffffffffffffffffffffffffffffffffffffffff19166020820180517bffffffffffffffffffffffffffffffffffffffffffffffffffffffff83818316178352505050506040518060600160405280603281526020016125c5603291398773ffffffffffffffffffffffffffffffffffffffff166122f29092919063ffffffff16565b9050600081806020019051602081101561202057600080fd5b8101908080519060200190929190505050905063150b7a0260e01b7bffffffffffffffffffffffffffffffffffffffffffffffffffffffff1916817bffffffffffffffffffffffffffffffffffffffffffffffffffffffff191614925050505b949350505050565b600080836001016000848152602001908152602001600020541415905092915050565b6000808360010160008481526020019081526020016000205490506000811461218757600060018203905060006001866000018054905003905060008660000182815481106120f657fe5b906000526020600020015490508087600001848154811061211357fe5b906000526020600020018190555060018301876001016000838152602001908152602001600020819055508660000180548061214b57fe5b6001900381819060005260206000200160009055905586600101600087815260200190815260200160002060009055600194505050505061218d565b60009150505b92915050565b600061219f838361230a565b6121f85782600001829080600181540180825580915050600190039060005260206000200160009091909190915055826000018054905083600101600084815260200190815260200160002081905550600190506121fd565b600090505b92915050565b60008084600101600085815260200190815260200160002054905060008114156122aa578460000160405180604001604052808681526020018581525090806001815401808255809150506001900390600052602060002090600202016000909190919091506000820151816000015560208201518160010155505084600001805490508560010160008681526020019081526020016000208190555060019150506122d8565b828560000160018303815481106122bd57fe5b90600052602060002090600202016001018190555060009150505b9392505050565b600080823b905060008111915050919050565b6060612301848460008561232d565b90509392505050565b600080836001016000848152602001908152602001600020541415905092915050565b606082471015612388576040517f08c379a000000000000000000000000000000000000000000000000000000000815260040180806020018281038252602681526020018061261b6026913960400191505060405180910390fd5b612391856122df565b612403576040517f08c379a000000000000000000000000000000000000000000000000000000000815260040180806020018281038252601d8152602001807f416464726573733a2063616c6c20746f206e6f6e2d636f6e747261637400000081525060200191505060405180910390fd5b600060608673ffffffffffffffffffffffffffffffffffffffff1685876040518082805190602001908083835b602083106124535780518252602082019150602081019050602083039250612430565b6001836020036101000a03801982511681845116808217855250505050505090500191505060006040518083038185875af1925050503d80600081146124b5576040519150601f19603f3d011682016040523d82523d6000602084013e6124ba565b606091505b50915091506124ca8282866124d6565b92505050949350505050565b606083156124e65782905061259b565b6000835111156124f95782518084602001fd5b816040517f08c379a00000000000000000000000000000000000000000000000000000000081526004018080602001828103825283818151815260200191508051906020019080838360005b83811015612560578082015181840152602081019050612545565b50505050905090810190601f16801561258d5780820380516001836020036101000a031916815260200191505b509250505060405180910390fd5b939250505056fe456e756d657261626c655365743a20696e646578206f7574206f6620626f756e64734552433732313a207472616e7366657220746f206e6f6e20455243373231526563656976657220696d706c656d656e7465724552433732313a207472616e7366657220746f20746865207a65726f2061646472657373416464726573733a20696e73756666696369656e742062616c616e636520666f722063616c6c4552433732313a206f70657261746f7220717565727920666f72206e6f6e6578697374656e7420746f6b656e4552433732313a20617070726f76652063616c6c6572206973206e6f74206f776e6572206e6f7220617070726f76656420666f7220616c6c4552433732313a2062616c616e636520717565727920666f7220746865207a65726f20616464726573734552433732313a206f776e657220717565727920666f72206e6f6e6578697374656e7420746f6b656e456e756d657261626c654d61703a20696e646578206f7574206f6620626f756e64734552433732313a20617070726f76656420717565727920666f72206e6f6e6578697374656e7420746f6b656e4552433732313a207472616e73666572206f6620746f6b656e2074686174206973206e6f74206f776e4552433732314d657461646174613a2055524920717565727920666f72206e6f6e6578697374656e7420746f6b656e4552433732313a20617070726f76616c20746f2063757272656e74206f776e65724552433732313a207472616e736665722063616c6c6572206973206e6f74206f776e6572206e6f7220617070726f766564a2646970667358221220162e58a3476886dcf5b4acbb85c6564dae11b23773b4bdd88788e21c94d8363d64736f6c634300060c0033",
					"opcodes": "PUSH1 0x80 PUSH1 0x40 MSTORE PUSH1 0x1 PUSH1 0xA PUSH1 0x0 PUSH2 0x100 EXP DUP2 SLOAD DUP2 PUSH1 0xFF MUL NOT AND SWAP1 DUP4 ISZERO ISZERO MUL OR SWAP1 SSTORE POP CALLVALUE DUP1 ISZERO PUSH3 0x2C JUMPI PUSH1 0x0 DUP1 REVERT JUMPDEST POP PUSH1 0x40 MLOAD PUSH3 0x2C4E CODESIZE SUB DUP1 PUSH3 0x2C4E DUP4 CODECOPY DUP2 DUP2 ADD PUSH1 0x40 MSTORE PUSH1 0x40 DUP2 LT ISZERO PUSH3 0x52 JUMPI PUSH1 0x0 DUP1 REVERT JUMPDEST DUP2 ADD SWAP1 DUP1 DUP1 MLOAD PUSH1 0x40 MLOAD SWAP4 SWAP3 SWAP2 SWAP1 DUP5 PUSH5 0x100000000 DUP3 GT ISZERO PUSH3 0x73 JUMPI PUSH1 0x0 DUP1 REVERT JUMPDEST DUP4 DUP3 ADD SWAP2 POP PUSH1 0x20 DUP3 ADD DUP6 DUP2 GT ISZERO PUSH3 0x8A JUMPI PUSH1 0x0 DUP1 REVERT JUMPDEST DUP3 MLOAD DUP7 PUSH1 0x1 DUP3 MUL DUP4 ADD GT PUSH5 0x100000000 DUP3 GT OR ISZERO PUSH3 0xA8 JUMPI PUSH1 0x0 DUP1 REVERT JUMPDEST DUP1 DUP4 MSTORE PUSH1 0x20 DUP4 ADD SWAP3 POP POP POP SWAP1 DUP1 MLOAD SWAP1 PUSH1 0x20 ADD SWAP1 DUP1 DUP4 DUP4 PUSH1 0x0 JUMPDEST DUP4 DUP2 LT ISZERO PUSH3 0xDE JUMPI DUP1 DUP3 ADD MLOAD DUP2 DUP5 ADD MSTORE PUSH1 0x20 DUP2 ADD SWAP1 POP PUSH3 0xC1 JUMP JUMPDEST POP POP POP POP SWAP1 POP SWAP1 DUP2 ADD SWAP1 PUSH1 0x1F AND DUP1 ISZERO PUSH3 0x10C JUMPI DUP1 DUP3 SUB DUP1 MLOAD PUSH1 0x1 DUP4 PUSH1 0x20 SUB PUSH2 0x100 EXP SUB NOT AND DUP2 MSTORE PUSH1 0x20 ADD SWAP2 POP JUMPDEST POP PUSH1 0x40 MSTORE PUSH1 0x20 ADD DUP1 MLOAD PUSH1 0x40 MLOAD SWAP4 SWAP3 SWAP2 SWAP1 DUP5 PUSH5 0x100000000 DUP3 GT ISZERO PUSH3 0x130 JUMPI PUSH1 0x0 DUP1 REVERT JUMPDEST DUP4 DUP3 ADD SWAP2 POP PUSH1 0x20 DUP3 ADD DUP6 DUP2 GT ISZERO PUSH3 0x147 JUMPI PUSH1 0x0 DUP1 REVERT JUMPDEST DUP3 MLOAD DUP7 PUSH1 0x1 DUP3 MUL DUP4 ADD GT PUSH5 0x100000000 DUP3 GT OR ISZERO PUSH3 0x165 JUMPI PUSH1 0x0 DUP1 REVERT JUMPDEST DUP1 DUP4 MSTORE PUSH1 0x20 DUP4 ADD SWAP3 POP POP POP SWAP1 DUP1 MLOAD SWAP1 PUSH1 0x20 ADD SWAP1 DUP1 DUP4 DUP4 PUSH1 0x0 JUMPDEST DUP4 DUP2 LT ISZERO PUSH3 0x19B JUMPI DUP1 DUP3 ADD MLOAD DUP2 DUP5 ADD MSTORE PUSH1 0x20 DUP2 ADD SWAP1 POP PUSH3 0x17E JUMP JUMPDEST POP POP POP POP SWAP1 POP SWAP1 DUP2 ADD SWAP1 PUSH1 0x1F AND DUP1 ISZERO PUSH3 0x1C9 JUMPI DUP1 DUP3 SUB DUP1 MLOAD PUSH1 0x1 DUP4 PUSH1 0x20 SUB PUSH2 0x100 EXP SUB NOT AND DUP2 MSTORE PUSH1 0x20 ADD SWAP2 POP JUMPDEST POP PUSH1 0x40 MSTORE POP POP POP PUSH3 0x1E8 PUSH4 0x1FFC9A7 PUSH1 0xE0 SHL PUSH3 0x26A PUSH1 0x20 SHL PUSH1 0x20 SHR JUMP JUMPDEST DUP2 PUSH1 0x6 SWAP1 DUP1 MLOAD SWAP1 PUSH1 0x20 ADD SWAP1 PUSH3 0x200 SWAP3 SWAP2 SWAP1 PUSH3 0x373 JUMP JUMPDEST POP DUP1 PUSH1 0x7 SWAP1 DUP1 MLOAD SWAP1 PUSH1 0x20 ADD SWAP1 PUSH3 0x219 SWAP3 SWAP2 SWAP1 PUSH3 0x373 JUMP JUMPDEST POP PUSH3 0x232 PUSH4 0x80AC58CD PUSH1 0xE0 SHL PUSH3 0x26A PUSH1 0x20 SHL PUSH1 0x20 SHR JUMP JUMPDEST PUSH3 0x24A PUSH4 0x5B5E139F PUSH1 0xE0 SHL PUSH3 0x26A PUSH1 0x20 SHL PUSH1 0x20 SHR JUMP JUMPDEST PUSH3 0x262 PUSH4 0x780E9D63 PUSH1 0xE0 SHL PUSH3 0x26A PUSH1 0x20 SHL PUSH1 0x20 SHR JUMP JUMPDEST POP POP PUSH3 0x419 JUMP JUMPDEST PUSH4 0xFFFFFFFF PUSH1 0xE0 SHL DUP2 PUSH28 0xFFFFFFFFFFFFFFFFFFFFFFFFFFFFFFFFFFFFFFFFFFFFFFFFFFFFFFFF NOT AND EQ ISZERO PUSH3 0x307 JUMPI PUSH1 0x40 MLOAD PUSH32 0x8C379A000000000000000000000000000000000000000000000000000000000 DUP2 MSTORE PUSH1 0x4 ADD DUP1 DUP1 PUSH1 0x20 ADD DUP3 DUP2 SUB DUP3 MSTORE PUSH1 0x1C DUP2 MSTORE PUSH1 0x20 ADD DUP1 PUSH32 0x4552433136353A20696E76616C696420696E7465726661636520696400000000 DUP2 MSTORE POP PUSH1 0x20 ADD SWAP2 POP POP PUSH1 0x40 MLOAD DUP1 SWAP2 SUB SWAP1 REVERT JUMPDEST PUSH1 0x1 PUSH1 0x0 DUP1 DUP4 PUSH28 0xFFFFFFFFFFFFFFFFFFFFFFFFFFFFFFFFFFFFFFFFFFFFFFFFFFFFFFFF NOT AND PUSH28 0xFFFFFFFFFFFFFFFFFFFFFFFFFFFFFFFFFFFFFFFFFFFFFFFFFFFFFFFF NOT AND DUP2 MSTORE PUSH1 0x20 ADD SWAP1 DUP2 MSTORE PUSH1 0x20 ADD PUSH1 0x0 KECCAK256 PUSH1 0x0 PUSH2 0x100 EXP DUP2 SLOAD DUP2 PUSH1 0xFF MUL NOT AND SWAP1 DUP4 ISZERO ISZERO MUL OR SWAP1 SSTORE POP POP JUMP JUMPDEST DUP3 DUP1 SLOAD PUSH1 0x1 DUP2 PUSH1 0x1 AND ISZERO PUSH2 0x100 MUL SUB AND PUSH1 0x2 SWAP1 DIV SWAP1 PUSH1 0x0 MSTORE PUSH1 0x20 PUSH1 0x0 KECCAK256 SWAP1 PUSH1 0x1F ADD PUSH1 0x20 SWAP1 DIV DUP2 ADD SWAP3 DUP3 PUSH1 0x1F LT PUSH3 0x3B6 JUMPI DUP1 MLOAD PUSH1 0xFF NOT AND DUP4 DUP1 ADD OR DUP6 SSTORE PUSH3 0x3E7 JUMP JUMPDEST DUP3 DUP1 ADD PUSH1 0x1 ADD DUP6 SSTORE DUP3 ISZERO PUSH3 0x3E7 JUMPI SWAP2 DUP3 ADD JUMPDEST DUP3 DUP2 GT ISZERO PUSH3 0x3E6 JUMPI DUP3 MLOAD DUP3 SSTORE SWAP2 PUSH1 0x20 ADD SWAP2 SWAP1 PUSH1 0x1 ADD SWAP1 PUSH3 0x3C9 JUMP JUMPDEST JUMPDEST POP SWAP1 POP PUSH3 0x3F6 SWAP2 SWAP1 PUSH3 0x3FA JUMP JUMPDEST POP SWAP1 JUMP JUMPDEST JUMPDEST DUP1 DUP3 GT ISZERO PUSH3 0x415 JUMPI PUSH1 0x0 DUP2 PUSH1 0x0 SWAP1 SSTORE POP PUSH1 0x1 ADD PUSH3 0x3FB JUMP JUMPDEST POP SWAP1 JUMP JUMPDEST PUSH2 0x2825 DUP1 PUSH3 0x429 PUSH1 0x0 CODECOPY PUSH1 0x0 RETURN INVALID PUSH1 0x80 PUSH1 0x40 MSTORE CALLVALUE DUP1 ISZERO PUSH2 0x10 JUMPI PUSH1 0x0 DUP1 REVERT JUMPDEST POP PUSH1 0x4 CALLDATASIZE LT PUSH2 0x116 JUMPI PUSH1 0x0 CALLDATALOAD PUSH1 0xE0 SHR DUP1 PUSH4 0x6352211E GT PUSH2 0xA2 JUMPI DUP1 PUSH4 0xA22CB465 GT PUSH2 0x71 JUMPI DUP1 PUSH4 0xA22CB465 EQ PUSH2 0x5FB JUMPI DUP1 PUSH4 0xB88D4FDE EQ PUSH2 0x64B JUMPI DUP1 PUSH4 0xC87B56DD EQ PUSH2 0x750 JUMPI DUP1 PUSH4 0xC8F02558 EQ PUSH2 0x7F7 JUMPI DUP1 PUSH4 0xE985E9C5 EQ PUSH2 0x801 JUMPI PUSH2 0x116 JUMP JUMPDEST DUP1 PUSH4 0x6352211E EQ PUSH2 0x445 JUMPI DUP1 PUSH4 0x6C0360EB EQ PUSH2 0x49D JUMPI DUP1 PUSH4 0x70A08231 EQ PUSH2 0x520 JUMPI DUP1 PUSH4 0x95D89B41 EQ PUSH2 0x578 JUMPI PUSH2 0x116 JUMP JUMPDEST DUP1 PUSH4 0x18160DDD GT PUSH2 0xE9 JUMPI DUP1 PUSH4 0x18160DDD EQ PUSH2 0x2A7 JUMPI DUP1 PUSH4 0x23B872DD EQ PUSH2 0x2C5 JUMPI DUP1 PUSH4 0x2F745C59 EQ PUSH2 0x333 JUMPI DUP1 PUSH4 0x42842E0E EQ PUSH2 0x395 JUMPI DUP1 PUSH4 0x4F6CCCE7 EQ PUSH2 0x403 JUMPI PUSH2 0x116 JUMP JUMPDEST DUP1 PUSH4 0x1FFC9A7 EQ PUSH2 0x11B JUMPI DUP1 PUSH4 0x6FDDE03 EQ PUSH2 0x17E JUMPI DUP1 PUSH4 0x81812FC EQ PUSH2 0x201 JUMPI DUP1 PUSH4 0x95EA7B3 EQ PUSH2 0x259 JUMPI JUMPDEST PUSH1 0x0 DUP1 REVERT JUMPDEST PUSH2 0x166 PUSH1 0x4 DUP1 CALLDATASIZE SUB PUSH1 0x20 DUP2 LT ISZERO PUSH2 0x131 JUMPI PUSH1 0x0 DUP1 REVERT JUMPDEST DUP2 ADD SWAP1 DUP1 DUP1 CALLDATALOAD PUSH28 0xFFFFFFFFFFFFFFFFFFFFFFFFFFFFFFFFFFFFFFFFFFFFFFFFFFFFFFFF NOT AND SWAP1 PUSH1 0x20 ADD SWAP1 SWAP3 SWAP2 SWAP1 POP POP POP PUSH2 0x87B JUMP JUMPDEST PUSH1 0x40 MLOAD DUP1 DUP3 ISZERO ISZERO DUP2 MSTORE PUSH1 0x20 ADD SWAP2 POP POP PUSH1 0x40 MLOAD DUP1 SWAP2 SUB SWAP1 RETURN JUMPDEST PUSH2 0x186 PUSH2 0x8E2 JUMP JUMPDEST PUSH1 0x40 MLOAD DUP1 DUP1 PUSH1 0x20 ADD DUP3 DUP2 SUB DUP3 MSTORE DUP4 DUP2 DUP2 MLOAD DUP2 MSTORE PUSH1 0x20 ADD SWAP2 POP DUP1 MLOAD SWAP1 PUSH1 0x20 ADD SWAP1 DUP1 DUP4 DUP4 PUSH1 0x0 JUMPDEST DUP4 DUP2 LT ISZERO PUSH2 0x1C6 JUMPI DUP1 DUP3 ADD MLOAD DUP2 DUP5 ADD MSTORE PUSH1 0x20 DUP2 ADD SWAP1 POP PUSH2 0x1AB JUMP JUMPDEST POP POP POP POP SWAP1 POP SWAP1 DUP2 ADD SWAP1 PUSH1 0x1F AND DUP1 ISZERO PUSH2 0x1F3 JUMPI DUP1 DUP3 SUB DUP1 MLOAD PUSH1 0x1 DUP4 PUSH1 0x20 SUB PUSH2 0x100 EXP SUB NOT AND DUP2 MSTORE PUSH1 0x20 ADD SWAP2 POP JUMPDEST POP SWAP3 POP POP POP PUSH1 0x40 MLOAD DUP1 SWAP2 SUB SWAP1 RETURN JUMPDEST PUSH2 0x22D PUSH1 0x4 DUP1 CALLDATASIZE SUB PUSH1 0x20 DUP2 LT ISZERO PUSH2 0x217 JUMPI PUSH1 0x0 DUP1 REVERT JUMPDEST DUP2 ADD SWAP1 DUP1 DUP1 CALLDATALOAD SWAP1 PUSH1 0x20 ADD SWAP1 SWAP3 SWAP2 SWAP1 POP POP POP PUSH2 0x984 JUMP JUMPDEST PUSH1 0x40 MLOAD DUP1 DUP3 PUSH20 0xFFFFFFFFFFFFFFFFFFFFFFFFFFFFFFFFFFFFFFFF AND DUP2 MSTORE PUSH1 0x20 ADD SWAP2 POP POP PUSH1 0x40 MLOAD DUP1 SWAP2 SUB SWAP1 RETURN JUMPDEST PUSH2 0x2A5 PUSH1 0x4 DUP1 CALLDATASIZE SUB PUSH1 0x40 DUP2 LT ISZERO PUSH2 0x26F JUMPI PUSH1 0x0 DUP1 REVERT JUMPDEST DUP2 ADD SWAP1 DUP1 DUP1 CALLDATALOAD PUSH20 0xFFFFFFFFFFFFFFFFFFFFFFFFFFFFFFFFFFFFFFFF AND SWAP1 PUSH1 0x20 ADD SWAP1 SWAP3 SWAP2 SWAP1 DUP1 CALLDATALOAD SWAP1 PUSH1 0x20 ADD SWAP1 SWAP3 SWAP2 SWAP1 POP POP POP PUSH2 0xA1F JUMP JUMPDEST STOP JUMPDEST PUSH2 0x2AF PUSH2 0xB63 JUMP JUMPDEST PUSH1 0x40 MLOAD DUP1 DUP3 DUP2 MSTORE PUSH1 0x20 ADD SWAP2 POP POP PUSH1 0x40 MLOAD DUP1 SWAP2 SUB SWAP1 RETURN JUMPDEST PUSH2 0x331 PUSH1 0x4 DUP1 CALLDATASIZE SUB PUSH1 0x60 DUP2 LT ISZERO PUSH2 0x2DB JUMPI PUSH1 0x0 DUP1 REVERT JUMPDEST DUP2 ADD SWAP1 DUP1 DUP1 CALLDATALOAD PUSH20 0xFFFFFFFFFFFFFFFFFFFFFFFFFFFFFFFFFFFFFFFF AND SWAP1 PUSH1 0x20 ADD SWAP1 SWAP3 SWAP2 SWAP1 DUP1 CALLDATALOAD PUSH20 0xFFFFFFFFFFFFFFFFFFFFFFFFFFFFFFFFFFFFFFFF AND SWAP1 PUSH1 0x20 ADD SWAP1 SWAP3 SWAP2 SWAP1 DUP1 CALLDATALOAD SWAP1 PUSH1 0x20 ADD SWAP1 SWAP3 SWAP2 SWAP1 POP POP POP PUSH2 0xB74 JUMP JUMPDEST STOP JUMPDEST PUSH2 0x37F PUSH1 0x4 DUP1 CALLDATASIZE SUB PUSH1 0x40 DUP2 LT ISZERO PUSH2 0x349 JUMPI PUSH1 0x0 DUP1 REVERT JUMPDEST DUP2 ADD SWAP1 DUP1 DUP1 CALLDATALOAD PUSH20 0xFFFFFFFFFFFFFFFFFFFFFFFFFFFFFFFFFFFFFFFF AND SWAP1 PUSH1 0x20 ADD SWAP1 SWAP3 SWAP2 SWAP1 DUP1 CALLDATALOAD SWAP1 PUSH1 0x20 ADD SWAP1 SWAP3 SWAP2 SWAP1 POP POP POP PUSH2 0xC73 JUMP JUMPDEST PUSH1 0x40 MLOAD DUP1 DUP3 DUP2 MSTORE PUSH1 0x20 ADD SWAP2 POP POP PUSH1 0x40 MLOAD DUP1 SWAP2 SUB SWAP1 RETURN JUMPDEST PUSH2 0x401 PUSH1 0x4 DUP1 CALLDATASIZE SUB PUSH1 0x60 DUP2 LT ISZERO PUSH2 0x3AB JUMPI PUSH1 0x0 DUP1 REVERT JUMPDEST DUP2 ADD SWAP1 DUP1 DUP1 CALLDATALOAD PUSH20 0xFFFFFFFFFFFFFFFFFFFFFFFFFFFFFFFFFFFFFFFF AND SWAP1 PUSH1 0x20 ADD SWAP1 SWAP3 SWAP2 SWAP1 DUP1 CALLDATALOAD PUSH20 0xFFFFFFFFFFFFFFFFFFFFFFFFFFFFFFFFFFFFFFFF AND SWAP1 PUSH1 0x20 ADD SWAP1 SWAP3 SWAP2 SWAP1 DUP1 CALLDATALOAD SWAP1 PUSH1 0x20 ADD SWAP1 SWAP3 SWAP2 SWAP1 POP POP POP PUSH2 0xCCE JUMP JUMPDEST STOP JUMPDEST PUSH2 0x42F PUSH1 0x4 DUP1 CALLDATASIZE SUB PUSH1 0x20 DUP2 LT ISZERO PUSH2 0x419 JUMPI PUSH1 0x0 DUP1 REVERT JUMPDEST DUP2 ADD SWAP1 DUP1 DUP1 CALLDATALOAD SWAP1 PUSH1 0x20 ADD SWAP1 SWAP3 SWAP2 SWAP1 POP POP POP PUSH2 0xCEE JUMP JUMPDEST PUSH1 0x40 MLOAD DUP1 DUP3 DUP2 MSTORE PUSH1 0x20 ADD SWAP2 POP POP PUSH1 0x40 MLOAD DUP1 SWAP2 SUB SWAP1 RETURN JUMPDEST PUSH2 0x471 PUSH1 0x4 DUP1 CALLDATASIZE SUB PUSH1 0x20 DUP2 LT ISZERO PUSH2 0x45B JUMPI PUSH1 0x0 DUP1 REVERT JUMPDEST DUP2 ADD SWAP1 DUP1 DUP1 CALLDATALOAD SWAP1 PUSH1 0x20 ADD SWAP1 SWAP3 SWAP2 SWAP1 POP POP POP PUSH2 0xD11 JUMP JUMPDEST PUSH1 0x40 MLOAD DUP1 DUP3 PUSH20 0xFFFFFFFFFFFFFFFFFFFFFFFFFFFFFFFFFFFFFFFF AND DUP2 MSTORE PUSH1 0x20 ADD SWAP2 POP POP PUSH1 0x40 MLOAD DUP1 SWAP2 SUB SWAP1 RETURN JUMPDEST PUSH2 0x4A5 PUSH2 0xD48 JUMP JUMPDEST PUSH1 0x40 MLOAD DUP1 DUP1 PUSH1 0x20 ADD DUP3 DUP2 SUB DUP3 MSTORE DUP4 DUP2 DUP2 MLOAD DUP2 MSTORE PUSH1 0x20 ADD SWAP2 POP DUP1 MLOAD SWAP1 PUSH1 0x20 ADD SWAP1 DUP1 DUP4 DUP4 PUSH1 0x0 JUMPDEST DUP4 DUP2 LT ISZERO PUSH2 0x4E5 JUMPI DUP1 DUP3 ADD MLOAD DUP2 DUP5 ADD MSTORE PUSH1 0x20 DUP2 ADD SWAP1 POP PUSH2 0x4CA JUMP JUMPDEST POP POP POP POP SWAP1 POP SWAP1 DUP2 ADD SWAP1 PUSH1 0x1F AND DUP1 ISZERO PUSH2 0x512 JUMPI DUP1 DUP3 SUB DUP1 MLOAD PUSH1 0x1 DUP4 PUSH1 0x20 SUB PUSH2 0x100 EXP SUB NOT AND DUP2 MSTORE PUSH1 0x20 ADD SWAP2 POP JUMPDEST POP SWAP3 POP POP POP PUSH1 0x40 MLOAD DUP1 SWAP2 SUB SWAP1 RETURN JUMPDEST PUSH2 0x562 PUSH1 0x4 DUP1 CALLDATASIZE SUB PUSH1 0x20 DUP2 LT ISZERO PUSH2 0x536 JUMPI PUSH1 0x0 DUP1 REVERT JUMPDEST DUP2 ADD SWAP1 DUP1 DUP1 CALLDATALOAD PUSH20 0xFFFFFFFFFFFFFFFFFFFFFFFFFFFFFFFFFFFFFFFF AND SWAP1 PUSH1 0x20 ADD SWAP1 SWAP3 SWAP2 SWAP1 POP POP POP PUSH2 0xDEA JUMP JUMPDEST PUSH1 0x40 MLOAD DUP1 DUP3 DUP2 MSTORE PUSH1 0x20 ADD SWAP2 POP POP PUSH1 0x40 MLOAD DUP1 SWAP2 SUB SWAP1 RETURN JUMPDEST PUSH2 0x580 PUSH2 0xEBF JUMP JUMPDEST PUSH1 0x40 MLOAD DUP1 DUP1 PUSH1 0x20 ADD DUP3 DUP2 SUB DUP3 MSTORE DUP4 DUP2 DUP2 MLOAD DUP2 MSTORE PUSH1 0x20 ADD SWAP2 POP DUP1 MLOAD SWAP1 PUSH1 0x20 ADD SWAP1 DUP1 DUP4 DUP4 PUSH1 0x0 JUMPDEST DUP4 DUP2 LT ISZERO PUSH2 0x5C0 JUMPI DUP1 DUP3 ADD MLOAD DUP2 DUP5 ADD MSTORE PUSH1 0x20 DUP2 ADD SWAP1 POP PUSH2 0x5A5 JUMP JUMPDEST POP POP POP POP SWAP1 POP SWAP1 DUP2 ADD SWAP1 PUSH1 0x1F AND DUP1 ISZERO PUSH2 0x5ED JUMPI DUP1 DUP3 SUB DUP1 MLOAD PUSH1 0x1 DUP4 PUSH1 0x20 SUB PUSH2 0x100 EXP SUB NOT AND DUP2 MSTORE PUSH1 0x20 ADD SWAP2 POP JUMPDEST POP SWAP3 POP POP POP PUSH1 0x40 MLOAD DUP1 SWAP2 SUB SWAP1 RETURN JUMPDEST PUSH2 0x649 PUSH1 0x4 DUP1 CALLDATASIZE SUB PUSH1 0x40 DUP2 LT ISZERO PUSH2 0x611 JUMPI PUSH1 0x0 DUP1 REVERT JUMPDEST DUP2 ADD SWAP1 DUP1 DUP1 CALLDATALOAD PUSH20 0xFFFFFFFFFFFFFFFFFFFFFFFFFFFFFFFFFFFFFFFF AND SWAP1 PUSH1 0x20 ADD SWAP1 SWAP3 SWAP2 SWAP1 DUP1 CALLDATALOAD ISZERO ISZERO SWAP1 PUSH1 0x20 ADD SWAP1 SWAP3 SWAP2 SWAP1 POP POP POP PUSH2 0xF61 JUMP JUMPDEST STOP JUMPDEST PUSH2 0x74E PUSH1 0x4 DUP1 CALLDATASIZE SUB PUSH1 0x80 DUP2 LT ISZERO PUSH2 0x661 JUMPI PUSH1 0x0 DUP1 REVERT JUMPDEST DUP2 ADD SWAP1 DUP1 DUP1 CALLDATALOAD PUSH20 0xFFFFFFFFFFFFFFFFFFFFFFFFFFFFFFFFFFFFFFFF AND SWAP1 PUSH1 0x20 ADD SWAP1 SWAP3 SWAP2 SWAP1 DUP1 CALLDATALOAD PUSH20 0xFFFFFFFFFFFFFFFFFFFFFFFFFFFFFFFFFFFFFFFF AND SWAP1 PUSH1 0x20 ADD SWAP1 SWAP3 SWAP2 SWAP1 DUP1 CALLDATALOAD SWAP1 PUSH1 0x20 ADD SWAP1 SWAP3 SWAP2 SWAP1 DUP1 CALLDATALOAD SWAP1 PUSH1 0x20 ADD SWAP1 PUSH5 0x100000000 DUP2 GT ISZERO PUSH2 0x6C8 JUMPI PUSH1 0x0 DUP1 REVERT JUMPDEST DUP3 ADD DUP4 PUSH1 0x20 DUP3 ADD GT ISZERO PUSH2 0x6DA JUMPI PUSH1 0x0 DUP1 REVERT JUMPDEST DUP1 CALLDATALOAD SWAP1 PUSH1 0x20 ADD SWAP2 DUP5 PUSH1 0x1 DUP4 MUL DUP5 ADD GT PUSH5 0x100000000 DUP4 GT OR ISZERO PUSH2 0x6FC JUMPI PUSH1 0x0 DUP1 REVERT JUMPDEST SWAP2 SWAP1 DUP1 DUP1 PUSH1 0x1F ADD PUSH1 0x20 DUP1 SWAP2 DIV MUL PUSH1 0x20 ADD PUSH1 0x40 MLOAD SWAP1 DUP2 ADD PUSH1 0x40 MSTORE DUP1 SWAP4 SWAP3 SWAP2 SWAP1 DUP2 DUP2 MSTORE PUSH1 0x20 ADD DUP4 DUP4 DUP1 DUP3 DUP5 CALLDATACOPY PUSH1 0x0 DUP2 DUP5 ADD MSTORE PUSH1 0x1F NOT PUSH1 0x1F DUP3 ADD AND SWAP1 POP DUP1 DUP4 ADD SWAP3 POP POP POP POP POP POP POP SWAP2 SWAP3 SWAP2 SWAP3 SWAP1 POP POP POP PUSH2 0x1117 JUMP JUMPDEST STOP JUMPDEST PUSH2 0x77C PUSH1 0x4 DUP1 CALLDATASIZE SUB PUSH1 0x20 DUP2 LT ISZERO PUSH2 0x766 JUMPI PUSH1 0x0 DUP1 REVERT JUMPDEST DUP2 ADD SWAP1 DUP1 DUP1 CALLDATALOAD SWAP1 PUSH1 0x20 ADD SWAP1 SWAP3 SWAP2 SWAP1 POP POP POP PUSH2 0x118F JUMP JUMPDEST PUSH1 0x40 MLOAD DUP1 DUP1 PUSH1 0x20 ADD DUP3 DUP2 SUB DUP3 MSTORE DUP4 DUP2 DUP2 MLOAD DUP2 MSTORE PUSH1 0x20 ADD SWAP2 POP DUP1 MLOAD SWAP1 PUSH1 0x20 ADD SWAP1 DUP1 DUP4 DUP4 PUSH1 0x0 JUMPDEST DUP4 DUP2 LT ISZERO PUSH2 0x7BC JUMPI DUP1 DUP3 ADD MLOAD DUP2 DUP5 ADD MSTORE PUSH1 0x20 DUP2 ADD SWAP1 POP PUSH2 0x7A1 JUMP JUMPDEST POP POP POP POP SWAP1 POP SWAP1 DUP2 ADD SWAP1 PUSH1 0x1F AND DUP1 ISZERO PUSH2 0x7E9 JUMPI DUP1 DUP3 SUB DUP1 MLOAD PUSH1 0x1 DUP4 PUSH1 0x20 SUB PUSH2 0x100 EXP SUB NOT AND DUP2 MSTORE PUSH1 0x20 ADD SWAP2 POP JUMPDEST POP SWAP3 POP POP POP PUSH1 0x40 MLOAD DUP1 SWAP2 SUB SWAP1 RETURN JUMPDEST PUSH2 0x7FF PUSH2 0x1460 JUMP JUMPDEST STOP JUMPDEST PUSH2 0x863 PUSH1 0x4 DUP1 CALLDATASIZE SUB PUSH1 0x40 DUP2 LT ISZERO PUSH2 0x817 JUMPI PUSH1 0x0 DUP1 REVERT JUMPDEST DUP2 ADD SWAP1 DUP1 DUP1 CALLDATALOAD PUSH20 0xFFFFFFFFFFFFFFFFFFFFFFFFFFFFFFFFFFFFFFFF AND SWAP1 PUSH1 0x20 ADD SWAP1 SWAP3 SWAP2 SWAP1 DUP1 CALLDATALOAD PUSH20 0xFFFFFFFFFFFFFFFFFFFFFFFFFFFFFFFFFFFFFFFF AND SWAP1 PUSH1 0x20 ADD SWAP1 SWAP3 SWAP2 SWAP1 POP POP POP PUSH2 0x14C2 JUMP JUMPDEST PUSH1 0x40 MLOAD DUP1 DUP3 ISZERO ISZERO DUP2 MSTORE PUSH1 0x20 ADD SWAP2 POP POP PUSH1 0x40 MLOAD DUP1 SWAP2 SUB SWAP1 RETURN JUMPDEST PUSH1 0x0 DUP1 PUSH1 0x0 DUP4 PUSH28 0xFFFFFFFFFFFFFFFFFFFFFFFFFFFFFFFFFFFFFFFFFFFFFFFFFFFFFFFF NOT AND PUSH28 0xFFFFFFFFFFFFFFFFFFFFFFFFFFFFFFFFFFFFFFFFFFFFFFFFFFFFFFFF NOT AND DUP2 MSTORE PUSH1 0x20 ADD SWAP1 DUP2 MSTORE PUSH1 0x20 ADD PUSH1 0x0 KECCAK256 PUSH1 0x0 SWAP1 SLOAD SWAP1 PUSH2 0x100 EXP SWAP1 DIV PUSH1 0xFF AND SWAP1 POP SWAP2 SWAP1 POP JUMP JUMPDEST PUSH1 0x60 PUSH1 0x6 DUP1 SLOAD PUSH1 0x1 DUP2 PUSH1 0x1 AND ISZERO PUSH2 0x100 MUL SUB AND PUSH1 0x2 SWAP1 DIV DUP1 PUSH1 0x1F ADD PUSH1 0x20 DUP1 SWAP2 DIV MUL PUSH1 0x20 ADD PUSH1 0x40 MLOAD SWAP1 DUP2 ADD PUSH1 0x40 MSTORE DUP1 SWAP3 SWAP2 SWAP1 DUP2 DUP2 MSTORE PUSH1 0x20 ADD DUP3 DUP1 SLOAD PUSH1 0x1 DUP2 PUSH1 0x1 AND ISZERO PUSH2 0x100 MUL SUB AND PUSH1 0x2 SWAP1 DIV DUP1 ISZERO PUSH2 0x97A JUMPI DUP1 PUSH1 0x1F LT PUSH2 0x94F JUMPI PUSH2 0x100 DUP1 DUP4 SLOAD DIV MUL DUP4 MSTORE SWAP2 PUSH1 0x20 ADD SWAP2 PUSH2 0x97A JUMP JUMPDEST DUP3 ADD SWAP2 SWAP1 PUSH1 0x0 MSTORE PUSH1 0x20 PUSH1 0x0 KECCAK256 SWAP1 JUMPDEST DUP2 SLOAD DUP2 MSTORE SWAP1 PUSH1 0x1 ADD SWAP1 PUSH1 0x20 ADD DUP1 DUP4 GT PUSH2 0x95D JUMPI DUP3 SWAP1 SUB PUSH1 0x1F AND DUP3 ADD SWAP2 JUMPDEST POP POP POP POP POP SWAP1 POP SWAP1 JUMP JUMPDEST PUSH1 0x0 PUSH2 0x98F DUP3 PUSH2 0x1556 JUMP JUMPDEST PUSH2 0x9E4 JUMPI PUSH1 0x40 MLOAD PUSH32 0x8C379A000000000000000000000000000000000000000000000000000000000 DUP2 MSTORE PUSH1 0x4 ADD DUP1 DUP1 PUSH1 0x20 ADD DUP3 DUP2 SUB DUP3 MSTORE PUSH1 0x2C DUP2 MSTORE PUSH1 0x20 ADD DUP1 PUSH2 0x271A PUSH1 0x2C SWAP2 CODECOPY PUSH1 0x40 ADD SWAP2 POP POP PUSH1 0x40 MLOAD DUP1 SWAP2 SUB SWAP1 REVERT JUMPDEST PUSH1 0x4 PUSH1 0x0 DUP4 DUP2 MSTORE PUSH1 0x20 ADD SWAP1 DUP2 MSTORE PUSH1 0x20 ADD PUSH1 0x0 KECCAK256 PUSH1 0x0 SWAP1 SLOAD SWAP1 PUSH2 0x100 EXP SWAP1 DIV PUSH20 0xFFFFFFFFFFFFFFFFFFFFFFFFFFFFFFFFFFFFFFFF AND SWAP1 POP SWAP2 SWAP1 POP JUMP JUMPDEST PUSH1 0x0 PUSH2 0xA2A DUP3 PUSH2 0xD11 JUMP JUMPDEST SWAP1 POP DUP1 PUSH20 0xFFFFFFFFFFFFFFFFFFFFFFFFFFFFFFFFFFFFFFFF AND DUP4 PUSH20 0xFFFFFFFFFFFFFFFFFFFFFFFFFFFFFFFFFFFFFFFF AND EQ ISZERO PUSH2 0xAB1 JUMPI PUSH1 0x40 MLOAD PUSH32 0x8C379A000000000000000000000000000000000000000000000000000000000 DUP2 MSTORE PUSH1 0x4 ADD DUP1 DUP1 PUSH1 0x20 ADD DUP3 DUP2 SUB DUP3 MSTORE PUSH1 0x21 DUP2 MSTORE PUSH1 0x20 ADD DUP1 PUSH2 0x279E PUSH1 0x21 SWAP2 CODECOPY PUSH1 0x40 ADD SWAP2 POP POP PUSH1 0x40 MLOAD DUP1 SWAP2 SUB SWAP1 REVERT JUMPDEST DUP1 PUSH20 0xFFFFFFFFFFFFFFFFFFFFFFFFFFFFFFFFFFFFFFFF AND PUSH2 0xAD0 PUSH2 0x1573 JUMP JUMPDEST PUSH20 0xFFFFFFFFFFFFFFFFFFFFFFFFFFFFFFFFFFFFFFFF AND EQ DUP1 PUSH2 0xAFF JUMPI POP PUSH2 0xAFE DUP2 PUSH2 0xAF9 PUSH2 0x1573 JUMP JUMPDEST PUSH2 0x14C2 JUMP JUMPDEST JUMPDEST PUSH2 0xB54 JUMPI PUSH1 0x40 MLOAD PUSH32 0x8C379A000000000000000000000000000000000000000000000000000000000 DUP2 MSTORE PUSH1 0x4 ADD DUP1 DUP1 PUSH1 0x20 ADD DUP3 DUP2 SUB DUP3 MSTORE PUSH1 0x38 DUP2 MSTORE PUSH1 0x20 ADD DUP1 PUSH2 0x266D PUSH1 0x38 SWAP2 CODECOPY PUSH1 0x40 ADD SWAP2 POP POP PUSH1 0x40 MLOAD DUP1 SWAP2 SUB SWAP1 REVERT JUMPDEST PUSH2 0xB5E DUP4 DUP4 PUSH2 0x157B JUMP JUMPDEST POP POP POP JUMP JUMPDEST PUSH1 0x0 PUSH2 0xB6F PUSH1 0x2 PUSH2 0x1634 JUMP JUMPDEST SWAP1 POP SWAP1 JUMP JUMPDEST PUSH2 0xB85 PUSH2 0xB7F PUSH2 0x1573 JUMP JUMPDEST DUP3 PUSH2 0x1649 JUMP JUMPDEST PUSH2 0xBDA JUMPI PUSH1 0x40 MLOAD PUSH32 0x8C379A000000000000000000000000000000000000000000000000000000000 DUP2 MSTORE PUSH1 0x4 ADD DUP1 DUP1 PUSH1 0x20 ADD DUP3 DUP2 SUB DUP3 MSTORE PUSH1 0x31 DUP2 MSTORE PUSH1 0x20 ADD DUP1 PUSH2 0x27BF PUSH1 0x31 SWAP2 CODECOPY PUSH1 0x40 ADD SWAP2 POP POP PUSH1 0x40 MLOAD DUP1 SWAP2 SUB SWAP1 REVERT JUMPDEST PUSH1 0x0 ISZERO ISZERO PUSH1 0xA PUSH1 0x0 SWAP1 SLOAD SWAP1 PUSH2 0x100 EXP SWAP1 DIV PUSH1 0xFF AND ISZERO ISZERO EQ PUSH2 0xC63 JUMPI PUSH1 0x40 MLOAD PUSH32 0x8C379A000000000000000000000000000000000000000000000000000000000 DUP2 MSTORE PUSH1 0x4 ADD DUP1 DUP1 PUSH1 0x20 ADD DUP3 DUP2 SUB DUP3 MSTORE PUSH1 0x10 DUP2 MSTORE PUSH1 0x20 ADD DUP1 PUSH32 0x546F6B656E206973206C6F636B65642100000000000000000000000000000000 DUP2 MSTORE POP PUSH1 0x20 ADD SWAP2 POP POP PUSH1 0x40 MLOAD DUP1 SWAP2 SUB SWAP1 REVERT JUMPDEST PUSH2 0xC6E DUP4 DUP4 DUP4 PUSH2 0x173D JUMP JUMPDEST POP POP POP JUMP JUMPDEST PUSH1 0x0 PUSH2 0xCC6 DUP3 PUSH1 0x1 PUSH1 0x0 DUP7 PUSH20 0xFFFFFFFFFFFFFFFFFFFFFFFFFFFFFFFFFFFFFFFF AND PUSH20 0xFFFFFFFFFFFFFFFFFFFFFFFFFFFFFFFFFFFFFFFF AND DUP2 MSTORE PUSH1 0x20 ADD SWAP1 DUP2 MSTORE PUSH1 0x20 ADD PUSH1 0x0 KECCAK256 PUSH2 0x1980 SWAP1 SWAP2 SWAP1 PUSH4 0xFFFFFFFF AND JUMP JUMPDEST SWAP1 POP SWAP3 SWAP2 POP POP JUMP JUMPDEST PUSH2 0xCE9 DUP4 DUP4 DUP4 PUSH1 0x40 MLOAD DUP1 PUSH1 0x20 ADD PUSH1 0x40 MSTORE DUP1 PUSH1 0x0 DUP2 MSTORE POP PUSH2 0x1117 JUMP JUMPDEST POP POP POP JUMP JUMPDEST PUSH1 0x0 DUP1 PUSH2 0xD05 DUP4 PUSH1 0x2 PUSH2 0x199A SWAP1 SWAP2 SWAP1 PUSH4 0xFFFFFFFF AND JUMP JUMPDEST POP SWAP1 POP DUP1 SWAP2 POP POP SWAP2 SWAP1 POP JUMP JUMPDEST PUSH1 0x0 PUSH2 0xD41 DUP3 PUSH1 0x40 MLOAD DUP1 PUSH1 0x60 ADD PUSH1 0x40 MSTORE DUP1 PUSH1 0x29 DUP2 MSTORE PUSH1 0x20 ADD PUSH2 0x26CF PUSH1 0x29 SWAP2 CODECOPY PUSH1 0x2 PUSH2 0x19C6 SWAP1 SWAP3 SWAP2 SWAP1 PUSH4 0xFFFFFFFF AND JUMP JUMPDEST SWAP1 POP SWAP2 SWAP1 POP JUMP JUMPDEST PUSH1 0x60 PUSH1 0x9 DUP1 SLOAD PUSH1 0x1 DUP2 PUSH1 0x1 AND ISZERO PUSH2 0x100 MUL SUB AND PUSH1 0x2 SWAP1 DIV DUP1 PUSH1 0x1F ADD PUSH1 0x20 DUP1 SWAP2 DIV MUL PUSH1 0x20 ADD PUSH1 0x40 MLOAD SWAP1 DUP2 ADD PUSH1 0x40 MSTORE DUP1 SWAP3 SWAP2 SWAP1 DUP2 DUP2 MSTORE PUSH1 0x20 ADD DUP3 DUP1 SLOAD PUSH1 0x1 DUP2 PUSH1 0x1 AND ISZERO PUSH2 0x100 MUL SUB AND PUSH1 0x2 SWAP1 DIV DUP1 ISZERO PUSH2 0xDE0 JUMPI DUP1 PUSH1 0x1F LT PUSH2 0xDB5 JUMPI PUSH2 0x100 DUP1 DUP4 SLOAD DIV MUL DUP4 MSTORE SWAP2 PUSH1 0x20 ADD SWAP2 PUSH2 0xDE0 JUMP JUMPDEST DUP3 ADD SWAP2 SWAP1 PUSH1 0x0 MSTORE PUSH1 0x20 PUSH1 0x0 KECCAK256 SWAP1 JUMPDEST DUP2 SLOAD DUP2 MSTORE SWAP1 PUSH1 0x1 ADD SWAP1 PUSH1 0x20 ADD DUP1 DUP4 GT PUSH2 0xDC3 JUMPI DUP3 SWAP1 SUB PUSH1 0x1F AND DUP3 ADD SWAP2 JUMPDEST POP POP POP POP POP SWAP1 POP SWAP1 JUMP JUMPDEST PUSH1 0x0 DUP1 PUSH20 0xFFFFFFFFFFFFFFFFFFFFFFFFFFFFFFFFFFFFFFFF AND DUP3 PUSH20 0xFFFFFFFFFFFFFFFFFFFFFFFFFFFFFFFFFFFFFFFF AND EQ ISZERO PUSH2 0xE71 JUMPI PUSH1 0x40 MLOAD PUSH32 0x8C379A000000000000000000000000000000000000000000000000000000000 DUP2 MSTORE PUSH1 0x4 ADD DUP1 DUP1 PUSH1 0x20 ADD DUP3 DUP2 SUB DUP3 MSTORE PUSH1 0x2A DUP2 MSTORE PUSH1 0x20 ADD DUP1 PUSH2 0x26A5 PUSH1 0x2A SWAP2 CODECOPY PUSH1 0x40 ADD SWAP2 POP POP PUSH1 0x40 MLOAD DUP1 SWAP2 SUB SWAP1 REVERT JUMPDEST PUSH2 0xEB8 PUSH1 0x1 PUSH1 0x0 DUP5 PUSH20 0xFFFFFFFFFFFFFFFFFFFFFFFFFFFFFFFFFFFFFFFF AND PUSH20 0xFFFFFFFFFFFFFFFFFFFFFFFFFFFFFFFFFFFFFFFF AND DUP2 MSTORE PUSH1 0x20 ADD SWAP1 DUP2 MSTORE PUSH1 0x20 ADD PUSH1 0x0 KECCAK256 PUSH2 0x19E5 JUMP JUMPDEST SWAP1 POP SWAP2 SWAP1 POP JUMP JUMPDEST PUSH1 0x60 PUSH1 0x7 DUP1 SLOAD PUSH1 0x1 DUP2 PUSH1 0x1 AND ISZERO PUSH2 0x100 MUL SUB AND PUSH1 0x2 SWAP1 DIV DUP1 PUSH1 0x1F ADD PUSH1 0x20 DUP1 SWAP2 DIV MUL PUSH1 0x20 ADD PUSH1 0x40 MLOAD SWAP1 DUP2 ADD PUSH1 0x40 MSTORE DUP1 SWAP3 SWAP2 SWAP1 DUP2 DUP2 MSTORE PUSH1 0x20 ADD DUP3 DUP1 SLOAD PUSH1 0x1 DUP2 PUSH1 0x1 AND ISZERO PUSH2 0x100 MUL SUB AND PUSH1 0x2 SWAP1 DIV DUP1 ISZERO PUSH2 0xF57 JUMPI DUP1 PUSH1 0x1F LT PUSH2 0xF2C JUMPI PUSH2 0x100 DUP1 DUP4 SLOAD DIV MUL DUP4 MSTORE SWAP2 PUSH1 0x20 ADD SWAP2 PUSH2 0xF57 JUMP JUMPDEST DUP3 ADD SWAP2 SWAP1 PUSH1 0x0 MSTORE PUSH1 0x20 PUSH1 0x0 KECCAK256 SWAP1 JUMPDEST DUP2 SLOAD DUP2 MSTORE SWAP1 PUSH1 0x1 ADD SWAP1 PUSH1 0x20 ADD DUP1 DUP4 GT PUSH2 0xF3A JUMPI DUP3 SWAP1 SUB PUSH1 0x1F AND DUP3 ADD SWAP2 JUMPDEST POP POP POP POP POP SWAP1 POP SWAP1 JUMP JUMPDEST PUSH2 0xF69 PUSH2 0x1573 JUMP JUMPDEST PUSH20 0xFFFFFFFFFFFFFFFFFFFFFFFFFFFFFFFFFFFFFFFF AND DUP3 PUSH20 0xFFFFFFFFFFFFFFFFFFFFFFFFFFFFFFFFFFFFFFFF AND EQ ISZERO PUSH2 0x100A JUMPI PUSH1 0x40 MLOAD PUSH32 0x8C379A000000000000000000000000000000000000000000000000000000000 DUP2 MSTORE PUSH1 0x4 ADD DUP1 DUP1 PUSH1 0x20 ADD DUP3 DUP2 SUB DUP3 MSTORE PUSH1 0x19 DUP2 MSTORE PUSH1 0x20 ADD DUP1 PUSH32 0x4552433732313A20617070726F766520746F2063616C6C657200000000000000 DUP2 MSTORE POP PUSH1 0x20 ADD SWAP2 POP POP PUSH1 0x40 MLOAD DUP1 SWAP2 SUB SWAP1 REVERT JUMPDEST DUP1 PUSH1 0x5 PUSH1 0x0 PUSH2 0x1017 PUSH2 0x1573 JUMP JUMPDEST PUSH20 0xFFFFFFFFFFFFFFFFFFFFFFFFFFFFFFFFFFFFFFFF AND PUSH20 0xFFFFFFFFFFFFFFFFFFFFFFFFFFFFFFFFFFFFFFFF AND DUP2 MSTORE PUSH1 0x20 ADD SWAP1 DUP2 MSTORE PUSH1 0x20 ADD PUSH1 0x0 KECCAK256 PUSH1 0x0 DUP5 PUSH20 0xFFFFFFFFFFFFFFFFFFFFFFFFFFFFFFFFFFFFFFFF AND PUSH20 0xFFFFFFFFFFFFFFFFFFFFFFFFFFFFFFFFFFFFFFFF AND DUP2 MSTORE PUSH1 0x20 ADD SWAP1 DUP2 MSTORE PUSH1 0x20 ADD PUSH1 0x0 KECCAK256 PUSH1 0x0 PUSH2 0x100 EXP DUP2 SLOAD DUP2 PUSH1 0xFF MUL NOT AND SWAP1 DUP4 ISZERO ISZERO MUL OR SWAP1 SSTORE POP DUP2 PUSH20 0xFFFFFFFFFFFFFFFFFFFFFFFFFFFFFFFFFFFFFFFF AND PUSH2 0x10C4 PUSH2 0x1573 JUMP JUMPDEST PUSH20 0xFFFFFFFFFFFFFFFFFFFFFFFFFFFFFFFFFFFFFFFF AND PUSH32 0x17307EAB39AB6107E8899845AD3D59BD9653F200F220920489CA2B5937696C31 DUP4 PUSH1 0x40 MLOAD DUP1 DUP3 ISZERO ISZERO DUP2 MSTORE PUSH1 0x20 ADD SWAP2 POP POP PUSH1 0x40 MLOAD DUP1 SWAP2 SUB SWAP1 LOG3 POP POP JUMP JUMPDEST PUSH2 0x1128 PUSH2 0x1122 PUSH2 0x1573 JUMP JUMPDEST DUP4 PUSH2 0x1649 JUMP JUMPDEST PUSH2 0x117D JUMPI PUSH1 0x40 MLOAD PUSH32 0x8C379A000000000000000000000000000000000000000000000000000000000 DUP2 MSTORE PUSH1 0x4 ADD DUP1 DUP1 PUSH1 0x20 ADD DUP3 DUP2 SUB DUP3 MSTORE PUSH1 0x31 DUP2 MSTORE PUSH1 0x20 ADD DUP1 PUSH2 0x27BF PUSH1 0x31 SWAP2 CODECOPY PUSH1 0x40 ADD SWAP2 POP POP PUSH1 0x40 MLOAD DUP1 SWAP2 SUB SWAP1 REVERT JUMPDEST PUSH2 0x1189 DUP5 DUP5 DUP5 DUP5 PUSH2 0x19FA JUMP JUMPDEST POP POP POP POP JUMP JUMPDEST PUSH1 0x60 PUSH2 0x119A DUP3 PUSH2 0x1556 JUMP JUMPDEST PUSH2 0x11EF JUMPI PUSH1 0x40 MLOAD PUSH32 0x8C379A000000000000000000000000000000000000000000000000000000000 DUP2 MSTORE PUSH1 0x4 ADD DUP1 DUP1 PUSH1 0x20 ADD DUP3 DUP2 SUB DUP3 MSTORE PUSH1 0x2F DUP2 MSTORE PUSH1 0x20 ADD DUP1 PUSH2 0x276F PUSH1 0x2F SWAP2 CODECOPY PUSH1 0x40 ADD SWAP2 POP POP PUSH1 0x40 MLOAD DUP1 SWAP2 SUB SWAP1 REVERT JUMPDEST PUSH1 0x60 PUSH1 0x8 PUSH1 0x0 DUP5 DUP2 MSTORE PUSH1 0x20 ADD SWAP1 DUP2 MSTORE PUSH1 0x20 ADD PUSH1 0x0 KECCAK256 DUP1 SLOAD PUSH1 0x1 DUP2 PUSH1 0x1 AND ISZERO PUSH2 0x100 MUL SUB AND PUSH1 0x2 SWAP1 DIV DUP1 PUSH1 0x1F ADD PUSH1 0x20 DUP1 SWAP2 DIV MUL PUSH1 0x20 ADD PUSH1 0x40 MLOAD SWAP1 DUP2 ADD PUSH1 0x40 MSTORE DUP1 SWAP3 SWAP2 SWAP1 DUP2 DUP2 MSTORE PUSH1 0x20 ADD DUP3 DUP1 SLOAD PUSH1 0x1 DUP2 PUSH1 0x1 AND ISZERO PUSH2 0x100 MUL SUB AND PUSH1 0x2 SWAP1 DIV DUP1 ISZERO PUSH2 0x1298 JUMPI DUP1 PUSH1 0x1F LT PUSH2 0x126D JUMPI PUSH2 0x100 DUP1 DUP4 SLOAD DIV MUL DUP4 MSTORE SWAP2 PUSH1 0x20 ADD SWAP2 PUSH2 0x1298 JUMP JUMPDEST DUP3 ADD SWAP2 SWAP1 PUSH1 0x0 MSTORE PUSH1 0x20 PUSH1 0x0 KECCAK256 SWAP1 JUMPDEST DUP2 SLOAD DUP2 MSTORE SWAP1 PUSH1 0x1 ADD SWAP1 PUSH1 0x20 ADD DUP1 DUP4 GT PUSH2 0x127B JUMPI DUP3 SWAP1 SUB PUSH1 0x1F AND DUP3 ADD SWAP2 JUMPDEST POP POP POP POP POP SWAP1 POP PUSH1 0x60 PUSH2 0x12A9 PUSH2 0xD48 JUMP JUMPDEST SWAP1 POP PUSH1 0x0 DUP2 MLOAD EQ ISZERO PUSH2 0x12BF JUMPI DUP2 SWAP3 POP POP POP PUSH2 0x145B JUMP JUMPDEST PUSH1 0x0 DUP3 MLOAD GT ISZERO PUSH2 0x1390 JUMPI DUP1 DUP3 PUSH1 0x40 MLOAD PUSH1 0x20 ADD DUP1 DUP4 DUP1 MLOAD SWAP1 PUSH1 0x20 ADD SWAP1 DUP1 DUP4 DUP4 JUMPDEST PUSH1 0x20 DUP4 LT PUSH2 0x1301 JUMPI DUP1 MLOAD DUP3 MSTORE PUSH1 0x20 DUP3 ADD SWAP2 POP PUSH1 0x20 DUP2 ADD SWAP1 POP PUSH1 0x20 DUP4 SUB SWAP3 POP PUSH2 0x12DE JUMP JUMPDEST PUSH1 0x1 DUP4 PUSH1 0x20 SUB PUSH2 0x100 EXP SUB DUP1 NOT DUP3 MLOAD AND DUP2 DUP5 MLOAD AND DUP1 DUP3 OR DUP6 MSTORE POP POP POP POP POP POP SWAP1 POP ADD DUP3 DUP1 MLOAD SWAP1 PUSH1 0x20 ADD SWAP1 DUP1 DUP4 DUP4 JUMPDEST PUSH1 0x20 DUP4 LT PUSH2 0x1352 JUMPI DUP1 MLOAD DUP3 MSTORE PUSH1 0x20 DUP3 ADD SWAP2 POP PUSH1 0x20 DUP2 ADD SWAP1 POP PUSH1 0x20 DUP4 SUB SWAP3 POP PUSH2 0x132F JUMP JUMPDEST PUSH1 0x1 DUP4 PUSH1 0x20 SUB PUSH2 0x100 EXP SUB DUP1 NOT DUP3 MLOAD AND DUP2 DUP5 MLOAD AND DUP1 DUP3 OR DUP6 MSTORE POP POP POP POP POP POP SWAP1 POP ADD SWAP3 POP POP POP PUSH1 0x40 MLOAD PUSH1 0x20 DUP2 DUP4 SUB SUB DUP2 MSTORE SWAP1 PUSH1 0x40 MSTORE SWAP3 POP POP POP PUSH2 0x145B JUMP JUMPDEST DUP1 PUSH2 0x139A DUP6 PUSH2 0x1A6C JUMP JUMPDEST PUSH1 0x40 MLOAD PUSH1 0x20 ADD DUP1 DUP4 DUP1 MLOAD SWAP1 PUSH1 0x20 ADD SWAP1 DUP1 DUP4 DUP4 JUMPDEST PUSH1 0x20 DUP4 LT PUSH2 0x13D0 JUMPI DUP1 MLOAD DUP3 MSTORE PUSH1 0x20 DUP3 ADD SWAP2 POP PUSH1 0x20 DUP2 ADD SWAP1 POP PUSH1 0x20 DUP4 SUB SWAP3 POP PUSH2 0x13AD JUMP JUMPDEST PUSH1 0x1 DUP4 PUSH1 0x20 SUB PUSH2 0x100 EXP SUB DUP1 NOT DUP3 MLOAD AND DUP2 DUP5 MLOAD AND DUP1 DUP3 OR DUP6 MSTORE POP POP POP POP POP POP SWAP1 POP ADD DUP3 DUP1 MLOAD SWAP1 PUSH1 0x20 ADD SWAP1 DUP1 DUP4 DUP4 JUMPDEST PUSH1 0x20 DUP4 LT PUSH2 0x1421 JUMPI DUP1 MLOAD DUP3 MSTORE PUSH1 0x20 DUP3 ADD SWAP2 POP PUSH1 0x20 DUP2 ADD SWAP1 POP PUSH1 0x20 DUP4 SUB SWAP3 POP PUSH2 0x13FE JUMP JUMPDEST PUSH1 0x1 DUP4 PUSH1 0x20 SUB PUSH2 0x100 EXP SUB DUP1 NOT DUP3 MLOAD AND DUP2 DUP5 MLOAD AND DUP1 DUP3 OR DUP6 MSTORE POP POP POP POP POP POP SWAP1 POP ADD SWAP3 POP POP POP PUSH1 0x40 MLOAD PUSH1 0x20 DUP2 DUP4 SUB SUB DUP2 MSTORE SWAP1 PUSH1 0x40 MSTORE SWAP3 POP POP POP JUMPDEST SWAP2 SWAP1 POP JUMP JUMPDEST PUSH1 0x1 ISZERO ISZERO PUSH1 0xA PUSH1 0x0 SWAP1 SLOAD SWAP1 PUSH2 0x100 EXP SWAP1 DIV PUSH1 0xFF AND ISZERO ISZERO EQ ISZERO PUSH2 0x1490 JUMPI PUSH1 0x0 ISZERO ISZERO PUSH1 0xA PUSH1 0x0 SWAP1 SLOAD SWAP1 PUSH2 0x100 EXP SWAP1 POP POP POP JUMPDEST PUSH1 0x0 ISZERO ISZERO PUSH1 0xA PUSH1 0x0 SWAP1 SLOAD SWAP1 PUSH2 0x100 EXP SWAP1 DIV PUSH1 0xFF AND ISZERO ISZERO EQ ISZERO PUSH2 0x14C0 JUMPI PUSH1 0x1 ISZERO ISZERO PUSH1 0xA PUSH1 0x0 SWAP1 SLOAD SWAP1 PUSH2 0x100 EXP SWAP1 POP POP POP JUMPDEST JUMP JUMPDEST PUSH1 0x0 PUSH1 0x5 PUSH1 0x0 DUP5 PUSH20 0xFFFFFFFFFFFFFFFFFFFFFFFFFFFFFFFFFFFFFFFF AND PUSH20 0xFFFFFFFFFFFFFFFFFFFFFFFFFFFFFFFFFFFFFFFF AND DUP2 MSTORE PUSH1 0x20 ADD SWAP1 DUP2 MSTORE PUSH1 0x20 ADD PUSH1 0x0 KECCAK256 PUSH1 0x0 DUP4 PUSH20 0xFFFFFFFFFFFFFFFFFFFFFFFFFFFFFFFFFFFFFFFF AND PUSH20 0xFFFFFFFFFFFFFFFFFFFFFFFFFFFFFFFFFFFFFFFF AND DUP2 MSTORE PUSH1 0x20 ADD SWAP1 DUP2 MSTORE PUSH1 0x20 ADD PUSH1 0x0 KECCAK256 PUSH1 0x0 SWAP1 SLOAD SWAP1 PUSH2 0x100 EXP SWAP1 DIV PUSH1 0xFF AND SWAP1 POP SWAP3 SWAP2 POP POP JUMP JUMPDEST PUSH1 0x0 PUSH2 0x156C DUP3 PUSH1 0x2 PUSH2 0x1BB3 SWAP1 SWAP2 SWAP1 PUSH4 0xFFFFFFFF AND JUMP JUMPDEST SWAP1 POP SWAP2 SWAP1 POP JUMP JUMPDEST PUSH1 0x0 CALLER SWAP1 POP SWAP1 JUMP JUMPDEST DUP2 PUSH1 0x4 PUSH1 0x0 DUP4 DUP2 MSTORE PUSH1 0x20 ADD SWAP1 DUP2 MSTORE PUSH1 0x20 ADD PUSH1 0x0 KECCAK256 PUSH1 0x0 PUSH2 0x100 EXP DUP2 SLOAD DUP2 PUSH20 0xFFFFFFFFFFFFFFFFFFFFFFFFFFFFFFFFFFFFFFFF MUL NOT AND SWAP1 DUP4 PUSH20 0xFFFFFFFFFFFFFFFFFFFFFFFFFFFFFFFFFFFFFFFF AND MUL OR SWAP1 SSTORE POP DUP1 DUP3 PUSH20 0xFFFFFFFFFFFFFFFFFFFFFFFFFFFFFFFFFFFFFFFF AND PUSH2 0x15EE DUP4 PUSH2 0xD11 JUMP JUMPDEST PUSH20 0xFFFFFFFFFFFFFFFFFFFFFFFFFFFFFFFFFFFFFFFF AND PUSH32 0x8C5BE1E5EBEC7D5BD14F71427D1E84F3DD0314C0F7B2291E5B200AC8C7C3B925 PUSH1 0x40 MLOAD PUSH1 0x40 MLOAD DUP1 SWAP2 SUB SWAP1 LOG4 POP POP JUMP JUMPDEST PUSH1 0x0 PUSH2 0x1642 DUP3 PUSH1 0x0 ADD PUSH2 0x1BCD JUMP JUMPDEST SWAP1 POP SWAP2 SWAP1 POP JUMP JUMPDEST PUSH1 0x0 PUSH2 0x1654 DUP3 PUSH2 0x1556 JUMP JUMPDEST PUSH2 0x16A9 JUMPI PUSH1 0x40 MLOAD PUSH32 0x8C379A000000000000000000000000000000000000000000000000000000000 DUP2 MSTORE PUSH1 0x4 ADD DUP1 DUP1 PUSH1 0x20 ADD DUP3 DUP2 SUB DUP3 MSTORE PUSH1 0x2C DUP2 MSTORE PUSH1 0x20 ADD DUP1 PUSH2 0x2641 PUSH1 0x2C SWAP2 CODECOPY PUSH1 0x40 ADD SWAP2 POP POP PUSH1 0x40 MLOAD DUP1 SWAP2 SUB SWAP1 REVERT JUMPDEST PUSH1 0x0 PUSH2 0x16B4 DUP4 PUSH2 0xD11 JUMP JUMPDEST SWAP1 POP DUP1 PUSH20 0xFFFFFFFFFFFFFFFFFFFFFFFFFFFFFFFFFFFFFFFF AND DUP5 PUSH20 0xFFFFFFFFFFFFFFFFFFFFFFFFFFFFFFFFFFFFFFFF AND EQ DUP1 PUSH2 0x1723 JUMPI POP DUP4 PUSH20 0xFFFFFFFFFFFFFFFFFFFFFFFFFFFFFFFFFFFFFFFF AND PUSH2 0x170B DUP5 PUSH2 0x984 JUMP JUMPDEST PUSH20 0xFFFFFFFFFFFFFFFFFFFFFFFFFFFFFFFFFFFFFFFF AND EQ JUMPDEST DUP1 PUSH2 0x1734 JUMPI POP PUSH2 0x1733 DUP2 DUP6 PUSH2 0x14C2 JUMP JUMPDEST JUMPDEST SWAP2 POP POP SWAP3 SWAP2 POP POP JUMP JUMPDEST DUP3 PUSH20 0xFFFFFFFFFFFFFFFFFFFFFFFFFFFFFFFFFFFFFFFF AND PUSH2 0x175D DUP3 PUSH2 0xD11 JUMP JUMPDEST PUSH20 0xFFFFFFFFFFFFFFFFFFFFFFFFFFFFFFFFFFFFFFFF AND EQ PUSH2 0x17C9 JUMPI PUSH1 0x40 MLOAD PUSH32 0x8C379A000000000000000000000000000000000000000000000000000000000 DUP2 MSTORE PUSH1 0x4 ADD DUP1 DUP1 PUSH1 0x20 ADD DUP3 DUP2 SUB DUP3 MSTORE PUSH1 0x29 DUP2 MSTORE PUSH1 0x20 ADD DUP1 PUSH2 0x2746 PUSH1 0x29 SWAP2 CODECOPY PUSH1 0x40 ADD SWAP2 POP POP PUSH1 0x40 MLOAD DUP1 SWAP2 SUB SWAP1 REVERT JUMPDEST PUSH1 0x0 PUSH20 0xFFFFFFFFFFFFFFFFFFFFFFFFFFFFFFFFFFFFFFFF AND DUP3 PUSH20 0xFFFFFFFFFFFFFFFFFFFFFFFFFFFFFFFFFFFFFFFF AND EQ ISZERO PUSH2 0x184F JUMPI PUSH1 0x40 MLOAD PUSH32 0x8C379A000000000000000000000000000000000000000000000000000000000 DUP2 MSTORE PUSH1 0x4 ADD DUP1 DUP1 PUSH1 0x20 ADD DUP3 DUP2 SUB DUP3 MSTORE PUSH1 0x24 DUP2 MSTORE PUSH1 0x20 ADD DUP1 PUSH2 0x25F7 PUSH1 0x24 SWAP2 CODECOPY PUSH1 0x40 ADD SWAP2 POP POP PUSH1 0x40 MLOAD DUP1 SWAP2 SUB SWAP1 REVERT JUMPDEST PUSH2 0x185A DUP4 DUP4 DUP4 PUSH2 0x1BDE JUMP JUMPDEST PUSH2 0x1865 PUSH1 0x0 DUP3 PUSH2 0x157B JUMP JUMPDEST PUSH2 0x18B6 DUP2 PUSH1 0x1 PUSH1 0x0 DUP7 PUSH20 0xFFFFFFFFFFFFFFFFFFFFFFFFFFFFFFFFFFFFFFFF AND PUSH20 0xFFFFFFFFFFFFFFFFFFFFFFFFFFFFFFFFFFFFFFFF AND DUP2 MSTORE PUSH1 0x20 ADD SWAP1 DUP2 MSTORE PUSH1 0x20 ADD PUSH1 0x0 KECCAK256 PUSH2 0x1BE3 SWAP1 SWAP2 SWAP1 PUSH4 0xFFFFFFFF AND JUMP JUMPDEST POP PUSH2 0x1908 DUP2 PUSH1 0x1 PUSH1 0x0 DUP6 PUSH20 0xFFFFFFFFFFFFFFFFFFFFFFFFFFFFFFFFFFFFFFFF AND PUSH20 0xFFFFFFFFFFFFFFFFFFFFFFFFFFFFFFFFFFFFFFFF AND DUP2 MSTORE PUSH1 0x20 ADD SWAP1 DUP2 MSTORE PUSH1 0x20 ADD PUSH1 0x0 KECCAK256 PUSH2 0x1BFD SWAP1 SWAP2 SWAP1 PUSH4 0xFFFFFFFF AND JUMP JUMPDEST POP PUSH2 0x191F DUP2 DUP4 PUSH1 0x2 PUSH2 0x1C17 SWAP1 SWAP3 SWAP2 SWAP1 PUSH4 0xFFFFFFFF AND JUMP JUMPDEST POP DUP1 DUP3 PUSH20 0xFFFFFFFFFFFFFFFFFFFFFFFFFFFFFFFFFFFFFFFF AND DUP5 PUSH20 0xFFFFFFFFFFFFFFFFFFFFFFFFFFFFFFFFFFFFFFFF AND PUSH32 0xDDF252AD1BE2C89B69C2B068FC378DAA952BA7F163C4A11628F55A4DF523B3EF PUSH1 0x40 MLOAD PUSH1 0x40 MLOAD DUP1 SWAP2 SUB SWAP1 LOG4 POP POP POP JUMP JUMPDEST PUSH1 0x0 PUSH2 0x198F DUP4 PUSH1 0x0 ADD DUP4 PUSH2 0x1C4C JUMP JUMPDEST PUSH1 0x0 SHR SWAP1 POP SWAP3 SWAP2 POP POP JUMP JUMPDEST PUSH1 0x0 DUP1 PUSH1 0x0 DUP1 PUSH2 0x19AD DUP7 PUSH1 0x0 ADD DUP7 PUSH2 0x1CCF JUMP JUMPDEST SWAP2 POP SWAP2 POP DUP2 PUSH1 0x0 SHR DUP2 PUSH1 0x0 SHR SWAP4 POP SWAP4 POP POP POP SWAP3 POP SWAP3 SWAP1 POP JUMP JUMPDEST PUSH1 0x0 PUSH2 0x19D9 DUP5 PUSH1 0x0 ADD DUP5 PUSH1 0x0 SHL DUP5 PUSH2 0x1D68 JUMP JUMPDEST PUSH1 0x0 SHR SWAP1 POP SWAP4 SWAP3 POP POP POP JUMP JUMPDEST PUSH1 0x0 PUSH2 0x19F3 DUP3 PUSH1 0x0 ADD PUSH2 0x1E5E JUMP JUMPDEST SWAP1 POP SWAP2 SWAP1 POP JUMP JUMPDEST PUSH2 0x1A05 DUP5 DUP5 DUP5 PUSH2 0x173D JUMP JUMPDEST PUSH2 0x1A11 DUP5 DUP5 DUP5 DUP5 PUSH2 0x1E6F JUMP JUMPDEST PUSH2 0x1A66 JUMPI PUSH1 0x40 MLOAD PUSH32 0x8C379A000000000000000000000000000000000000000000000000000000000 DUP2 MSTORE PUSH1 0x4 ADD DUP1 DUP1 PUSH1 0x20 ADD DUP3 DUP2 SUB DUP3 MSTORE PUSH1 0x32 DUP2 MSTORE PUSH1 0x20 ADD DUP1 PUSH2 0x25C5 PUSH1 0x32 SWAP2 CODECOPY PUSH1 0x40 ADD SWAP2 POP POP PUSH1 0x40 MLOAD DUP1 SWAP2 SUB SWAP1 REVERT JUMPDEST POP POP POP POP JUMP JUMPDEST PUSH1 0x60 PUSH1 0x0 DUP3 EQ ISZERO PUSH2 0x1AB4 JUMPI PUSH1 0x40 MLOAD DUP1 PUSH1 0x40 ADD PUSH1 0x40 MSTORE DUP1 PUSH1 0x1 DUP2 MSTORE PUSH1 0x20 ADD PUSH32 0x3000000000000000000000000000000000000000000000000000000000000000 DUP2 MSTORE POP SWAP1 POP PUSH2 0x1BAE JUMP JUMPDEST PUSH1 0x0 DUP3 SWAP1 POP PUSH1 0x0 JUMPDEST PUSH1 0x0 DUP3 EQ PUSH2 0x1ADE JUMPI DUP1 DUP1 PUSH1 0x1 ADD SWAP2 POP POP PUSH1 0xA DUP3 DUP2 PUSH2 0x1AD6 JUMPI INVALID JUMPDEST DIV SWAP2 POP PUSH2 0x1ABC JUMP JUMPDEST PUSH1 0x60 DUP2 PUSH8 0xFFFFFFFFFFFFFFFF DUP2 GT DUP1 ISZERO PUSH2 0x1AF7 JUMPI PUSH1 0x0 DUP1 REVERT JUMPDEST POP PUSH1 0x40 MLOAD SWAP1 DUP1 DUP3 MSTORE DUP1 PUSH1 0x1F ADD PUSH1 0x1F NOT AND PUSH1 0x20 ADD DUP3 ADD PUSH1 0x40 MSTORE DUP1 ISZERO PUSH2 0x1B2A JUMPI DUP2 PUSH1 0x20 ADD PUSH1 0x1 DUP3 MUL DUP1 CALLDATASIZE DUP4 CALLDATACOPY DUP1 DUP3 ADD SWAP2 POP POP SWAP1 POP JUMPDEST POP SWAP1 POP PUSH1 0x0 PUSH1 0x1 DUP4 SUB SWAP1 POP DUP6 SWAP4 POP JUMPDEST PUSH1 0x0 DUP5 EQ PUSH2 0x1BA6 JUMPI PUSH1 0xA DUP5 DUP2 PUSH2 0x1B4B JUMPI INVALID JUMPDEST MOD PUSH1 0x30 ADD PUSH1 0xF8 SHL DUP3 DUP3 DUP1 PUSH1 0x1 SWAP1 SUB SWAP4 POP DUP2 MLOAD DUP2 LT PUSH2 0x1B65 JUMPI INVALID JUMPDEST PUSH1 0x20 ADD ADD SWAP1 PUSH31 0xFFFFFFFFFFFFFFFFFFFFFFFFFFFFFFFFFFFFFFFFFFFFFFFFFFFFFFFFFFFFFF NOT AND SWAP1 DUP2 PUSH1 0x0 BYTE SWAP1 MSTORE8 POP PUSH1 0xA DUP5 DUP2 PUSH2 0x1B9E JUMPI INVALID JUMPDEST DIV SWAP4 POP PUSH2 0x1B39 JUMP JUMPDEST DUP2 SWAP5 POP POP POP POP POP JUMPDEST SWAP2 SWAP1 POP JUMP JUMPDEST PUSH1 0x0 PUSH2 0x1BC5 DUP4 PUSH1 0x0 ADD DUP4 PUSH1 0x0 SHL PUSH2 0x2088 JUMP JUMPDEST SWAP1 POP SWAP3 SWAP2 POP POP JUMP JUMPDEST PUSH1 0x0 DUP2 PUSH1 0x0 ADD DUP1 SLOAD SWAP1 POP SWAP1 POP SWAP2 SWAP1 POP JUMP JUMPDEST POP POP POP JUMP JUMPDEST PUSH1 0x0 PUSH2 0x1BF5 DUP4 PUSH1 0x0 ADD DUP4 PUSH1 0x0 SHL PUSH2 0x20AB JUMP JUMPDEST SWAP1 POP SWAP3 SWAP2 POP POP JUMP JUMPDEST PUSH1 0x0 PUSH2 0x1C0F DUP4 PUSH1 0x0 ADD DUP4 PUSH1 0x0 SHL PUSH2 0x2193 JUMP JUMPDEST SWAP1 POP SWAP3 SWAP2 POP POP JUMP JUMPDEST PUSH1 0x0 PUSH2 0x1C43 DUP5 PUSH1 0x0 ADD DUP5 PUSH1 0x0 SHL DUP5 PUSH20 0xFFFFFFFFFFFFFFFFFFFFFFFFFFFFFFFFFFFFFFFF AND PUSH1 0x0 SHL PUSH2 0x2203 JUMP JUMPDEST SWAP1 POP SWAP4 SWAP3 POP POP POP JUMP JUMPDEST PUSH1 0x0 DUP2 DUP4 PUSH1 0x0 ADD DUP1 SLOAD SWAP1 POP GT PUSH2 0x1CAD JUMPI PUSH1 0x40 MLOAD PUSH32 0x8C379A000000000000000000000000000000000000000000000000000000000 DUP2 MSTORE PUSH1 0x4 ADD DUP1 DUP1 PUSH1 0x20 ADD DUP3 DUP2 SUB DUP3 MSTORE PUSH1 0x22 DUP2 MSTORE PUSH1 0x20 ADD DUP1 PUSH2 0x25A3 PUSH1 0x22 SWAP2 CODECOPY PUSH1 0x40 ADD SWAP2 POP POP PUSH1 0x40 MLOAD DUP1 SWAP2 SUB SWAP1 REVERT JUMPDEST DUP3 PUSH1 0x0 ADD DUP3 DUP2 SLOAD DUP2 LT PUSH2 0x1CBC JUMPI INVALID JUMPDEST SWAP1 PUSH1 0x0 MSTORE PUSH1 0x20 PUSH1 0x0 KECCAK256 ADD SLOAD SWAP1 POP SWAP3 SWAP2 POP POP JUMP JUMPDEST PUSH1 0x0 DUP1 DUP3 DUP5 PUSH1 0x0 ADD DUP1 SLOAD SWAP1 POP GT PUSH2 0x1D31 JUMPI PUSH1 0x40 MLOAD PUSH32 0x8C379A000000000000000000000000000000000000000000000000000000000 DUP2 MSTORE PUSH1 0x4 ADD DUP1 DUP1 PUSH1 0x20 ADD DUP3 DUP2 SUB DUP3 MSTORE PUSH1 0x22 DUP2 MSTORE PUSH1 0x20 ADD DUP1 PUSH2 0x26F8 PUSH1 0x22 SWAP2 CODECOPY PUSH1 0x40 ADD SWAP2 POP POP PUSH1 0x40 MLOAD DUP1 SWAP2 SUB SWAP1 REVERT JUMPDEST PUSH1 0x0 DUP5 PUSH1 0x0 ADD DUP5 DUP2 SLOAD DUP2 LT PUSH2 0x1D42 JUMPI INVALID JUMPDEST SWAP1 PUSH1 0x0 MSTORE PUSH1 0x20 PUSH1 0x0 KECCAK256 SWAP1 PUSH1 0x2 MUL ADD SWAP1 POP DUP1 PUSH1 0x0 ADD SLOAD DUP2 PUSH1 0x1 ADD SLOAD SWAP3 POP SWAP3 POP POP SWAP3 POP SWAP3 SWAP1 POP JUMP JUMPDEST PUSH1 0x0 DUP1 DUP5 PUSH1 0x1 ADD PUSH1 0x0 DUP6 DUP2 MSTORE PUSH1 0x20 ADD SWAP1 DUP2 MSTORE PUSH1 0x20 ADD PUSH1 0x0 KECCAK256 SLOAD SWAP1 POP PUSH1 0x0 DUP2 EQ ISZERO DUP4 SWAP1 PUSH2 0x1E2F JUMPI PUSH1 0x40 MLOAD PUSH32 0x8C379A000000000000000000000000000000000000000000000000000000000 DUP2 MSTORE PUSH1 0x4 ADD DUP1 DUP1 PUSH1 0x20 ADD DUP3 DUP2 SUB DUP3 MSTORE DUP4 DUP2 DUP2 MLOAD DUP2 MSTORE PUSH1 0x20 ADD SWAP2 POP DUP1 MLOAD SWAP1 PUSH1 0x20 ADD SWAP1 DUP1 DUP4 DUP4 PUSH1 0x0 JUMPDEST DUP4 DUP2 LT ISZERO PUSH2 0x1DF4 JUMPI DUP1 DUP3 ADD MLOAD DUP2 DUP5 ADD MSTORE PUSH1 0x20 DUP2 ADD SWAP1 POP PUSH2 0x1DD9 JUMP JUMPDEST POP POP POP POP SWAP1 POP SWAP1 DUP2 ADD SWAP1 PUSH1 0x1F AND DUP1 ISZERO PUSH2 0x1E21 JUMPI DUP1 DUP3 SUB DUP1 MLOAD PUSH1 0x1 DUP4 PUSH1 0x20 SUB PUSH2 0x100 EXP SUB NOT AND DUP2 MSTORE PUSH1 0x20 ADD SWAP2 POP JUMPDEST POP SWAP3 POP POP POP PUSH1 0x40 MLOAD DUP1 SWAP2 SUB SWAP1 REVERT JUMPDEST POP DUP5 PUSH1 0x0 ADD PUSH1 0x1 DUP3 SUB DUP2 SLOAD DUP2 LT PUSH2 0x1E42 JUMPI INVALID JUMPDEST SWAP1 PUSH1 0x0 MSTORE PUSH1 0x20 PUSH1 0x0 KECCAK256 SWAP1 PUSH1 0x2 MUL ADD PUSH1 0x1 ADD SLOAD SWAP2 POP POP SWAP4 SWAP3 POP POP POP JUMP JUMPDEST PUSH1 0x0 DUP2 PUSH1 0x0 ADD DUP1 SLOAD SWAP1 POP SWAP1 POP SWAP2 SWAP1 POP JUMP JUMPDEST PUSH1 0x0 PUSH2 0x1E90 DUP5 PUSH20 0xFFFFFFFFFFFFFFFFFFFFFFFFFFFFFFFFFFFFFFFF AND PUSH2 0x22DF JUMP JUMPDEST PUSH2 0x1E9D JUMPI PUSH1 0x1 SWAP1 POP PUSH2 0x2080 JUMP JUMPDEST PUSH1 0x60 PUSH2 0x2007 PUSH4 0x150B7A02 PUSH1 0xE0 SHL PUSH2 0x1EB2 PUSH2 0x1573 JUMP JUMPDEST DUP9 DUP8 DUP8 PUSH1 0x40 MLOAD PUSH1 0x24 ADD DUP1 DUP6 PUSH20 0xFFFFFFFFFFFFFFFFFFFFFFFFFFFFFFFFFFFFFFFF AND DUP2 MSTORE PUSH1 0x20 ADD DUP5 PUSH20 0xFFFFFFFFFFFFFFFFFFFFFFFFFFFFFFFFFFFFFFFF AND DUP2 MSTORE PUSH1 0x20 ADD DUP4 DUP2 MSTORE PUSH1 0x20 ADD DUP1 PUSH1 0x20 ADD DUP3 DUP2 SUB DUP3 MSTORE DUP4 DUP2 DUP2 MLOAD DUP2 MSTORE PUSH1 0x20 ADD SWAP2 POP DUP1 MLOAD SWAP1 PUSH1 0x20 ADD SWAP1 DUP1 DUP4 DUP4 PUSH1 0x0 JUMPDEST DUP4 DUP2 LT ISZERO PUSH2 0x1F36 JUMPI DUP1 DUP3 ADD MLOAD DUP2 DUP5 ADD MSTORE PUSH1 0x20 DUP2 ADD SWAP1 POP PUSH2 0x1F1B JUMP JUMPDEST POP POP POP POP SWAP1 POP SWAP1 DUP2 ADD SWAP1 PUSH1 0x1F AND DUP1 ISZERO PUSH2 0x1F63 JUMPI DUP1 DUP3 SUB DUP1 MLOAD PUSH1 0x1 DUP4 PUSH1 0x20 SUB PUSH2 0x100 EXP SUB NOT AND DUP2 MSTORE PUSH1 0x20 ADD SWAP2 POP JUMPDEST POP SWAP6 POP POP POP POP POP POP PUSH1 0x40 MLOAD PUSH1 0x20 DUP2 DUP4 SUB SUB DUP2 MSTORE SWAP1 PUSH1 0x40 MSTORE SWAP1 PUSH28 0xFFFFFFFFFFFFFFFFFFFFFFFFFFFFFFFFFFFFFFFFFFFFFFFFFFFFFFFF NOT AND PUSH1 0x20 DUP3 ADD DUP1 MLOAD PUSH28 0xFFFFFFFFFFFFFFFFFFFFFFFFFFFFFFFFFFFFFFFFFFFFFFFFFFFFFFFF DUP4 DUP2 DUP4 AND OR DUP4 MSTORE POP POP POP POP PUSH1 0x40 MLOAD DUP1 PUSH1 0x60 ADD PUSH1 0x40 MSTORE DUP1 PUSH1 0x32 DUP2 MSTORE PUSH1 0x20 ADD PUSH2 0x25C5 PUSH1 0x32 SWAP2 CODECOPY DUP8 PUSH20 0xFFFFFFFFFFFFFFFFFFFFFFFFFFFFFFFFFFFFFFFF AND PUSH2 0x22F2 SWAP1 SWAP3 SWAP2 SWAP1 PUSH4 0xFFFFFFFF AND JUMP JUMPDEST SWAP1 POP PUSH1 0x0 DUP2 DUP1 PUSH1 0x20 ADD SWAP1 MLOAD PUSH1 0x20 DUP2 LT ISZERO PUSH2 0x2020 JUMPI PUSH1 0x0 DUP1 REVERT JUMPDEST DUP2 ADD SWAP1 DUP1 DUP1 MLOAD SWAP1 PUSH1 0x20 ADD SWAP1 SWAP3 SWAP2 SWAP1 POP POP POP SWAP1 POP PUSH4 0x150B7A02 PUSH1 0xE0 SHL PUSH28 0xFFFFFFFFFFFFFFFFFFFFFFFFFFFFFFFFFFFFFFFFFFFFFFFFFFFFFFFF NOT AND DUP2 PUSH28 0xFFFFFFFFFFFFFFFFFFFFFFFFFFFFFFFFFFFFFFFFFFFFFFFFFFFFFFFF NOT AND EQ SWAP3 POP POP POP JUMPDEST SWAP5 SWAP4 POP POP POP POP JUMP JUMPDEST PUSH1 0x0 DUP1 DUP4 PUSH1 0x1 ADD PUSH1 0x0 DUP5 DUP2 MSTORE PUSH1 0x20 ADD SWAP1 DUP2 MSTORE PUSH1 0x20 ADD PUSH1 0x0 KECCAK256 SLOAD EQ ISZERO SWAP1 POP SWAP3 SWAP2 POP POP JUMP JUMPDEST PUSH1 0x0 DUP1 DUP4 PUSH1 0x1 ADD PUSH1 0x0 DUP5 DUP2 MSTORE PUSH1 0x20 ADD SWAP1 DUP2 MSTORE PUSH1 0x20 ADD PUSH1 0x0 KECCAK256 SLOAD SWAP1 POP PUSH1 0x0 DUP2 EQ PUSH2 0x2187 JUMPI PUSH1 0x0 PUSH1 0x1 DUP3 SUB SWAP1 POP PUSH1 0x0 PUSH1 0x1 DUP7 PUSH1 0x0 ADD DUP1 SLOAD SWAP1 POP SUB SWAP1 POP PUSH1 0x0 DUP7 PUSH1 0x0 ADD DUP3 DUP2 SLOAD DUP2 LT PUSH2 0x20F6 JUMPI INVALID JUMPDEST SWAP1 PUSH1 0x0 MSTORE PUSH1 0x20 PUSH1 0x0 KECCAK256 ADD SLOAD SWAP1 POP DUP1 DUP8 PUSH1 0x0 ADD DUP5 DUP2 SLOAD DUP2 LT PUSH2 0x2113 JUMPI INVALID JUMPDEST SWAP1 PUSH1 0x0 MSTORE PUSH1 0x20 PUSH1 0x0 KECCAK256 ADD DUP2 SWAP1 SSTORE POP PUSH1 0x1 DUP4 ADD DUP8 PUSH1 0x1 ADD PUSH1 0x0 DUP4 DUP2 MSTORE PUSH1 0x20 ADD SWAP1 DUP2 MSTORE PUSH1 0x20 ADD PUSH1 0x0 KECCAK256 DUP2 SWAP1 SSTORE POP DUP7 PUSH1 0x0 ADD DUP1 SLOAD DUP1 PUSH2 0x214B JUMPI INVALID JUMPDEST PUSH1 0x1 SWAP1 SUB DUP2 DUP2 SWAP1 PUSH1 0x0 MSTORE PUSH1 0x20 PUSH1 0x0 KECCAK256 ADD PUSH1 0x0 SWAP1 SSTORE SWAP1 SSTORE DUP7 PUSH1 0x1 ADD PUSH1 0x0 DUP8 DUP2 MSTORE PUSH1 0x20 ADD SWAP1 DUP2 MSTORE PUSH1 0x20 ADD PUSH1 0x0 KECCAK256 PUSH1 0x0 SWAP1 SSTORE PUSH1 0x1 SWAP5 POP POP POP POP POP PUSH2 0x218D JUMP JUMPDEST PUSH1 0x0 SWAP2 POP POP JUMPDEST SWAP3 SWAP2 POP POP JUMP JUMPDEST PUSH1 0x0 PUSH2 0x219F DUP4 DUP4 PUSH2 0x230A JUMP JUMPDEST PUSH2 0x21F8 JUMPI DUP3 PUSH1 0x0 ADD DUP3 SWAP1 DUP1 PUSH1 0x1 DUP2 SLOAD ADD DUP1 DUP3 SSTORE DUP1 SWAP2 POP POP PUSH1 0x1 SWAP1 SUB SWAP1 PUSH1 0x0 MSTORE PUSH1 0x20 PUSH1 0x0 KECCAK256 ADD PUSH1 0x0 SWAP1 SWAP2 SWAP1 SWAP2 SWAP1 SWAP2 POP SSTORE DUP3 PUSH1 0x0 ADD DUP1 SLOAD SWAP1 POP DUP4 PUSH1 0x1 ADD PUSH1 0x0 DUP5 DUP2 MSTORE PUSH1 0x20 ADD SWAP1 DUP2 MSTORE PUSH1 0x20 ADD PUSH1 0x0 KECCAK256 DUP2 SWAP1 SSTORE POP PUSH1 0x1 SWAP1 POP PUSH2 0x21FD JUMP JUMPDEST PUSH1 0x0 SWAP1 POP JUMPDEST SWAP3 SWAP2 POP POP JUMP JUMPDEST PUSH1 0x0 DUP1 DUP5 PUSH1 0x1 ADD PUSH1 0x0 DUP6 DUP2 MSTORE PUSH1 0x20 ADD SWAP1 DUP2 MSTORE PUSH1 0x20 ADD PUSH1 0x0 KECCAK256 SLOAD SWAP1 POP PUSH1 0x0 DUP2 EQ ISZERO PUSH2 0x22AA JUMPI DUP5 PUSH1 0x0 ADD PUSH1 0x40 MLOAD DUP1 PUSH1 0x40 ADD PUSH1 0x40 MSTORE DUP1 DUP7 DUP2 MSTORE PUSH1 0x20 ADD DUP6 DUP2 MSTORE POP SWAP1 DUP1 PUSH1 0x1 DUP2 SLOAD ADD DUP1 DUP3 SSTORE DUP1 SWAP2 POP POP PUSH1 0x1 SWAP1 SUB SWAP1 PUSH1 0x0 MSTORE PUSH1 0x20 PUSH1 0x0 KECCAK256 SWAP1 PUSH1 0x2 MUL ADD PUSH1 0x0 SWAP1 SWAP2 SWAP1 SWAP2 SWAP1 SWAP2 POP PUSH1 0x0 DUP3 ADD MLOAD DUP2 PUSH1 0x0 ADD SSTORE PUSH1 0x20 DUP3 ADD MLOAD DUP2 PUSH1 0x1 ADD SSTORE POP POP DUP5 PUSH1 0x0 ADD DUP1 SLOAD SWAP1 POP DUP6 PUSH1 0x1 ADD PUSH1 0x0 DUP7 DUP2 MSTORE PUSH1 0x20 ADD SWAP1 DUP2 MSTORE PUSH1 0x20 ADD PUSH1 0x0 KECCAK256 DUP2 SWAP1 SSTORE POP PUSH1 0x1 SWAP2 POP POP PUSH2 0x22D8 JUMP JUMPDEST DUP3 DUP6 PUSH1 0x0 ADD PUSH1 0x1 DUP4 SUB DUP2 SLOAD DUP2 LT PUSH2 0x22BD JUMPI INVALID JUMPDEST SWAP1 PUSH1 0x0 MSTORE PUSH1 0x20 PUSH1 0x0 KECCAK256 SWAP1 PUSH1 0x2 MUL ADD PUSH1 0x1 ADD DUP2 SWAP1 SSTORE POP PUSH1 0x0 SWAP2 POP POP JUMPDEST SWAP4 SWAP3 POP POP POP JUMP JUMPDEST PUSH1 0x0 DUP1 DUP3 EXTCODESIZE SWAP1 POP PUSH1 0x0 DUP2 GT SWAP2 POP POP SWAP2 SWAP1 POP JUMP JUMPDEST PUSH1 0x60 PUSH2 0x2301 DUP5 DUP5 PUSH1 0x0 DUP6 PUSH2 0x232D JUMP JUMPDEST SWAP1 POP SWAP4 SWAP3 POP POP POP JUMP JUMPDEST PUSH1 0x0 DUP1 DUP4 PUSH1 0x1 ADD PUSH1 0x0 DUP5 DUP2 MSTORE PUSH1 0x20 ADD SWAP1 DUP2 MSTORE PUSH1 0x20 ADD PUSH1 0x0 KECCAK256 SLOAD EQ ISZERO SWAP1 POP SWAP3 SWAP2 POP POP JUMP JUMPDEST PUSH1 0x60 DUP3 SELFBALANCE LT ISZERO PUSH2 0x2388 JUMPI PUSH1 0x40 MLOAD PUSH32 0x8C379A000000000000000000000000000000000000000000000000000000000 DUP2 MSTORE PUSH1 0x4 ADD DUP1 DUP1 PUSH1 0x20 ADD DUP3 DUP2 SUB DUP3 MSTORE PUSH1 0x26 DUP2 MSTORE PUSH1 0x20 ADD DUP1 PUSH2 0x261B PUSH1 0x26 SWAP2 CODECOPY PUSH1 0x40 ADD SWAP2 POP POP PUSH1 0x40 MLOAD DUP1 SWAP2 SUB SWAP1 REVERT JUMPDEST PUSH2 0x2391 DUP6 PUSH2 0x22DF JUMP JUMPDEST PUSH2 0x2403 JUMPI PUSH1 0x40 MLOAD PUSH32 0x8C379A000000000000000000000000000000000000000000000000000000000 DUP2 MSTORE PUSH1 0x4 ADD DUP1 DUP1 PUSH1 0x20 ADD DUP3 DUP2 SUB DUP3 MSTORE PUSH1 0x1D DUP2 MSTORE PUSH1 0x20 ADD DUP1 PUSH32 0x416464726573733A2063616C6C20746F206E6F6E2D636F6E7472616374000000 DUP2 MSTORE POP PUSH1 0x20 ADD SWAP2 POP POP PUSH1 0x40 MLOAD DUP1 SWAP2 SUB SWAP1 REVERT JUMPDEST PUSH1 0x0 PUSH1 0x60 DUP7 PUSH20 0xFFFFFFFFFFFFFFFFFFFFFFFFFFFFFFFFFFFFFFFF AND DUP6 DUP8 PUSH1 0x40 MLOAD DUP1 DUP3 DUP1 MLOAD SWAP1 PUSH1 0x20 ADD SWAP1 DUP1 DUP4 DUP4 JUMPDEST PUSH1 0x20 DUP4 LT PUSH2 0x2453 JUMPI DUP1 MLOAD DUP3 MSTORE PUSH1 0x20 DUP3 ADD SWAP2 POP PUSH1 0x20 DUP2 ADD SWAP1 POP PUSH1 0x20 DUP4 SUB SWAP3 POP PUSH2 0x2430 JUMP JUMPDEST PUSH1 0x1 DUP4 PUSH1 0x20 SUB PUSH2 0x100 EXP SUB DUP1 NOT DUP3 MLOAD AND DUP2 DUP5 MLOAD AND DUP1 DUP3 OR DUP6 MSTORE POP POP POP POP POP POP SWAP1 POP ADD SWAP2 POP POP PUSH1 0x0 PUSH1 0x40 MLOAD DUP1 DUP4 SUB DUP2 DUP6 DUP8 GAS CALL SWAP3 POP POP POP RETURNDATASIZE DUP1 PUSH1 0x0 DUP2 EQ PUSH2 0x24B5 JUMPI PUSH1 0x40 MLOAD SWAP2 POP PUSH1 0x1F NOT PUSH1 0x3F RETURNDATASIZE ADD AND DUP3 ADD PUSH1 0x40 MSTORE RETURNDATASIZE DUP3 MSTORE RETURNDATASIZE PUSH1 0x0 PUSH1 0x20 DUP5 ADD RETURNDATACOPY PUSH2 0x24BA JUMP JUMPDEST PUSH1 0x60 SWAP2 POP JUMPDEST POP SWAP2 POP SWAP2 POP PUSH2 0x24CA DUP3 DUP3 DUP7 PUSH2 0x24D6 JUMP JUMPDEST SWAP3 POP POP POP SWAP5 SWAP4 POP POP POP POP JUMP JUMPDEST PUSH1 0x60 DUP4 ISZERO PUSH2 0x24E6 JUMPI DUP3 SWAP1 POP PUSH2 0x259B JUMP JUMPDEST PUSH1 0x0 DUP4 MLOAD GT ISZERO PUSH2 0x24F9 JUMPI DUP3 MLOAD DUP1 DUP5 PUSH1 0x20 ADD REVERT JUMPDEST DUP2 PUSH1 0x40 MLOAD PUSH32 0x8C379A000000000000000000000000000000000000000000000000000000000 DUP2 MSTORE PUSH1 0x4 ADD DUP1 DUP1 PUSH1 0x20 ADD DUP3 DUP2 SUB DUP3 MSTORE DUP4 DUP2 DUP2 MLOAD DUP2 MSTORE PUSH1 0x20 ADD SWAP2 POP DUP1 MLOAD SWAP1 PUSH1 0x20 ADD SWAP1 DUP1 DUP4 DUP4 PUSH1 0x0 JUMPDEST DUP4 DUP2 LT ISZERO PUSH2 0x2560 JUMPI DUP1 DUP3 ADD MLOAD DUP2 DUP5 ADD MSTORE PUSH1 0x20 DUP2 ADD SWAP1 POP PUSH2 0x2545 JUMP JUMPDEST POP POP POP POP SWAP1 POP SWAP1 DUP2 ADD SWAP1 PUSH1 0x1F AND DUP1 ISZERO PUSH2 0x258D JUMPI DUP1 DUP3 SUB DUP1 MLOAD PUSH1 0x1 DUP4 PUSH1 0x20 SUB PUSH2 0x100 EXP SUB NOT AND DUP2 MSTORE PUSH1 0x20 ADD SWAP2 POP JUMPDEST POP SWAP3 POP POP POP PUSH1 0x40 MLOAD DUP1 SWAP2 SUB SWAP1 REVERT JUMPDEST SWAP4 SWAP3 POP POP POP JUMP INVALID GASLIMIT PUSH15 0x756D657261626C655365743A20696E PUSH5 0x6578206F75 PUSH21 0x206F6620626F756E64734552433732313A20747261 PUSH15 0x7366657220746F206E6F6E20455243 CALLDATACOPY ORIGIN BALANCE MSTORE PUSH6 0x636569766572 KECCAK256 PUSH10 0x6D706C656D656E746572 GASLIMIT MSTORE NUMBER CALLDATACOPY ORIGIN BALANCE GASPRICE KECCAK256 PUSH21 0x72616E7366657220746F20746865207A65726F2061 PUSH5 0x6472657373 COINBASE PUSH5 0x6472657373 GASPRICE KECCAK256 PUSH10 0x6E73756666696369656E PUSH21 0x2062616C616E636520666F722063616C6C45524337 ORIGIN BALANCE GASPRICE KECCAK256 PUSH16 0x70657261746F7220717565727920666F PUSH19 0x206E6F6E6578697374656E7420746F6B656E45 MSTORE NUMBER CALLDATACOPY ORIGIN BALANCE GASPRICE KECCAK256 PUSH2 0x7070 PUSH19 0x6F76652063616C6C6572206973206E6F74206F PUSH24 0x6E6572206E6F7220617070726F76656420666F7220616C6C GASLIMIT MSTORE NUMBER CALLDATACOPY ORIGIN BALANCE GASPRICE KECCAK256 PUSH3 0x616C61 PUSH15 0x636520717565727920666F72207468 PUSH6 0x207A65726F20 PUSH2 0x6464 PUSH19 0x6573734552433732313A206F776E6572207175 PUSH6 0x727920666F72 KECCAK256 PUSH15 0x6F6E6578697374656E7420746F6B65 PUSH15 0x456E756D657261626C654D61703A20 PUSH10 0x6E646578206F7574206F PUSH7 0x20626F756E6473 GASLIMIT MSTORE NUMBER CALLDATACOPY ORIGIN BALANCE GASPRICE KECCAK256 PUSH2 0x7070 PUSH19 0x6F76656420717565727920666F72206E6F6E65 PUSH25 0x697374656E7420746F6B656E4552433732313A207472616E73 PUSH7 0x6572206F662074 PUSH16 0x6B656E2074686174206973206E6F7420 PUSH16 0x776E4552433732314D65746164617461 GASPRICE KECCAK256 SSTORE MSTORE 0x49 KECCAK256 PUSH18 0x7565727920666F72206E6F6E657869737465 PUSH15 0x7420746F6B656E4552433732313A20 PUSH2 0x7070 PUSH19 0x6F76616C20746F2063757272656E74206F776E PUSH6 0x724552433732 BALANCE GASPRICE KECCAK256 PUSH21 0x72616E736665722063616C6C6572206973206E6F74 KECCAK256 PUSH16 0x776E6572206E6F7220617070726F7665 PUSH5 0xA264697066 PUSH20 0x58221220162E58A3476886DCF5B4ACBB85C6564D 0xAE GT 0xB2 CALLDATACOPY PUSH20 0xB4BDD88788E21C94D8363D64736F6C634300060C STOP CALLER "
				},
				"gasEstimates": {
					"creation": {
						"codeDepositCost": "2055400",
						"executionCost": "infinite",
						"totalCost": "infinite"
					},
					"external": {
						"approve(address,uint256)": "infinite",
						"balanceOf(address)": "infinite",
						"baseURI()": "infinite",
						"getApproved(uint256)": "infinite",
						"isApprovedForAll(address,address)": "1473",
						"lockOrUnlock()": "3666",
						"name()": "infinite",
						"ownerOf(uint256)": "infinite",
						"safeTransferFrom(address,address,uint256)": "infinite",
						"safeTransferFrom(address,address,uint256,bytes)": "infinite",
						"setApprovalForAll(address,bool)": "infinite",
						"supportsInterface(bytes4)": "1271",
						"symbol()": "infinite",
						"tokenByIndex(uint256)": "infinite",
						"tokenOfOwnerByIndex(address,uint256)": "infinite",
						"tokenURI(uint256)": "infinite",
						"totalSupply()": "1142",
						"transferFrom(address,address,uint256)": "infinite"
					},
					"internal": {
						"_approve(address,uint256)": "infinite",
						"_beforeTokenTransfer(address,address,uint256)": "15",
						"_burn(uint256)": "infinite",
						"_checkOnERC721Received(address,address,uint256,bytes memory)": "infinite",
						"_exists(uint256)": "infinite",
						"_isApprovedOrOwner(address,uint256)": "infinite",
						"_mint(address,uint256)": "infinite",
						"_safeMint(address,uint256)": "infinite",
						"_safeMint(address,uint256,bytes memory)": "infinite",
						"_safeTransfer(address,address,uint256,bytes memory)": "infinite",
						"_setBaseURI(string memory)": "infinite",
						"_setTokenURI(uint256,string memory)": "infinite",
						"_transfer(address,address,uint256)": "infinite"
					}
				},
				"methodIdentifiers": {
					"approve(address,uint256)": "095ea7b3",
					"balanceOf(address)": "70a08231",
					"baseURI()": "6c0360eb",
					"getApproved(uint256)": "081812fc",
					"isApprovedForAll(address,address)": "e985e9c5",
					"lockOrUnlock()": "c8f02558",
					"name()": "06fdde03",
					"ownerOf(uint256)": "6352211e",
					"safeTransferFrom(address,address,uint256)": "42842e0e",
					"safeTransferFrom(address,address,uint256,bytes)": "b88d4fde",
					"setApprovalForAll(address,bool)": "a22cb465",
					"supportsInterface(bytes4)": "01ffc9a7",
					"symbol()": "95d89b41",
					"tokenByIndex(uint256)": "4f6ccce7",
					"tokenOfOwnerByIndex(address,uint256)": "2f745c59",
					"tokenURI(uint256)": "c87b56dd",
					"totalSupply()": "18160ddd",
					"transferFrom(address,address,uint256)": "23b872dd"
				}
			},
			"storageLayout": {
				"storage": [
					{
						"astId": 13,
						"contract": ".deps/github/OpenZeppelin/openzeppelin-contracts/contracts/token/ERC721/ERC721.sol:ERC721",
						"label": "_supportedInterfaces",
						"offset": 0,
						"slot": "0",
						"type": "t_mapping(t_bytes4,t_bool)"
					},
					{
						"astId": 469,
						"contract": ".deps/github/OpenZeppelin/openzeppelin-contracts/contracts/token/ERC721/ERC721.sol:ERC721",
						"label": "_holderTokens",
						"offset": 0,
						"slot": "1",
						"type": "t_mapping(t_address,t_struct(UintSet)2864_storage)"
					},
					{
						"astId": 471,
						"contract": ".deps/github/OpenZeppelin/openzeppelin-contracts/contracts/token/ERC721/ERC721.sol:ERC721",
						"label": "_tokenOwners",
						"offset": 0,
						"slot": "2",
						"type": "t_struct(UintToAddressMap)2241_storage"
					},
					{
						"astId": 475,
						"contract": ".deps/github/OpenZeppelin/openzeppelin-contracts/contracts/token/ERC721/ERC721.sol:ERC721",
						"label": "_tokenApprovals",
						"offset": 0,
						"slot": "4",
						"type": "t_mapping(t_uint256,t_address)"
					},
					{
						"astId": 481,
						"contract": ".deps/github/OpenZeppelin/openzeppelin-contracts/contracts/token/ERC721/ERC721.sol:ERC721",
						"label": "_operatorApprovals",
						"offset": 0,
						"slot": "5",
						"type": "t_mapping(t_address,t_mapping(t_address,t_bool))"
					},
					{
						"astId": 483,
						"contract": ".deps/github/OpenZeppelin/openzeppelin-contracts/contracts/token/ERC721/ERC721.sol:ERC721",
						"label": "_name",
						"offset": 0,
						"slot": "6",
						"type": "t_string_storage"
					},
					{
						"astId": 485,
						"contract": ".deps/github/OpenZeppelin/openzeppelin-contracts/contracts/token/ERC721/ERC721.sol:ERC721",
						"label": "_symbol",
						"offset": 0,
						"slot": "7",
						"type": "t_string_storage"
					},
					{
						"astId": 489,
						"contract": ".deps/github/OpenZeppelin/openzeppelin-contracts/contracts/token/ERC721/ERC721.sol:ERC721",
						"label": "_tokenURIs",
						"offset": 0,
						"slot": "8",
						"type": "t_mapping(t_uint256,t_string_storage)"
					},
					{
						"astId": 491,
						"contract": ".deps/github/OpenZeppelin/openzeppelin-contracts/contracts/token/ERC721/ERC721.sol:ERC721",
						"label": "_baseURI",
						"offset": 0,
						"slot": "9",
						"type": "t_string_storage"
					},
					{
						"astId": 494,
						"contract": ".deps/github/OpenZeppelin/openzeppelin-contracts/contracts/token/ERC721/ERC721.sol:ERC721",
						"label": "_locked",
						"offset": 0,
						"slot": "10",
						"type": "t_bool"
					}
				],
				"types": {
					"t_address": {
						"encoding": "inplace",
						"label": "address",
						"numberOfBytes": "20"
					},
					"t_array(t_bytes32)dyn_storage": {
						"base": "t_bytes32",
						"encoding": "dynamic_array",
						"label": "bytes32[]",
						"numberOfBytes": "32"
					},
					"t_array(t_struct(MapEntry)1915_storage)dyn_storage": {
						"base": "t_struct(MapEntry)1915_storage",
						"encoding": "dynamic_array",
						"label": "struct EnumerableMap.MapEntry[]",
						"numberOfBytes": "32"
					},
					"t_bool": {
						"encoding": "inplace",
						"label": "bool",
						"numberOfBytes": "1"
					},
					"t_bytes32": {
						"encoding": "inplace",
						"label": "bytes32",
						"numberOfBytes": "32"
					},
					"t_bytes4": {
						"encoding": "inplace",
						"label": "bytes4",
						"numberOfBytes": "4"
					},
					"t_mapping(t_address,t_bool)": {
						"encoding": "mapping",
						"key": "t_address",
						"label": "mapping(address => bool)",
						"numberOfBytes": "32",
						"value": "t_bool"
					},
					"t_mapping(t_address,t_mapping(t_address,t_bool))": {
						"encoding": "mapping",
						"key": "t_address",
						"label": "mapping(address => mapping(address => bool))",
						"numberOfBytes": "32",
						"value": "t_mapping(t_address,t_bool)"
					},
					"t_mapping(t_address,t_struct(UintSet)2864_storage)": {
						"encoding": "mapping",
						"key": "t_address",
						"label": "mapping(address => struct EnumerableSet.UintSet)",
						"numberOfBytes": "32",
						"value": "t_struct(UintSet)2864_storage"
					},
					"t_mapping(t_bytes32,t_uint256)": {
						"encoding": "mapping",
						"key": "t_bytes32",
						"label": "mapping(bytes32 => uint256)",
						"numberOfBytes": "32",
						"value": "t_uint256"
					},
					"t_mapping(t_bytes4,t_bool)": {
						"encoding": "mapping",
						"key": "t_bytes4",
						"label": "mapping(bytes4 => bool)",
						"numberOfBytes": "32",
						"value": "t_bool"
					},
					"t_mapping(t_uint256,t_address)": {
						"encoding": "mapping",
						"key": "t_uint256",
						"label": "mapping(uint256 => address)",
						"numberOfBytes": "32",
						"value": "t_address"
					},
					"t_mapping(t_uint256,t_string_storage)": {
						"encoding": "mapping",
						"key": "t_uint256",
						"label": "mapping(uint256 => string)",
						"numberOfBytes": "32",
						"value": "t_string_storage"
					},
					"t_string_storage": {
						"encoding": "bytes",
						"label": "string",
						"numberOfBytes": "32"
					},
					"t_struct(Map)1923_storage": {
						"encoding": "inplace",
						"label": "struct EnumerableMap.Map",
						"members": [
							{
								"astId": 1918,
								"contract": ".deps/github/OpenZeppelin/openzeppelin-contracts/contracts/token/ERC721/ERC721.sol:ERC721",
								"label": "_entries",
								"offset": 0,
								"slot": "0",
								"type": "t_array(t_struct(MapEntry)1915_storage)dyn_storage"
							},
							{
								"astId": 1922,
								"contract": ".deps/github/OpenZeppelin/openzeppelin-contracts/contracts/token/ERC721/ERC721.sol:ERC721",
								"label": "_indexes",
								"offset": 0,
								"slot": "1",
								"type": "t_mapping(t_bytes32,t_uint256)"
							}
						],
						"numberOfBytes": "64"
					},
					"t_struct(MapEntry)1915_storage": {
						"encoding": "inplace",
						"label": "struct EnumerableMap.MapEntry",
						"members": [
							{
								"astId": 1912,
								"contract": ".deps/github/OpenZeppelin/openzeppelin-contracts/contracts/token/ERC721/ERC721.sol:ERC721",
								"label": "_key",
								"offset": 0,
								"slot": "0",
								"type": "t_bytes32"
							},
							{
								"astId": 1914,
								"contract": ".deps/github/OpenZeppelin/openzeppelin-contracts/contracts/token/ERC721/ERC721.sol:ERC721",
								"label": "_value",
								"offset": 0,
								"slot": "1",
								"type": "t_bytes32"
							}
						],
						"numberOfBytes": "64"
					},
					"t_struct(Set)2478_storage": {
						"encoding": "inplace",
						"label": "struct EnumerableSet.Set",
						"members": [
							{
								"astId": 2473,
								"contract": ".deps/github/OpenZeppelin/openzeppelin-contracts/contracts/token/ERC721/ERC721.sol:ERC721",
								"label": "_values",
								"offset": 0,
								"slot": "0",
								"type": "t_array(t_bytes32)dyn_storage"
							},
							{
								"astId": 2477,
								"contract": ".deps/github/OpenZeppelin/openzeppelin-contracts/contracts/token/ERC721/ERC721.sol:ERC721",
								"label": "_indexes",
								"offset": 0,
								"slot": "1",
								"type": "t_mapping(t_bytes32,t_uint256)"
							}
						],
						"numberOfBytes": "64"
					},
					"t_struct(UintSet)2864_storage": {
						"encoding": "inplace",
						"label": "struct EnumerableSet.UintSet",
						"members": [
							{
								"astId": 2863,
								"contract": ".deps/github/OpenZeppelin/openzeppelin-contracts/contracts/token/ERC721/ERC721.sol:ERC721",
								"label": "_inner",
								"offset": 0,
								"slot": "0",
								"type": "t_struct(Set)2478_storage"
							}
						],
						"numberOfBytes": "64"
					},
					"t_struct(UintToAddressMap)2241_storage": {
						"encoding": "inplace",
						"label": "struct EnumerableMap.UintToAddressMap",
						"members": [
							{
								"astId": 2240,
								"contract": ".deps/github/OpenZeppelin/openzeppelin-contracts/contracts/token/ERC721/ERC721.sol:ERC721",
								"label": "_inner",
								"offset": 0,
								"slot": "0",
								"type": "t_struct(Map)1923_storage"
							}
						],
						"numberOfBytes": "64"
					},
					"t_uint256": {
						"encoding": "inplace",
						"label": "uint256",
						"numberOfBytes": "32"
					}
				}
			},
			"userdoc": {
				"kind": "user",
				"methods": {},
				"version": 1
			}
		}
	}
}